:020000040000fa
:080000000002040000000000f2
:020000040000fa
:04000800821700005b
:020000040000fa
:04000c008217000057
:020000040000fa
:040010008217000053
:020000040000fa
:04001400821700004f
:020000040000fa
:04001800821700004b
:020000040000fa
:04001c008217000047
:020000040000fa
:040020008217000043
:020000040000fa
:04002400821700003f
:020000040000fa
:04002800821700003b
:020000040000fa
:04002c008217000037
:020000040000fa
:040030008217000033
:020000040000fa
:040034004005000083
:020000040000fa
:04003800721700003b
:020000040000fa
:04003c008217000027
:020000040000fa
:040040008217000023
:020000040000fa
:04004400821700001f
:020000040000fa
:04004800e2160000bc
:020000040000fa
:04004c008217000017
:020000040000fa
:04005000fa020000b0
:020000040000fa
:04005400821700000f
:020000040000fa
:04005800821700000b
:020000040000fa
:04005c008217000007
:020000040000fa
:040060007a1700000b
:020000040000fa
:0400640082170000ff
:020000040000fa
:0400680082170000fb
:020000040000fa
:04006c0082170000f7
:020000040000fa
:0400700082170000f3
:020000040000fa
:04007400aa030000db
:020000040000fa
:0400780082170000eb
:020000040000fa
:04007c0082170000e7
:020000040000fa
:0400800082170000e3
:020000040000fa
:0400840082170000df
:020000040000fa
:0400880082170000db
:020000040000fa
:04008c0082170000d7
:020000040000fa
:0400900082170000d3
:020000040000fa
:0400940082170000cf
:020000040000fa
:04009800f41600005a
:020000040000fa
:04009c0082170000c7
:020000040000fa
:0400a00082170000c3
:020000040000fa
:0400a4000c17000035
:020000040000fa
:0400a80082170000bb
:020000040000fa
:0400ac0080030000cd
:020000040000fa
:0400b00082170000b3
:020000040000fa
:0400b40082170000af
:020000040000fa
:0400b80082170000ab
:020000040000fa
:0400bc0082170000a7
:020000040000fa
:0400c00082170000a3
:020000040000fa
:0400c400821700009f
:020000040000fa
:0400c800821700009b
:020000040000fa
:0400cc008217000097
:020000040000fa
:0400d0008217000093
:020000040000fa
:0400d400821700008f
:020000040000fa
:0400d800821700008b
:020000040000fa
:0400dc008217000087
:020000040000fa
:0400e0008217000083
:020000040000fa
:0400e400821700007f
:020000040000fa
:0400e800821700007b
:020000040000fa
:0400ec008217000077
:020000040000fa
:0400f0008217000073
:020000040000fa
:0400f400821700006f
:020000040000fa
:0400f800821700006b
:020000040000fa
:0400fc008217000067
:020000040000fa
:040100008217000062
:020000040000fa
:04010400821700005e
:020000040000fa
:04010800821700005a
:020000040000fa
:04010c008217000056
:020000040000fa
:040110008217000052
:020000040000fa
:04011400821700004e
:020000040000fa
:04011800821700004a
:020000040000fa
:04011c008217000046
:020000040000fa
:040120008217000042
:020000040000fa
:04012400821700003e
:020000040000fa
:04012800821700003a
:020000040000fa
:04012c008217000036
:020000040000fa
:040130008217000032
:020000040000fa
:04013400821700002e
:020000040000fa
:04013800821700002a
:020000040000fa
:04013c008217000026
:020000040000fa
:040140008217000022
:020000040000fa
:04014400821700001e
:020000040000fa
:04014800821700001a
:020000040000fa
:04014c008217000016
:020000040000fa
:040150008217000012
:020000040000fa
:04015400821700000e
:020000040000fa
:04015800821700000a
:020000040000fa
:04015c008217000006
:020000040000fa
:040160008217000002
:020000040000fa
:0401640082170000fe
:020000040000fa
:0401680082170000fa
:020000040000fa
:04016c0082170000f6
:020000040000fa
:040170006a1700000a
:020000040000fa
:040174003a17000036
:020000040000fa
:0401780082170000ea
:020000040000fa
:04017c0082170000e6
:020000040000fa
:0401800082170000e2
:020000040000fa
:0401840082170000de
:020000040000fa
:0401880082170000da
:020000040000fa
:04018c0082170000d6
:020000040000fa
:0401900082170000d2
:020000040000fa
:0401940082170000ce
:020000040000fa
:0401980082170000ca
:020000040000fa
:04019c0082170000c6
:020000040000fa
:0401a00082170000c2
:020000040000fa
:0401a40082170000be
:020000040000fa
:0401a80082170000ba
:020000040000fa
:0401ac0082170000b6
:020000040000fa
:0401b00082170000b2
:020000040000fa
:0401b40082170000ae
:020000040000fa
:0401b80082170000aa
:020000040000fa
:0401bc0082170000a6
:020000040000fa
:0401c00082170000a2
:020000040000fa
:0401c400821700009e
:020000040000fa
:0401c800821700009a
:020000040000fa
:0401cc008217000096
:020000040000fa
:0401d0008217000092
:020000040000fa
:0401d400821700008e
:020000040000fa
:0401d800821700008a
:020000040000fa
:0401dc008217000086
:020000040000fa
:0401e0008217000082
:020000040000fa
:0401e400821700007e
:020000040000fa
:0401e800821700007a
:020000040000fa
:0401ec008217000076
:020000040000fa
:0401f0008217000072
:020000040000fa
:0401f400821700006e
:020000040000fa
:0401f800821700006a
:020000040000fa
:0401fc008217000066
:020000040000fa
:040200008217000061
:020000040000fa
:04020400821700005d
:020000040000fa
:040208008217000059
:020000040000fa
:04020c008217000055
:020000040000fa
:040210008217000051
:020000040000fa
:04021400821700004d
:020000040000fa
:040218008217000049
:020000040000fa
:04021c008217000045
:020000040000fa
:040220008217000041
:020000040000fa
:04022400821700003d
:020000040000fa
:040228008217000039
:020000040000fa
:04022c008217000035
:020000040000fa
:040230008217000031
:020000040000fa
:04023400821700002d
:020000040000fa
:040238008217000029
:020000040000fa
:04023c008217000025
:020000040000fa
:040240008217000021
:020000040000fa
:04024400821700001d
:020000040000fa
:040248008217000019
:020000040000fa
:04024c008217000015
:020000040000fa
:040250008217000011
:020000040000fa
:04025400821700000d
:020000040000fa
:040258008217000009
:020000040000fa
:04025c008217000005
:020000040000fa
:040260008217000001
:020000040000fa
:0402640082170000fd
:020000040000fa
:0402680082170000f9
:020000040000fa
:04026c0082170000f5
:020000040000fa
:0402700082170000f1
:020000040000fa
:0402740082170000ed
:020000040000fa
:0402780082170000e9
:020000040000fa
:04027c0082170000e5
:020000040000fa
:0402800082170000e1
:020000040000fa
:100400004f2822000eff27000e0188000000000088
:10041000000020000000e000020032000001200087
:100420002002880014000700b80a07000000e0005e
:1004300003003a0000982700010020000200370066
:100440000000200001002000810f70000100320038
:100450000f000700000020000000e0000200320052
:1004600000000200000000001a2802000000000046
:100470000040da000000fe00201a20000000e0002a
:1004800002003200002020009001880000000600d9
:10049000a1028800800478000000eb001f003700f4
:1004a000e284440054a0b4009905ba00e2844400f8
:1004b00054a0b4009906ba00e284440054a0b400e9
:1004c0000006eb00476fde00fd07b200ae018800ba
:1004d000636ce10003003a000ad801000000eb0061
:1004e0000e003700606ce10008003a00004deb00a0
:1004f0000a05e800020039003420ec000af0a000f0
:100500008b05e900f9ff3e00040037006168e10057
:10051000010032000086eb000b00070019c7ba008b
:100520000e04e0001905ba0003003a000a00e000da
:10053000dbff3a0000000600fe07b200ae028800b2
:100540008a047800f5ff37000cd0a300e20f4d00bd
:100550001c00390089027800354dba000a05e80010
:10056000020039003420ec000af0a0008b05e900fd
:100570000f003200254dba000a05e80002003900dc
:100580003420ec000af0a0008b05e90008003200de
:100590000c00e0000600320015cdba000a05e800a4
:1005a000020039003420ec000af0a0008b05e900bd
:1005b0008984e80054a0b4000b00e000e2ff3a0098
:1005c000000006009902ba00055d78008b05e9007d
:1005d000f7ff3200c82ade00055d78008b05e900d0
:1005e000f3ff32000c00e000f1ff320019ddba0029
:1005f000eeff3700809fbe000200fa00401280002c
:10060000004f7800b0cab3009e40780080cf500001
:1006100003003a0040c5b30090f1b7003100370045
:1006200090d1bf000080fb0011062000810f500018
:100630002600320011062000810f50000a003c0005
:1006400071042000810f50001d0032004105200080
:10065000810f50000e00320001022000810f500077
:10066000140032001f00370081062000810f500067
:100670000a003200d1062000810f5000160032001f
:1006800051062000810f500007003200150037008e
:1006900080c6b30090f1b7001200370050c6b30017
:1006a00090f1b7000f00370000c2b30090f1b7001f
:1006b0000c00370070c4b30090f1b7000900370098
:1006c00010c6b30090f1b70006003700d0c6b300e3
:1006d00090f1b7000300370050c6b30090f1b700a7
:1006e0000000000090d1bf000080fb004012880095
:1006f0000148a9000080fa004f00be00004006003b
:100700003600f800809fbe00829fbe00849fbe001e
:10071000869fbe000200fa0040138000004f780060
:1007200080802a00bb2d07001e80fb001b220700d3
:10073000b82d07000428a9000080fa004f03be006e
:100740004f02be004f01be004f00be003600f90050
:10075000004006003600f800809fbe00829fbe0069
:10076000849fbe00869fbe00881f78003200f8007c
:100770003400f80010002000a001880000202000b4
:1007800090018800000000000400fa000268a9003f
:100790000000eb00000f7800f18b800000102000bb
:1007a00080806000107080004800de0061406000c2
:1007b0000080fb00808f50000500320030002000d8
:1007c000000f78000040eb00204798005d003700e4
:1007d000218c8000000024008080600090718000e7
:1007e0004e00de00614060000080fb00808f500002
:1007f0000500320030002000000f780010c0b30068
:10080000204798004f003700318c80000000240002
:1008100080806000107280004e00de006140600049
:100820000080fb00808f5000050032003000200067
:10083000000f780020c0b300204798004100370027
:10084000318c8000000021008080600010728000e8
:100850004c00de00614060000080fb00808f500093
:100860000500320030002000000f780030c0b300d7
:100870002047980033003700418c800000002200a0
:1008800080806000907280004d00de00614060005a
:100890000080fb00808f50000500320030002000f7
:1008a000000f780040c0b3002047980025003700b3
:1008b000118c80000080200080806000107180001a
:1008c0004b00de00614060000080fb00808f500024
:1008d0000500320030002000000f780050c0b30047
:1008e0002047980017003700518c8000000021003d
:1008f00080806000107380004c00de00614060006a
:100900000080fb00808f50000300320010002000a8
:10091000000f78000b003700518c8000000022008f
:1009200080806000107380004d00de006140600038
:100930000080fb00808f5000020032002000200069
:10094000000f78001e007800e20f50002f003200e8
:10095000e30f50002f003a002e4090000080fb0073
:100960006126220000804000104078000004e00072
:10097000110032002e4090000084fb00a00880008f
:100980008000eb006d0c0700c241dd00c226220092
:10099000028141000089be002e4090000080fb00d3
:1009a00061262200008040008040eb000148780072
:1009b00010c0b3003ff0b7002e4090000080fb0055
:1009c0000126220000804000104078000004e00072
:1009d000120032001421ef002e4090000080fb0036
:1009e00001262200008040008040eb000148780092
:1009f0002e4090000080fb00612622000080400015
:100a000011c0b30001487800050037000000000065
:100a10000300370000000000010037000000000064
:100a200010708000f08b880090708000008c88002f
:100a300010718000108c880090718000208c8800dc
:100a400010728000308c880090728000408c88008a
:100a500010738000508c88000080fa003400f90088
:100a60003200f9004f0478004f03be004f02be0071
:100a70004f01be004f00be003600f90000400600e6
:100a80003600f800809fbe00829fbe00849fbe009b
:100a9000869fbe00889fbe008a9fbe008c9fbe00be
:100aa0008a00fa000068a900300e8000700f9800dc
:100ab000302e800000179800c621ef00c625ef00f9
:100ac000618180007e089000008040006081880085
:100ad000718180000e1090000080400070818800bd
:100ae0007e089000cf80de000c0c07000205be00df
:100af0000004be00a0112100900090002001900091
:100b0000b0019000100078000203be000002be0099
:100b10000800be000a01be005d0c07001017980017
:100b20002117980032179800431798000e10900074
:100b3000cf80de00f90b070050179800611798006e
:100b400072179800031f98005e129000ee1290003a
:100b50007e1390008e1b90001e109000ae1090002f
:100b60003e119000ce119000e90807000205be007a
:100b70000004be002012210090009000200190008f
:100b8000b0019000100078000203be000002be0019
:100b90000800be000a01be003d0c07006022b8003c
:100ba0000600200007002400450a0700101f9800d7
:100bb000211f9800321f9800431f98001e129000ba
:100bc000ae1290003e139000ce1390005e10900085
:100bd000ee1090007e1190008e199000250e0700f7
:100be0000205be000004be00a0122100900090008b
:100bf00020019000b0019000100078000203be00b8
:100c00000002be000800be000a01be00200c070062
:100c1000501f9800611f9800721f980003279800ca
:100c2000a00b21009000900020019000b0019000e6
:100c3000100078005e1a9000ee1a90007e1b900063
:100c40008e239000b2080700a40b2100009abe007a
:100c50000292be00a00b21009000900020019000a5
:100c6000b001900010007800070a07001e1a9000db
:100c7000ae1a90003e1b9000ce1b9000040c0700a3
:100c80000205be000004be00a00a210090009000f2
:100c900020019000b0019000100078000203be0017
:100ca0000002be000800be000a01be00980807004e
:100cb000a40a2100009abe000292be00a00b2100ef
:100cc0009000900020019000b0019000100078008a
:100cd000990c07001e1a9000ae1a90003e1b90005f
:100ce000ce1b9000ea0b07000205be000004be0008
:100cf000200b21009000900020019000b001900096
:100d0000100078000203be000002be000800be0012
:100d10000a01be007e080700240b2100009abe00d5
:100d20000292be00c08080000000e800c080880001
:100d3000c0808000e90f5000c20736001830ef0075
:100d400060818000cf80de00740b070010279800c0
:100d5000212798003227980043279800708180004f
:100d6000cf80de006d0b07005027980061279800a8
:100d700072279800032f9800201221009000900005
:100d800020019000b0019000100078001e22900019
:100d9000ae2290003e239000ce239000bc0b0700b3
:100da0006022b80006002400f7082400b80b0700f2
:100db0006022b8000600200047022400c009070096
:100dc0001027980021279800322798004327980081
:100dd000201221009000900020019000b0019000ae
:100de000100078005e229000ee2290007e2390009a
:100df0008e2b9000a60b07006022b800060024008e
:100e0000f7082400a20b07006022b80006002000ab
:100e100047022400aa09070050279800612798007c
:100e200072279800032f98002c30ef002e30ef002f
:100e3000200c210010047800900490002005900000
:100e4000b0059000a00a21009000900020019000c1
:100e5000b0019000100078000203be000002be0046
:100e60000800be000a01be00820d0700830d0700c6
:100e70000006be00a00c2100100478009004900031
:100e800020059000b0059000200b210090009000fc
:100e900020019000b0019000100078000203be0015
:100ea0000002be000800be000a01be00710d07006e
:100eb000720d07000c01be00f1080700102f98000a
:100ec000212f9800a00d21001004780090049000bc
:100ed00020059000b0059000a00a2100900090002d
:100ee00020019000b0019000100078000203be00c5
:100ef0000002be000800be000a01be005d0d070032
:100f00005e0d07000006be00200e210010047800d0
:100f10009004900020059000b0059000200b210067
:100f20009000900020019000b00190001000780027
:100f30000203be000002be000800be000a01be009f
:100f40004c0d07004d0d07000c01be00cc0807003a
:100f5000008fbe0040d0bf000004e0000e00320051
:100f6000b2fd2000930424001e0078009e00900033
:100f700065080700008fbe0008003700b2fd2000a2
:100f8000930c24001e0078009e0090005f0807006c
:100f9000008fbe000100370000000000a00b210000
:100fa0009000900020019000b001900010007800a7
:100fb000320d07000001be001e0078009e00900068
:100fc0005108070018c0b300b2fd200093042c00a4
:100fd000400a07000000e000010035000044eb007b
:100fe0000804e000e5ff3a0006003700b2fd2000eb
:100ff000930c24001e0078009e0090004208070019
:10100000008fbe00a00b21009000900020019000f6
:10101000b001900010007800180d07000001be001c
:101020001e0078009e0090003708070018c0b3002b
:10103000b2fd200093042400280a07000000e0000d
:1010400001003c000044eb000804e000e7ff3a0028
:10105000a00b21009000900020019000b0019000b2
:1010600010007800050d07000001be001e0078008a
:101070009e0090002408070018c0b300b2fd2000b5
:1010800093fc2b00130a07000000e000010035006c
:101090000044eb000804e00006003200b2fd20002e
:1010a000930424001e0078009e009000170807009b
:1010b000008fbe00a00b2100900090002001900046
:1010c000b001900010007800ec0c07000001be0099
:1010d0001e0078009e0090000b08070018c0b300a7
:1010e000b2fd200093fc2300fc0907000000e00093
:1010f00001003c000044eb000804e0000600320060
:10110000b2fd2000930424001e0078009e00900091
:10111000fd070700008fbe00a00a21001004780020
:101120009004900020059000b0059000a00d2100d3
:101130009000900020019000b00190001000780015
:101140000203be000002be000800be000a01be008d
:10115000c80c07000205be000004be00a00a210062
:10116000100278009002900020039000b0039000dd
:10117000542f9800652f9800762f98000737980015
:10118000a00d21009000900020019000b00190007f
:10119000100078000203be000002be005e2890002e
:1011a000ee2890007e2990008e319000b10c07004f
:1011b0000203be000002be000800be000a01be001d
:1011c000b30a07000203be000002be0014379800f5
:1011d000253798003637980047379800200b2100b4
:1011e000100478009004900020059000b005900055
:1011f000200e21009000900020019000b00190008e
:10120000100078000203be000002be000800be000d
:101210000a01be00970c07000203be000002be00d8
:10122000543798006537980076379800073f980044
:10123000200b2100100478009004900020059000fd
:10124000b0059000200e2100900090002001900039
:10125000b0019000100078000203be000002be0042
:101260000800be000a01be00820c07000203be0097
:101270000002be005e309000ee3090007e319000a3
:101280008e399000820a07000203be000002be00f1
:101290001e309000ae3090003e319000ce31900074
:1012a0001b070700750c07003d0c0700302f980046
:1012b000412f9800a00a21001004780090049000ab
:1012c00020059000b0059000200c210090009000b7
:1012d00020019000b0019000100078000203be00d1
:1012e0000002be000800be000a01be00610c07003b
:1012f0000205be000004be00a00a21001002780012
:101300009002900020039000b0039000143f9800da
:10131000253f9800363f9800473f9800200c210059
:101320009000900020019000b00190001000780023
:101330000203be000002be001e389000ae389000ce
:101340003e399000ce3990004a0c07000203be00df
:101350000002be000800be000a01be004c0a0700e1
:101360000203be000002be00543f9800653f980093
:10137000763f980007879800200b21001004780022
:101380009004900020059000b0059000a00c210072
:101390009000900020019000b001900010007800b3
:1013a0000203be000002be000800be000a01be002b
:1013b000300c07000203be000002be001487980034
:1013c000258798003687980047879800200b2100d2
:1013d000100478009004900020059000b005900063
:1013e000a00c21009000900020019000b00190001e
:1013f000100078000203be000002be000800be001c
:101400000a01be001b0c07000203be000002be0062
:101410001e809000ae8090003e819000ce819000b2
:101420001b0a07000203be000002be005e389000e7
:10143000ee3890007e3990008e819000b40607004f
:101440000e0c0700d60b0700200798003107980004
:10145000a00b21009000900020019000b0019000ae
:1014600010007800050c07001e299000ae2990009e
:10147000250707004007980051079800070037002c
:10148000b2fd2000930c24004e009000de0090007e
:101490001d070700400798005107980018c0b300c7
:1014a000b2fd2000930424004e009000de00900066
:1014b0000a0907000000e00001003c000044eb00c6
:1014c0000804e000eeff3a0007003700b2fd2000fc
:1014d000930c24004e009000de0090000b070700e4
:1014e000400798005107980018c0b300b2fd2000d3
:1014f00093042c004e009000de009000f5080700d9
:101500000000e000010035000044eb000804e000aa
:10151000eeff3a0018c0b300b2fd200093fc2b0090
:101520004e009000de009000ec0807000000e00094
:1015300001003c000044eb000804e0001000320011
:1015400018c0b300b2fd200093fc23004e009000b1
:10155000de009000df0807000000e0000100350019
:101560000044eb000804e000050032002e0090006b
:10157000be00900001f0a2002007980031079800fb
:1015800018c0b30002002000832424003e289000ed
:10159000ce289000d10807000000e00001003c00c8
:1015a0000044eb000804e0000b003a0018c0b30050
:1015b0000200200083242c003e289000ce289000ba
:1015c000c40807000000e000010035000044eb0003
:1015d0000804e000080032001e0078009e00900021
:1015e0009d0807000203be000002be008002220028
:1015f0006732070009003700200d2100900090009d
:1016000020019000b0019000100078000203be009d
:101610000002be00800222005d3207002e00900012
:10162000be0090008c0807000203be000002be004e
:1016300000fa210078320700900b0700600798003d
:1016400071079800a00b21009000900020019000ed
:10165000b001900010007800880b07007e0807009a
:101660000203be000002be00800222006a320700b0
:10167000820b0700000f9800110f980018c0b300ec
:1016800002002000030a24003e289000ce2890008b
:10169000900807000000e000010035000044eb0066
:1016a0000804e0000300320010c0b30042f0b700ad
:1016b0000c00370018c0b300020020000312240001
:1016c0003e289000ce289000840807000000e0002b
:1016d00001003c000044eb000804e000010032007f
:1016e0004270ef00800522009000900020019000e1
:1016f000b00190001000780018c0b3000400200072
:1017000005002a009699290097fa2300620707002e
:101710000000e000010035000044eb000804e00098
:1017200013003200800522009000900020019000fc
:10173000b00190001000780018c0b3000400200031
:1017400005002a009699290097fa2b0057070700f1
:101750000000e00001003c000044eb000804e00051
:101760000300320010c0b30043f0b700210037007f
:10177000800522009000900020019000b0019000b0
:101780001000780018c0b3000400200005002a00f3
:101790009699290097fb2300440707000000e0000a
:1017a00001003c000044eb000804e000110032009e
:1017b000800522009000900020019000b001900070
:1017c0001000780018c0b3000400200005002a00b3
:1017d0009699290097fb2b002f0707000000e000d7
:1017e000010035000044eb000804e0000100320075
:1017f0004370ef0042d0bf000004e0000c00320054
:1018000068d1bf000004e000090032006000b800a9
:10181000600798007107980043d0bf000004e00003
:10182000030032006000b800000f9800110f98000c
:101830000e0990009e0990006e009000fe0090003e
:1018400031060700040807000203be000002be00c4
:1018500000e92100ce3107000e0990009e0990009a
:101860006e009000fe00900028060700fa070700af
:101870000203be000002be0080f12100c431070057
:101880001e229000ae2290003e239000ce239000b6
:1018900000e92100e0310700f80a0700200f980056
:1018a000310f98005e229000ee2290007e2390007f
:1018b0008e2b900080f12100d7310700ef0a07003e
:1018c000400f9800510f980000fd210090009000fb
:1018d00020019000b00190001000780018c0b30003
:1018e0006022b8000600200007022400ea06070074
:1018f0000000e000010035000044eb000804e000b7
:101900007d00320000fd2100900090002001900039
:10191000b00190001000780018c0b3006022b80039
:101920000600200007022c00e00607000000e0008f
:1019300001003c000044eb000804e0006e003200af
:10194000800522009000900020019000b0019000de
:101950001000780018c0b3000400200005002a0021
:101960009699290097fa2300cb0607000000e000b3
:10197000010035000044eb000804e0005e00320086
:10198000800522009000900020019000b00190009e
:101990001000780018c0b3000400200005002a00e1
:1019a0009699290097fa2b00c00607000000e00076
:1019b00001003c000044eb000804e0004e0032004f
:1019c00018c0b3006022b8000600200047012400c0
:1019d0001e209000ae2090003e219000ce2190006d
:1019e000ad0607000000e000010035000044eb00f8
:1019f0000804e0004000320018c0b3006022b800c4
:101a00000600200047012c001e209000ae20900010
:101a10003e219000ce219000a40607000000e000c7
:101a200001003c000044eb000804e00032003200fa
:101a300018c0b3006022b80006002000470124004f
:101a40005e209000ee2090007e2190008e29900074
:101a5000910607000000e000010035000044eb00a3
:101a60000804e0002400320018c0b3006022b8006f
:101a70000600200047012c005e209000ee20900020
:101a80007e2190008e299000880607000000e0006b
:101a900001003c000044eb000804e00016003200a6
:101aa00068d1bf00e14f500013003a006000b80059
:101ab000200f9800310f98006000b800400f980088
:101ac000510f980084ed21006000b8006011b8004b
:101ad000009abe000292be0084ed21006000b800b2
:101ae0006011b800009abe000292be0010c0b300a0
:101af0007af1b700010037007a71ef0000818000b1
:101b0000118180000001be004e089000de089000a8
:101b10007d0507000002be00b0888000c1888000fb
:101b200018c0b3000001be000400be006b07070030
:101b30000000e00001003c000044eb000804e0006d
:101b40000a0032000481800015818000b088800086
:101b5000c18880000001be000400be006b050700c4
:101b6000400f9800510f98001c0037000081800042
:101b7000118180000001be004e089000de08900038
:101b8000610507000002be00b0888000c1888000a7
:101b900001f0a20018c0b3000001be000400be00a6
:101ba0004c0707000000e000010035000044eb0096
:101bb0000804e000090032000481800015818000e3
:101bc000b0888000c18880000001be000400be0013
:101bd0004d050700400f9800510f9800e0808000ed
:101be000f18080000001be002e089000be08900029
:101bf000450507000002be00b0888000c188800053
:101c000018c0b3000001be000400be003307070087
:101c10000000e00001003c000044eb000804e0008c
:101c20000a003200e4808000f5808000b0888000e7
:101c3000c18880000001be000400be00330507001b
:101c4000200f9800310f98001c003700e0808000c2
:101c5000f18080000001be002e089000be089000b8
:101c6000290507000002be00b0888000c1888000fe
:101c700001f0a20018c0b3000001be000400be00c5
:101c8000140707000000e000010035000044eb00ed
:101c90000804e00009003200e4808000f580800044
:101ca000b0888000c18880000001be000400be0032
:101cb00015050700200f9800310f98002e0b90009b
:101cc000be0b9000e6808800f78088004e099000e7
:101cd000de0990000281880013818800f9d0bf00de
:101ce0000004e000e9003a00fad0bf000004e00080
:101cf0006d00320069d1bf000004e00048003200ee
:101d0000801381009113810018c0b30002002000ed
:101d100063392400f10607000000e00001003c00e8
:101d20000044eb000804e0000b0032008013810047
:101d30009113810018c0b30002002000a3472400c3
:101d4000e40607000000e000010035000044eb005d
:101d50000804e0002c003a00601381007113810038
:101d600018c0b3000200200063392400db0607001e
:101d70000000e00001003c000044eb000804e0002b
:101d80000b003200601381007113810018c0b30092
:101d900002002000a3472400ce0607000000e00058
:101da000010035000044eb000804e00016003a0092
:101db000a0138100b113810018c0b30002002000fd
:101dc00063392400c50607000000e00001003c0064
:101dd0000044eb000804e0000f003200a013810073
:101de000b113810018c0b30002002000a3472400f3
:101df000b80607000000e000010035000044eb00d9
:101e00000804e000040032003ed0bf000040e800bb
:101e10003ef0b7001d0037003e70ef001b0037009a
:101e2000e0138100f113810018c0b300020020000c
:101e300063392400a90607000000e00001003c000f
:101e40000044eb000804e0000f003200e0138100c2
:101e5000f113810018c0b30002002000a347240042
:101e60009c0607000000e000010035000044eb0084
:101e70000804e000040032003ed0bf000040e8004b
:101e80003ef0b700010037003e70ef003ed0bf00cb
:101e9000ea4f5000040036006011b8006000b8003e
:101ea000142c0700ffff37002e099000be09900098
:101eb0004e089000de089000402d070000fd210034
:101ec0009000900020019000b00190001000780078
:101ed00018c0b3006022b80006002000e704240008
:101ee000720507000000e00001003c000044eb0028
:101ef0000804e00065003a0000fd21009000900019
:101f000020019000b00190001000780018c0b300cc
:101f10006022b80006002000e7042c005e050700e0
:101f20000000e000010035000044eb000804e00080
:101f300056003a0080052200900090002001900099
:101f4000b00190001000780018c0b3000400200019
:101f500005002c00c6cc2c00c7fe2300530507004b
:101f60000000e00001003c000044eb000804e00039
:101f700046003a0080052200900090002001900069
:101f8000b00190001000780018c0b30004002000d9
:101f900005002c00c6cc2c00c7fe2b003e05070018
:101fa0000000e000010035000044eb000804e00000
:101fb00036003a0000ec21009000900020019000d3
:101fc000b00190001000780018c0b3006022b80083
:101fd0000600200057032400340507000000e0003d
:101fe00001003c000044eb000804e00027003a0038
:101ff00000ec21009000900020019000b0019000c2
:102000001000780018c0b3006022b800060020005d
:1020100057032c00200507000000e00001003500f8
:102020000044eb000804e00018003a0080f42100ae
:102030009000900020019000b00190001000780006
:1020400018c0b3006022b800060020005703240027
:10205000160507000000e00001003c000044eb0012
:102060000804e00009003a0080f42100900090008c
:1020700020019000b0019000100078006022b800ac
:102080000600200057032c0003050700a00a2100ca
:102090009000900020019000b001900010007800a6
:1020a0006022b80006002400f7082400f8060700a4
:1020b0000c0607000001be00f0c1b3008427070032
:1020c000200c21009000900020019000b0019000b1
:1020d000100078006022b80006002400f7082400f1
:1020e000eb060700ff0507000001be0000c2b300b9
:1020f00077270700200b210090009000200190001e
:10210000b0019000100078006022b80006002400a2
:10211000f7082400de060700f20507000001be00f4
:1021200010c2b3006a270700a00c210090009000a5
:1021300020019000b0019000100078006022b800eb
:1021400006002400f7082400d1060700e505070073
:102150000001be0020c2b3005d27070046d0bf00cb
:102160000080fb00e10f500003003200e20f50003e
:102170005c013200b302370047d0bf000080fb0093
:10218000e20f500061003200e30f50009d0032006a
:10219000e10f5000a8023a002483800035838000bc
:1021a000608380007183800018c0b3000001be000e
:1021b0000400be00c70507000000e0000100350074
:1021c0000044eb000804e00049003200c0828000b7
:1021d000d1828000020020000300240012050700c5
:1021e0000002be00e0828000f182800018c0b300cf
:1021f0000001be000400be00b80507000000e000ba
:1022000001003c000044eb000804e000380032000c
:102210008083800091838000a2702d0033c2230050
:10222000110707000002be00208380003183800078
:102230000001be000400be00b40307002083880034
:102240003183880044838000558380002083800090
:10225000318380000001be000400be00ab03070014
:10226000a2702d0033c22300ff06070002002000e9
:1022700003002400ec0407000002be00e08280009e
:10228000f18280000001be000400be009f03070031
:10229000e0828800f1828800e4828000f58280007c
:1022a000a0828000b18280000001be000400be0058
:1022b000ed0607000002be0000838000118380004d
:1022c0000001be000400be00900307006205070085
:1022d000240d2100009abe000292be0020838000df
:1022e00031838000408388005183880006003700d6
:1022f00020c0b30047f0b700e0828000f182800088
:10230000a0838800b1838800f5003700c482800074
:10231000d5828000a0838000b18380000001be00d0
:102320000400be00780307000002be00e0828000c7
:10233000f182800018c0b3000001be000400be009e
:10234000660507000000e00001003c000044eb00cf
:102350000804e000230032002083800031838000e5
:10236000a2702d0033c22300bf0607000002be008a
:10237000e0828000f18280000001be000400be0007
:1023800062030700e0828800f1828800e482800016
:10239000f5828000a0828000b18280000001be0032
:1023a0000400be00b00607000002be0000838000eb
:1023b000118380000001be000400be00530307002b
:1023c00025050700240d2100009abe000292be00e0
:1023d00020838000318380004083880051838800ff
:1023e0000700370030c0b30047f0b700808380009b
:1023f0009183800001f0a20080838800918388008f
:10240000b7003700208380003183800018c0b300fc
:102410006011b800310507000000e00001003c0039
:102420000044eb000804e00045003200e482800034
:10243000f5828000c0828000d182800018c0b30085
:102440000001be000400be00220507000000e000fd
:10245000010035000044eb000804e00038003200c1
:102460008083800091838000a2702d0033c22300fe
:102470007d0607000002be002083800031838000bb
:102480000001be000400be00200307002083880076
:10249000318388004483800055838000208380003e
:1024a000318380000001be000400be001703070056
:1024b000a2702d0033c223006b060700020020002b
:1024c00003002400580407000002be00e0828000e0
:1024d000f18280000001be000400be000b03070073
:1024e000e0828800f1828800e4828000f58280002a
:1024f000a0828000b18280000001be000400be0006
:10250000590607000002be0000838000118380008e
:102510000001be000400be00fc020700ce0407005c
:10252000240d2100009abe000292be00208380008c
:102530003183800040838800518388006700370022
:1025400020c0b30046f0b70010c0b30047f0b7009a
:10255000c4828000d5828000a0828000b182800089
:102560000001be000400be003f0607000002be00de
:1025700000838000118380000001be000400be00c3
:10258000e2020700b4040700240d2100009abe00f7
:102590000292be004082800051828000ae0407009b
:1025a000a40d2100009abe000292be00608280004d
:1025b00071828000a8040700240e2100009abe004a
:1025c0000292be008082800091828000a2040700f7
:1025d000a40e2100009abe000292be00200b210032
:1025e0009000900020019000b00190001000780051
:1025f000a20707006084880071848800a00a210077
:102600009000900020019000b00190001000780030
:102610009a070700808488009184880044828000a3
:102620005582800080848000918480000001be007b
:102630000400be00b4020700c0838800d183880074
:1026400064828000758280006084800071848000d4
:102650000001be000400be00ab020700e08388005a
:10266000f1838800c0838000d1838000e4838000f0
:10267000f58380000001be000400be0000030700d7
:102680000084880011848800c4838000d583800082
:10269000c0838000d18380000001be000400be0022
:1026a000f10507000004be00e4838000f58380008c
:1026b000e0838000f18380000001be000400be00c2
:1026c000e90507000001be000800be008f020700f8
:1026d0003307070020848800318488000000000050
:1026e0005801370047d0bf000080fb00e20f5000c8
:1026f00087003200e30f5000d8003200e10f500095
:102700004f013a00a4848000b584800000858000d9
:102710001185800018c0b3000001be000400be0097
:102720006c0407000000e000010035000044eb00ed
:102730000804e0005e0032002084800031848000c4
:102740000200200003002400b70307000002be00bf
:10275000408480005184800018c0b3000001be0096
:102760000400be005d0407000000e00001003c0022
:102770000044eb000804e0004d003200e0848000db
:10278000f1848000a2702d0033c22300b60507003b
:102790000002be00a0848000b18480000001be0061
:1027a0000400be0059020700a0848800b18488009c
:1027b000c4848000d5848000a0848000b18480001f
:1027c0000001be000400be0050020700a2702d00f0
:1027d00033c22300a40507000200200003002400e8
:1027e000910307000002be004084800051848000f5
:1027f0000001be000400be004402070040848800bf
:102800005184880000848000118480002003070028
:102810000002be0040848000518480000001be00a0
:102820000400be00900507000002be008084800006
:10283000918480000001be000400be003302070046
:1028400005040700240c2100009abe000292be007d
:102850000084800011848000cf0607000002be00c3
:1028600040848000518480000001be000400be004e
:102870007d0507000002be00608480007184800036
:102880000001be000400be0020020700f2030700a2
:10289000a40c2100009abe000292be00a084800019
:1028a000b1848000c0848800d1848800170037007c
:1028b00020c0b30047f0b7004084800051848000fe
:1028c0002085880031858800a4848000b58480003c
:1028d000008580001185800018c0b3000001be0093
:1028e0000400be00fd0307000000e00001003c0002
:1028f0000044eb000804e000040032000085800082
:1029000011858000a0848800b1848800c900370048
:1029100024848000358480002085800031858000fb
:102920000001be000400be00f70107000002be0067
:10293000408480005184800018c0b3000001be00b4
:102940000400be00e50307000000e00001003c00b9
:102950000044eb000804e00038003200a08480004e
:10296000b1848000a2702d0033c223003e05070011
:102970000002be0040848000518480000001be003f
:102980000400be00e10107004084880051848800f3
:102990000084800011848000bd0207000002be0098
:1029a00040848000518480000001be000400be000d
:1029b0002d0507000002be00808480009184800005
:1029c0000001be000400be00d0010700a203070002
:1029d000240c2100009abe000292be0000848000f8
:1029e000118480006c0607000002be004084800055
:1029f000518480000001be000400be001a050700db
:102a00000002be0060848000718480000001be006e
:102a10000400be00bd0107008f030700a40c2100c5
:102a2000009abe000292be00a0848000b1848000a3
:102a3000c0848800d18488000700370030c0b3000c
:102a400047f0b700e0848000f184800001f0a2002c
:102a5000e0848800f184880076003700a08480003c
:102a6000b184800018c0b3006011b8009b03070058
:102a70000000e00001003c000044eb000804e0001e
:102a80005a003200448480005584800020848000f5
:102a90003184800018c0b3000001be000400be00f5
:102aa0008c0307000000e000010035000044eb004b
:102ab0000804e0004d003200e0848000f1848000d2
:102ac000a2702d0033c22300e70407000002be00fd
:102ad000a0848000b18480000001be000400be001c
:102ae0008a010700a0848800b1848800c484800023
:102af000d5848000a0848000b18480000001be00e5
:102b00000400be0081010700a2702d0033c2230023
:102b1000d50407000200200003002400c2020700c1
:102b20000002be0040848000518480000001be008d
:102b30000400be00750107004084880051848800ad
:102b40000084800011848000510207000002be0052
:102b500040848000518480000001be000400be005b
:102b6000c10407000002be008084800091848000c0
:102b70000001be000400be00640107003603070028
:102b8000240c2100009abe000292be000084800046
:102b900011848000000607000002be00408480000f
:102ba000518480000001be000400be00ae04070096
:102bb0000002be0060848000718480000001be00bd
:102bc0000400be005101070023030700a40c2100ec
:102bd000009abe000292be00a0848000b1848000f2
:102be000c0848800d1848800110037004670ef004f
:102bf00010c0b30047f0b7004082800051828000cf
:102c000015030700240c2100009abe000292be00aa
:102c100060828000718280000f030700a40c2100f5
:102c2000009abe000292be0010c0b30068f1b70067
:102c30000000000003003700000000000100370022
:102c4000000000003dd0bf000040e8003df0b700ac
:102c50003dd0bf00f34f5000500036003d70ef00f4
:102c60003fd0bf000004e00008003a003cd0bf00a5
:102c70000080fb00c200dd00c02622000081400071
:102c800000c02300c16124000089be003cd0bf0009
:102c90000040e8003cf0b7003cd0bf00e54f5000da
:102ca000010036003c70ef003cd0bf000080fb000c
:102cb000e20f500012003200e20f500005003c000d
:102cc0000000e0000a003200e10f50000a0032006c
:102cd00013003700e40f50000d003200e40f5000e5
:102ce00009003500e50f50000b0032000c003700e2
:102cf000148ea8000a00370035eea800080037003f
:102d000045eea8000600370045aea80004003700d5
:102d1000558ea80002003700656ea8000000000074
:102d20000040eb00405f98000040eb00405f9800df
:102d30000f0037004e5890000080fb000126220053
:102d4000008040008040eb00014878004e58900021
:102d50000080fb0061262200008040008040eb00e4
:102d6000014878004e5890000040e800405f98000d
:102d70004e589000e54f5000eeff36003f70ef00d8
:102d80003cd0bf000080fb000126220000804000f4
:102d900011c0b3000148780021e1a8000080fa00ca
:102da0004f06be004f05be004f04be004f03be00dd
:102db0004f02be004f01be004f00be003600f900ba
:102dc00000400600801f78000000fa000108a900fa
:102dd00041d0bf000040e80041f0b7000080fa0099
:102de0004f007800004006000000fa000388a900a8
:102df00021e1a9001821ef00148ea90035eea900e9
:102e000045eea90045aea900558ea900656ea90042
:102e10000080fa00004006003600f800809fbe00e7
:102e2000829fbe00849fbe00869fbe000000fa0005
:102e300003e8a900318a8000408a8000808f50001a
:102e400004003200451807000000fb00a0118800b4
:102e5000010037004b71ef000080fa004f03be0005
:102e60004f02be004f01be004f00be003600f90009
:102e7000004006003600f800809fbe00829fbe0022
:102e8000849fbe00869fbe000000fa000a68a90069
:102e9000c1182100914078008dd1bf0080cf500033
:102ea000040032003d2f07000000fb00a012880044
:102eb000010037008e71ef000080fa004f03be0062
:102ec0004f02be004f01be004f00be003600f900a9
:102ed000004006000000fa000a48a9000080fa003d
:102ee000004006000000fa000088a9000080fa00f7
:102ef000004006000000fa0001c8a9000080fa00a6
:102f0000004006000040da000000fe00000005005e
:102f10002800fa00889fbe008a9fbe008c9fbe00da
:102f200007067800878669000c003b0003047800e0
:102f30008704780008f0a10009f0a100840f500078
:102f4000858f5800860f5900890f5c0003003300fd
:102f50000cf0a20001003a000cf0a10025020700cd
:102f60006400e1005f003200780147006408e1007e
:102f7000610032006c014700748557003200be00ca
:102f80001201be003a04be001a05be001e039000e6
:102f9000be0a90008503530006003d000004fd00ba
:102fa0008104fd000205fd008305fd008703ea00a2
:102fb000050378000df8a30004003200600414003b
:102fc000e0841c0060051d00e0851d006022b80043
:102fd0007d0320000d38e1008006eb000b00390076
:102fe0004433dd00f300b200830173003900370081
:102ff000848272000d027800e10664008b85d100a6
:103000000a85d3008984d3000884d3008703e900ac
:10301000f7ff3b0008004000898048000a01490092
:103020008b81490004003b0060001000e080180024
:1030300060011900e08119000358a3000900320063
:103040008d82720084827200610260008301d1006f
:103050000281d3008180d3000080d3000603e80002
:103060001b0037000348a30017003a000600e000e9
:10307000170034000603e9000d00a300000048001b
:103080008180480002014900838149000348a30070
:103090000f003a000600e000090034000603e900d2
:1030a00000004000818048000201490083814900fe
:1030b00001003a000003eb000348a300f5ff3200d3
:1030c0006022b800020037008482720061826600cc
:1030d0009c01070003f0a1000cf0a70003f0a00082
:1030e000d8013700640147006408e10002003a009b
:1030f0000df8a300d0013a0032007800b200780049
:103100001201be00cf01370003f0a200889fbe006d
:103110008a9fbe008c1f7800c5020700cc023300d6
:103120006450e1004f0032006420e10052003200a0
:1031300003826c0007003b000905d0000306d000a5
:10314000820f54000c065d000200390002003200bc
:1031500089017800030678008582550004003d004f
:103160000003fd008103fd008502ea008b8542001b
:10317000840f720002003b0060001000e080180025
:103180006011b8000005eb007a28e1000a00390060
:1031900006007800c75ddd00f707b2008780750084
:1031a0002d003700828171000a01780061056000fe
:1031b0008180d1000080d3008502e900f9ff3b0047
:1031c000060440008784480002003b0060041400ad
:1031d000e0841c000988a300070032008a81710086
:1031e00082817100610164008904d1000884d300e8
:1031f0008b05e800170037000978a30013003a0098
:103200000b00e000130034008b05e90008044400c3
:1032100089844c000a4474000978a3000d003a0028
:103220000b00e000070034008b05e90008044400af
:1032300089844c0001003a000b0020000978a300ab
:10324000f7ff32000001eb000200370082817100bd
:103250000a0178003b0207000cf0a70001f0a00073
:10326000840237006420e10002003a00838f6c0082
:10327000840233000801be000200be007d02370058
:10328000889fbe008a9fbe008c1f780068020700de
:103290001002200002003b00a08c88006c02370066
:1032a0008a0062006408e10002003a00a08c8800f5
:1032b000740237006108e100fcff32000800be0024
:1032c00003047800d800070001f0a10009000700fe
:1032d00008f0a600040037000001be00910424009d
:1032e000b0fd200088ff070009f0a70001f0a20050
:1032f00060023700889fbe008a9fbe008c9fbe0080
:103300000004be00350207000800be0089067800f0
:103310006420e10008003900040032000160a000d0
:1033200012022000a28c88005300370091fc230079
:10333000b0fd20004e0037000006eb0009f0a100b0
:1033400003f82300020020000800be00610107000e
:103350000600340001f82300000020000801be0030
:10336000b10007000004be002c0020000800be00d1
:1033700093e82300320a23005601070012003400ac
:103380000801be00d1fd2300703d2b005fff070048
:103390000005be00b3f32300f27a26000800be0049
:1033a000b102070003f823000200200056ff0700c7
:1033b0000801be0055ff07000a01be009a00070081
:1033c0000004be000c06e8000800be0001f0a100e9
:1033d00002002000039823003e0107000800be0001
:1033e000160035000801be009f0207000005be0060
:1033f00032cd2c0043fb230044ff0700809fbe001a
:103400001269280003d52b000a00be0096020700af
:10341000620f210013ef2b003cff07000a01be00e2
:10342000910207004f01be007f0007000801be00a7
:103430008d0207000801be0034ff07000c00e00009
:103440000b0032000c10a70001f0a200b2fd20001a
:1034500093fc23006260e1000400320022a92000f6
:1034600063f023000c10a70063f8230027ff070078
:103470000df0a70001f0a2004f06be004f05be00f0
:103480004f04be00000006000002eb00ac02370053
:103490000081eb00570337008f1fd1003204070073
:1034a0008f87e9000000e00000000600809feb002d
:1034b0002d0407008f87e9000000e00000000600ef
:1034c0002800fa00889fbe008a9fbe008c9fbe0025
:1034d00003866b00c70007006400e100440032006f
:1034e0006408e1004a0032006100e1004600320059
:1034f0006108e10049003200ec0647006000b800b6
:103500003d02be003d03be00f48657006011b800c6
:103510003d04be003d05be007d0320000b003700ca
:103520000000a0008d06e9001300320004024200f2
:1035300085824a0006034b0087834b000000400051
:10354000818048000201490083814900080252003d
:1035500089825a000a035b008b835b00f0ff3b000b
:103560000802420089824a000a034b008b834b0009
:103570008d06e900edff3a008482720086827200b7
:10358000f707b200878272000100320015002000a8
:103590001e0490003e0b900006035400e63fb0006e
:1035a0000368a300070032000000a7000500a00088
:1035b0008301d1000281d3008180d3000080d30039
:1035c0000603e8008301d1000281d3008180d3008b
:1035d0000080d3000002eb000482d20059000700f3
:1035e00003f0a1000cf0a70003f0a0009500370045
:1035f000640247006408e1008f0032003400be001e
:103600003401be00f6ff37006108e1008a00320095
:103610006011b8006000b800f1ff370003ff270019
:1036200002002000fbff3700889fbe008a9fbe007b
:103630008c1f78007e0107008501330003866c0033
:103640006450e1002e0032006420e10033003200bb
:103650006150e1002f0032006120e10031003200b2
:1036600085855500eb07b000090020000804200004
:10367000050037000804440089844c000a0031002a
:103680000603430087834b000001530081815b00e8
:10369000f8ff33000203be000800a0000804440045
:1036a00089844c00f6ff3900c639dd0083017300c0
:1036b00001003200130020008904d1000884d300e7
:1036c0000998a300050032000800a7000300a0002d
:1036d0008904d1000884d3008b05e8008904d10057
:1036e0000884d3000001eb000281d200150107001d
:1036f00001f0a1000cf0a70001f0a0005d0137006f
:103700006420e1005f0132000801be000200be003b
:10371000f7ff37006120e1005a0132006000b80075
:10372000f3ff37000000200001f82700f0ff37000a
:10373000801feb008c0307008f87e9000000e0008a
:103740000000060018002000570020000804530065
:103750000d003d000600200097fc2f000740e1000f
:103760001e00340084827200610260008301d10077
:103770000281d3008180d3000080d3000804e800d8
:10378000f8ff3a004700200061046000050474005f
:10379000040464000d00320061004000e080480035
:1037a00060014900e081490003b8a500070032002c
:1037b0000603e8006538e10004003a008301d10007
:1037c0000281d3008180d3000080d300f87f2000e5
:1037d0000830e10003003500080378006000b800fd
:1037e0006011b8004433dd00f300b20083017300c0
:1037f00000000600680447000294be000094be006a
:10380000fc0447008694be008494be000900780042
:103810009f030700080078009d03070099007800c7
:10382000814f70000b003b000800be0077030700cb
:103830004f00b10003003700f3ff2700f2ff2f0015
:103840006110b9004f06be004f05be004f04be0018
:103850000080fa000000060081037800df00070006
:103860000001be006000b8000478a30013003a0015
:103870006220e10015003e000d0039008301d100f7
:103880000281d3008180d3008301d1000281d30063
:103890008180d3008301d1000281d3008180d300d5
:1038a0000538b000c42add00f300b2008381720045
:1038b00007f0a70003f0a00000000600f3ff2700b8
:1038c000f2ff2f006110b900fbff370003ff270054
:1038d000f7ff37001400200094033700f4ff2f0097
:1038e000920337001400fa00889fbe008a9fbe0032
:1038f0008c9fbe000004be000205be0068004700a9
:103900000a90be000890be00610307000070a70087
:103910000bf0a100304320009e02900080825200f4
:10392000b0fe2f000028e10011003d00b0fc2f0088
:103930000028e100150034001e0990008e08900058
:103940007e0090000501b0000201d1008180d3000b
:103950000080d3008502e800fbff3a000b00e00086
:10396000b8ff3b0060001000e0801800b5ff370092
:10397000f0ff2f00f1ff27000b00e000b1ff3b003c
:103980000100280000002000aeff37006000b800f2
:10399000acff37000001be00900007000470a700d4
:1039a00003f0a1006509b100160032000d003500da
:1039b0006828e10006003500f0ff2f00f1ff270026
:1039c0000300e00013003b00010028000000050098
:1039d00000004000818048008502e900fcff3a00b9
:1039e00008003700f88f420002003c008000eb0026
:1039f000000005008100d1000080d3008502e800ae
:103a0000fcff3a000300e00002003b0060001000f1
:103a1000e0801800000006001400fa00889fbe0035
:103a20008a9fbe008c9fbe000004be000205be003f
:103a3000680047000a90be000890be00140307000b
:103a40000070a7000bf0a1000bf8a30016003a00cd
:103a50009e0290003043200080825200b0fe2f0072
:103a60000028e1000d003c00b0fc2f000028e10020
:103a70000d0034001e0990008e0890007e0090001a
:103a80000501b0000201d1008180d3000080d30085
:103a90008502e800fbff3a006aff370001002800ba
:103aa0000000200067ff37006000b80065ff3700a6
:103ab0000001be00490007000470a70003f0a10048
:103ac00003f8a30013003a006509b10010003200aa
:103ad000090035006928e1000200350001002800d6
:103ae0000000050000004000818048008502e900d8
:103af000fcff3a0000000600f88f42000500350088
:103b00008100d1000080d3008502e800fcff3a006c
:103b1000000006008000eb00000005004f89de0079
:103b2000820178001c0337004f89de008201780093
:103b3000290337006011b800370337006011b8005f
:103b40006003370081002000618055000b003d00bc
:103b50000b00200061fe2f000100e1001d00340079
:103b600082817100610164008904d1000884d3005e
:103b70000000e800faff3a007100200061006400d4
:103b8000030070000200600009003200610444007c
:103b9000e0844c000988a500050032008b05e80090
:103ba0006808e10002003a008904d1000884d300cb
:103bb000f20f20000258e10005003d00c75ddd0066
:103bc000f907b2008980750008007800000006003f
:103bd0000bf827008b00780000000500c70ade0004
:103be000f107b200f50fb20008003200e1cf420049
:103bf000020032000170a00024000500810f700057
:103c0000010032000408050044000500810f700027
:103c100002003a00140005008502e900000040009f
:103c200081c04800fcff3b000170a000240005009b
:103c30000004be00e9ff07000003be000405be004b
:103c40000200be00e5ff0700844f7500000006007b
:103c50000200be006450e100050036006420e1006f
:103c6000020036000968a30001003a000800be0007
:103c70000160a0004f0678004f05be004f04be0053
:103c800000000600f0ff2f00f1ff2700f9ff3700ca
:103c90002800fa00889fbe008a9fbe008c9fbe004d
:103ca00003866b00d3fe07000028a30064003a00df
:103cb0000128a30068003a000008a30062003a004f
:103cc0000108a30066003a001e009000be089000a4
:103cd00081064000ed3fb100f4805700ee019000f6
:103ce000111ab8008e099000311bb8009e0990008f
:103cf000311cb800511db800f4855700460007007c
:103d0000fe0190003a0007008b85e8003e000700a6
:103d10008e09900040000700ee019000340007007b
:103d20008b85e800380007008e09900040000700ee
:103d30009e0990001b18b800890440000a854800bd
:103d4000fe019000340007008b85e8003800070072
:103d5000ee019000300007008e0990001b18b8009b
:103d6000890440000a8548000a98a30008003a0028
:103d70000402420085824a0006034b0087834b0001
:103d800008044c0089844c000a054d008d06e900aa
:103d900084827200850273004c3add008502720055
:103da0000100320015002000443ade001400b20089
:103db0004538de00cb45dd000b007000c540de005d
:103dc000cb4ddd008b8070004549de00cb55dd001a
:103dd0000b017100c551de000d03780059fe07008c
:103de00003f0a1000cf0a70003f0a00095fe37003f
:103df0001b18b8008502400006834800e0834b0092
:103e000060044c00070037001b18b8000603400090
:103e100087834800faff37001b18b800870340006b
:103e200008844800e0844c0060054d000000060056
:103e30001b18b8000804400089844800faff3700c6
:103e40000108a3007cfe3a005800be0000000000fc
:103e50005801be00e2ff37000008a30076fe3a00da
:103e600009047800f8ff3700889fbe008a9fbe00d3
:103e70008c1f78006eff070075ff330003866c000f
:103e80006450e100240032006420e1002700320089
:103e90006150e100220032006120e1002100320087
:103ea0008b854200eb07b1000134b800003ab8003e
:103eb0000804420089844a00013ab8000030b80082
:103ec0008880400009014a000400330000004000df
:103ed00081804800020149008b05e900c909dd0025
:103ee000830170000100320013002000c814de00be
:103ef0004814dd004709de001200b200c808de00e9
:103f0000088470000fff070001f0a1000cf0a7006b
:103f100001f0a00057ff37006120e10059ff320097
:103f20000801be000200be00f7ff37006150e1004b
:103f3000fcff3a0053ff3700140020000000370058
:103f40000800fa00889fbe008a9fbe008c9fbe00ba
:103f5000040678000004be000205be00ba01070096
:103f60006420e1009f003e009b0032006120e100e0
:103f70009600320003f0a100171b240036582c00d5
:103f800005a021000400200043fd07000800be003a
:103f90000a01be000700350097012400b61f220069
:103fa0004544250084d12200750207000004be00ac
:103fb0000205be008006eb000c00a700cf1ede004d
:103fc00003f0a1000bf0a10047fd230006f325003c
:103fd00095dc260034882c002dff07006022b800f5
:103fe0000003eb0007fe23000c00a60007ff2300e0
:103ff000c7fb07003bfe07000000a7000d00a20062
:10400000c6fe07000c00e00004003a0007fe230093
:10401000060020006022b8001601070003f0a2008d
:10402000009fbe000297be009700240006002200f9
:104030006022b80016ff07000802be000a03be0097
:10404000b3fb0700809fbe00829fbe003e00be0003
:104050002e01be00f7f4230046542b00152d24003a
:10406000a44628000aff07004f03be004f02be000f
:10407000a7fb07000004be000205be0003f0a1007c
:1040800067e42300e6092a00f5672600d4bc230074
:1040900001fd07000800be000a01be00480035000f
:1040a0000002be000203be00f9fe0700009fbe0032
:1040b0000297be0087ce2300f60f28003599260010
:1040c00054f92d00f2fe0700a7d62b0006422e0061
:1040d00085c02d00c49924008dfb07003e02be0060
:1040e0002e03be00eafe070067de2300c623210080
:1040f000a586260004432d0085fb07003e02be0076
:104100002e03be00e2fe0700a7e52b0056642e003a
:10411000d5b52400b40a2c007dfb07003e02be008a
:104120002e03be00dafe070077ec230036de210006
:1041300045522a0034062f0075fb07003e02be00e0
:104140002e03be00d2fe0700a7f22b00061a2000a5
:1041500015a02100a4e123006dfb07003e02be0074
:104160002e03be00cafe070017f823001611210017
:1041700015112100040b210065fb07003e02be0063
:104180002e03be00c2fe070057fc2b00565525002b
:1041900055552500545525005dfb07003e02be0025
:1041a0002e03be00bafe07000802be000a03be00ce
:1041b000b7fe07000802be000a03be0054fb07005a
:1041c0000d00a70003f0a2009efd37000c00a60022
:1041d00003ff23009bfd3700f3ff2700f2ff2f00b2
:1041e0006110b9000330a00014022000a48c8800e4
:1041f00094fd3700889fbe008a9fbe008c9fbe0042
:10420000820578000004be0074fe07000800be00ae
:104210006420e1000700390002003a00f1ff2700a6
:10422000f0ff2f000160a00012022000a28c880085
:10423000550037006120e10003003a000b00a700a1
:1042400001f823005000370001f0a1000200210016
:10425000936424009ffd07000800be0004003500a1
:10426000b2fd2000930c2400c90107000004be0029
:104270000005eb000b00a6004f0dde0001f0a100d1
:104280000004be0032982f0023ea2300f6fe070048
:104290000001eb0003f023000b00a70003f823004c
:1042a0009afb0700bbfd07000000a7000a00a20060
:1042b0001dfe07000b00e00003003200020020009a
:1042c00003f0230090fb070001f0a2000006be00ef
:1042d0000200200093042400e3fe07000801be0052
:1042e0008afb0700809fbe000c00be0022a22a00ad
:1042f000d3a72300dcfe07004f01be0083fb0700ad
:104300000004be0001f0a100020020000398230079
:1043100070fd07000800be00190035000001be0056
:10432000d1fe07000006be00b2c52900e3622300eb
:10433000cdfe070022222b00f3942b0073fb070015
:104340000c01be00c8fe0700e273280083c02300f2
:104350006efb07000c01be00c3fe070042aa2a0044
:10436000a3e22b0069fb07000c01be00befe0700a4
:104370000801be00bcfe07000801be0063fb070089
:104380000a00a70001f0a2004f06be004f05be00c4
:104390004f04be00000006000001eb0095ff37004f
:1043a000889fbe008a9fbe008c1f78000004be005c
:1043b0000afe07000478a30026003a006120e1000d
:1043c0002500320009f8a30025003a006420e1002e
:1043d00021003200f507b1000508a30002003200f9
:1043e00000004000818048006044b80003102000b5
:1043f00002002000000040008180480008054400c1
:1044000089854c000a0541008b8549000a0550004a
:104410008b855800030033000a00be0002047400bc
:10442000838474008301d1000281d300830f710063
:10443000f0ff3a008904d1000884d30060014900ec
:1044400082017800c1adde00fb07b000bdfd0700b2
:1044500008fe37000960a0000800be0005fe370016
:1044600012022000a28c8800f0ff2f00f1ff27002d
:1044700000fe370007f0a200a5fa37001400fa008a
:10448000889fbe008a9fbe008c9fbe000005be00b4
:104490000206be00680047000c90be000a90be00f5
:1044a0007b0007006400e1001a00320016003e00a5
:1044b0006100e1001a0032006e049000fe049000da
:1044c0000e0b90009e0b90006011b8009e059000ae
:1044d0000b38b100d50120008281710061016400b8
:1044e0008703d1000683d3008984d3000884d300d6
:1044f0008502e900f8ff3a0092fd07000df0a700e1
:1045000001f0a000cffc3700f1ff2700f0ff2f00e3
:10451000ccfc370001f8270000002000f7ff37002f
:104520006000b800f5ff37006022b80006022000e6
:104530000000d0008180d2000482d2008582d200a7
:104540000000a0000202520083825a0003003100e2
:104550000202420083824a000000a1000603e90033
:10456000f3ff3a0000000600889fbe008a9fbe004d
:104570008c9fbe000404be000605be00809fbe00e6
:10458000829fbe0030000700040678000800be00cd
:104590000a01be002c000700840678004f03be000d
:1045a0004f02be008d4f76007fb09700130033009e
:1045b000f0ff2f008b8f6b0006003b000d0666009e
:1045c0000c00a7000a00370007f0a600100020002a
:1045d0000a003700880f5200898f5a008a0f5b004b
:1045e0008b8f5b00030039001000200001003e00ab
:1045f0000000200007f0a7000000ea004f06be0000
:104600004f05be004f04be0000000600e4824000db
:104610001078a30007003200640240001178a30064
:104620003400be001401be00050032000330a700b4
:104630000000060035007800350078001501be0046
:104640000330a0000000060005ff2700058261007e
:10465000070032000428e1000100320024000500b8
:104660000600070001003a004400050004080500a8
:1046700002000700f9ff3a00140005006f82610094
:104680008102700085027100850272000000060040
:104690005002be00e40050005003be004439de006a
:1046a000f700b200f37f200003016100090032002f
:1046b0000218e10016003a008501720083017300c0
:1046c000838173000008200015003a00400020009c
:1046d000130037008501720083017300838173002a
:1046e00005003a0004a8be0006a8be001000200085
:1046f0000b0037000201e9000402420085824a00f3
:1047000006034b0087834b000748a300f9ff3200e4
:104710000740a00004a8be0006a8be00200020009c
:10472000800098009200980000000600889fbe005c
:104730008a9fbe00841f78003dfd07004f0078006f
:1047400011003300f0ff2f00838f6c0006003b0048
:10475000040565000a00a7000800370009f0a6005c
:104760001000200008003700820f5400838f5c0087
:10477000030039001000200001003e00000020006e
:1047800009f0a7000000ea004f05be004f04be007c
:104790000000e00000000600881f78000304780095
:1047a0000300e00007003d0060001000e0801800fa
:1047b00060011900e081190002003b0001f02d00aa
:1047c000030037001400070008f0a70003f0a00062
:1047d0004f04780000000600881f7800030478006a
:1047e0000300e00007003d0060001000e0801800ba
:1047f00060011900e081190002003b0001f02d006a
:10480000030037002f00070008f0a70001f0a00008
:104810004f04780000000600889fbe0000827000f0
:10482000040271000482710024003200364320002b
:10483000c50020008383cf000a0039000541b10084
:104840008283cf00070039000541b1008183cf008a
:10485000040039000541b1008083cf000100390018
:104860000541b10085c353006022b8001200320038
:104870000a003b0084827200610260008301d10063
:104880000281d3008180d3000080d3000603e800ba
:104890008743e800f7ff3a000700370000004000b8
:1048a0008180480002014900838149000603e90034
:1048b0008743e900f9ff3a00a2fb07004f04be005e
:1048c00000000600889fbe008a9fbe000082700024
:1048d0000402710004827100260032000004be0050
:1048e0000200be006011b8006b0920009502200094
:1048f0000182cf000a0039000541b1000082cf00db
:10490000070039000541b1000982cf0004003900d9
:104910000541b1000882cf00010039000541b10016
:1049200005425200120032000a003b0082817100f1
:10493000610164008100d1000080d3008984d3002c
:104940000884d3008b05e8000442e800f7ff3a0032
:10495000070037000804440089844c000000480028
:10496000818048008b05e9000442e900f9ff3a0024
:1049700074fc07004f05be004f04be000000060097
:10498000801feb00540007008f87e900000006003d
:104990000400200000003700889fbe008a9fbe00f0
:1049a0008c1f78004f26dd00a1fc0700a8fc330017
:1049b0006120e100430032006250e10041003e000e
:1049c0003e0039006420e1003c00320005825500c1
:1049d0000f003b000402e80038003a00800f53004b
:1049e000818f5b00350034000800be0003f0a10099
:1049f00001f0a60003f0a0000cf0a700c3f9070027
:104a00009cfc37000603430087834b000c4646009e
:104a10000005530081855b00020033000a03be00dd
:104a20000c00a0000402e900f6ff3b0085057800b9
:104a30000602430087824b0004003a006000b80081
:104a400009f0a70001f0a0008afc37000002520024
:104a500081825a000704e00004003300060343008b
:104a600087834b008b05e900faff370009057800c2
:104a70000604be000203be006011b80031fc07004e
:104a8000e00f5200e08f5a000700350002003c00a2
:104a90000c08a300040032000601be0003f0a000d1
:104aa0000cf0a70099f907000a85680001f0a10041
:104ab0000af0a70001f0a0006efc37000800be005d
:104ac0006cfc3700100220000cf0a600a08c8800bf
:104ad0006cfc3700000000002800fa00889fbe0030
:104ae0008a9fbe008c9fbe000efe970041fb070010
:104af0006108e1005d0032006200e1005b003e0001
:104b0000550039006408e100530032006c01470091
:104b1000748557003200be001201be003a04be0088
:104b20001a05be009e029000be0e90000d8252003b
:104b300017003b000402e80047003a00880f5000cd
:104b4000898f58008a0f59008b8f5900420034001a
:104b500064014700780347003200be001201be0026
:104b60003602be001603be0007f0a10003f0a60047
:104b700007f0a0000c70a700e5f8070031fb370034
:104b80000000400081804800020149008381490003
:104b90000c00a00008005000898058000a0159004c
:104ba0008b81590005003b000800400089804800c7
:104bb0000a0149008b8149000c00a1000402e900b0
:104bc000efff3b00000240008182480002034900e1
:104bd000838349001c0032000802520089825a0077
:104be0000a035b008b835b004200f800050037007e
:104bf0000000400081804800020149008381490093
:104c00008d06e9000340a600f9ff37006022b800d6
:104c10000d037800cbfa0700780347004200f90043
:104c20000900350002003c000c08a3000600320019
:104c300036027800b60278001603be0007f0a00026
:104c40000c70a700b2f807005e02900004f0a70005
:104c500003f0a200fbfa37002e009000be00900087
:104c60004e019000de019000f6fa3700100220009d
:104c70000c70a600a08c8800effa3700000000003e
:104c80008001780002003700b15978000201e90084
:104c90000200e000fcff3a000000060080007800ff
:104ca000010178003104e000fdff3a0000005100ee
:104cb00000000600000278008401780003027800fa
:104cc0003404e000fcff3a00020037008459780009
:104cd0000201e9000200e0000300320031427800e6
:104ce0000404e000f9ff3a008049eb0000000600f0
:020000040000fa
:104cf00043680000656300006b730000756d000081
:104d000020650000727200006f7200002021000018
:104d10000a00000053740000617200007465000016
:104d200064200000210a000000530000746f00009e
:104d30007070000065640000202100000a0000007f
:104d400076650000726200006f730000652000004d
:104d50007365000074200000746f000020000000e4
:104d6000736500007420000073740000617400001b
:104d700065200000000a0000004300006861000098
:104d80006e670000656400002050000031200000c4
:104d90003a20000073700000656500006420000088
:104da0006c65000066740000207400006f20000035
:104db00000430000686100006e6700006564000049
:104dc00020490000312000003a20000073700000ec
:104dd00065650000642000006c65000066740000da
:104de000207400006f200000004300006861000094
:104df0006e67000065640000204400003120000060
:104e00003a20000073700000656500006420000017
:104e10006c65000066740000207400006f200000c4
:104e200000430000686100006e67000065640000d8
:104e300020500000322000003a2000007370000073
:104e4000656500006420000072690000676800006a
:104e500074200000746f0000200000004368000010
:104e6000616e0000676500006420000049320000a8
:104e7000203a0000207300007065000065640000a7
:104e80002072000069670000687400002074000050
:104e90006f20000000430000686100006e670000a2
:104ea0006564000020440000322000003a20000029
:104eb00073700000656500006420000072690000e6
:104ec0006768000074200000746f0000200000007c
:104ed000436f000065660000204400006973000015
:104ee000737900006d650000747200007920000085
:104ef00063680000616e00006765000064200000c8
:104f0000746f0000203a0000200000006d6d00006a
:104f100020700000657200002074000069630000ca
:104f20006b73000020630000686100006e67000082
:104f300065640000207400006f2000003a2000002b
:104f40000044000069730000746100006e6300009b
:104f50006520000062650000747700006565000050
:104f60006e200000656e0000636f00006465000045
:104f70007220000077680000656500006c73000017
:104f800020630000686100006e6700006564000037
:104f9000207400006f2000003a2000000073000021
:104fa00065720000766f0000200000002000000005
:104fb0006d6f0000746f000072200000006d000033
:104fc0006f7400006f7200005f7600006f6c00006d
:104fd0007461000067650000200000004158000077
:104fe0003132000020310000200000004158000054
:104ff000313200002033000020000000676f000005
:105000002000000074750000726e00002000000097
:105010005350000049320000204900006e74000027
:10502000657200007275000070740000202100009d
:045030000a00000072
:020000040000fa
:105034001000fa00881f780050eea90054eea80072
:105044000000eb00000f7800010037001e0fe8009d
:10505400f07022009e007800808f5000fbff340027
:1050640054eea9000000eb00000f780001003700a7
:105074001e0fe800f07022009e007800808f500020
:10508400fbff340054eea8000000eb00000f780092
:10509400010037001e0fe800f07022009e00780027
:1050a400808f5000fbff340054eea9000000eb0099
:1050b400000f7800010037001e0fe800f070220096
:1050c4009e007800808f5000fbff340054eea8004f
:1050d4000000eb00000f7800010037001e0fe8000d
:1050e400f07022009e007800808f5000fbff340097
:1050f40054eea9000000eb00000f78000100370017
:105104001e0fe800f07022009e007800808f50008f
:10511400fbff3400052907001d270700c91d0700f0
:1051240031290700bc280700f10e070057260700a5
:105134007229070059290700a82707001828070023
:10514400a40a21006000b8006011b800009abe00f3
:105154000292be00240b21006000b8006011b80068
:10516400009abe000292be00a40b21006000b800a9
:105174006011b800009abe000292be00240c210007
:105184006000b8006011b800009abe000292be0030
:10519400a40c21006000b8006011b800009abe00a1
:1051a4000292be00240d21006000b8006011b80016
:1051b400009abe000292be00a40d21006000b80057
:1051c4006011b800009abe000292be00240e2100b5
:1051d4006000b8006011b800009abe000292be00e0
:1051e400a40e21006000b8006011b800009abe004f
:1051f4000292be00a870ef00a970ef00f430ef0037
:10520400f630ef00c621ef00c625ef003725070072
:105214002068a9006011b8000000200001102400db
:10522400331f07006000b80010079800210798009a
:10523400d0cc2c00c1e4230030079800410798002b
:10524400ab270700500798005e009000cf80de0077
:1052540034fa070060079800710798001e01900057
:10526400ae0190006e009000fe009000a5f70700cc
:105274003e019000ce019000fafa07001e01900052
:10528400ae019000a0f7070060079800710798002e
:105294006e019000fe019000120798002307980009
:1052a40018c0b30002002000032224006e00900006
:1052b400fe00900086f907000000e00001003500c0
:1052c4000044eb000804e0000200320054aea800e1
:1052d4000100370054aea90018c0b300020020003a
:1052e400832424006e009000fe00900078f90700eb
:1052f4000000e000010035000044eb000804e00079
:1053040002003200548ea80001003700548ea90018
:1053140018c0b30002002000832c24006e0090000b
:10532400fe0090006af907000000e000010035006b
:105334000044eb000804e00002003200646ea800a0
:1053440001003700646ea900400120000100200024
:10535400be250700a17280000008200000806000c4
:1053640000f0a7000000ea000000e9004f00de00a2
:10537400004078000080fb00610060004700dd0011
:10538400a17280000170a10001007000a072880069
:10539400d20f07006e009000fe0090007cf9070019
:1053a4000001be0010c0b300c81a0700a4ff3700f4
:1053b4001000fa00881f7800000020000114240067
:1053c40040079800510798006000b800008fbe00a5
:1053d400d0cc2c00c1dc2300600798007107980032
:1053e4001e0178009e0190004e009000de009000a7
:1053f40044f7070018c0b3006e019000fe0190004e
:1054040035f907000000e00001003c000044eb0017
:105414000804e000080032006e019000fe019000d4
:105424001e0078009e00900037f7070020079800c0
:10543400310798001e0037001e0178009e0190007d
:105444004e009000de0090002ef707000002be0020
:105454006e009000fe00900001f0a20018c0b3009e
:105464000001be000400be0019f907000000e000be
:10547400010035000044eb000804e000080032009d
:105484006e019000fe0190001e0078009e009000c6
:105494001cf7070020079800310798000400370024
:1054a4004e019000de019000220798003307980017
:1054b4002e019000be019000028fbe002e019000cc
:1054c400be0190006000b800891e0700e0012000c2
:1054d400010020005d250700c1ff37001800fa0015
:1054e4002068a90000002800300e88000000280071
:1054f400302e8800310e800000002800008040001b
:105504008000eb008cf90700b2fd20009304240016
:1055140054fa07000001be00fbf60700d2cc2c00b1
:10552400431c24004ffa0700020020000358240003
:105534003cf80700008fbe00312e800000002800d8
:10554400008040008000eb007bf90700b2fd2000e2
:105554009304240043fa07000001be00eaf60700a2
:10556400d2cc2c00431c24003efa07000200200089
:10557400035824002bf807002007980031079800ef
:10558400310e800000002800008040008000eb0005
:1055940069f90700b2fd20009304240031fa0700e2
:1055a4000001be00d8f607000200200003582400c2
:1055b4001cf807004007980051079800312e80001e
:1055c40000002800008040008000eb005af907002a
:1055d400b2fd20009304240022fa07000001be005b
:1055e400c9f6070002002000035824000df8070044
:1055f40060079800710798004e019000de0190004a
:10560400000020006139240006f80700000f98000c
:10561400110f98006e019000fe0190000000200020
:1056240061392400fff70700200f9800310f98001c
:10563400800c20000100200004250700adff370086
:105644006800fa00889fbe008a9fbe008c9fbe003f
:10565400402f9800512f9800622f9800732f9800c4
:105664000437980015379800263798003737980084
:105674004e289000de28900076f807000205be0050
:105684000004be00a00a21009000900020019000b8
