:020000040000fa
:080000000002040000000000f2
:020000040000fa
:04000800fa020000f8
:020000040000fa
:04000c00fa020000f4
:020000040000fa
:04001000fa020000f0
:020000040000fa
:04001400fa020000ec
:020000040000fa
:04001800fa020000e8
:020000040000fa
:04001c00fa020000e4
:020000040000fa
:04002000fa020000e0
:020000040000fa
:04002400fa020000dc
:020000040000fa
:04002800fa020000d8
:020000040000fa
:04002c00fa020000d4
:020000040000fa
:04003000fa020000d0
:020000040000fa
:040034004c4000003c
:020000040000fa
:040038004e65000011
:020000040000fa
:04003c00fa020000c4
:020000040000fa
:04004000fa020000c0
:020000040000fa
:04004400fa020000bc
:020000040000fa
:04004800824f0000e3
:020000040000fa
:04004c00fa020000b4
:020000040000fa
:04005000aa620000a0
:020000040000fa
:04005400fa020000ac
:020000040000fa
:04005800fa020000a8
:020000040000fa
:04005c00fa020000a4
:020000040000fa
:0400600056650000e1
:020000040000fa
:04006400fa0200009c
:020000040000fa
:04006800fa02000098
:020000040000fa
:04006c00fa02000094
:020000040000fa
:04007000fa02000090
:020000040000fa
:04007400ac5e00007e
:020000040000fa
:04007800fa02000088
:020000040000fa
:04007c00fa02000084
:020000040000fa
:04008000fa02000080
:020000040000fa
:04008400fa0200007c
:020000040000fa
:04008800fa02000078
:020000040000fa
:04008c00fa02000074
:020000040000fa
:04009000fa02000070
:020000040000fa
:04009400fa0200006c
:020000040000fa
:04009800944f000081
:020000040000fa
:04009c00fa02000064
:020000040000fa
:0400a000fa02000060
:020000040000fa
:0400a400fe2b00002f
:020000040000fa
:0400a800fa02000058
:020000040000fa
:0400ac0030630000bd
:020000040000fa
:0400b000fa02000050
:020000040000fa
:0400b400fa0200004c
:020000040000fa
:0400b800fa02000048
:020000040000fa
:0400bc00fa02000044
:020000040000fa
:0400c000fa02000040
:020000040000fa
:0400c400fa0200003c
:020000040000fa
:0400c800fa02000038
:020000040000fa
:0400cc00fa02000034
:020000040000fa
:0400d000fa02000030
:020000040000fa
:0400d400fa0200002c
:020000040000fa
:0400d800fa02000028
:020000040000fa
:0400dc00fa02000024
:020000040000fa
:0400e000fa02000020
:020000040000fa
:0400e400fa0200001c
:020000040000fa
:0400e800fa02000018
:020000040000fa
:0400ec00fa02000014
:020000040000fa
:0400f000fa02000010
:020000040000fa
:0400f400fa0200000c
:020000040000fa
:0400f800fa02000008
:020000040000fa
:0400fc00fa02000004
:020000040000fa
:04010000fa020000ff
:020000040000fa
:04010400fa020000fb
:020000040000fa
:04010800fa020000f7
:020000040000fa
:04010c00fa020000f3
:020000040000fa
:04011000fa020000ef
:020000040000fa
:04011400fa020000eb
:020000040000fa
:04011800fa020000e7
:020000040000fa
:04011c00fa020000e3
:020000040000fa
:04012000fa020000df
:020000040000fa
:04012400fa020000db
:020000040000fa
:04012800fa020000d7
:020000040000fa
:04012c00fa020000d3
:020000040000fa
:04013000fa020000cf
:020000040000fa
:04013400fa020000cb
:020000040000fa
:04013800fa020000c7
:020000040000fa
:04013c00fa020000c3
:020000040000fa
:04014000fa020000bf
:020000040000fa
:04014400fa020000bb
:020000040000fa
:04014800fa020000b7
:020000040000fa
:04014c00fa020000b3
:020000040000fa
:04015000fa020000af
:020000040000fa
:04015400fa020000ab
:020000040000fa
:04015800fa020000a7
:020000040000fa
:04015c00fa020000a3
:020000040000fa
:04016000fa0200009f
:020000040000fa
:04016400fa0200009b
:020000040000fa
:04016800fa02000097
:020000040000fa
:04016c00fa02000093
:020000040000fa
:04017000f461000036
:020000040000fa
:04017400c461000062
:020000040000fa
:04017800fa02000087
:020000040000fa
:04017c00fa02000083
:020000040000fa
:04018000fa0200007f
:020000040000fa
:04018400fa0200007b
:020000040000fa
:04018800fa02000077
:020000040000fa
:04018c00fa02000073
:020000040000fa
:04019000fa0200006f
:020000040000fa
:04019400fa0200006b
:020000040000fa
:04019800fa02000067
:020000040000fa
:04019c00fa02000063
:020000040000fa
:0401a000fa0200005f
:020000040000fa
:0401a400fa0200005b
:020000040000fa
:0401a800fa02000057
:020000040000fa
:0401ac00fa02000053
:020000040000fa
:0401b000fa0200004f
:020000040000fa
:0401b400fa0200004b
:020000040000fa
:0401b800fa02000047
:020000040000fa
:0401bc00fa02000043
:020000040000fa
:0401c000fa0200003f
:020000040000fa
:0401c400fa0200003b
:020000040000fa
:0401c800fa02000037
:020000040000fa
:0401cc00fa02000033
:020000040000fa
:0401d000fa0200002f
:020000040000fa
:0401d400fa0200002b
:020000040000fa
:0401d800fa02000027
:020000040000fa
:0401dc00fa02000023
:020000040000fa
:0401e000fa0200001f
:020000040000fa
:0401e400fa0200001b
:020000040000fa
:0401e800fa02000017
:020000040000fa
:0401ec00fa02000013
:020000040000fa
:0401f000fa0200000f
:020000040000fa
:0401f400fa0200000b
:020000040000fa
:0401f800fa02000007
:020000040000fa
:0401fc00fa02000003
:020000040000fa
:04020000fa020000fe
:020000040000fa
:04020400fa020000fa
:020000040000fa
:04020800fa020000f6
:020000040000fa
:04020c00fa020000f2
:020000040000fa
:04021000fa020000ee
:020000040000fa
:04021400fa020000ea
:020000040000fa
:04021800fa020000e6
:020000040000fa
:04021c00fa020000e2
:020000040000fa
:04022000fa020000de
:020000040000fa
:04022400fa020000da
:020000040000fa
:04022800fa020000d6
:020000040000fa
:04022c00fa020000d2
:020000040000fa
:04023000fa020000ce
:020000040000fa
:04023400fa020000ca
:020000040000fa
:04023800fa020000c6
:020000040000fa
:04023c00fa020000c2
:020000040000fa
:04024000fa020000be
:020000040000fa
:04024400fa020000ba
:020000040000fa
:04024800fa020000b6
:020000040000fa
:04024c00fa020000b2
:020000040000fa
:04025000fa020000ae
:020000040000fa
:04025400fa020000aa
:020000040000fa
:04025800fa020000a6
:020000040000fa
:04025c00fa020000a2
:020000040000fa
:04026000fa0200009e
:020000040000fa
:04026400fa0200009a
:020000040000fa
:04026800fa02000096
:020000040000fa
:04026c00fa02000092
:020000040000fa
:04027000fa0200008e
:020000040000fa
:04027400fa0200008a
:020000040000fa
:04027800fa02000086
:020000040000fa
:04027c00fa02000082
:020000040000fa
:04028000fa0200007e
:020000040000fa
:10040000cf1822000eff27000e0188000000000018
:10041000000020000000e000020032000001200087
:100420002002880014000700740007000000e000ac
:1004300003003a00605b2600010020000200370044
:100440000000200001002000810f70000100320038
:100450000f000700000020000000e0000200320052
:100460000000020000000000341102000000000043
:100470000040da000000fe00401920000000e0000b
:1004800002003200002020009001880000000600d9
:10049000a1028800800478000000eb001f003700f4
:1004a000e284440054a0b4009905ba00e2844400f8
:1004b00054a0b4009906ba00e284440054a0b400e9
:1004c0000006eb00476fde00fd07b200ae018800ba
:1004d000636ce10003003a000ad801000000eb0061
:1004e0000e003700606ce10008003a00004deb00a0
:1004f0000a05e800020039003420ec000af0a000f0
:100500008b05e900f9ff3e00040037006168e10057
:10051000010032000086eb000b00070019c7ba008b
:100520001905ba000e04e00003003a000a00e000da
:10053000dbff3a0000000600fe07b200ae028800b2
:100540008a047800f5ff37000cd0a300e20f4d00bd
:100550001c00390089027800354dba000a05e80010
:10056000020039003420ec000af0a0008b05e900fd
:100570000f003200254dba000a05e80002003900dc
:100580003420ec000af0a0008b05e90008003200de
:100590000c00e0000600320015cdba000a05e800a4
:1005a000020039003420ec000af0a0008b05e900bd
:1005b0008984e80054a0b4000b00e000e2ff3a0098
:1005c000000006009902ba00055d78008b05e9007d
:1005d000f7ff3200c82ade00055d78008b05e900d0
:1005e000f3ff32000c00e000f1ff320019ddba0029
:1005f000eeff37000040da000000fe0000000500ba
:100600002800fa00889fbe008a9fbe008c9fbe0013
:1006100007067800878669000c003b000304780019
:100620008704780008f0a10009f0a100840f5000b1
:10063000858f5800860f5900890f5c000300330036
:100640000cf0a20001003a000cf0a1001d0207000e
:100650006400e1005f003200780147006408e100b7
:10066000610032006c014700748557003200be0003
:100670001201be003a04be001a05be001e0390001f
:10068000be0a90008503530006003d000004fd00f3
:100690008104fd000205fd008305fd008703ea00db
:1006a000050378000df8a300040032006004140074
:1006b000e0841c0060051d00e0851d006022b8007c
:1006c0007d0320000d38e1008006eb000b003900af
:1006d0004433dd00f300b2008301730039003700ba
:1006e000848272000d027800e10664008b85d100df
:1006f0000a85d3008984d3000884d3008703e900e6
:10070000f7ff3b0008004000898048000a014900cb
:100710008b81490004003b0060001000e08018005d
:1007200060011900e08119000358a300090032009c
:100730008d82720084827200610260008301d100a8
:100740000281d3008180d3000080d3000603e8003b
:100750001b0037000348a30017003a000600e00022
:10076000170034000603e9000d00a3000000480054
:100770008180480002014900838149000348a300a9
:100780000f003a000600e000090034000603e9000b
:100790000000400081804800020149008381490037
:1007a00001003a000003eb000348a300f5ff32000c
:1007b0006022b80002003700848272006182660005
:1007c0009401070003f0a1000cf0a70003f0a000c3
:1007d000d0013700640147006408e10002003a00dc
:1007e0000df8a300c8013a003200be001201be009d
:1007f000c801370003f0a200889fbe008a9fbe0098
:100800008c1f7800be020700c50233006450e1006f
:100810004f0032006420e1005200320003826c007d
:1008200007003b000905d0000306d000820f5400ea
:100830000c065d00020039000200320089017800d8
:10084000030678008582550004003d000003fd008a
:100850008103fd008502ea008b854200840f72004f
:1008600002003b0060001000e08018006011b8003a
:100870000005eb007a28e1000a0039000600780044
:10088000c75ddd00f707b200878075002d003700d7
:10089000828171000a017800610560008180d100c9
:1008a0000080d3008502e900f9ff3b000604400008
:1008b0008784480002003b0060041400e0841c00b0
:1008c0000988a300070032008a81710082817100cb
:1008d000610164008904d1000884d3008b05e8001d
:1008e000170037000978a30013003a000b00e0005e
:1008f000130034008b05e9000804440089844c008f
:100900000a4474000978a3000d003a000b00e000cf
:10091000070034008b05e9000804440089844c007a
:1009200001003a000b0020000978a300f7ff320015
:100930000001eb0002003700828171000a0178009b
:10094000340207000cf0a70001f0a0007d02370080
:100950006420e10002003a00838f6c007d023300c6
:100960000801be000200be0076023700889fbe006c
:100970008a9fbe008c1f78006102070010022000d1
:1009800002003b00e0888800650237008a006200b0
:100990006408e10002003a00e08888006d02370038
:1009a0006108e100fcff32000800be00030478008b
:1009b000d600070001f0a1000900070008f0a6001a
:1009c000040037000001be0091042400b0fd2000a7
:1009d00088ff070009f0a70001f0a20059023700c4
:1009e000889fbe008a9fbe008c9fbe000004be0090
:1009f0002e0207000800be00890678006420e1008e
:100a000008003900040032000160a000120220003a
:100a1000e28888005300370091fc2300b0fd2000dd
:100a20004e0037000006eb0009f0a10003f8230098
:100a3000020020000800be005a0107000600340032
:100a400001f82300000020000801be00af000700ed
:100a50000004be002c0020000800be0093e8230024
:100a6000320a23004f010700120034000801be00c3
:100a7000d1fd2300703d2b005fff07000005be0085
:100a8000b3f32300f27a26000800be00a902070093
:100a900003f823000200200056ff07000801be00f3
:100aa00055ff07000a01be00980007000004be00c1
:100ab0000c06e8000800be0001f0a10002002000c2
:100ac00003982300370107000800be001600350018
:100ad0000801be00970207000005be0032cd2c00c1
:100ae00043fb230044ff0700809fbe0012692800db
:100af00003d52b000a00be008e020700620f210002
:100b000013ef2b003cff07000a01be00890207001b
:100b10004f01be007d0007000801be0085020700ee
:100b20000801be0034ff07000c00e0000b0032009b
:100b30000c10a70001f0a200b2fd200093fc2300de
:100b40006260e1000400320022a9200063f023006b
:100b50000c10a70063f8230027ff07000df0a70083
:100b600001f0a2004f06be004f05be004f04be00bc
:100b7000000006000081eb00a20237008f1fd100a9
:100b80007d0307008f87e9000000e00000000600f9
:100b9000809feb00780307008f87e9000000e000ea
:100ba000000006002800fa00889fbe008a9fbe0051
:100bb0008c9fbe0003866b00c20007006400e1004a
:100bc000440032006408e1004a0032006100e100a4
:100bd000460032006108e10049003200ec0647009f
:100be0006000b8003d02be003d03be00f486570021
:100bf0006011b8003d04be003d05be007d0320002d
:100c00000b0037000000a0008d06e9001300320041
:100c10000402420085824a0006034b0087834b0092
:100c200000004000818048000201490083814900a2
:100c30000802520089825a000a035b008b835b0022
:100c4000f0ff3b000802420089824a000a034b0081
:100c50008b834b008d06e900edff3a008482720021
:100c600086827200f707b2008782720001003200ac
:100c7000150020001e0490003e0b90000603540057
:100c8000e63fb0000368a300070032000000a700a1
:100c90000500a0008301d1000281d3008180d30030
:100ca0000080d3000603e8008301d1000281d30055
:100cb0008180d3000080d3000002eb000482d200c8
:100cc0005400070003f0a1000cf0a70003f0a000ff
:100cd00090003700640247006408e1008a00320097
:100ce0003400be003401be00f6ff37006108e100a9
:100cf000850032006011b8006000b800f1ff3700d5
:100d000003ff270002002000fbff3700889fbe0082
:100d10008a9fbe008c1f7800790107008001330094
:100d200003866c006450e1002e0032006420e10074
:100d3000330032006150e1002f0032006120e100f9
:100d40003100320085855500eb07b0000900200016
:100d500008042000050037000804440089844c0082
:100d60000a0031000603430087834b000001530053
:100d700081815b00f8ff33000203be000800a00081
:100d80000804440089844c00f6ff3900c639dd00b0
:100d90008301730001003200130020008904d10098
:100da0000884d3000998a300050032000800a700ba
:100db0000300a0008904d1000884d3008b05e8005b
:100dc0008904d1000884d3000001eb000281d20025
:100dd0001001070001f0a1000cf0a70001f0a00035
:100de000580137006420e1005a0132000801be00ba
:100df0000200be00f7ff37006120e100550132001c
:100e00006000b800f3ff37000000200001f8270061
:100e1000f0ff37001800200057002000080453009e
:100e20000d003d000600200097fc2f000740e10068
:100e30001e00340084827200610260008301d100d0
:100e40000281d3008180d3000080d3000804e80031
:100e5000f8ff3a00470020006104600005047400b8
:100e6000040464000d00320061004000e08048008e
:100e700060014900e081490003b8a5000700320085
:100e80000603e8006538e10004003a008301d10060
:100e90000281d3008180d3000080d300f87f20003e
:100ea0000830e10003003500080378006000b80056
:100eb0006011b8004433dd00f300b2008301730019
:100ec00000000600680447000294be000094be00c3
:100ed000fc0447008694be008494be00090078009c
:100ee000ee02070008007800ec0207009900780085
:100ef000814f70000b003b000800be00c7020700d6
:100f00004f00b10003003700f3ff2700f2ff2f006e
:100f10006110b9004f06be004f05be004f04be0071
:100f20000080fa000000060081037800df0007005f
:100f30000001be006000b8000478a30013003a006e
:100f40006220e10015003e000d0039008301d10050
:100f50000281d3008180d3008301d1000281d300bc
:100f60008180d3008301d1000281d3008180d3002e
:100f70000538b000c42add00f300b200838172009e
:100f800007f0a70003f0a00000000600f3ff270011
:100f9000f2ff2f006110b900fbff370003ff2700ad
:100fa000f7ff370014002000e3023700f4ff2f00a2
:100fb000e10237001400fa00889fbe008a9fbe003d
:100fc0008c9fbe000004be000205be006800470002
:100fd0000a90be000890be00b00207000070a70093
:100fe0000bf0a100304320009e029000808252004e
:100ff000b0fe2f000028e10011003d00b0fc2f00e2
:101000000028e100150034001e0990008e089000b1
:101010007e0090000501b0000201d1008180d30064
:101020000080d3008502e800fbff3a000b00e000df
:10103000b8ff3b0060001000e0801800b5ff3700eb
:10104000f0ff2f00f1ff27000b00e000b1ff3b0095
:101050000100280000002000aeff37006000b8004b
:10106000acff37000001be00900007000470a7002d
:1010700003f0a1006509b100160032000d00350033
:101080006828e10006003500f0ff2f00f1ff27007f
:101090000300e00013003b000100280000000500f1
:1010a00000004000818048008502e900fcff3a0012
:1010b00008003700f88f420002003c008000eb007f
:1010c000000005008100d1000080d3008502e80007
:1010d000fcff3a000300e00002003b00600010004b
:1010e000e0801800000006001400fa00889fbe008f
:1010f0008a9fbe008c9fbe000004be000205be0099
:10110000680047000a90be000890be006302070016
:101110000070a7000bf0a1000bf8a30016003a0026
:101120009e0290003043200080825200b0fe2f00cb
:101130000028e1000d003c00b0fc2f000028e10079
:101140000d0034001e0990008e0890007e00900073
:101150000501b0000201d1008180d3000080d300de
:101160008502e800fbff3a006aff37000100280013
:101170000000200067ff37006000b80065ff3700ff
:101180000001be00490007000470a70003f0a100a1
:1011900003f8a30013003a006509b1001000320003
:1011a000090035006928e10002003500010028002f
:1011b0000000050000004000818048008502e90031
:1011c000fcff3a0000000600f88f420005003500e1
:1011d0008100d1000080d3008502e800fcff3a00c6
:1011e000000006008000eb00000005004f89de00d3
:1011f000820178006b0237004f89de00820178009f
:10120000780237006011b800860237006011b8001c
:10121000af02370081002000618055000b003d00c7
:101220000b00200061fe2f000100e1001d003400d2
:1012300082817100610164008904d1000884d300b7
:101240000000e800faff3a0071002000610064002d
:1012500003007000020060000900320061044400d5
:10126000e0844c000988a500050032008b05e800e9
:101270006808e10002003a008904d1000884d30024
:10128000f20f20000258e10005003d00c75ddd00bf
:10129000f907b20089807500080078000000060098
:1012a0000bf827008b00780000000500c70ade005d
:1012b000f107b200f50fb20008003200e1cf4200a2
:1012c000020032000170a00024000500810f7000b0
:1012d000010032000408050044000500810f700081
:1012e00002003a00140005008502e90000004000f9
:1012f00081c04800fcff3b000170a00024000500f5
:101300000004be00e9ff07000003be000405be00a4
:101310000200be00e5ff0700844f750000000600d4
:101320000200be006450e100050036006420e100c8
:10133000020036000968a30001003a000800be0060
:101340000160a0004f0678004f05be004f04be00ac
:1013500000000600f0ff2f00f1ff2700f9ff370023
:101360002800fa00889fbe008a9fbe008c9fbe00a6
:1013700003866b00d3fe07000028a30064003a0038
:101380000128a30067003a000008a30062003a00a9
:101390000108a30065003a001e009000be089000fe
:1013a00081064000ed3fb100f4805700ee0190004f
:1013b000111ab8008e099000311bb8009e099000e8
:1013c000311cb800511db800f485570046000700d5
:1013d000fe0190003a0007008b85e8003e00070000
:1013e0008e09900040000700ee01900034000700d5
:1013f0008b85e800380007008e0990004000070048
:101400009e0990001b18b800890440000a85480016
:10141000fe019000340007008b85e80038000700cb
:10142000ee019000300007008e0990001b18b800f4
:10143000890440000a8548000a98a30008003a0081
:101440000402420085824a0006034b0087834b005a
:1014500008044c0089844c000a054d008d06e90003
:1014600084827200850273004c3add0085027200ae
:101470000100320015002000443ade001400b200e2
:101480004538de00cb45dd000b007000c540de00b6
:10149000cb4ddd008b8070004549de00cb55dd0073
:1014a0000b017100c551de000d03780059fe0700e5
:1014b00003f0a1000cf0a70003f0a00095fe370098
:1014c0001b18b8008502400006834800e0834b00eb
:1014d00060044c00070037001b18b80006034000ea
:1014e00087834800faff37001b18b80087034000c5
:1014f00008844800e0844c0060054d0000000600b0
:101500001b18b8000804400089844800faff37001f
:101510000108a3007cfe3a005800be005801be003e
:10152000e3ff37000008a30077fe3a0009047800c3
:10153000f9ff3700889fbe008a9fbe008c1f78008d
:101540006fff070076ff330003866c006450e100f4
:10155000240032006420e100270032006150e100e5
:10156000220032006120e100210032008b85420020
:10157000eb07b1000134b800003ab800080442009b
:1015800089844a00013ab8000030b80088804000e1
:1015900009014a0004003300000040008180480037
:1015a000020149008b05e900c909dd0083017000d3
:1015b0000100320013002000c814de004814dd00d2
:1015c0004709de001200b200c808de00088470007f
:1015d00010ff070001f0a1000cf0a70001f0a0002f
:1015e00058ff37006120e1005aff32000801be00b9
:1015f0000200be00f7ff37006150e100fcff3a0037
:1016000054ff3700889fbe008a9fbe008c9fbe009b
:10161000820578000004be0024ff07000800be0019
:101620006420e1000700390002003a00f1ff2700c2
:10163000f0ff2f000160a00012022000e288880065
:10164000550037006120e10003003a000b00a700bd
:1016500001f823005000370001f0a1000200210032
:10166000936424004ffe07000800be00040035000c
:10167000b2fd2000930c2400c40107000004be004a
:101680000005eb000b00a6004f0dde0001f0a100ed
:101690000004be0032982f0023ea2300a5ff0700b4
:1016a0000001eb0003f023000b00a70003f8230068
:1016b00051fc07006bfe07000000a7000a00a20013
:1016c000cdfe07000b00e000030032000200200006
:1016d00003f0230047fc070001f0a2000006be0053
:1016e000020020009304240092ff07000801be00be
:1016f00041fc0700809fbe000c00be0022a22a0011
:10170000d3a723008bff07004f01be003afc070060
:101710000004be0001f0a100020020000398230095
:1017200020fe07000800be00190035000001be00c1
:1017300080ff07000006be00b2c52900e362230057
:101740007cff070022222b00f3942b002afc0700c9
:101750000c01be0077ff0700e273280083c023005e
:1017600025fc07000c01be0072ff070042aa2a00f8
:10177000a3e22b0020fc07000c01be006dff070058
:101780000801be006bff07000801be001afc07003d
:101790000a00a70001f0a2004f06be004f05be00e0
:1017a0004f04be00000006000001eb0095ff37006b
:1017b000889fbe008a9fbe008c1f78000004be0078
:1017c000bafe07000478a30026003a006120e10079
:1017d0002500320009f8a30025003a006420e1004a
:1017e00021003200f507b1000508a3000200320015
:1017f00000004000818048006044b80003102000d1
:1018000002002000000040008180480008054400dc
:1018100089854c000a0541008b8549000a05500066
:101820008b855800030033000a00be0002047400d8
:10183000838474008301d1000281d300830f71007f
:10184000f0ff3a008904d1000884d3006001490008
:1018500082017800c1adde00fb07b0006dfe07001d
:10186000b8fe37000960a0000800be00b5fe3700d2
:1018700012022000e2888800f0ff2f00f1ff27000d
:10188000b0fe370007f0a2005dfb37001400fa003d
:10189000889fbe008a9fbe008c9fbe000005be00d0
:1018a0000206be00680047000c90be000a90be0011
:1018b0007a0007006400e1001a00320016003e00c2
:1018c0006100e1001a0032006e049000fe049000f6
:1018d0000e0b90009e0b90006011b8009e059000ca
:1018e0000b38b100d50120008281710061016400d4
:1018f0008703d1000683d3008984d3000884d300f2
:101900008502e900f8ff3a0042fe07000df0a7004b
:1019100001f0a0007ffd3700f1ff2700f0ff2f004e
:101920007cfd370001f8270000002000f7ff37009a
:101930006000b800f5ff37006022b8000602200002
:101940000000d0008180d2000482d2008582d200c3
:101950000000a0000202520083825a0003003100fe
:101960000202420083824a000000a1000603e9004f
:10197000f3ff3a0000000600889fbe008a9fbe0069
:101980008c9fbe000404be000605be00809fbe0002
:10199000829fbe002f000700040678000800be00ea
:1019a0000a01be002b000700840678004f03be002a
:1019b0004f02be008d4f76007fb0970013003300ba
:1019c000f0ff2f008b8f6b0006003b000d066600ba
:1019d0000c00a7000a00370007f0a6001000200046
:1019e0000a003700880f5200898f5a008a0f5b0067
:1019f0008b8f5b00030039001000200001003e00c7
:101a00000000200007f0a7000000ea004f06be001b
:101a10004f05be004f04be0000000600e4824000f7
:101a20001078a30007003200640240001178a30080
:101a30003400be001401be00040032000330a700d1
:101a4000000006003500be001501be000330a000f6
:101a50000000060005ff2700058261000700320034
:101a60000428e10001003200240005000600070000
:101a700001003a00440005000408050002000700c8
:101a8000f9ff3a00140005006f82610081027000c6
:101a90008502710085027200000006008000780057
:101aa0005002be005003be004439de00f700b20011
:101ab000f37f200003016100090032000218e100f9
:101ac00016003a0085017200830173008381730060
:101ad0000008200015003a004000200013003700e5
:101ae00085017200830173008381730005003a0051
:101af00004a8be0006a8be00100020000b0037009e
:101b00000201e9000402420085824a0006034b00fc
:101b100087834b000748a300f9ff32000740a0006d
:101b200004a8be0006a8be00200020008000980087
:101b30009200980000000600889fbe008a9fbe00a9
:101b4000841f7800eefd07004f007800110033007d
:101b5000f0ff2f00838f6c0006003b00040565003a
:101b60000a00a7000800370009f0a60010002000b6
:101b700008003700820f5400838f5c000300390097
:101b80001000200001003e000000200009f0a70026
:101b90000000ea004f05be004f04be000000e00058
:101ba00000000600881f7800030478000300e000ae
:101bb00007003d0060001000e0801800600119007f
:101bc000e081190002003b0001f02d000300370006
:101bd0001400070008f0a70003f0a0004f047800ed
:101be00000000600881f7800030478000300e0006e
:101bf00007003d0060001000e0801800600119003f
:101c0000e081190002003b0001f02d0003003700c5
:101c10002f00070008f0a70001f0a0004f04780093
:101c200000000600889fbe00008270000402710060
:101c3000048271002400320036432000c5002000d9
:101c40008383cf000a0039000541b1008283cf00b1
:101c5000070039000541b1008183cf00040039003d
:101c60000541b1008083cf00010039000541b1007a
:101c700085c353006022b800120032000a003b0006
:101c800084827200610260008301d1000281d3006e
:101c90008180d3000080d3000603e8008743e8007a
:101ca000f7ff3a000700370000004000818048003d
:101cb00002014900838149000603e9008743e900e6
:101cc000f9ff3a0053fc07004f04be000000060075
:101cd000889fbe008a9fbe000082700004027100cf
:101ce00004827100260032000004be000200be0023
:101cf0006011b8006b092000950220000182cf001e
:101d00000a0039000541b1000082cf000700390008
:101d10000541b1000982cf00040039000541b1003e
:101d20000882cf00010039000541b1000542520090
:101d3000120032000a003b008281710061016400e0
:101d40008100d1000080d3008984d3000884d300af
:101d50008b05e8000442e800f7ff3a00070037006f
:101d60000804440089844c00000048008180480039
:101d70008b05e9000442e900f9ff3a0025fd070060
:101d80004f05be004f04be00000006000400200006
:101d900000003700889fbe008a9fbe008c1f78001d
:101da0004f26dd0056fd07005dfd33006120e10098
:101db000430032006250e10041003e003e00390025
:101dc0006420e1003c003200058255000f003b001a
:101dd0000402e80038003a00800f5300818f5b0056
:101de000350034000800be0003f0a10001f0a60099
:101df00003f0a0000cf0a7007ffa070051fd3700a8
:101e00000603430087834b000c4646000005530041
:101e100081855b00020033000a03be000c00a000b5
:101e20000402e900f6ff3b00850578000602430046
:101e300087824b0004003a006000b80009f0a70058
:101e400001f0a0003ffd37000002520081825a00dd
:101e50000704e000040033000603430087834b00bf
:101e60008b05e900faff3700090578000604be007b
:101e70000203be006011b800e6fc0700e00f52004c
:101e8000e08f5a000700350002003c000c08a30058
:101e9000040032000601be0003f0a0000cf0a70011
:101ea00055fa07000a85680001f0a1000af0a700b2
:101eb00001f0a00023fd37000800be0021fd37001f
:101ec000100220000cf0a600e088880021fd3700f9
:101ed0008001780002003700b15978000201e90062
:101ee0000200e000fcff3a000000060080007800dd
:101ef000010178003104e000fdff3a0000005100cc
:101f000000000600000278008401780003027800d7
:101f10003404e000fcff3a000200370084597800e6
:101f20000201e9000200e0000300320031427800c3
:101f30000404e000f9ff3a008049eb0000000600cd
:020000040000fa
:101f400043680000656300006b730000756d00005e
:101f500020650000727200006f72000020210000f6
:101f60000a000000537400006172000074650000f4
:101f700064200000210a000000530000746f00007c
:101f80007070000065640000202100000a0000005d
:101f900076650000726200006f730000652000002b
:101fa0007365000074200000746f000020000000c2
:101fb00073650000742000007374000061740000f9
:101fc00065200000000a0000004300006861000076
:101fd0006e670000656400002050000031200000a2
:101fe0003a20000073700000656500006420000066
:101ff0006c65000066740000207400006f20000013
:1020000000430000686100006e6700006564000026
:1020100020490000312000003a20000073700000c9
:1020200065650000642000006c65000066740000b7
:10203000207400006f200000004300006861000071
:102040006e6700006564000020440000312000003d
:102050003a200000737000006565000064200000f5
:102060006c65000066740000207400006f200000a2
:1020700000430000686100006e67000065640000b6
:1020800020500000322000003a2000007370000051
:102090006565000064200000726900006768000048
:1020a00074200000746f00002000000043680000ee
:1020b000616e000067650000642000004932000086
:1020c000203a000020730000706500006564000085
:1020d000207200006967000068740000207400002e
:1020e0006f20000000430000686100006e67000080
:1020f0006564000020440000322000003a20000007
:1021000073700000656500006420000072690000c3
:102110006768000074200000746f00002000000059
:10212000436f0000656600002044000069730000f2
:10213000737900006d650000747200007920000062
:1021400063680000616e00006765000064200000a5
:10215000746f0000203a0000200000006d6d000048
:1021600020700000657200002074000069630000a8
:102170006b73000020630000686100006e67000060
:1021800065640000207400006f2000003a20000009
:102190000044000069730000746100006e63000079
:1021a000652000006265000074770000656500002e
:1021b0006e200000656e0000636f00006465000023
:1021c0007220000077680000656500006c730000f5
:1021d00020630000686100006e6700006564000015
:1021e000207400006f2000003a20000000730000ff
:1021f00065720000766f00002000000020000000e3
:102200006d6f0000746f000072200000004100003c
:102210005831000032200000312000000041000051
:102220005831000032200000332000000067000019
:102230006f20000000740000757200006e20000026
:102240000000000053500000493200002049000007
:102250006e740000657200007275000070740000fa
:08226000202100000a0000002b
:020000040000fa
:102268000600fa007c2a070010290700b11f0700a2
:10227800a82a0700ee290700f40c07007f270700ab
:102288009d260700d02a07009b2907005828070029
:102298006000b80070848800818488006000b800fd
:1022a80090848800a18488006000b800b084880009
:1022b800c18488006000b800d0848800e184880068
:1022c8006000b800f0848800018588006000b800cc
:1022d80010858800218588006000b8003085880056
:1022e800418588006000b8005085880061858800b5
:1022f8006000b80070858800818588008c70ef00c8
:102308008d70ef00b430ef00b630ef00c621ef005b
:10231800c625ef0003f5210082ee210001e8210027
:1023280080e12100cf230700f016070010002000ed
:1023380090858800bb70ef000000eb00000f78006c
:102348001e0fe8006000b80070848800818488004f
:102358006000b80090848800a18488006000b800fc
:10236800b0848800c18488007084800081848000e3
:10237800d0848800e184880090848000a184800053
:10238800f084880001858800b0848000c1848000c2
:1023980010858800218588007084800081848000f1
:1023a800308588004185880090848000a184800061
:1023b8005085880061858800b0848000c1848000d1
:1023c80070858800818588000000eb00000f780088
:1023d800050037001e007800004078006011b80042
:1023e800f91f07001e0fe8001e007800e60f5000d6
:1023f800f8ff34001271ef006000b8001007980071
:1024080021079800007d200001002000391f0700e7
:1024180000002000a13f2400d0848800e1848800c7
:10242800160e0700803e200001002000311f070023
:102438006000b800d0848800e18488000f0e07008f
:10244800803e2000010020002a1f07000000200015
:10245800a13f2c00d0848800e1848800070e070083
:10246800803e200001002000221f07006000b80005
:10247800d0848800e1848800000e0700803e200098
:10248800010020001b1f0700e1ff37001000fa00c1
:10249800881f7800000020000114240040079800dd
:1024a800510798006000b800008fbe00d0cc2c0007
:1024b800c1dc230060079800710798001e01be0068
:1024c8004e009000de009000c8f8070018c0b30066
:1024d8006e019000fe019000b2fa07000000e000d3
:1024e80001003c000044eb000804e0000700320053
:1024f8006e019000fe0190001e00be00bcf80700af
:1025080020079800310798001c0037001e01be0004
:102518004e009000de009000b4f807000002be00f4
:102528006e009000fe00900001f0a20018c0b300f9
:102538000001be000400be0098fa07000000e00099
:10254800010035000044eb000804e00007003200f9
:102558006e019000fe0190001e00be00a3f8070067
:102568002007980031079800040037004e019000ba
:10257800de01900022079800330798002e01900092
:10258800be019000028fbe002e019000be01900097
:102598006000b80094200700e0012000010020003e
:1025a800d41e0700c5ff37001800fa002068a900ec
:1025b80000002800300e880000002800302e880017
:1025c800310e800000002800008040008000eb00f1
:1025d8000cfb0700b2fd200093042400d3fb070086
:1025e8000001be0082f80700d2cc2c00431c240056
:1025f800cefb07000200200003582400c1f90700a1
:10260800008fbe00312e80000000280000804000ae
:102618008000eb00fbfa0700b2fd200093042400c1
:10262800c2fb07000001be0071f80700d2cc2c00e5
:10263800431c2400bdfb07000200200003582400af
:10264800b0f907002007980031079800310e800084
:1026580000002800008040008000eb00e9fa070035
:10266800b2fd200093042400b0fb07000001be0067
:102678005ff807000200200003582400a1f90700b2
:102688004007980051079800312e8000000028006c
:10269800008040008000eb00dafa0700b2fd20005d
:1026a80093042400a1fb07000001be0050f80700b6
:1026b800020020000358240092f9070060079800e0
:1026c800710798004e019000de0190000000200084
:1026d800613924008bf90700000f9800110f98004a
:1026e8006e019000fe019000000020006139240076
:1026f80084f90700200f9800310f9800800c200003
:10270800010020007b1e0700adff37006800fa00bb
:10271800889fbe00402f9800512f9800622f980084
:10272800732f9800043798001537980026379800bb
:102738003737980070848000818480000001be00d3
:102748004e289000de28900028f807000004be00fc
:1027580090848000a18480000001be006e28900053
:10276800fe28900021f807000801be007df8070048
:102778002017980031179800b0848000c184800029
:102788000001be002e109000be10900017f8070040
:10279800200798003107980007003700b2fd200095
:1027a800930c24002e009000be00900010f8070043
:1027b800200798003107980018c0b300b2fd200028
:1027c80093042c002e009000be009000f3f907003f
:1027d8000000e000010035000044eb000804e000c0
:1027e800eeff3a0007003700b2fd2000930c2400ea
:1027f8002e009000be009000fcf70700200798000c
:102808003107980018c0b300b2fd200093042400db
:102818002e009000be009000e2f907000000e000e2
:1028280001003c000044eb000804e000eeff3a0021
:10283800708480008184800030858800418588000c
:1028480090848000a184800050858800618588007c
:10285800b0848000c18480007085880081858800ec
:10286800b2848000c38480004217980053179800f0
:1028780000002000011224006017980071179800ca
:102888000000200001122400001f9800111f98006a
:102898006000b80040079800510798006000b80031
:1028a80060079800710798006000b800000f980052
:1028b800110f980018c0b3006011b8002e009000e6
:1028c800be009000b7f907000000e00001003c00de
:1028d8000044eb000804e00005003200000020007e
:1028e80001f82300200f9800310f980032003700bc
:1028f8000000200001f82b00200f9800310f9800ed
:102908002d003700a2702d0033c223006e109000f6
:10291800fe10900005fb07000001be004e0090006d
:10292800de009000b2f707004007980051079800b2
:102938004e019000de0190006e009000fe009000b5
:10294800abf70700a2702d0033c22300f7fa070087
:102958000200200003002400eaf807000001be007e
:102968000e0890009e089000a1f70700000f98003d
:10297800110f98002e099000be0990000e089000d3
:102988009e089000e9fa07004e119000de119000b1
:1029980097f7070010858800218588004e01900070
:1029a800de0190006207980073079800a0002000dd
:1029b80001002000cf1d070018c0b3000e199000b9
:1029c8009e1990004e009000de00900073f90700f9
:1029d8000000e000010035000044eb000804e000be
:1029e8000e00320002002000030024002e00900098
:1029f800be009000c3f8070018c0b3000e0990008d
:102a08009e09900067f907000000e00001003c0003
:102a18000044eb000804e000baff3a000e099000f9
:102a28009e099000221f9800331f98001c00370051
:102a3800a2702d0033c223004e009000de009000eb
:102a4800bafa07000001be000e0890009e08900028
:102a580067f70700000f9800110f98002e099000e3
:102a6800be0990000e0890009e089000affa07007b
:102a78004e119000de1190005df707001085880068
:102a8800218588004e019000de01900062079800c1
:102a980073079800a000200001002000951d070082
:102aa8002e199000be1990002e009000be009000d4
:102ab8004ef7070018c0b3000e0990009e09900059
:102ac80038f907000000e00001003c000044eb007a
:102ad8000804e000d6ff3a006e109000fe10900047
:102ae80001f0a20060179800711798002d003700b8
:102af800a2702d0033c223006e109000fe109000cb
:102b08008afa07000001be004e009000de00900027
:102b180037f7070040079800510798004e019000ca
:102b2800de0190006e009000fe00900030f7070074
:102b3800a2702d0033c223007cfa07000200200097
:102b4800030024006ff807000001be000e08900083
:102b58009e08900026f70700000f9800110f9800b4
:102b68002e099000be0990000e0890009e08900063
:102b78006efa07004e119000de1190001cf7070056
:102b880010858800218588004e019000de019000a4
:102b98006207980073079800a00020000100200039
:102ba800541d070018c0b3006011b8004e00900013
:102bb800de009000fbf807000000e00001003c0088
:102bc8000044eb000804e0000b00320018c0b3001a
:102bd8002e019000be0190000e0890009e08900003
:102be800eef807000000e000010035000044eb00ab
:102bf8000804e000beff3a002e099000be099000cc
:102c08002e009000be00900048fa07004e11900078
:102c1800de119000f6f607001085880021858800ef
:102c2800401f200001002000321d07004e2990009f
:102c3800de29900032858800438588006e2990003f
:102c4800fe29900052858800638588000e31900027
:102c58009e319000728588008385880018c0b30073
:102c68006011b8002e309000be309000cbf80700fd
:102c78000000e000010035000044eb000804e0001b
:102c8800040032006000b8002037980031379800ff
:102c98000f00370018c0b3000240220043972400f9
:102ca8002e309000be309000bef807000000e00013
:102cb80001003c000044eb000804e000040032007e
:102cc80000402200419724002037980031379800af
:102cd80018c0b3006011b8003eb89700ceb897008e
:102ce800aef807000000e000010035000044eb00ea
:102cf8000804e000040032006000b80030bf9f0004
:102d080041bf9f000f00370018c0b30002402200e7
:102d1800439724003eb89700ceb89700a1f8070063
:102d28000000e00001003c000044eb000804e00063
:102d380004003200004022004197240030bf9f0069
:102d480041bf9f0092848000a3848000421f9800a6
:102d5800531f98007284800083848000621f98004b
:102d6800731f98006e199000fe1990004e2890006d
:102d7800de2890009df6070000279800112798008c
:102d88004e199000de1990006e289000fe289000e1
:102d980096f6070020279800312798000e2190000a
:102da8009e2190002e209000be209000edf6070096
:102db80040279800512798000e2190009e219000ee
:102dc8000e2090009e209000d8f907000004be0055
:102dd8002e219000be2190002e209000be20900051
:102de800d2f907000001be000800be0080f6070007
:102df8006dfa070060279800712798003eb9970080
:102e0800ceb99700022f9800132f98006000b800e1
:102e1800400f9800510f98006000b800600f9800ac
:102e2800710f98006000b8000017980011179800fb
:102e380039003700a2702d0033c223000e289000fd
:102e48009e289000b9f907000001be004e089000c6
:102e5800de08900066f60700400f9800510f9800b2
:102e68004e099000de0990006e089000fe08900060
:102e78005ff60700a2702d0033c22300abf90700ec
:102e880002002000030024009ef707000001be0096
:102e98000e1090009e10900055f60700001798003d
:102ea800111798004e209000de2090002ff70700a1
:102eb8000e1190009e1190009cf907006e19900069
:102ec800fe1990004af60700d0848800e184880043
:102ed8004e209000de20900031fa07000e1190007d
:102ee8009e11900091f907004e199000de1990008c
:102ef8003ff60700f0848800018588004e0990009d
:102f0800de099000620f9800730f9800a00020005f
:102f180001002000771c070018c0b3002e31900074
:102f2800be3190004e089000de0890001bf80700a4
:102f38000000e000010035000044eb000804e00058
:102f48000e00320002002000030024006e209000d2
:102f5800fe2090006bf7070018c0b3000e11900018
:102f68009e1190000ff807000000e00001003c00ef
:102f78000044eb000804e000aeff3a000e11900098
:102f88009e119000222f9800332f980018c0b3008c
:102f98002e319000be3190004e089000de0890005f
:102fa80000f807000000e00001003c000044eb00ce
:102fb8000804e0002e0032002e319000be3190004f
:102fc800420f9800530f98002a003700a2702d0076
:102fd80033c223004e089000de08900053f9070022
:102fe8000001be000e1090009e10900000f6070031
:102ff80000179800111798004e209000de209000ce
:10300800daf607000e1190009e11900047f90700ac
:103018006e199000fe199000f5f50700d08488001d
:10302800e18488004e209000de209000dcf9070043
:103038000e1190009e1190003cf907004e19900067
:10304800de199000eaf50700f08488000185880001
:103058004e099000de099000620f9800730f9800e7
:10306800a000200001002000221c070001003700fa
:10307800000000002e299000be2990006e209000cc
:10308800fe209000d9f5070018c0b3000e1190007b
:103098009e119000c3f707000000e00001003c000b
:1030a8000044eb000804e000c8ff3a000e28900036
:1030b8009e28900001f0a200002f9800112f980080
:1030c80039003700a2702d0033c223000e2890006b
:1030d8009e28900015f907000001be004e089000d8
:1030e800de089000c2f50700400f9800510f9800c5
:1030f8004e099000de0990006e089000fe089000ce
:10310800bbf50700a2702d0033c2230007f90700a2
:103118000200200003002400faf607000001be00a8
:103128000e1090009e109000b1f50700001798004f
:10313800111798004e209000de2090008bf60700b3
:103148000e1190009e119000f8f807006e1990007b
:10315800fe199000a6f50700d0848800e184880055
:103168004e209000de2090008df907000e1190008f
:103178009e119000edf807004e199000de1990009e
:103188009bf50700f0848800018588004e099000af
:10319800de099000620f9800730f9800a0002000cd
:1031a80001002000d31b070018c0b3006011b8004d
:1031b8004e089000de0890007af707000000e00053
:1031c80001003c000044eb000804e0000b00320062
:1031d80018c0b3006e219000fe2190000e109000e0
:1031e8009e1090006df707000000e0000100350018
:1031f8000044eb000804e000b2ff3a004e299000ba
:10320800de299000d2848800e38488006e2990002b
:10321800fe299000f284880003858800401f200062
:1032280001002000b31b0700b0848000c184800027
:1032380018c0b3000001be000e3090009e30900010
:1032480058f707000000e00001003c000044eb00d4
:103258000804e0001a003200b2848000c3848000b1
:10326800028fbe000b0037001e01be0012858800c9
:103278002385880010002000010020009d1b070006
:10328800f226210033b023001e00be0058f50700c7
:10329800008fbe0018c0b3000e3190009e31900020
:1032a8001e00be003df707000000e00001003400ea
:1032b8000044eb000804e000ebff3a001900370077
:1032c800b2848000c3848000028fbe000b003700e8
:1032d8001e01be001285880023858800100020008a
:1032e80001002000831b0700f226210033b02300d1
:1032f8001e00be003df50700008fbe0018c0b300d9
:103308000e3190009e3190001e00be0025f7070088
:103318000000e00001003d000044eb000804e0006c
:10332800ebff3a000e3190009e3190001285880024
:1033380023858800401f2000010020006d1b070026
:103348004f04be000080fa00000006006400fa0086
:10335800889fbe00202f9800312f9800422f980098
:10336800532f9800642f9800752f980006379800ff
:1033780017379800b970ef0070848000818480004e
:103388000001be002e289000be28900017f5070007
:103398000004be0090848000a18480000001be006b
:1033a8004e289000de28900010f507000801be00a6
:1033b8006cf507000017980011179800b08480007a
:1033c800c18480000001be000e1090009e10900085
:1033d80006f50700008fbe0005003700b2fd20008b
:1033e800930c24001e00be0001f50700008fbe00ec
:1033f80018c0b300b2fd200093042c001e00be00cc
:10340800e6f607000000e000010035000044eb008c
:103418000804e000f1ff3a0005003700b2fd200083
:10342800930c24001e00be00f0f40700008fbe00bd
:1034380018c0b300b2fd2000930424001e00be0093
:10344800d8f607000000e00001003c000044eb0053
:103458000804e000f1ff3a00708480008184800055
:10346800308588004185880090848000a184800090
:103478005085880061858800b0848000c184800000
:103488007085880081858800b2848000c3848000ac
:103498002217980033179800000020000104240028
:1034a80040179800511798000000200001042400dc
:1034b80060179800711798006000b80020079800fe
:1034c800310798006000b80040079800510798003d
:1034d8006000b800600798007107980018c0b30032
:1034e8006011b8001e00be00aef607000000e00044
:1034f80001003c000044eb000804e0000500320035
:103508000000200001f82300000f9800110f980018
:10351800350037000000200001f82b00000f98004c
:10352800110f98001e00be0001f0a200008fbe001f
:103538002d003700a2702d0033c223004e109000da
:10354800de109000f9f707000001be002e00900081
:10355800be009000a6f407002007980031079800e5
:103568002e019000be0190004e009000de009000f9
:103578009ff40700a2702d0033c22300ebf7070069
:103588000200200003002400def507000001be0051
:103598006e009000fe00900095f407006007980008
:1035a800710798000e0990009e0990006e00900027
:1035b800fe009000ddf707002e119000be1190006c
:1035c8008bf4070010858800218588002e01900063
:1035d800be0190004207980053079800a000200001
:1035e80001002000c31a070018c0b3006e11900034
:1035f800fe1190002e009000be00900067f60700b4
:103608000000e000010035000044eb000804e00081
:103618000d00320002002000030024001e00be003e
:10362800b8f5070018c0b3006e019000fe019000c5
:103638005cf607000000e00001003c000044eb00dd
:103648000804e000bbff3a006e019000fe01900004
:10365800021f9800131f98001c003700a2702d004d
:1036680033c223002e009000be009000aff7070081
:103678000001be006e009000fe0090005cf40700a0
:1036880060079800710798000e0990009e09900045
:103698006e009000fe009000a4f707002e11900025
:1036a800be11900052f4070010858800218588001b
:1036b8002e019000be019000420798005307980021
:1036c800a0002000010020008a1a07000e199000af
:1036d8009e1990001e00be0044f4070018c0b300f5
:1036e8006e019000fe0190002ef607000000e00039
:1036f80001003c000044eb000804e000d7ff3a005a
:103708004e109000de10900001f0a20040179800c3
:10371800511798002d003700a2702d0033c22300e6
:103728004e109000de10900080f707000001be00e8
:103738002e009000be0090002df40700200798008e
:10374800310798002e019000be0190004e009000b5
:10375800de00900026f40700a2702d0033c223007b
:1037680072f70700020020000300240065f5070037
:103778000001be006e009000fe0090001cf40700df
:1037880060079800710798000e0990009e09900044
:103798006e009000fe00900064f707002e11900064
:1037a800be11900012f4070010858800218588005a
:1037b8002e019000be019000420798005307980020
:1037c800a0002000010020004a1a070018c0b3001a
:1037d8006011b8002e009000be009000f1f50700bf
:1037e8000000e00001003c000044eb000804e00099
:1037f8000a00320018c0b3001e01be006e0090001f
:10380800fe009000e5f507000000e000010035002b
:103818000044eb000804e000bfff3a000e099000e6
:103828009e0990001e00be0040f707002e11900070
:10383800be119000eef307001085880021858800ee
:103848002e299000be299000328588004385880083
:103858004e299000de2990005285880063858800f3
:1038680018c0b3006011b8006e289000fe289000c0
:10387800caf507000000e000010035000044eb0035
:103888000804e000040032006000b800602f9800cf
:10389800712f98000f00370018c0b30002402200b3
:1038a800439724006e289000fe289000bdf507007d
:1038b8000000e00001003c000044eb000804e000c8
:1038c800040032000040220041972400602f980035
:1038d800712f980018c0b3006011b8000e30900026
:1038e8009e309000adf507000000e00001003500b3
:1038f8000044eb000804e000040032006000b80057
:1039080000379800113798000f00370018c0b3002f
:1039180002402200439724000e3090009e30900011
:10392800a0f507000000e00001003c000044eb00a7
:103938000804e000040032000040220041972400ff
:10394800003798001137980092848000a384800083
:10395800221f9800331f980072848000838480009f
:10396800421f9800531f98004e199000de199000ce
:103978002e289000be2890009cf30700601f980036
:10398800711f98002e199000be1990004e289000c3
:10399800de28900095f3070000279800112798006b
:1039a8006e199000fe1990000e2090009e20900045
:1039b800ecf3070020279800312798006e19900033
:1039c800fe1990006e189000fe189000d7f60700b8
:1039d8000004be000e2190009e2190000e20900051
:1039e8009e209000d1f607000001be000800be002e
:1039f8007ff307006cf707004027980051279800cd
:103a08000e3190009e31900062279800732798002d
:103a18006000b800200f9800310f98006000b800cf
:103a2800400f9800510f98006000b800600f980090
:103a3800710f980039003700a2702d0033c223009f
:103a48006e209000fe209000b8f607000001be002e
:103a58002e089000be08900065f30700200f98001c
:103a6800310f98002e099000be0990004e08900072
:103a7800de0890005ef30700a2702d0033c2230019
:103a8800aaf6070002002000030024009df40700a6
:103a98000001be006e089000fe08900054f3070075
:103aa800600f9800710f98002e209000be209000a3
:103ab8002ef407006e099000fe0990009bf607009f
:103ac8004e199000de19900049f30700d084880051
:103ad800e18488002e209000be20900030f7070077
:103ae8006e099000fe09900090f607002e199000cc
:103af800be1990003ef30700f08488000185880015
:103b08002e099000be099000420f9800530f9800ac
:103b1800a0002000010020007619070018c0b3009b
:103b28006e299000fe2990002e089000be08900093
:103b38001af507000000e000010035000044eb0022
:103b48000804e0000e0032000200200003002400f8
:103b58004e209000de2090006af4070018c0b300e1
:103b68006e099000fe0990000ef507000000e000c5
:103b780001003c000044eb000804e000aeff3a00fe
:103b88006e099000fe099000022f9800132f9800ec
:103b980018c0b3006e299000fe2990002e089000ee
:103ba800be089000fff407000000e00001003c00a0
:103bb8000044eb000804e0002e0032006e2990005b
:103bc800fe299000220f9800330f98002a00370032
:103bd800a2702d0033c223002e089000be0890006a
:103be80052f607000001be006e089000fe08900023
:103bf800fff20700600f9800710f98002e209000c8
:103c0800be209000d9f307006e099000fe099000cd
:103c180046f607004e199000de199000f4f20700ee
:103c2800d0848800e18488002e209000be20900077
:103c3800dbf607006e099000fe0990003bf60700ce
:103c48002e199000be199000e9f20700f084880050
:103c5800018588002e099000be099000420f980047
:103c6800530f9800a0002000010020002119070030
:103c780001003700000000000e2990009e299000e6
:103c88004e209000de209000d8f2070018c0b30044
:103c98006e099000fe099000c2f407000000e000e1
:103ca80001003c000044eb000804e000c8ff3a00b3
:103cb8006e209000fe20900001f0a200602798007e
:103cc8007127980039003700a2702d0033c22300f5
:103cd8006e209000fe20900014f607000001be0040
:103ce8002e089000be089000c1f20700200f98002f
:103cf800310f98002e099000be0990004e089000e0
:103d0800de089000baf20700a2702d0033c223002b
:103d180006f607000200200003002400f9f307005c
:103d28000001be006e089000fe089000b0f2070087
:103d3800600f9800710f98002e209000be20900010
:103d48008af307006e099000fe099000f7f5070056
:103d58004e199000de199000a5f20700d084880063
:103d6800e18488002e209000be2090008cf6070089
:103d78006e099000fe099000ecf507002e199000de
:103d8800be1990009af20700f08488000185880027
:103d98002e099000be099000420f9800530f98001a
:103da800a000200001002000d218070018c0b300ae
:103db8006011b8002e089000be08900079f4070042
:103dc8000000e00001003c000044eb000804e000b3
:103dd8000b00320018c0b3004e219000de21900085
:103de8006e089000fe0890006cf407000000e000e8
:103df800010035000044eb000804e000b2ff3a007f
:103e08002e299000be299000d2848800e38488007f
:103e18004e299000de299000f284880003858800ee
:103e28004f04be000080fa00000006006400fa009b
:103e3800889fbe00202f9800312f9800422f9800ad
:103e4800532f9800642f9800752f98000637980014
:103e580017379800b970ef0010c0b30028f0b7000a
:103e680070848000818480000001be002e289000ac
:103e7800be2890005df207000004be009084800018
:103e8800a18480000001be004e289000de2890002a
:103e980056f207000801be00b2f2070000179800aa
:103ea80011179800b0848000c18480000001be0012
:103eb8000e1090009e1090004cf20700b2fd2000fa
:103ec8009304240049f20700008fbe000500370064
:103ed800b2fd2000930c24001e00be0044f207002f
:103ee800008fbe0018c0b300b2fd200093042c0060
:103ef8001e00be0029f407000000e00001003500a4
:103f08000044eb000804e000f1ff3a000500370028
:103f1800b2fd2000930c24001e00be0033f20700ff
:103f2800008fbe0018c0b300b2fd20009304240027
:103f38001e00be001bf407000000e00001003c006a
:103f48000044eb000804e000f1ff3a0070848000b0
:103f580081848000308588004185880090848000b5
:103f6800a18480005085880061858800b084800025
:103f7800c18480007085880081858800b2848000b3
:103f8800c38480002217980033179800000020008f
:103f980001042400401798005117980000002000e1
:103fa8000104240060179800711798006000b80099
:103fb80020079800310798006000b8004007980073
:103fc800510798006000b8006007980071079800d2
:103fd80018c0b3006011b8001e00be00f1f307005e
:103fe8000000e00001003c000044eb000804e00091
:103ff800050032000000200001f82300000f98009f
:10400800110f9800350037000000200001f82b0040
:10401800000f9800110f98001e00be0001f0a200ca
:10402800008fbe002d003700a2702d0033c2230080
:104038004e109000de1090003cf507000001be0015
:104048002e009000be009000e9f1070020079800bc
:10405800310798002e019000be0190004e0090009c
:10406800de009000e2f10700a2702d0033c22300a9
:104078002ef50700020020000300240021f30700aa
:104088000001be006e009000fe009000d8f107000d
:1040980060079800710798000e0990009e0990002b
:1040a8006e009000fe00900020f507002e11900091
:1040b800be119000cef10700108588002185880088
:1040c8002e019000be019000420798005307980007
:1040d800a0002000010020000618070018c0b30047
:1040e8006e119000fe1190002e009000be0090000e
:1040f800aaf307000000e000010035000044eb00cf
:104108000804e0000d003200020020000300240033
:104118001e00be00fbf2070018c0b3006e0190003d
:10412800fe0190009ff307000000e00001003c0042
:104138000044eb000804e000bbff3a006e01900069
:10414800fe019000021f9800131f98001c00370002
:10415800a2702d0033c223002e009000be009000f4
:10416800f2f407000001be006e009000fe0090000f
:104178009ff1070060079800710798000e099000ea
:104188009e0990006e009000fe009000e7f4070082
:104198002e119000be11900095f10700108588003f
:1041a800218588002e019000be01900042079800ea
:1041b80053079800a000200001002000cd17070039
:1041c8000e1990009e1990001e00be0087f107008e
:1041d80018c0b3006e019000fe01900071f3070053
:1041e8000000e00001003c000044eb000804e0008f
:1041f800d7ff3a004e109000de10900001f0a200a8
:1042080040179800511798002d003700a2702d0014
:1042180033c223004e109000de109000c3f4070054
:104228000001be002e009000be00900070f1070053
:1042380020079800310798002e019000be019000d9
:104248004e009000de00900069f10700a2702d007a
:1042580033c22300b5f40700020020000300240045
:10426800a8f207000001be006e009000fe0090005a
:104278005ff1070060079800710798000e09900029
:104288009e0990006e009000fe009000a7f40700c1
:104298002e119000be11900055f10700108588007e
:1042a800218588002e019000be01900042079800e9
:1042b80053079800a0002000010020008d17070078
:1042c80018c0b3006011b8002e009000be00900026
:1042d80034f307000000e00001003c000044eb005c
:1042e8000804e0000a00320018c0b3001e01be0036
:1042f8006e009000fe00900028f307000000e00028
:10430800010035000044eb000804e000bfff3a005c
:104318000e0990009e0990001e00be0083f407005d
:104328002e119000be11900031f107001085880011
:10433800218588002e299000be29900032858800aa
:10434800438588004e299000de2990005285880018
:104358006385880018c0b3006011b8006e2890000b
:10436800fe2890000df307000000e0000100350072
:104378000044eb000804e000040032006000b800cc
:10438800602f9800712f98000f00370018c0b300f5
:1043980002402200439724006e289000fe289000d7
:1043a80000f307000000e00001003c000044eb00bf
:1043b8000804e00004003200004022004197240075
:1043c800602f9800712f980018c0b3006011b800d2
:1043d8000e3090009e309000f0f207000000e000e0
:1043e800010035000044eb000804e000040032003e
:1043f8006000b80000379800113798000f003700a8
:1044080018c0b30002402200439724000e309000e9
:104418009e309000e3f207000000e00001003c003d
:104428000044eb000804e0000400320000402200d1
:104438004197240000379800113798009284800033
:10444800a3848000221f9800331f98007284800084
:1044580083848000421f9800531f98004e199000d3
:10446800de1990002e289000be289000dff007008b
:10447800601f9800711f98002e199000be199000b7
:104488004e289000de289000d8f0070000279800fa
:10449800112798006e199000fe1990000e209000c8
:1044a8009e2090002ff107002027980031279800c0
:1044b8006e199000fe1990006e189000fe1890007a
:1044c8001af407000004be000e2190009e219000ff
:1044d8000e2090009e20900014f407000001be00fa
:1044e8000800be00c2f00700aff40700402798009c
:1044f800512798000e3190009e3190006227980055
:10450800732798006000b800200f9800310f9800ba
:104518006000b800400f9800510f98006000b80084
:10452800600f9800710f980039003700a2702d00b5
:1045380033c223006e209000fe209000fbf307009a
:104548000001be002e089000be089000a8f00700e9
:10455800200f9800310f98002e099000be09900096
:104568004e089000de089000a1f00700a2702d0010
:1045780033c22300edf307000200200003002400eb
:10458800e0f107000001be006e089000fe089000f0
:1045980097f00700600f9800710f98002e20900088
:1045a800be20900071f107006e099000fe0990008e
:1045b800def307004e199000de1990008cf007001a
:1045c800d0848800e18488002e209000be209000ce
:1045d80073f407006e099000fe099000d3f30700fa
:1045e8002e199000be19900081f00700f084880011
:1045f800018588002e099000be099000420f98009e
:10460800530f9800a000200001002000b9160700f1
:1046180018c0b3006e299000fe2990002e08900063
:10462800be0890005df207000000e00001003500c0
:104638000044eb000804e0000e00320002002000f5
:10464800030024004e209000de209000adf107000a
:1046580018c0b3006e099000fe09900051f20700df
:104668000000e00001003c000044eb000804e0000a
:10467800aeff3a006e099000fe099000022f9800e4
:10468800132f980018c0b3006e299000fe299000df
:104698002e089000be08900042f207000000e000db
:1046a80001003c000044eb000804e0002e0032004a
:1046b8006e299000fe299000220f9800330f980071
:1046c8002a003700a2702d0033c223002e08900064
:1046d800be08900095f307000001be006e08900028
:1046e800fe08900042f00700600f9800710f9800d4
:1046f8002e209000be2090001cf107006e0990004b
:10470800fe09900089f307004e199000de19900009
:1047180037f00700d0848800e18488002e209000bc
:10472800be2090001ef407006e099000fe0990005c
:104738007ef307002e199000be1990002cf0070098
:10474800f0848800018588002e099000be09900039
:10475800420f9800530f9800a0002000010020008d
:104768006416070001003700000000000e299000c1
:104778009e2990004e209000de2090001bf007003c
:1047880018c0b3006e099000fe09900005f20700fa
:104798000000e00001003c000044eb000804e000d9
:1047a800c8ff3a006e209000fe20900001f0a200a1
:1047b800602798007127980039003700a2702d00f3
:1047c80033c223006e209000fe20900057f30700ac
:1047d8000001be002e089000be08900004f00700fb
:1047e800200f9800310f98002e099000be09900004
:1047f8004e089000de089000fdef0700a2702d0023
:1048080033c2230049f307000200200003002400fc
:104818003cf107000001be006e089000fe08900001
:10482800f3ef0700600f9800710f98002e2090009a
:10483800be209000cdf007006e099000fe099000a0
:104848003af307004e199000de199000e8ef0700d0
:10485800d0848800e18488002e209000be2090003b
:10486800cff307006e099000fe0990002ff30700b0
:104878002e199000be199000ddef0700f084880023
:10488800018588002e099000be099000420f98000b
:10489800530f9800a0002000010020001516070003
:1048a80018c0b3006011b8002e089000be08900030
:1048b800bcf107000000e00001003c000044eb00f0
:1048c8000804e0000b00320018c0b3004e2190002d
:1048d800de2190006e089000fe089000aff10700fe
:1048e8000000e000010035000044eb000804e0008f
:1048f800b2ff3a002e299000be299000d284880089
:10490800e38488004e299000de299000f284880014
:10491800038588002870ef004f04be000080fa006d
:10492800000006002800fa00881f78002017980069
:1049380031179800b0848000c18480000001be0057
:104948002e109000be109000a8ef0700008fbe0048
:1049580005003700b2fd2000930c24001e00be00a5
:10496800a3ef0700008fbe0018c0b300b2fd2000ff
:1049780093042c001e00be0088f107000000e00030
:10498800010035000044eb000804e000f1ff3a00a4
:1049980005003700b2fd2000930c24001e00be0065
:1049a80092ef0700008fbe0018c0b300b2fd2000d0
:1049b800930424001e00be007af107000000e00006
:1049c80001003c000044eb000804e000f1ff3a005d
:1049d800708480008184800030858800418588004b
:1049e80090848000a18480005085880061858800bb
:1049f800b0848000c184800070858800818588002b
:104a0800b2848000c3848000220f9800330f98007e
:104a18000000200001042400400f9800510f980066
:104a28000000200001042400600f9800710f980016
:104a38006000b80020079800310798006000b800af
:104a480040079800510798006000b8006007980078
:104a58007107980018c0b3006011b8001e00be00ae
:104a680050f107000000e00001003c000044eb00aa
:104a78000804e000050032000000200001f82300cf
:104a8800000f9800110f9800350037000000200033
:104a980001f82b00000f9800110f98001e00be00af
:104aa80001f0a200008fbe002d003700a2702d007b
:104ab80033c223004e089000de0890009bf20700e6
:104ac8000001be002e009000be00900048ef0700d5
:104ad80020079800310798002e019000be01900031
:104ae8004e009000de00900041ef0700a2702d00fc
:104af80033c223008df207000200200003002400c7
:104b080080f007000001be006e009000fe009000db
:104b180037ef070060079800710798000e099000aa
:104b28009e0990006e009000fe0090007ff2070042
:104b38002e099000be0990002def0700108588000f
:104b4800218588002e019000be0190004207980040
:104b580053079800a00020000100200065150700f9
:104b680018c0b3006e099000fe0990002e00900056
:104b7800be00900009f107000000e00001003500c8
:104b88000044eb000804e0000d00320002002000a1
:104b9800030024001e00be005af0070018c0b3002e
:104ba8006e019000fe019000fef007000000e0009a
:104bb80001003c000044eb000804e000bbff3a00a1
:104bc8006e019000fe0190000217980013179800dc
:104bd8001c003700a2702d0033c223002e00900065
:104be800be00900051f207000001be006e00900068
:104bf800fe009000feee070060079800710798001d
:104c08000e0990009e0990006e009000fe00900032
:104c180046f207002e099000be099000f4ee070046
:104c280010858800218588002e019000be01900023
:104c38004207980053079800a000200001002000b8
:104c48002c1507000e1190009e1190001e00be004a
:104c5800e6ee070018c0b3006e019000fe01900058
:104c6800d0f007000000e00001003c000044eb0029
:104c78000804e000d7ff3a004e089000de089000d4
:104c880001f0a200400f9800510f98002d00370046
:104c9800a2702d0033c223004e089000de08900059
:104ca80022f207000001be002e009000be00900016
:104cb800cfee070020079800310798002e019000da
:104cc800be0190004e009000de009000c8ee070084
:104cd800a2702d0033c2230014f207000200200046
:104ce8000300240007f007000001be006e009000da
:104cf800fe009000beee070060079800710798005c
:104d08000e0990009e0990006e009000fe00900031
:104d180006f207002e099000be099000b4ee0700c5
:104d280010858800218588002e019000be01900022
:104d38004207980053079800a000200001002000b7
:104d4800ec14070018c0b3006011b8002e009000e2
:104d5800be00900093f007000000e00001003c0056
:104d68000044eb000804e0000a00320018c0b30059
:104d78001e01be006e009000fe00900087f0070044
:104d88000000e000010035000044eb000804e000ea
:104d9800bfff3a000e0990009e0990001e00be0059
:104da800e2f107002e099000be09900090ee07007e
:104db8001085880021858800401f20000100200000
:104dc800cc1407004f0478000080fa0000000600a9
:104dd8001400fa00889fbe00200798003107980049
:104de80042079800530798006407980075079800d1
:104df800060f9800170f98002e019000be01900032
:104e080062818800738188004e019000de01900065
:104e180082818800938188006e019000fe019000d5
:104e2800a2818800b38188000e0990009e09900035
:104e38002284880033848800648180007581800022
:104e480070848000818480000001be000400be00e0
:104e580066ee07000004be00848180009581800012
:104e680090848000a18480000001be000400be0080
:104e78005eee07000801be00baee0700008fbe0014
:104e8800b0848000c18480000001be001e00be0006
:104e980056ee0700e0818800f1818800070037009e
:104ea800e0818000f1818000b2fd2000930c240095
:104eb8004fee0700e0818800f1818800e0818000e2
:104ec800f181800018c0b300b2fd200093042c00cb
:104ed80032f007000000e000010035000044eb005c
:104ee8000804e000eeff3a0007003700e081800088
:104ef800f1818000b2fd2000930c24003bee0700f6
:104f0800e0818800f1818800e0818000f1818000e3
:104f180018c0b300b2fd20009304240021f007005c
:104f28000000e00001003c000044eb000804e00041
:104f3800eeff3a007084800081848000308588000c
:104f48004185880090848000a18480005085880075
:104f580061858800b0848000c184800070858800e5
:104f6800818588001071ef00b0848000c1848000c2
:104f780020828800318288000000200001f8230088
:104f8800a0828800b182880000002000011224005d
:104f980080828800918288006000b8004082880082
:104fa800518288006000b8006082880071828800a1
:104fb8006000b8000082880011828800e0818000cb
:104fc800f181800018c0b3006011b800f5ef070048
:104fd8000000e00001003c000044eb000804e00091
:104fe800050032000000200001f82300c08188007d
:104ff800d1818800090037000000200001f82b004b
:10500800c0818800d1818800e0818000f181800022
:1050180001f0a200e0818800f181880020848000ee
:105028003184800018c0b3006011b800dbef0700be
:105038000000e000010035000044eb000804e00037
:10504800040032006000b8002084880031848800a1
:105058000f003700208480003184800018c0b3001e
:105068000240220043972400ceef07000000e00032
:1050780001003c000044eb000804e000040032009a
:105088000040220041972400208488003184880051
:1050980018c0b3006011b8003eb89700ceb89700aa
:1050a800beef07000000e000010035000044eb00ff
:1050b8000804e000040032006000b80030bf9f0020
:1050c80041bf9f000f00370018c0b3000240220004
:1050d800439724003eb89700ceb89700b1ef070079
:1050e8000000e00001003c000044eb000804e00080
:1050f80004003200004022004197240030bf9f0086
:1051080041bf9f003eb99700ceb99700028488003e
:10511800138488006000b800c0838800d1838800a9
:105128006000b800e0838800f18388006000b80060
:10513800608388007183880010c0b3002af0b7002c
:1051480010c0b3002bf0b7004f04be000080fa0077
:10515800000006002800fa00881f78002017980031
:1051680031179800b0848000c18480000001be001f
:105178002e109000be1090009ced0700008fbe001e
:105188007084800081848000308588004185880093
:1051980090848000a1848000508588006185880003
:1051a800b0848000c1848000708588008185880073
:1051b800b2848000c3848000220f9800330f9800c7
:1051c8000000200001042400400f9800510f9800af
:1051d8000000200001122400600f9800710f980051
:1051e8006000b80020079800310798006000b800f8
:1051f80040079800510798006000b80060079800c1
:105208007107980018c0b3006011b8001e00be00f6
:1052180064ef07000000e00001003c000044eb00e0
:105228000804e000050032000000200001f8230017
:10523800000f9800110f980035003700000020007b
:1052480001f82b00000f9800110f98001e00be00f7
:1052580001f0a200008fbe002d003700a2702d00c3
:1052680033c223004e089000de089000aff007001c
:105278000001be002e009000be0090005ced07000b
:1052880020079800310798002e019000be01900079
:105298004e009000de00900055ed0700a2702d0032
:1052a80033c22300a1f007000200200003002400fd
:1052b80094ee07000001be006e009000fe00900012
:1052c8004bed070060079800710798000e099000e1
:1052d8009e0990006e009000fe00900093f0070079
:1052e8002e099000be09900041ed07001085880046
:1052f800218588002e019000be0190004207980089
:1053080053079800a000200001002000791307002f
:1053180018c0b3006e099000fe0990002e0090009e
:10532800be0090001def07000000e00001003500fe
:105338000044eb000804e0000d00320002002000e9
:10534800030024001e00be006eee070018c0b30064
:105358006e019000fe01900012ef07000000e000cf
:1053680001003c000044eb000804e000bbff3a00e9
:105378006e019000fe019000021798001317980024
:105388001c003700a2702d0033c223002e009000ad
:10539800be00900065f007000001be006e0090009e
:1053a800fe00900012ed0700600798007107980052
:1053b8000e0990009e0990006e009000fe0090007b
:1053c8005af007002e099000be09900008ed07006a
:1053d80010858800218588002e019000be0190006c
:1053e8004207980053079800a00020000100200001
:1053f800401307000e1190009e1190001e00be0081
:10540800faec070018c0b3006e019000fe0190008e
:10541800e4ee07000000e00001003c000044eb005f
:105428000804e000d7ff3a004e089000de0890001c
:1054380001f0a200400f9800510f98002d0037008e
:10544800a2702d0033c223004e089000de089000a1
:1054580036f007000001be002e009000be0090004c
:10546800e3ec070020079800310798002e01900010
:10547800be0190004e009000de009000dcec0700ba
:10548800a2702d0033c2230028f00700020020007c
:10549800030024001bee07000001be006e00900010
:1054a800fe009000d2ec0700600798007107980092
:1054b8000e0990009e0990006e009000fe0090007a
:1054c8001af007002e099000be099000c8ec0700ea
:1054d80010858800218588002e019000be0190006b
:1054e8004207980053079800a00020000100200000
:1054f8000013070018c0b3006011b8002e00900018
:10550800be009000a7ee07000000e00001003c008c
:105518000044eb000804e0000a00320018c0b300a1
:105528001e01be006e009000fe0090009bee07007a
:105538000000e000010035000044eb000804e00032
:10554800bfff3a000e0990009e0990001e00be00a1
:10555800f6ef07002e099000be099000a4ec0700a2
:105568001085880021858800401f20000100200048
:10557800e01207004f0478000080fa0000000600df
:105588000000fa006000b8007084880081848800f8
:105598006000b80090848800a18488006000b8008a
:1055a800b0848800c1848800708480008184800071
:1055b800d0848800e184880090848000a1848000e1
:1055c800f084880001858800b0848000c184800050
:1055d800108588002185880070848000818480007f
:1055e800308588004185880090848000a1848000ef
:1055f8005085880061858800b0848000c18480005f
:10560800708588008185880000000000bbd0bf003d
:105618000004e000fdff3a0000002000812c240077
:10562800809fbe0006002000a74724006022b80023
:1056380002002000633924000000200061392400a2
:10564800e3fd0700e4875700ceff37000000fa00ab
:10565800360007000080fa00000006000000fa008b
:105668002188a9002168a90010cea90010aea800c1
:1056780050022000203688002134800000fc2f00d2
:10568800008060000000a0002034880021e2a9000a
