:020000040000fa
:080000000002040000000000f2
:020000040000fa
:040008007a16000064
:020000040000fa
:04000c007a16000060
:020000040000fa
:040010007a1600005c
:020000040000fa
:040014007a16000058
:020000040000fa
:040018007a16000054
:020000040000fa
:04001c007a16000050
:020000040000fa
:040020007a1600004c
:020000040000fa
:040024007a16000048
:020000040000fa
:040028007a16000044
:020000040000fa
:04002c007a16000040
:020000040000fa
:040030007a1600003c
:020000040000fa
:040034004005000083
:020000040000fa
:040038006a16000044
:020000040000fa
:04003c007a16000030
:020000040000fa
:040040007a1600002c
:020000040000fa
:040044007a16000028
:020000040000fa
:04004800da150000c5
:020000040000fa
:04004c007a16000020
:020000040000fa
:04005000fa020000b0
:020000040000fa
:040054007a16000018
:020000040000fa
:040058007a16000014
:020000040000fa
:04005c007a16000010
:020000040000fa
:040060007216000014
:020000040000fa
:040064007a16000008
:020000040000fa
:040068007a16000004
:020000040000fa
:04006c007a16000000
:020000040000fa
:040070007a160000fc
:020000040000fa
:04007400aa030000db
:020000040000fa
:040078007a160000f4
:020000040000fa
:04007c007a160000f0
:020000040000fa
:040080007a160000ec
:020000040000fa
:040084007a160000e8
:020000040000fa
:040088007a160000e4
:020000040000fa
:04008c007a160000e0
:020000040000fa
:040090007a160000dc
:020000040000fa
:040094007a160000d8
:020000040000fa
:04009800ec15000063
:020000040000fa
:04009c007a160000d0
:020000040000fa
:0400a0007a160000cc
:020000040000fa
:0400a400041600003e
:020000040000fa
:0400a8007a160000c4
:020000040000fa
:0400ac0080030000cd
:020000040000fa
:0400b0007a160000bc
:020000040000fa
:0400b4007a160000b8
:020000040000fa
:0400b8007a160000b4
:020000040000fa
:0400bc007a160000b0
:020000040000fa
:0400c0007a160000ac
:020000040000fa
:0400c4007a160000a8
:020000040000fa
:0400c8007a160000a4
:020000040000fa
:0400cc007a160000a0
:020000040000fa
:0400d0007a1600009c
:020000040000fa
:0400d4007a16000098
:020000040000fa
:0400d8007a16000094
:020000040000fa
:0400dc007a16000090
:020000040000fa
:0400e0007a1600008c
:020000040000fa
:0400e4007a16000088
:020000040000fa
:0400e8007a16000084
:020000040000fa
:0400ec007a16000080
:020000040000fa
:0400f0007a1600007c
:020000040000fa
:0400f4007a16000078
:020000040000fa
:0400f8007a16000074
:020000040000fa
:0400fc007a16000070
:020000040000fa
:040100007a1600006b
:020000040000fa
:040104007a16000067
:020000040000fa
:040108007a16000063
:020000040000fa
:04010c007a1600005f
:020000040000fa
:040110007a1600005b
:020000040000fa
:040114007a16000057
:020000040000fa
:040118007a16000053
:020000040000fa
:04011c007a1600004f
:020000040000fa
:040120007a1600004b
:020000040000fa
:040124007a16000047
:020000040000fa
:040128007a16000043
:020000040000fa
:04012c007a1600003f
:020000040000fa
:040130007a1600003b
:020000040000fa
:040134007a16000037
:020000040000fa
:040138007a16000033
:020000040000fa
:04013c007a1600002f
:020000040000fa
:040140007a1600002b
:020000040000fa
:040144007a16000027
:020000040000fa
:040148007a16000023
:020000040000fa
:04014c007a1600001f
:020000040000fa
:040150007a1600001b
:020000040000fa
:040154007a16000017
:020000040000fa
:040158007a16000013
:020000040000fa
:04015c007a1600000f
:020000040000fa
:040160007a1600000b
:020000040000fa
:040164007a16000007
:020000040000fa
:040168007a16000003
:020000040000fa
:04016c007a160000ff
:020000040000fa
:040170006216000013
:020000040000fa
:04017400321600003f
:020000040000fa
:040178007a160000f3
:020000040000fa
:04017c007a160000ef
:020000040000fa
:040180007a160000eb
:020000040000fa
:040184007a160000e7
:020000040000fa
:040188007a160000e3
:020000040000fa
:04018c007a160000df
:020000040000fa
:040190007a160000db
:020000040000fa
:040194007a160000d7
:020000040000fa
:040198007a160000d3
:020000040000fa
:04019c007a160000cf
:020000040000fa
:0401a0007a160000cb
:020000040000fa
:0401a4007a160000c7
:020000040000fa
:0401a8007a160000c3
:020000040000fa
:0401ac007a160000bf
:020000040000fa
:0401b0007a160000bb
:020000040000fa
:0401b4007a160000b7
:020000040000fa
:0401b8007a160000b3
:020000040000fa
:0401bc007a160000af
:020000040000fa
:0401c0007a160000ab
:020000040000fa
:0401c4007a160000a7
:020000040000fa
:0401c8007a160000a3
:020000040000fa
:0401cc007a1600009f
:020000040000fa
:0401d0007a1600009b
:020000040000fa
:0401d4007a16000097
:020000040000fa
:0401d8007a16000093
:020000040000fa
:0401dc007a1600008f
:020000040000fa
:0401e0007a1600008b
:020000040000fa
:0401e4007a16000087
:020000040000fa
:0401e8007a16000083
:020000040000fa
:0401ec007a1600007f
:020000040000fa
:0401f0007a1600007b
:020000040000fa
:0401f4007a16000077
:020000040000fa
:0401f8007a16000073
:020000040000fa
:0401fc007a1600006f
:020000040000fa
:040200007a1600006a
:020000040000fa
:040204007a16000066
:020000040000fa
:040208007a16000062
:020000040000fa
:04020c007a1600005e
:020000040000fa
:040210007a1600005a
:020000040000fa
:040214007a16000056
:020000040000fa
:040218007a16000052
:020000040000fa
:04021c007a1600004e
:020000040000fa
:040220007a1600004a
:020000040000fa
:040224007a16000046
:020000040000fa
:040228007a16000042
:020000040000fa
:04022c007a1600003e
:020000040000fa
:040230007a1600003a
:020000040000fa
:040234007a16000036
:020000040000fa
:040238007a16000032
:020000040000fa
:04023c007a1600002e
:020000040000fa
:040240007a1600002a
:020000040000fa
:040244007a16000026
:020000040000fa
:040248007a16000022
:020000040000fa
:04024c007a1600001e
:020000040000fa
:040250007a1600001a
:020000040000fa
:040254007a16000016
:020000040000fa
:040258007a16000012
:020000040000fa
:04025c007a1600000e
:020000040000fa
:040260007a1600000a
:020000040000fa
:040264007a16000006
:020000040000fa
:040268007a16000002
:020000040000fa
:04026c007a160000fe
:020000040000fa
:040270007a160000fa
:020000040000fa
:040274007a160000f6
:020000040000fa
:040278007a160000f2
:020000040000fa
:04027c007a160000ee
:020000040000fa
:040280007a160000ea
:020000040000fa
:100400000f2222000eff27000e01880000000000ce
:10041000000020000000e000020032000001200087
:100420002002880014000700340a07000000e000e2
:1004300003003a0000af2600010020000200370050
:100440000000200001002000810f70000100320038
:100450000f000700000020000000e0000200320052
:100460000000020000000000a624020000000000be
:100470000040da000000fe00601720000000e000ed
:1004800002003200002020009001880000000600d9
:10049000a1028800800478000000eb001f003700f4
:1004a000e284440054a0b4009905ba00e2844400f8
:1004b00054a0b4009906ba00e284440054a0b400e9
:1004c0000006eb00476fde00fd07b200ae018800ba
:1004d000636ce10003003a000ad801000000eb0061
:1004e0000e003700606ce10008003a00004deb00a0
:1004f0000a05e800020039003420ec000af0a000f0
:100500008b05e900f9ff3e00040037006168e10057
:10051000010032000086eb000b00070019c7ba008b
:100520000e04e0001905ba0003003a000a00e000da
:10053000dbff3a0000000600fe07b200ae028800b2
:100540008a047800f5ff37000cd0a300e20f4d00bd
:100550001c00390089027800354dba000a05e80010
:10056000020039003420ec000af0a0008b05e900fd
:100570000f003200254dba000a05e80002003900dc
:100580003420ec000af0a0008b05e90008003200de
:100590000c00e0000600320015cdba000a05e800a4
:1005a000020039003420ec000af0a0008b05e900bd
:1005b0008984e80054a0b4000b00e000e2ff3a0098
:1005c000000006009902ba00055d78008b05e9007d
:1005d000f7ff3200c82ade00055d78008b05e900d0
:1005e000f3ff32000c00e000f1ff320019ddba0029
:1005f000eeff3700809fbe000200fa00401280002c
:10060000004f7800b0cab3009e40780080cf500001
:1006100003003a0040c5b3002cf1b70031003700a9
:100620002cd1bf000080fb0011062000810f50007c
:100630002600320011062000810f50000a003c0005
:1006400071042000810f50001d0032004105200080
:10065000810f50000e00320001022000810f500077
:10066000140032001f00370081062000810f500067
:100670000a003200d1062000810f5000160032001f
:1006800051062000810f500007003200150037008e
:1006900080c6b3002cf1b7001200370050c6b3007b
:1006a0002cf1b7000f00370000c2b3002cf1b700e7
:1006b0000c00370070c4b3002cf1b70009003700fc
:1006c00010c6b3002cf1b70006003700d0c6b30047
:1006d0002cf1b7000300370050c6b3002cf1b7006f
:1006e000000000002cd1bf000080fb0040128800f9
:1006f0000148a9000080fa004f00be00004006003b
:100700003600f800809fbe00829fbe00849fbe001e
:10071000869fbe000200fa0040138000004f780060
:1007200040492a00942707001e80fb00541f070041
:10073000912707000428a9000080fa004f03be009b
:100740004f02be004f01be004f00be003600f90050
:10075000004006003600f800809fbe00829fbe0069
:10076000849fbe00869fbe00881f78003200f8007c
:100770003400f80010002000a001880000202000b4
:1007800090018800000000000400fa000268a9003f
:100790000000eb00000f7800d188800000102000de
:1007a00080806000107080004800de0061406000c2
:1007b0000080fb00808f50000500320030002000d8
:1007c000000f78000040eb00204798005d003700e4
:1007d000018980000000240080806000907180000a
:1007e0004e00de00614060000080fb00808f500002
:1007f0000500320030002000000f780010c0b30068
:10080000204798004f003700118980000000240025
:1008100080806000107280004e00de006140600049
:100820000080fb00808f5000050032003000200067
:10083000000f780020c0b300204798004100370027
:10084000118980000000210080806000107280000b
:100850004c00de00614060000080fb00808f500093
:100860000500320030002000000f780030c0b300d7
:1008700020479800330037002189800000002200c3
:1008800080806000907280004d00de00614060005a
:100890000080fb00808f50000500320030002000f7
:1008a000000f780040c0b3002047980025003700b3
:1008b000f18880000080200080806000107180003e
:1008c0004b00de00614060000080fb00808f500024
:1008d0000500320030002000000f780050c0b30047
:1008e0002047980017003700318980000000210060
:1008f00080806000107380004c00de00614060006a
:100900000080fb00808f50000300320010002000a8
:10091000000f78000b0037003189800000002200b2
:1009200080806000107380004d00de006140600038
:100930000080fb00808f5000020032002000200069
:10094000000f78001e007800e20f50002f003200e8
:10095000e30f50002f003a002e4090000080fb0073
:100960002120220000804000104078000004e000b8
:10097000110032002e4090000084fb00a00880008f
:100980008000eb00e70b0700c241dd00822022005f
:10099000028141000089be002e4090000080fb00d3
:1009a00021202200008040008040eb0001487800b8
:1009b00010c0b30027f0b7002e4090000080fb006d
:1009c000c11f220000804000104078000004e000b9
:1009d000120032001421ef002e4090000080fb0036
:1009e000c11f2200008040008040eb0001487800d9
:1009f0002e4090000080fb0021202200008040005b
:100a000011c0b30001487800050037000000000065
:100a10000300370000000000010037000000000064
:100a200010708000d088880090708000e088880076
:100a300010718000f0888800907180000089880023
:100a400010728000108988009072800020898800d0
:100a500010738000308988000080fa003400f900ab
:100a60003200f9004f0478004f03be004f02be0071
:100a70004f01be004f00be003600f90000400600e6
:100a80003600f800809fbe00829fbe00849fbe009b
:100a9000869fbe00889fbe008a9fbe005a00fa0053
:100aa0000068a900300e8000700f9800302e800082
:100ab00000179800c621ef00c625ef00a180800036
:100ac0007e08900000804000a0808800b1808000f7
:100ad0000e10900000804000b08088007e089000da
:100ae000cf80de00870b07001017980021179800b1
:100af00032179800431798000e109000cf80de0048
:100b0000800b070050179800611798007217980023
:100b1000031f9800600f21009000900020019000ba
:100b2000b0019000100078001e129000ae129000ec
:100b30003e139000ce139000cf0b07000205be00bd
:100b40000004be00e00e2100900090002001900003
:100b5000b0019000100078000203be000002be0049
:100b60000800be000a01be00c30b07001017980062
:100b7000211798003217980043179800600f210042
:100b80009000900020019000b001900010007800cb
:100b90000203be000002be005e109000ee10900046
:100ba0007e1190008e199000b30b0700501798002b
:100bb0006117980072179800031f98005e1290004a
:100bc000ee1290007e1390008e1b90001e1090007d
:100bd000ae1090003e119000ce1190004808070022
:100be0006022b8000600200007002400ae090700bc
:100bf000101f9800211f9800321f9800431f980073
:100c0000d0848000e18480008d0a07000205be00c8
:100c10000004be001e129000ae1290003e13900021
:100c2000ce1390005e109000ee1090007e119000a8
:100c30008e199000da0c07000203be000002be000d
:100c4000142f9800252f9800362f9800472f9800d2
:100c5000e00f21009000900020019000b001900072
:100c6000100078000203be000002be001e289000a3
:100c7000ae2890003e299000ce2990008a090700f6
:100c80000203be000002be000800be000a01be0052
:100c90001b080700c40c0700d0848800e18488008a
:100ca00090848000a1848000650a07000205be00d0
:100cb0000004be00d0848000e18480006e0907003b
:100cc0005f0a07001e1a9000ae1a90003e1b9000ab
:100cd000ce1b9000680b07000203be000002be009e
:100ce0000800be000a01be0005080700ae0c0700a0
:100cf00090848800a1848800b0848000c184800032
:100d00004f0a07000205be000004be00d084800028
:100d1000e18480006b0c0700490a07001e1a90004e
:100d2000ae1a90003e1b9000ce1b9000520b0700a5
:100d30000203be000002be000800be000a01be00a1
:100d4000ef070700980c0700b0848800c184880072
:100d5000008080000000e8000080880000808000a3
:100d6000e90f5000340736000030ef00a08080000b
:100d7000cf80de00e30a0700501f9800611f980033
:100d8000721f980003279800b0808000cf80de009b
:100d9000dc0a0700102798002127980032279800c6
:100da00043279800600f21009000900020019000e0
:100db000b0019000100078005e1a9000ee1a9000ca
:100dc0007e1b90008e2390002b0b07006022b80042
:100dd00006002400f7082400270b07006022b80053
:100de00006002000470224002f090700501f98002a
:100df000611f9800721f980003279800600f210060
:100e00009000900020019000b00190001000780048
:100e10001e229000ae2290003e239000ce23900030
:100e2000150b07006022b80006002400f708240014
:100e3000110b07006022b8000600200047022400c2
:100e400019090700102798002127980032279800d9
:100e5000432798001430ef001630ef00f484800030
:100e60000585800090848000a18480000001be0080
:100e70000400be00200807000004be0014858000a6
:100e800025858000b0848000c18480000001be0000
:100e90000400be00180807000801be00740807001f
:100ea0005027980061279800548580006585800050
:100eb00090848000a18480000001be000400be0078
:100ec0000d0807000004be00748580008585800041
:100ed000b0848000c18480000001be000400be0018
:100ee000050807000801be0061080700008fbe006a
:100ef00028d0bf000004e0000e003200b2fd200048
:100f0000930424001e0078009e009000fa0707005a
:100f1000008fbe0008003700b2fd2000930c2400b3
:100f20001e0078009e009000f4070700008fbe00ae
:100f30000100370000000000d0848000e1848000c0
:100f40000001be001e0078009e009000ea07070026
:100f500018c0b300b2fd200093042c00d70907008d
:100f60000000e000010035000044eb000804e00050
:100f7000e9ff3a0006003700b2fd2000930c240080
:100f80001e0078009e009000db070700008fbe0067
:100f9000d0848000e18480000001be001e00780043
:100fa0009e009000d407070018c0b300b2fd2000d7
:100fb00093042400c30907000000e00001003c0086
:100fc0000044eb000804e000ebff3a00d08480000e
:100fd000e18480000001be001e0078009e009000a9
:100fe000c507070018c0b300b2fd200093fc2b001a
:100ff000b20907000000e000010035000044eb00ea
:101000000804e00006003200b2fd20009304240032
:101010001e0078009e009000b8070700008fbe00f9
:10102000d0848000e18480000001be001e007800b2
:101030009e009000b007070018c0b300b2fd20006a
:1010400093fc23009f0907000000e00001003c0022
:101050000044eb000804e00006003200b2fd20006e
:10106000930424001e0078009e009000a207070051
:10107000008fbe0094848000a5848000508580008d
:10108000618580000001be000400be009a070700d1
:101090000004be0094848000a584800050858000f8
:1010a000618580000001be000400be0092070700b9
:1010b0000001be000800be00e50a07000004be00f3
:1010c000b4848000c58480007085800081858000a4
:1010d0000001be000400be00870707000005be0037
:1010e000b4848000c5848000708580008185800084
:1010f0000001be000400be007f0707000001be0023
:101100000a00be00d20a07000001be000800be00af
:101110007a0707006d0b070070279800012f9800d1
:1011200094848000a5848000f08480000185800084
:101130000001be000400be006f0707000004be00ef
:1011400094848000a5848000f08480000185800064
:101150000001be000400be00670707000001be00da
:101160000800be00ba0a07000004be00b484800074
:10117000c584800010858000218580000001be00ac
:101180000400be005c0707000005be00b4848000b8
:10119000c584800010858000218580000001be008c
:1011a0000400be00540707000001be000a00be0094
:1011b000a70a07000001be000800be004f07070095
:1011c000420b07002007980031079800d084800068
:1011d000e18480005e219000ee2190004607070028
:1011e000400798005107980007003700b2fd200023
:1011f000930c24004e009000de0090003e07070094
:10120000400798005107980018c0b300b2fd2000b5
:10121000930424004e009000de009000290907008e
:101220000000e00001003c000044eb000804e00086
:10123000eeff3a0007003700b2fd2000930c2400b7
:101240004e009000de0090002c0707004007980039
:101250005107980018c0b300b2fd200093042c0081
:101260004e009000de009000140907000000e0002e
:10127000010035000044eb000804e000eeff3a00f6
:1012800018c0b300b2fd200093fc2b004e0090006c
:10129000de0090000b0907000000e00001003c00a8
:1012a0000044eb000804e0001000320018c0b30056
:1012b000b2fd200093fc23004e009000de00900061
:1012c000fe0807000000e000010035000044eb00cc
:1012d0000804e000050032002e009000be009000df
:1012e00001f0a200200798003107980018c0b30051
:1012f00002002000832424007e2090008e2890008d
:10130000f00807000000e00001003c000044eb0092
:101310000804e0000b003a0018c0b30002002000ef
:1013200083242c007e2090008e289000e308070084
:101330000000e000010035000044eb000804e0007c
:10134000080032001e0078009e009000bc080700d4
:101350000203be000002be0040fc2100a22b0700d9
:10136000070037003085800041858000b408070001
:101370000203be000002be0040fc21009a2b0700c1
:101380002e009000be009000ad0807000203be00d2
:101390000002be00c0f32100b52b0700020b0700be
:1013a0006007980071079800d0848000e184800075
:1013b000a30807000203be000002be0040fc21009b
:1013c000ab2b0700f80a0700000f9800110f9800d8
:1013d00018c0b30002002000030a24007e20900001
:1013e0008e289000b50807000000e00001003500dd
:1013f0000044eb000804e0000300320010c0b3001a
:101400002af0b7000c00370018c0b300020020001b
:10141000031224007e2090008e289000a908070067
:101420000000e00001003c000044eb000804e00084
:10143000010032002a70ef0040ff21009000900070
:1014400020019000b00190001000780018c0b30097
:101450000400200005002a009699290097fa23002d
:10146000870707000000e000010035000044eb00a2
:101470000804e0001300320040ff210090009000bb
:1014800020019000b00190001000780018c0b30057
:101490000400200005002a009699290097fa2b00e5
:1014a0007c0707000000e00001003c000044eb0066
:1014b0000804e0000300320010c0b3002bf0b700b6
:1014c0002100370040ff2100900090002001900093
:1014d000b00190001000780018c0b3000400200094
:1014e00005002a009699290097fb23006907070049
:1014f0000000e00001003c000044eb000804e000b4
:101500001100320040ff2100900090002001900067
:10151000b00190001000780018c0b3000400200053
:1015200005002a009699290097fb2b005407070015
:101530000000e000010035000044eb000804e0007a
:10154000010032002b70ef002ad0bf000004e00041
:101550000c00320006d1bf000004e0000900320098
:101560006000b80060079800710798002bd0bf009a
:101570000004e000030032006000b800000f980093
:10158000110f980006d1bf000004e00003003200f4
:101590006000b80060079800710798000e0990007d
:1015a0009e0990006e009000fe0090005206070019
:1015b000230807000203be000002be00c0e22100b3
:1015c000092b07000e0990009e0990006e00900004
:1015d000fe00900049060700190807000203be003c
:1015e0000002be0040eb2100ff2a07005e1a9000b7
:1015f000ee1a90007e1b90008e239000c0e2210026
:101600001b2b0700680a0700200f9800310f980075
:101610001e229000ae2290003e239000ce23900028
:1016200040eb2100122b07005f0a0700400f9800d3
:10163000510f9800c0f6210090009000200190000a
:10164000b00190001000780018c0b3006022b8000c
:101650000600200007022400090707000000e00040
:10166000010035000044eb000804e0007d0032007a
:10167000c0f621009000900020019000b001900081
:101680001000780018c0b3006022b80006002000e7
:1016900007022c00ff0607000000e00001003c00ec
:1016a0000044eb000804e0006e00320040ff21001f
:1016b0009000900020019000b00190001000780090
:1016c00018c0b3000400200005002a0096992900e4
:1016d00097fa2300ea0607000000e0000100350049
:1016e0000044eb000804e0005e00320040ff2100ef
:1016f0009000900020019000b00190001000780050
:1017000018c0b3000400200005002a0096992900a3
:1017100097fa2b00df0607000000e00001003c0004
:101720000044eb000804e0004e00320018c0b30093
:101730006022b80006002000470124005e189000d7
:10174000ee1890007e1990008e219000cc060700c4
:101750000000e000010035000044eb000804e00058
:101760004000320018c0b3006022b800060020001c
:1017700047012c005e189000ee1890007e19900032
:101780008e219000c30607000000e00001003c002d
:101790000044eb000804e0003200320018c0b3003f
:1017a0006022b80006002000470124001e2090009f
:1017b000ae2090003e219000ce219000b0060700a0
:1017c0000000e000010035000044eb000804e000e8
:1017d0002400320018c0b3006022b80006002000c8
:1017e00047012c001e209000ae2090003e2190006a
:1017f000ce219000a70607000000e00001003c0099
:101800000044eb000804e0001600320006d1bf00df
:10181000e14f500013003a006000b800200f98001c
:10182000310f98006000b800400f9800510f9800e9
:1018300044e721006000b8006011b800009abe00c3
:101840000292be0044e721006000b8006011b800b9
:10185000009abe000292be0010c0b300bcf0b700f8
:1018600001003700bc70ef00408080005180800094
:101870000001be004e089000de0890009e050700a3
:101880000002be00508780006187800018c0b3004e
:101890000001be000400be008a0707000000e0004f
:1018a00001003c000044eb000804e0000a003200a4
:1018b00044808000558080005087800061878000d0
:1018c0000001be000400be008c050700400f980018
:1018d000510f98001c00370040808000518080002c
:1018e0000001be004e089000de089000820507004f
:1018f0000002be00508780006187800001f0a200d6
:1019000018c0b3000001be000400be006b07070052
:101910000000e000010035000044eb000804e00096
:10192000090032004480800055808000508780008c
:10193000618780000001be000400be006e05070044
:10194000400f9800510f9800208080003180800067
:101950000001be002e089000be089000660507003a
:101960000002be00508780006187800018c0b3006d
:101970000001be000400be00520707000000e000a6
:1019800001003c000044eb000804e0000a003200c3
:10199000248080003580800050878000618780002f
:1019a0000001be000400be0054050700200f98008f
:1019b000310f98001c0037002080800031808000ab
:1019c0000001be002e089000be0890004a050700e6
:1019d0000002be00508780006187800001f0a200f5
:1019e00018c0b3000001be000400be0033070700aa
:1019f0000000e000010035000044eb000804e000b6
:101a000009003200248080003580800050878000eb
:101a1000618780000001be000400be00360507009b
:101a2000200f9800310f98002e0b9000be0b9000f5
:101a300026808800378088004e099000de099000db
:101a40004280880053808800bfd0bf000004e000bf
:101a5000e9003a00c0d0bf000004e0006d00320091
:101a600007d1bf000004e000480032006010810090
:101a70007110810018c0b3000200200063392400f7
:101a8000100707000000e00001003c000044eb00ec
:101a90000804e0000b00320060108100711081002a
:101aa00018c0b30002002000a3472400030707006a
:101ab0000000e000010035000044eb000804e000f5
:101ac0002c003a00401081005110810018c0b30072
:101ad0000200200063392400fa0607000000e0003d
:101ae00001003c000044eb000804e0000b00320061
:101af000401081005110810018c0b3000200200086
:101b0000a3472400ed0607000000e00001003500b7
:101b10000044eb000804e00016003a008010810049
:101b20009110810018c0b300020020006339240026
:101b3000e40607000000e00001003c000044eb0068
:101b40000804e0000f003200801081009110810035
:101b500018c0b30002002000a3472400d7060700e6
:101b60000000e000010035000044eb000804e00044
:101b70000400320026d0bf000040e80026f0b70085
:101b80001d0037002670ef001b003700c0108100d9
:101b9000d110810018c0b300020020006339240076
:101ba000c80607000000e00001003c000044eb0014
:101bb0000804e0000f003200c0108100d110810045
:101bc00018c0b30002002000a3472400bb06070092
:101bd0000000e000010035000044eb000804e000d4
:101be0000400320026d0bf000040e80026f0b70015
:101bf000010037002670ef0026d0bf00ea4f5000ea
:101c0000040036006011b8006000b8006f250700be
:101c1000ffff37002e099000be0990004e0890008b
:101c2000de089000f3260700c0f621009000900027
:101c300020019000b00190001000780018c0b3009f
:101c40006022b80006002000e70424009105070088
:101c50000000e00001003c000044eb000804e0004c
:101c600065003a00c0f6210090009000200190002d
:101c7000b00190001000780018c0b3006022b800d6
:101c800006002000e7042c007d0507000000e000ae
:101c9000010035000044eb000804e00056003a0063
:101ca00040ff21009000900020019000b0019000c2
:101cb0001000780018c0b3000400200005002c00bc
:101cc000c6cc2c00c7fe2300720507000000e00010
:101cd00001003c000044eb000804e00046003a002c
:101ce00040ff21009000900020019000b001900082
:101cf0001000780018c0b3000400200005002c007c
:101d0000c6cc2c00c7fe2b005d0507000000e000dc
:101d1000010035000044eb000804e00036003a0002
:101d2000c0e521009000900020019000b0019000db
:101d30001000780018c0b3006022b8000600200030
:101d400057032400530507000000e00001003c0099
:101d50000044eb000804e00027003a00c0e5210041
:101d60009000900020019000b001900010007800d9
:101d700018c0b3006022b8000600200057032c00f2
:101d80003f0507000000e000010035000044eb00c3
:101d90000804e00018003a0040ee21009000900096
:101da00020019000b00190001000780018c0b3002e
:101db0006022b80006002000570324003505070004
:101dc0000000e00001003c000044eb000804e000db
:101dd00009003a0040ee21009000900020019000a0
:101de000b0019000100078006022b80006002000ca
:101df00057032c002205070060818000e40f50008b
:101e000076003a002c30ef006022b8000600240073
:101e1000f70824005e189000ee1890007e199000dc
:101e20008e21900014070700280607000001be005d
:101e3000b0c0b300ff210700c0e421009000900073
:101e400020019000b0019000100078006022b800de
:101e500006002400f7082400070707001b060700f8
:101e60000001be00c0c0b300f22107006022b8002c
:101e700006002400f70824001e209000ae209000e9
:101e80003e219000ce219000fb0607000f060700c0
:101e90000001be0050c1b300e621070040ed210063
:101ea0009000900020019000b00190001000780098
:101eb0006022b80006002400f7082400ee060700a0
:101ec000020607000001be0060c1b300d92107006f
:101ed00090848000a184800002002000a347240099
:101ee0005b070700250607000001be00f0c1b30034
:101ef000d0210700f08480000185800002002000ce
:101f0000a3472400520707001c0607000001be007b
:101f100000c2b300c7210700b0848000c1848000e4
:101f200002002000a347240049070700130607000a
:101f30000001be0010c2b300be2107001085800062
:101f40002185800002002000a347240040070700ed
:101f50000a0607000001be0020c2b300b521070039
:101f6000d0848000e184800002002000a347240088
:101f7000370707000200200043332400340707001e
:101f8000b2fd20009304240021050700fb05070093
:101f90000001be0090c2b300a6210700308580007a
:101fa0004185800002002000a34724002807070085
:101fb000020020004333240025070700b2fd200063
:101fc0009304240012050700ec0507000001be0081
:101fd000a0c2b30097210700030037006081800092
:101fe0000000e800608188002ed0bf000080fb0068
:101ff000e10f500003003200e20f500046013200b2
:102000008d0237002fd0bf000080fb00e20f500090
:102010005f003200e30f500099003200e10f5000e2
:1020200082023a006482800075828000a082800073
:10203000b182800018c0b3000001be000400be00e1
:102040009e0507000000e000010035000044eb00a1
:102050000804e00047003200008280001182800006
:102060000200200003002400e90407000002be0073
:10207000208280003182800018c0b3000001be00c1
:102080000400be008f0507000000e00001003c00d6
:102090000044eb000804e00036003200c0828000fb
:1020a000d1828000a2702d0033c22300e806070011
:1020b0000002be0060828000718280000001be00cc
:1020c0000400be008d0307006082880071828800d2
:1020d000848280009582800060828000718280000e
:1020e0000001be000400be0084030700a2702d00a2
:1020f00033c22300d606070002002000030024009c
:10210000c30407000002be002082800031828000ec
:102110000001be000400be00780307002082880092
:10212000318288002482800035828000e081800036
:10213000f18180000001be000400be00c40607005b
:102140000002be0040828000518280000001be007b
:102150000400be00690307003085880041858800bf
:102160006082800071828000808288009182880075
:102170000600370020c0b3002ff0b7002082800097
:1021800031828000e0828800f1828800e10037001f
:102190000482800015828000e0828000f18280004d
:1021a0000001be000400be00530307000002be0091
:1021b000208280003182800018c0b3000001be0080
:1021c0000400be003f0507000000e00001003c00e5
:1021d0000044eb000804e00021003200608280002f
:1021e00071828000a2702d0033c223009806070080
:1021f0000002be0020828000318280000001be000b
:102200000400be003d030700208288003182880060
:102210002482800035828000e0818000f18180008e
:102220000001be000400be00890607000002be00d7
:1022300040828000518280000001be000400be0088
:102240002e03070030858800418588006082800069
:1022500071828000808288009182880007003700a8
:1022600030c0b3002ff0b700c0828000d182800060
:1022700001f0a200c0828800d1828800a50037004a
:10228000608280007182800018c0b3006011b800c5
:102290000c0507000000e00001003c000044eb00da
:1022a0000804e00043003200248280003582800070
:1022b000008280001182800018c0b3000001be00bf
:1022c0000400be00fd0407000000e000010035002e
:1022d0000044eb000804e00036003200c0828000b9
:1022e000d1828000a2702d0033c22300580607005f
:1022f0000002be0060828000718280000001be008a
:102300000400be00fd020700608288007182880020
:1023100084828000958280006082800071828000cb
:102320000001be000400be00f4020700a2702d00f0
:1023300033c22300460607000200200003002400e9
:10234000330407000002be0020828000318280003a
:102350000001be000400be00e802070020828800e1
:10236000318288002482800035828000e0818000f4
:10237000f18180000001be000400be0034060700a9
:102380000002be0040828000518280000001be0039
:102390000400be00d902070030858800418588000e
:1023a0006082800071828000808288009182880033
:1023b0005700370020c0b3002ef0b70010c0b300a4
:1023c0002ff0b7000482800015828000e081800039
:1023d000f18180000001be000400be001c06070061
:1023e0000002be0040828000518280000001be00d9
:1023f0000400be00c10207003085880041858800c6
:1024000080818000918180005085880061858800ee
:10241000a0818000b181800070858800818588005e
:10242000c0818000d181800090858800a1858800ce
:10243000b0848000c1848000a0838800b1838800bc
:1024400090848000a1848000c0838800d1838800ac
:102450008481800095818000c0838000d1838000ca
:102460000001be000400be00a30207000083880034
:1024700011838800a4818000b5818000a083800042
:10248000b18380000001be000400be009a02070074
:1024900020838800318388000083800011838000be
:1024a00024838000358380000001be000400be004c
:1024b000ef02070040838800518388000483800076
:1024c0001583800000838000118380000001be001e
:1024d0000400be00de0507000004be002483800067
:1024e0003583800020838000318380000001be009e
:1024f0000400be00d60507000001be000800be00b3
:102500007e020700710607006083880071838800df
:1025100000000000480137002fd0bf000080fb0002
:10252000e20f500083003200e30f5000d000320071
:10253000e10f50003f013a00e4838000f583800002
:10254000408480005184800018c0b3000001be00a8
:102550000400be00590407000000e000010035003f
:102560000044eb000804e0005a0032006083800061
:10257000718380000200200003002400a4030700f0
:102580000002be00808380009183800018c0b300e9
:102590000001be000400be004a0407000000e00085
:1025a00001003c000044eb000804e0004900320058
:1025b0002084800031848000a2702d0033c223006b
:1025c000a30507000002be00e0838000f1838000c5
:1025d0000001be000400be0048020700e08388003e
:1025e000f18388000484800015848000e0838000eb
:1025f000f18380000001be000400be003f0207001e
:10260000a2702d0033c223009105070002002000b4
:10261000030024007e0307000002be0080838000c8
:10262000918380000001be000400be003302070059
:1026300080838800918388004083800051838000dc
:102640000d0307000002be0080838000918380009c
:102650000001be000400be007d0507000002be00b0
:10266000c0838000d18380000001be000400be0052
:1026700022020700f08488000185880040838000e2
:10268000518380000f0607000002be008083800097
:10269000918380000001be000400be006c050700ad
:1026a0000002be00a0838000b18380000001be0054
:1026b0000400be00110207001085880021858800f3
:1026c000e0838000f183800000848800118488000a
:1026d0001700370020c0b3002ff0b70080838000c0
:1026e000918380006084880071848800e483800086
:1026f000f5838000408480005184800018c0b300be
:102700000001be000400be00ee0307000000e00070
:1027100001003c000044eb000804e000040032002b
:102720004084800051848000e0838800f183880029
:10273000bd00370064838000758380006084800062
:10274000718480000001be000400be00ea010700a1
:102750000002be00808380009183800018c0b30017
:102760000001be000400be00d60307000000e00028
:1027700001003c000044eb000804e000340032009b
:10278000e0838000f1838000a2702d0033c223001b
:102790002f0507000002be00808380009183800027
:1027a0000001be000400be00d40107008083880041
:1027b000918388004083800051838000ae0207002f
:1027c0000002be0080838000918380000001be0073
:1027d0000400be001e0507000002be00c08380008a
:1027e000d18380000001be000400be00c3010700c9
:1027f000f084880001858800408380005183800038
:10280000b00507000002be00808380009183800035
:102810000001be000400be000d0507000002be005e
:10282000a0838000b18380000001be000400be00d0
:10283000b20107001085880021858800e0838000b0
:10284000f18380000084880011848800070037002d
:1028500030c0b3002ff0b7002084800031848000a6
:1028600001f0a20020848800318488006e003700c7
:10287000e0838000f183800018c0b3006011b800cd
:10288000900307000000e00001003c000044eb0062
:102890000804e000560032008483800095838000a5
:1028a000608380007183800018c0b3000001be0007
:1028b0000400be00810307000000e00001003500b5
:1028c0000044eb000804e00049003200208480004e
:1028d00031848000a2702d0033c22300dc04070085
:1028e0000002be00e0838000f18380000001be0092
:1028f0000400be0081010700e0838800f1838800a6
:102900000484800015848000e0838000f1838000cf
:102910000001be000400be0078010700a2702d0077
:1029200033c22300ca040700020020000300240071
:10293000b70207000002be00808380009183800000
:102940000001be000400be006c0107008083880007
:1029500091838800408380005183800046020700f5
:102960000002be0080838000918380000001be00d1
:102970000400be00b60407000002be00c083800051
:10298000d18380000001be000400be005b0107008f
:10299000f084880001858800408380005183800096
:1029a000480507000002be008083800091838000fc
:1029b0000001be000400be00a50407000002be0026
:1029c000a0838000b18380000001be000400be002f
:1029d0004a0107001085880021858800e083800077
:1029e000f183800000848800118488000d00370086
:1029f0002e70ef0010c0b3002ff0b7008081800070
:102a000091818000f084880001858800a081800089
:102a1000b1818000108588002185880010c0b30036
:102a200006f1b700000000000300370000000000be
:102a3000010037000000000025d0bf000040e80082
:102a400025f0b70025d0bf00f34f500050003600ee
:102a50002570ef0027d0bf000004e00008003a0016
:102a600024d0bf000080fb00c200dd0080202200d7
:102a70000081400000c02300c16124000089be0025
:102a800024d0bf000040e80024f0b70024d0bf00ed
:102a9000e54f5000010036002470ef0024d0bf0045
:102aa0000080fb00e20f500012003200e20f5000e5
:102ab00005003c000000e0000a003200e10f500079
:102ac0000a00320013003700e40f50000d003200fe
:102ad000e40f500009003500e50f50000b003200f4
:102ae0000c003700148ea8000a00370035eea8004d
:102af0000800370045eea8000600370045aea800e4
:102b000004003700558ea80002003700656ea8004b
:102b1000000000000040eb00405f98000040eb0028
:102b2000405f98000f0037004e5890000080fb0077
:102b3000c11f2200008040008040eb000148780067
:102b40004e5890000080fb002120220000804000b1
:102b50008040eb00014878004e5890000040e800ab
:102b6000405f98004e589000e54f5000eeff360051
:102b70002770ef0024d0bf000080fb00c11f22009f
:102b80000080400011c0b3000148780021e1a80096
:102b90000080fa004f05be004f04be004f03be0088
:102ba0004f02be004f01be004f00be003600f900cc
:102bb00000400600801f78000000fa000108a9000c
:102bc00029d0bf000040e80029f0b7000080fa00db
:102bd0004f007800004006000000fa000388a900ba
:102be00021e1a9001821ef00148ea90035eea900fb
:102bf00045eea90045aea900558ea900656ea90055
:102c00000080fa00004006003600f800809fbe00f9
:102c1000829fbe00849fbe00869fbe000000fa0017
:102c200003e8a9004186800050868000808f500014
:102c300004003200021607000000fb00a01188000b
:102c400001003700cd70ef000080fa004f03be0096
:102c50004f02be004f01be004f00be003600f9001b
:102c6000004006003600f800809fbe00829fbe0034
:102c7000849fbe00869fbe000000fa000a68a9007b
:102c8000811221009140780029d1bf0080cf5000ef
:102c900004003200572807000000fb00a012880043
:102ca000010037002a71ef000080fa004f03be00d8
:102cb0004f02be004f01be004f00be003600f900bb
:102cc000004006000000fa000a48a9000080fa004f
:102cd000004006000000fa000088a9000080fa0009
:102ce000004006000000fa0001c8a9000080fa00b8
:102cf000004006000040da000000fe000000050071
:102d00002800fa00889fbe008a9fbe008c9fbe00ec
:102d100007067800878669000c003b0003047800f2
:102d20008704780008f0a10009f0a100840f50008a
:102d3000858f5800860f5900890f5c00030033000f
:102d40000cf0a20001003a000cf0a10023020700e1
:102d50006400e1005f003200780147006408e10090
:102d6000610032006c014700748557003200be00dc
:102d70001201be003a04be001a05be001e039000f8
:102d8000be0a90008503530006003d000004fd00cc
:102d90008104fd000205fd008305fd008703ea00b4
:102da000050378000df8a30004003200600414004d
:102db000e0841c0060051d00e0851d006022b80055
:102dc0007d0320000d38e1008006eb000b00390088
:102dd0004433dd00f300b200830173003900370093
:102de000848272000d027800e10664008b85d100b8
:102df0000a85d3008984d3000884d3008703e900bf
:102e0000f7ff3b0008004000898048000a014900a4
:102e10008b81490004003b0060001000e080180036
:102e200060011900e08119000358a3000900320075
:102e30008d82720084827200610260008301d10081
:102e40000281d3008180d3000080d3000603e80014
:102e50001b0037000348a30017003a000600e000fb
:102e6000170034000603e9000d00a300000048002d
:102e70008180480002014900838149000348a30082
:102e80000f003a000600e000090034000603e900e4
:102e90000000400081804800020149008381490010
:102ea00001003a000003eb000348a300f5ff3200e5
:102eb0006022b800020037008482720061826600de
:102ec0009a01070003f0a1000cf0a70003f0a00096
:102ed000d6013700640147006408e10002003a00af
:102ee0000df8a300ce013a0032007800b20078005d
:102ef0001201be00cd01370003f0a200889fbe0082
:102f00008a9fbe008c1f7800c3020700ca023300ec
:102f10006450e1004f0032006420e10052003200b2
:102f200003826c0007003b000905d0000306d000b7
:102f3000820f54000c065d000200390002003200ce
:102f400089017800030678008582550004003d0061
:102f50000003fd008103fd008502ea008b8542002d
:102f6000840f720002003b0060001000e080180037
:102f70006011b8000005eb007a28e1000a00390072
:102f800006007800c75ddd00f707b2008780750096
:102f90002d003700828171000a0178006105600010
:102fa0008180d1000080d3008502e900f9ff3b0059
:102fb000060440008784480002003b0060041400bf
:102fc000e0841c000988a300070032008a81710098
:102fd00082817100610164008904d1000884d300fa
:102fe0008b05e800170037000978a30013003a00aa
:102ff0000b00e000130034008b05e90008044400d6
:1030000089844c000a4474000978a3000d003a003a
:103010000b00e000070034008b05e90008044400c1
:1030200089844c0001003a000b0020000978a300bd
:10303000f7ff32000001eb000200370082817100cf
:103040000a017800390207000cf0a70001f0a00087
:10305000820237006420e10002003a00838f6c0096
:10306000820233000801be000200be007b0237006e
:10307000889fbe008a9fbe008c1f780066020700f2
:103080001002200002003b00808988006a0237009d
:103090008a0062006408e10002003a00808988002a
:1030a000720237006108e100fcff32000800be0038
:1030b00003047800d600070001f0a1000900070012
:1030c00008f0a600040037000001be0091042400af
:1030d000b0fd200088ff070009f0a70001f0a20062
:1030e0005e023700889fbe008a9fbe008c9fbe0094
:1030f0000004be00330207000800be008906780005
:103100006420e10008003900040032000160a000e2
:1031100012022000828988005300370091fc2300ae
:10312000b0fd20004e0037000006eb0009f0a100c2
:1031300003f82300020020000800be005f01070022
:103140000600340001f82300000020000801be0042
:10315000af0007000004be002c0020000800be00e5
:1031600093e82300320a23005401070012003400c0
:103170000801be00d1fd2300703d2b005fff07005a
:103180000005be00b3f32300f27a26000800be005b
:10319000af02070003f823000200200056ff0700db
:1031a0000801be0055ff07000a01be009800070095
:1031b0000004be000c06e8000800be0001f0a100fb
:1031c00002002000039823003c0107000800be0015
:1031d000160035000801be009d0207000005be0074
:1031e00032cd2c0043fb230044ff0700809fbe002c
:1031f0001269280003d52b000a00be0094020700c4
:10320000620f210013ef2b003cff07000a01be00f4
:103210008f0207004f01be007d0007000801be00bd
:103220008b0207000801be0034ff07000c00e0001d
:103230000b0032000c10a70001f0a200b2fd20002c
:1032400093fc23006260e1000400320022a9200008
:1032500063f023000c10a70063f8230027ff07008a
:103260000df0a70001f0a2004f06be004f05be0002
:103270004f04be00000006000081eb00a8023700ea
:103280008f1fd100830307008f87e9000000e00053
:1032900000000600809feb007e0307008f87e90097
:1032a0000000e000000006002800fa00889fbe0031
:1032b0008a9fbe008c9fbe0003866b00c70007007c
:1032c0006400e100440032006408e1004a0032007a
:1032d0006100e100460032006108e100490032006f
:1032e000ec0647006000b8003d02be003d03be0092
:1032f000f48657006011b8003d04be003d05be00d5
:103300007d0320000b0037000000a0008d06e900bf
:10331000130032000402420085824a0006034b007b
:1033200087834b0000004000818048000201490073
:10333000838149000802520089825a000a035b0017
:103340008b835b00f0ff3b000802420089824a0049
:103350000a034b008b834b008d06e900edff3a001a
:103360008482720086827200f707b2008782720040
:1033700001003200150020001e0490003e0b90005a
:1033800006035400e63fb0000368a30007003200c4
:103390000000a7000500a0008301d1000281d30036
:1033a0008180d3000080d3000603e8008301d100b0
:1033b0000281d3008180d3000080d3000002eb00a3
:1033c0000482d2005900070003f0a1000cf0a7000e
:1033d00003f0a00095003700640247006408e10094
:1033e0008f0032003400be003401be00f6ff37000b
:1033f0006108e1008a0032006011b8006000b80086
:10340000f1ff370003ff270002002000fbff370019
:10341000889fbe008a9fbe008c1f78007e01070037
:103420008501330003866c006450e1002e003200f9
:103430006420e100330032006150e1002f003200cf
:103440006120e1003100320085855500eb07b000b6
:10345000090020000804200005003700080444008b
:1034600089844c000a0031000603430087834b0027
:103470000001530081815b00f8ff33000203be00ae
:103480000800a0000804440089844c00f6ff3900bd
:10349000c639dd00830173000100320013002000f3
:1034a0008904d1000884d3000998a30005003200e4
:1034b0000800a7000300a0008904d1000884d300fd
:1034c0008b05e8008904d1000884d3000001eb00db
:1034d0000281d2001501070001f0a1000cf0a70045
:1034e00001f0a0005d0137006420e1005f013200bf
:1034f0000801be000200be00f7ff37006120e100b6
:103500005a0132006000b800f3ff370000002000cd
:1035100001f82700f0ff3700801feb00dd020700f5
:103520008f87e9000000e00000000600180020007e
:1035300057002000080453000d003d000600200045
:1035400097fc2f000740e1001e00340084827200c7
:10355000610260008301d1000281d3008180d30029
:103560000080d3000804e800f8ff3a00470020007c
:103570006104600005047400040464000d0032005e
:1035800061004000e080480060014900e08149009e
:1035900003b8a500070032000603e8006538e10023
:1035a00004003a008301d1000281d3008180d3005e
:1035b0000080d300f87f20000830e10003003500d0
:1035c000080378006000b8006011b8004433dd00e3
:1035d000f300b20083017300000006006804470096
:1035e0000294be000094be00fc0447008694be0016
:1035f0008494be0009007800f002070008007800fb
:10360000ee02070099007800814f70000b003b002c
:103610000800be00c80207004f00b10003003700d9
:10362000f3ff2700f2ff2f006110b9004f06be0024
:103630004f05be004f04be000080fa0000000600e7
:1036400081037800df0007000001be006000b800c1
:103650000478a30013003a006220e10015003e0048
:103660000d0039008301d1000281d3008180d30095
:103670008301d1000281d3008180d3008301d10076
:103680000281d3008180d3000538b000c42add0058
:10369000f300b2008381720007f0a70003f0a000de
:1036a00000000600f3ff2700f2ff2f006110b900b1
:1036b000fbff370003ff2700f7ff3700140020004f
:1036c000e5023700f4ff2f00e30237001400fa0090
:1036d000889fbe008a9fbe008c9fbe000004be0073
:1036e0000205be00680047000a90be000890be00b8
:1036f000b20207000070a7000bf0a10030432000c9
:103700009e02900080825200b0fe2f000028e1004f
:1037100011003d00b0fc2f000028e100150034002e
:103720001e0990008e0890007e0090000501b000f8
:103730000201d1008180d3000080d3008502e8001f
:10374000fbff3a000b00e000b8ff3b0060001000f8
:10375000e0801800b5ff3700f0ff2f00f1ff2700d1
:103760000b00e000b1ff3b0001002800000020003a
:10377000aeff37006000b800acff37000001be00ac
:10378000900007000470a70003f0a1006509b100d4
:10379000160032000d0035006828e10006003500f3
:1037a000f0ff2f00f1ff27000300e00013003b00b3
:1037b0000100280000000500000040008180480052
:1037c0008502e900fcff3a0008003700f88f42004c
:1037d00002003c008000eb00000005008100d100e9
:1037e0000080d3008502e800fcff3a000300e000ff
:1037f00002003b0060001000e0801800000006009e
:103800001400fa00889fbe008a9fbe008c9fbe00f5
:103810000004be000205be00680047000a90be001a
:103820000890be00650207000070a7000bf0a10021
:103830000bf8a30016003a009e02900030432000cf
:1038400080825200b0fe2f000028e1000d003c00f5
:10385000b0fc2f000028e1000d0034001e0990008c
:103860008e0890007e0090000501b0000201d1009a
:103870008180d3000080d3008502e800fbff3a007e
:103880006aff3700010028000000200067ff3700b2
:103890006000b80065ff37000001be004900070066
:1038a0000470a70003f0a10003f8a30013003a007e
:1038b0006509b10010003200090035006928e100f7
:1038c0000200350001002800000005000000400053
:1038d000818048008502e900fcff3a0000000600f4
:1038e000f88f4200050035008100d1000080d30030
:1038f0008502e800fcff3a00000006008000eb00b3
:10390000000005004f89de00820178006d0237005b
:103910004f89de00820178007a0237006011b8001a
:10392000880237006011b800b10237008100200022
:10393000618055000b003d000b00200061fe2f0050
:103940000100e1001d00340082817100610164000a
:103950008904d1000884d3000000e800faff3a008f
:10396000710020006100640003007000020060002c
:103970000900320061044400e0844c000988a5007d
:10398000050032008b05e8006808e10002003a00fb
:103990008904d1000884d300f20f20000258e1000e
:1039a00005003d00c75ddd00f907b20089807500a4
:1039b00008007800000006000bf827008b00780054
:1039c00000000500c70ade00f107b200f50fb200e3
:1039d00008003200e1cf4200020032000170a00076
:1039e00024000500810f700001003200040805006a
:1039f00044000500810f700002003a001400050029
:103a00008502e9000000400081c04800fcff3b0047
:103a10000170a000240005000004be00e9ff0700bb
:103a20000003be000405be000200be00e5ff070063
:103a3000844f7500000006000200be006450e100e3
:103a4000050036006420e100020036000968a3008a
:103a500001003a000800be000160a0004f06780097
:103a60004f05be004f04be0000000600f0ff2f000f
:103a7000f1ff2700f9ff37002800fa00889fbe00f9
:103a80008a9fbe008c9fbe0003866b00d3fe07009a
:103a90000028a30064003a000128a30068003a004f
:103aa0000008a30062003a000108a30066003a0083
:103ab0001e009000be08900081064000ed3fb1005e
:103ac000f4805700ee019000111ab8008e099000a2
:103ad000311bb8009e099000311cb800511db80080
:103ae000f485570046000700fe0190003a000700e9
:103af0008b85e8003e0007008e099000400007001b
:103b0000ee019000340007008b85e80038000700c4
:103b10008e099000400007009e0990001b18b80015
:103b2000890440000a854800fe0190003400070027
:103b30008b85e80038000700ee0190003000070098
:103b40008e0990001b18b800890440000a854800bf
:103b50000a98a30008003a000402420085824a0045
:103b600006034b0087834b0008044c0089844c00fb
:103b70000a054d008d06e9008482720085027300fb
:103b80004c3add0085027200010032001500200071
:103b9000443ade001400b2004538de00cb45dd00bb
:103ba0000b007000c540de00cb4ddd008b80700047
:103bb0004549de00cb55dd000b017100c551de002b
:103bc0000d03780059fe070003f0a1000cf0a700d8
:103bd00003f0a00095fe37001b18b80085024000d6
:103be00006834800e0834b0060044c000700370068
:103bf0001b18b8000603400087834800faff37000f
:103c00001b18b8008703400008844800e0844c007b
:103c100060054d00000006001b18b80008044000b5
:103c200089844800faff37000108a3007cfe3a00af
:103c30005800be00000000005801be00e2ff37003f
:103c40000008a30076fe3a0009047800f8ff370068
:103c5000889fbe008a9fbe008c1f78006eff070001
:103c600075ff330003866c006450e10024003200cd
:103c70006420e100270032006150e10022003200a0
:103c80006120e100210032008b854200eb07b1008a
:103c90000134b800003ab8000804420089844a00a0
:103ca000013ab8000030b8008880400009014a009d
:103cb00004003300000040008180480002014900f8
:103cc0008b05e900c909dd008301700001003200a5
:103cd00013002000c814de004814dd004709de0090
:103ce0001200b200c808de00088470000fff070051
:103cf00001f0a1000cf0a70001f0a00057ff370071
:103d00006120e10059ff32000801be000200be0040
:103d1000f7ff37006150e100fcff3a0053ff370026
:103d2000889fbe008a9fbe008c9fbe0082057800df
:103d30000004be0023ff07000800be006420e1006d
:103d40000700390002003a00f1ff2700f0ff2f00c2
:103d50000160a0001202200082898800550037000f
:103d60006120e10003003a000b00a70001f82300e6
:103d70005000370001f0a1000200210093642400ec
:103d80004efe07000800be0004003500b2fd200012
:103d9000930c2400c50107000004be000005eb00e1
:103da0000b00a6004f0dde0001f0a1000004be00d4
:103db00032982f0023ea2300a5ff07000001eb0043
:103dc00003f023000b00a70003f823004bfc0700bf
:103dd0006afe07000000a7000a00a200ccfe070050
:103de0000b00e000030032000200200003f023007b
:103df00041fc070001f0a2000006be000200200006
:103e00009304240092ff07000801be003bfc07005a
:103e1000809fbe000c00be0022a22a00d3a7230070
:103e20008bff07004f01be0034fc07000004be00fa
:103e300001f0a10002002000039823001ffe0700ec
:103e40000800be00190035000001be0080ff070019
:103e50000006be00b2c52900e36223007cff070014
:103e600022222b00f3942b0024fc07000c01be003f
:103e700077ff0700e273280083c023001ffc0700c0
:103e80000c01be0072ff070042aa2a00a3e22b0029
:103e90001afc07000c01be006dff07000801be0000
:103ea0006bff07000801be0014fc07000a00a70012
:103eb00001f0a2004f06be004f05be004f04be0039
:103ec000000006000001eb0095ff3700889fbe0050
:103ed0008a9fbe008c1f78000004be00b9fe070058
:103ee0000478a30026003a006120e100250032009a
:103ef00009f8a30025003a006420e1002100320007
:103f0000f507b1000508a3000200320000004000e0
:103f1000818048006044b8000310200002002000a7
:103f200000004000818048000805440089854c005d
:103f30000a0541008b8549000a0550008b85580011
:103f4000030033000a00be0002047400838474007e
:103f50008301d1000281d300830f7100f0ff3a008a
:103f60008904d1000884d3006001490082017800ef
:103f7000c1adde00fb07b0006cfe0700b7fe3700e6
:103f80000960a0000800be00b4fe37001202200045
:103f900082898800f0ff2f00f1ff2700affe370075
:103fa00007f0a20056fb37001400fa00889fbe00fd
:103fb0008a9fbe008c9fbe000005be000206be00a8
:103fc000680047000c90be000a90be007b0007000e
:103fd0006400e1001a00320016003e006100e100ba
:103fe0001a0032006e049000fe0490000e0b900048
:103ff0009e0b90006011b8009e0590000b38b10038
:10400000d501200082817100610164008703d10025
:104010000683d3008984d3000884d3008502e90095
:10402000f8ff3a0041fe07000df0a70001f0a000e4
:104030007efd3700f1ff2700f0ff2f007bfd3700ea
:1040400001f8270000002000f7ff37006000b800eb
:10405000f5ff37006022b800060220000000d00003
:104060008180d2000482d2008582d2000000a000ac
:104070000202520083825a00030031000202420011
:1040800083824a000000a1000603e900f3ff3a0022
:1040900000000600889fbe008a9fbe008c9fbe0065
:1040a0000404be000605be00809fbe00829fbe00c5
:1040b00030000700040678000800be000a01be00b8
:1040c0002c000700840678004f03be004f02be009c
:1040d0008d4f76007fb0970013003300f0ff2f0064
:1040e0008b8f6b0006003b000d0666000c00a700de
:1040f0000a00370007f0a600100020000a00370071
:10410000880f5200898f5a008a0f5b008b8f5b00eb
:10411000030039001000200001003e0000002000d4
:1041200007f0a7000000ea004f06be004f05be00e2
:104130004f04be0000000600e48240001078a30097
:1041400007003200640240001178a3003400be0072
:104150001401be00050032000330a7000000060075
:1041600035007800350078001501be000330a0004e
:104170000000060005ff27000582610007003200ed
:104180000428e100010032002400050006000700b9
:1041900001003a0044000500040805000200070081
:1041a000f9ff3a00140005006f826100810270007f
:1041b0008502710085027200000006005002be00f8
:1041c000e40050005003be004439de00f700b200a6
:1041d000f37f200003016100090032000218e100b2
:1041e00016003a0085017200830173008381730019
:1041f0000008200015003a0040002000130037009e
:1042000085017200830173008381730005003a0009
:1042100004a8be0006a8be00100020000b00370056
:104220000201e9000402420085824a0006034b00b5
:1042300087834b000748a300f9ff32000740a00026
:1042400004a8be0006a8be00200020008000980040
:104250009200980000000600889fbe008a9fbe0062
:10426000841f7800ecfd07004f0078001100330038
:10427000f0ff2f00838f6c0006003b0004056500f3
:104280000a00a7000800370009f0a600100020006f
:1042900008003700820f5400838f5c000300390050
:1042a0001000200001003e000000200009f0a700df
:1042b0000000ea004f05be004f04be000000e00011
:1042c00000000600881f7800030478000300e00067
:1042d00007003d0060001000e08018006001190038
:1042e000e081190002003b0001f02d0003003700bf
:1042f0001400070008f0a70003f0a0004f047800a6
:1043000000000600881f7800030478000300e00026
:1043100007003d0060001000e080180060011900f7
:10432000e081190002003b0001f02d00030037007e
:104330002f00070008f0a70001f0a0004f0478004c
:1043400000000600889fbe00008270000402710019
:10435000048271002400320036432000c500200092
:104360008383cf000a0039000541b1008283cf006a
:10437000070039000541b1008183cf0004003900f6
:104380000541b1008083cf00010039000541b10033
:1043900085c353006022b800120032000a003b00bf
:1043a00084827200610260008301d1000281d30027
:1043b0008180d3000080d3000603e8008743e80033
:1043c000f7ff3a00070037000000400081804800f6
:1043d00002014900838149000603e9008743e9009f
:1043e000f9ff3a0051fc07004f04be000000060030
:1043f000889fbe008a9fbe00008270000402710088
:1044000004827100260032000004be000200be00db
:104410006011b8006b092000950220000182cf00d6
:104420000a0039000541b1000082cf0007003900c1
:104430000541b1000982cf00040039000541b100f7
:104440000882cf00010039000541b1000542520049
:10445000120032000a003b00828171006101640099
:104460008100d1000080d3008984d3000884d30068
:104470008b05e8000442e800f7ff3a000700370028
:104480000804440089844c000000480081804800f2
:104490008b05e9000442e900f9ff3a0023fd07001b
:1044a0004f05be004f04be000000060004002000bf
:1044b00000003700889fbe008a9fbe008c1f7800d6
:1044c0004f26dd0054fd07005bfd33006120e10055
:1044d000430032006250e10041003e003e003900de
:1044e0006420e1003c003200058255000f003b00d3
:1044f0000402e80038003a00800f5300818f5b000f
:10450000350034000800be0003f0a10001f0a60051
:1045100003f0a0000cf0a70078fa07004ffd370069
:104520000603430087834b000c46460000055300fa
:1045300081855b00020033000a03be000c00a0006e
:104540000402e900f6ff3b008505780006024300ff
:1045500087824b0004003a006000b80009f0a70011
:1045600001f0a0003dfd37000002520081825a0098
:104570000704e000040033000603430087834b0078
:104580008b05e900faff3700090578000604be0034
:104590000203be006011b800e4fc0700e00f520007
:1045a000e08f5a000700350002003c000c08a30011
:1045b000040032000601be0003f0a0000cf0a700ca
:1045c0004efa07000a85680001f0a1000af0a70072
:1045d00001f0a00021fd37000800be001ffd3700dc
:1045e000100220000cf0a600808988001ffd370013
:1045f0008001780002003700b15978000201e9001b
:104600000200e000fcff3a00000006008000780095
:10461000010178003104e000fdff3a000000510084
:104620000000060000027800840178000302780090
:104630003404e000fcff3a0002003700845978009f
:104640000201e9000200e00003003200314278007c
:104650000404e000f9ff3a008049eb000000060086
:020000040000fa
:1046600043680000656300006b730000756d000017
:1046700020650000727200006f72000020210000af
:104680000a000000537400006172000074650000ad
:1046900064200000210a000000530000746f000035
:1046a0007070000065640000202100000a00000016
:1046b00076650000726200006f73000065200000e4
:1046c0007365000074200000746f0000200000007b
:1046d00073650000742000007374000061740000b2
:1046e00065200000000a000000430000686100002f
:1046f0006e6700006564000020500000312000005b
:104700003a2000007370000065650000642000001e
:104710006c65000066740000207400006f200000cb
:1047200000430000686100006e67000065640000df
:1047300020490000312000003a2000007370000082
:1047400065650000642000006c6500006674000070
:10475000207400006f20000000430000686100002a
:104760006e670000656400002044000031200000f6
:104770003a200000737000006565000064200000ae
:104780006c65000066740000207400006f2000005b
:1047900000430000686100006e670000656400006f
:1047a00020500000322000003a200000737000000a
:1047b0006565000064200000726900006768000001
:1047c00074200000746f00002000000043680000a7
:1047d000616e00006765000064200000493200003f
:1047e000203a00002073000070650000656400003e
:1047f00020720000696700006874000020740000e7
:104800006f20000000430000686100006e67000038
:104810006564000020440000322000003a200000bf
:10482000737000006565000064200000726900007c
:104830006768000074200000746f00002000000012
:10484000436f0000656600002044000069730000ab
:10485000737900006d65000074720000792000001b
:1048600063680000616e000067650000642000005e
:10487000746f0000203a0000200000006675000000
:104880006e53000070650000656400002063000046
:10489000686100006e67000065640000207400001d
:1048a0006f2000003a20000000660000756e0000d6
:1048b000416300006320000063680000616e000037
:1048c0006765000064200000746f0000203a00005b
:1048d0002000000073650000727600006f20000069
:1048e00000200000006d00006f7400006f72000077
:1048f000200000004158000031320000203100004b
:104900002000000041580000313200002033000038
:1049100020000000676f0000200000007475000098
:10492000726e000020000000535000004932000069
:10493000204900006e74000065720000727500006e
:0c49400070740000202100000a0000003c
:020000040000fa
:10494c002800fa00881f780063230700a4210700c1
:10495c00541807008f230700d92207001b0e0700ed
:10496c00de200700d0230700b723070086220700ac
:10497c002e2207006000b80090848800a184880073
:10498c006000b800b0848800c18488006000b80062
:10499c00d0848800e18488006000b800f08488002e
:1049ac00018588006000b80010858800218588008a
:1049bc006000b80030858800418588006000b80030
:1049cc0050858800618588006000b800708588007b
:1049dc00818588006000b80090858800a1858800da
:1049ec009070ef009170ef00b830ef00ba30ef002c
:1049fc00c621ef00c625ef0043fc2100c2f32100c5
:104a0c0041eb2100c0e221009b1c0700cb1f0700db
:104a1c0010002000b0858800bf70ef000000eb0094
:104a2c00100798001e0090000000e8001007980086
:104a3c0000002000a147240090848800a1848800f5
:104a4c0000002800b14b2400b0848800c184880089
:104a5c00b0fd200091042400d0848800e1848800fb
:104a6c0090848000a1848000f084880001858800f7
:104a7c00b0848000c1848000108588002185880066
:104a8c00d0848000e18480003085880041858800d6
:104a9c0090848000a1848000508588006185880006
:104aac00b0848000c1848000708588008185880076
:104abc00d0848000e184800090858800a1858800e6
:104acc000000eb0010079800070037001e00900054
:104adc00004078006011b800971807001e00900085
:104aec000000e800100798001e009000e60f500030
:104afc00f6ff3400c170ef006000b800200f980082
:104b0c00310f9800007d2000010020006320070079
:104b1c00000000000100370000000000260f070015
:104b2c00a0002000010020005c20070046150700b3
:104b3c001e0fe8001e007800e90f50000200340040
:104b4c000000eb00000f7800ded0bf000004e00096
:104b5c00f7003200de70ef006000b800200798000c
:104b6c00310798008288800093888000420f98005b
:104b7c00530f9800a2888000b3888000620f9800c1
:104b8c00730f98006000b800400798005107980018
:104b9c00d0848000e18480004082880051828800ab
:104bac006000b8006007980071079800203d250050
:104bbc00b12724000017980011179800000020005e
:104bcc0001f82300000f9800110f98001086800048
:104bdc000000e00007003a000000200001f82b0064
:104bec00000f9800110f980010002000108688000c
:104bfc00050037000000200001f82300000f98008a
:104c0c00110f9800c230ef000671ef003000370032
:104c1c00a2702d0033c223006e089000fe08900095
:104c2c0008fc07000001be002e009000be009000a2
:104c3c00aff8070020079800310798002e0190006c
:104c4c00be0190006e009000fe009000a8f80700d6
:104c5c00a2702d0033c22300fafb070002002000d3
:104c6c0003002400e7f907000001be004e0090008d
:104c7c00de0090009ef8070040079800510798004e
:104c8c000e0990009e0990004e009000de009000ee
:104c9c00ecfb07000002be004082800051828000c5
:104cac000001be000400be0091f8070030858800aa
:104cbc00418588002e019000be019000620798008b
:104ccc0073079800a000200001002000f31f0700cc
:104cdc0018c0b3004e099000de0990002e00900021
:104cec00be00900072fa07000000e00001003500e1
:104cfc000044eb000804e0000e003200020020002b
:104d0c00030024000e1090009e109000bdf90700c7
:104d1c0018c0b3004e019000de01900066fa070047
:104d2c000000e00001003c000044eb000804e0003f
:104d3c00b7ff3a004e019000de0190002217980058
:104d4c00331798001f003700a2702d0033c22300c8
:104d5c002e009000be009000bafb07000001be00c0
:104d6c004e009000de00900061f8070040079800ac
:104d7c00510798000e0990009e0990004e0090007b
:104d8c00de009000affb07000002be0040828000f6
:104d9c00518280000001be000400be0054f80700e0
:104dac0030858800418588002e019000be0190005e
:104dbc006207980073079800a000200001002000f3
:104dcc00b61f07002e119000be1190000e1090001f
:104ddc009e10900045f8070018c0b3004e019000db
:104dec00de01900034fa07000000e00001003c00f6
:104dfc000044eb000804e000d3ff3a006e0890007a
:104e0c00fe08900001f0a200600f9800710f98004e
:104e1c0030003700a2702d0033c223006e089000c2
:104e2c00fe08900087fb07000001be002e009000da
:104e3c00be0090002ef8070020079800310798005c
:104e4c002e019000be0190006e009000fe009000bc
:104e5c0027f80700a2702d0033c2230079fb07004e
:104e6c00020020000300240066f907000001be00c8
:104e7c004e009000de0090001df8070040079800df
:104e8c00510798000e0990009e0990004e0090006a
:104e9c00de0090006bfb07000002be004082800029
:104eac00518280000001be000400be0010f8070013
:104ebc0030858800418588002e019000be0190004d
:104ecc006207980073079800a000200001002000e2
:104edc00721f070018c0b3006011b8002e009000bc
:104eec00be009000f4f907000000e00001003c0057
:104efc000044eb000804e0000b00320018c0b300c3
:104f0c000e1190009e1190004e009000de0090005b
:104f1c00e7f907000000e000010035000044eb0059
:104f2c000804e000bbff3a0010c0b30006f1b70064
:104f3c00e0d0bf000004e000f7fe3200e070ef00ac
:104f4c00d0868000e186800045090700f3fe37001b
:104f5c001000fa00881f78000000200001142400c3
:104f6c0040079800510798006000b800008fbe0001
:104f7c00d0cc2c00c1dc230060079800710798008e
:104f8c001e0178009e0190004e009000de00900003
:104f9c00d6f7070018c0b3006e019000fe01900018
:104fac00c5f907000000e00001003c000044eb00e4
:104fbc000804e000080032006e019000fe01900031
:104fcc001e0078009e009000c9f70700200798008b
:104fdc00310798001e0037001e0178009e019000da
:104fec004e009000de009000c0f707000002be00eb
:104ffc006e009000fe00900001f0a20018c0b300fb
:10500c000001be000400be00a9f907000000e0008a
:10501c00010035000044eb000804e00008003200f9
:10502c006e019000fe0190001e0078009e00900022
:10503c00aef70700200798003107980004003700ee
:10504c004e019000de019000220798003307980073
:10505c002e019000be019000028fbe002e01900028
:10506c00be0190006000b80055180700e001200058
:10507c0001002000091f0700c1ff37001800fa00cb
:10508c002068a90000002800300e880000002800cd
:10509c00302e8800310e8000000028000080400077
:1050ac008000eb001cfa0700b2fd200093042400e2
:1050bc00e4fa07000001be008df70700d2cc2c00eb
:1050cc00431c2400dffa07000200200003582400d0
:1050dc00ccf80700008fbe00312e800000002800a5
:1050ec00008040008000eb000bfa0700b2fd2000ae
:1050fc0093042400d3fa07000001be007cf70700dc
:10510c00d2cc2c00431c2400cefa07000200200055
:10511c0003582400bbf807002007980031079800bb
:10512c00310e800000002800008040008000eb0061
:10513c00f9f90700b2fd200093042400c1fa07001e
:10514c000001be006af7070002002000035824008b
:10515c00acf807004007980051079800312e8000ea
:10516c0000002800008040008000eb00eaf90700f6
:10517c00b2fd200093042400b2fa07000001be0027
:10518c005bf7070002002000035824009df807007d
:10519c0060079800710798004e019000de019000a6
:1051ac00000020006139240096f80700000f9800d9
:1051bc00110f98006e019000fe019000000020007d
:1051cc00613924008ff80700200f9800310f9800e8
:1051dc00800c200001002000b01e0700adff37003e
:1051ec006800fa00889fbe00402f9800512f98004d
:1051fc00622f9800732f9800043798001537980089
:10520c00263798003737980090848000a18480005e
:10521c000001be004e289000de28900033f70700f6
:10522c000004be00b0848000c18480000001be0078
:10523c006e289000fe2890002cf707000801be0095
:10524c0088f707002017980031179800d084800049
:10525c00e18480000001be002e109000be10900072
:10526c0022f7070020079800310798000700370045
:10527c00b2fd2000930c24002e009000be00900084
:10528c001bf70700200798003107980018c0b300df
:10529c00b2fd200093042c002e009000be00900064
:1052ac0003f907000000e000010035000044eb00aa
:1052bc000804e000eeff3a0007003700b2fd2000c2
:1052cc00930c24002e009000be00900007f70700fe
:1052dc00200798003107980018c0b300b2fd2000d9
:1052ec00930424002e009000be009000f2f80700fa
:1052fc000000e00001003c000044eb000804e0006a
:10530c00eeff3a0090848000a184800050858800d4
:10531c0061858800b0848000c1848000708588001d
:10532c0081858800d0848000e1848000908588008d
:10533c00a1858800d2848000e38480004217980005
:10534c0053179800000020000112240060179800e9
:10535c00711798000000200001122400001f980013
:10536c00111f98006000b800400798005107980082
:10537c006000b80060079800710798006000b800e2
:10538c00000f9800110f980018c0b3006011b800fe
:10539c002e009000be009000c7f807000000e0004f
:1053ac0001003c000044eb000804e0000500320062
:1053bc000000200001f82300200f9800310f980006
:1053cc00320037000000200001f82b00200f98005d
:1053dc00310f98002d003700a2702d0033c223002e
:1053ec006e109000fe10900016fa07000001be002f
:1053fc004e009000de009000bdf6070040079800bc
:10540c00510798004e019000de0190006e00900054
:10541c00fe009000b6f60700a2702d0033c22300e8
:10542c0008fa07000200200003002400f5f707002b
:10543c000001be000e0890009e089000acf607001c
:10544c00000f9800110f98002e099000be099000d3
:10545c000e0890009e089000faf907004e1190007b
:10546c00de119000a2f60700308588004185880087
:10547c004e019000de0190006207980073079800bf
:10548c00a000200001002000041e070018c0b3007b
:10549c000e1990009e1990004e009000de009000b6
:1054ac0083f807000000e000010035000044eb0029
:1054bc000804e0000e00320002002000030024006b
:1054cc002e009000be009000cef7070018c0b3006d
:1054dc000e0990009e09900077f807000000e0008c
:1054ec0001003c000044eb000804e000baff3a0065
:1054fc000e0990009e099000221f9800331f9800ff
:10550c001c003700a2702d0033c223004e00900007
:10551c00de009000cbf907000001be000e089000e1
:10552c009e08900072f60700000f9800110f98006b
:10553c002e099000be0990000e0890009e08900065
:10554c00c0f907004e119000de11900068f60700bc
:10555c0030858800418588004e019000de01900066
:10556c006207980073079800a0002000010020003b
:10557c00ca1d07002e199000be1990002e00900035
:10558c00be00900059f6070018c0b3000e09900039
:10559c009e09900048f807000000e00001003c0064
:1055ac000044eb000804e000d6ff3a006e109000b7
:1055bc00fe10900001f0a20060179800711798007f
:1055cc002d003700a2702d0033c223006e10900006
:1055dc00fe1090009bf907000001be004e009000e9
:1055ec00de00900042f60700400798005107980033
:1055fc004e019000de0190006e009000fe009000c5
:10560c003bf60700a2702d0033c223008df9070072
:10561c0002002000030024007af707000001be00fe
:10562c000e0890009e08900031f60700000f9800bd
:10563c00110f98002e099000be0990000e089000e2
:10564c009e0890007ff907004e119000de1190002b
:10565c0027f6070030858800418588004e019000b0
:10566c00de0190006207980073079800a0002000ec
:10567c0001002000891d070018c0b3006011b8009c
:10568c004e009000de0090000bf807000000e000d8
