:020000040000fa
:080000000002040000000000f2
:020000040000fa
:04000800741300006d
:020000040000fa
:04000c007413000069
:020000040000fa
:040010007413000065
:020000040000fa
:040014007413000061
:020000040000fa
:04001800741300005d
:020000040000fa
:04001c007413000059
:020000040000fa
:040020007413000055
:020000040000fa
:040024007413000051
:020000040000fa
:04002800741300004d
:020000040000fa
:04002c007413000049
:020000040000fa
:040030007413000045
:020000040000fa
:040034003c05000087
:020000040000fa
:04003800641300004d
:020000040000fa
:04003c007413000039
:020000040000fa
:040040007413000035
:020000040000fa
:040044007413000031
:020000040000fa
:04004800d4120000ce
:020000040000fa
:04004c007413000029
:020000040000fa
:04005000fa020000b0
:020000040000fa
:040054007413000021
:020000040000fa
:04005800741300001d
:020000040000fa
:04005c007413000019
:020000040000fa
:040060006c1300001d
:020000040000fa
:040064007413000011
:020000040000fa
:04006800741300000d
:020000040000fa
:04006c007413000009
:020000040000fa
:040070007413000005
:020000040000fa
:04007400a6030000df
:020000040000fa
:0400780074130000fd
:020000040000fa
:04007c0074130000f9
:020000040000fa
:0400800074130000f5
:020000040000fa
:0400840074130000f1
:020000040000fa
:0400880074130000ed
:020000040000fa
:04008c0074130000e9
:020000040000fa
:0400900074130000e5
:020000040000fa
:0400940074130000e1
:020000040000fa
:04009800e61200006c
:020000040000fa
:04009c0074130000d9
:020000040000fa
:0400a00074130000d5
:020000040000fa
:0400a400fe12000048
:020000040000fa
:0400a80074130000cd
:020000040000fa
:0400ac0080030000cd
:020000040000fa
:0400b00074130000c5
:020000040000fa
:0400b40074130000c1
:020000040000fa
:0400b80074130000bd
:020000040000fa
:0400bc0074130000b9
:020000040000fa
:0400c00074130000b5
:020000040000fa
:0400c40074130000b1
:020000040000fa
:0400c80074130000ad
:020000040000fa
:0400cc0074130000a9
:020000040000fa
:0400d00074130000a5
:020000040000fa
:0400d40074130000a1
:020000040000fa
:0400d800741300009d
:020000040000fa
:0400dc007413000099
:020000040000fa
:0400e0007413000095
:020000040000fa
:0400e4007413000091
:020000040000fa
:0400e800741300008d
:020000040000fa
:0400ec007413000089
:020000040000fa
:0400f0007413000085
:020000040000fa
:0400f4007413000081
:020000040000fa
:0400f800741300007d
:020000040000fa
:0400fc007413000079
:020000040000fa
:040100007413000074
:020000040000fa
:040104007413000070
:020000040000fa
:04010800741300006c
:020000040000fa
:04010c007413000068
:020000040000fa
:040110007413000064
:020000040000fa
:040114007413000060
:020000040000fa
:04011800741300005c
:020000040000fa
:04011c007413000058
:020000040000fa
:040120007413000054
:020000040000fa
:040124007413000050
:020000040000fa
:04012800741300004c
:020000040000fa
:04012c007413000048
:020000040000fa
:040130007413000044
:020000040000fa
:040134007413000040
:020000040000fa
:04013800741300003c
:020000040000fa
:04013c007413000038
:020000040000fa
:040140007413000034
:020000040000fa
:040144007413000030
:020000040000fa
:04014800741300002c
:020000040000fa
:04014c007413000028
:020000040000fa
:040150007413000024
:020000040000fa
:040154007413000020
:020000040000fa
:04015800741300001c
:020000040000fa
:04015c007413000018
:020000040000fa
:040160007413000014
:020000040000fa
:040164007413000010
:020000040000fa
:04016800741300000c
:020000040000fa
:04016c007413000008
:020000040000fa
:040170005c1300001c
:020000040000fa
:040174002c13000048
:020000040000fa
:0401780074130000fc
:020000040000fa
:04017c0074130000f8
:020000040000fa
:0401800074130000f4
:020000040000fa
:0401840074130000f0
:020000040000fa
:0401880074130000ec
:020000040000fa
:04018c0074130000e8
:020000040000fa
:0401900074130000e4
:020000040000fa
:0401940074130000e0
:020000040000fa
:0401980074130000dc
:020000040000fa
:04019c0074130000d8
:020000040000fa
:0401a00074130000d4
:020000040000fa
:0401a40074130000d0
:020000040000fa
:0401a80074130000cc
:020000040000fa
:0401ac0074130000c8
:020000040000fa
:0401b00074130000c4
:020000040000fa
:0401b40074130000c0
:020000040000fa
:0401b80074130000bc
:020000040000fa
:0401bc0074130000b8
:020000040000fa
:0401c00074130000b4
:020000040000fa
:0401c40074130000b0
:020000040000fa
:0401c80074130000ac
:020000040000fa
:0401cc0074130000a8
:020000040000fa
:0401d00074130000a4
:020000040000fa
:0401d40074130000a0
:020000040000fa
:0401d800741300009c
:020000040000fa
:0401dc007413000098
:020000040000fa
:0401e0007413000094
:020000040000fa
:0401e4007413000090
:020000040000fa
:0401e800741300008c
:020000040000fa
:0401ec007413000088
:020000040000fa
:0401f0007413000084
:020000040000fa
:0401f4007413000080
:020000040000fa
:0401f800741300007c
:020000040000fa
:0401fc007413000078
:020000040000fa
:040200007413000073
:020000040000fa
:04020400741300006f
:020000040000fa
:04020800741300006b
:020000040000fa
:04020c007413000067
:020000040000fa
:040210007413000063
:020000040000fa
:04021400741300005f
:020000040000fa
:04021800741300005b
:020000040000fa
:04021c007413000057
:020000040000fa
:040220007413000053
:020000040000fa
:04022400741300004f
:020000040000fa
:04022800741300004b
:020000040000fa
:04022c007413000047
:020000040000fa
:040230007413000043
:020000040000fa
:04023400741300003f
:020000040000fa
:04023800741300003b
:020000040000fa
:04023c007413000037
:020000040000fa
:040240007413000033
:020000040000fa
:04024400741300002f
:020000040000fa
:04024800741300002b
:020000040000fa
:04024c007413000027
:020000040000fa
:040250007413000023
:020000040000fa
:04025400741300001f
:020000040000fa
:04025800741300001b
:020000040000fa
:04025c007413000017
:020000040000fa
:040260007413000013
:020000040000fa
:04026400741300000f
:020000040000fa
:04026800741300000b
:020000040000fa
:04026c007413000007
:020000040000fa
:040270007413000003
:020000040000fa
:0402740074130000ff
:020000040000fa
:0402780074130000fb
:020000040000fa
:04027c0074130000f7
:020000040000fa
:0402800074130000f3
:020000040000fa
:10040000ef0722000eff27000e0188000000000009
:10041000000020000000e000020032000001200087
:100420002002880014000700b10807000000e00067
:1004300003003a000094250001002000020037006c
:100440000000200001002000810f70000100320038
:100450000f000700000020000000e0000200320052
:1004600000000200000000002c1b02000000000041
:100470000040da000000fe00400e20000000e00016
:1004800002003200002020009001880000000600d9
:10049000a1028800800478000000eb001f003700f4
:1004a000e284440054a0b4009905ba00e2844400f8
:1004b00054a0b4009906ba00e284440054a0b400e9
:1004c0000006eb00476fde00fd07b200ae018800ba
:1004d000636ce10003003a000ad801000000eb0061
:1004e0000e003700606ce10008003a00004deb00a0
:1004f0000a05e800020039003420ec000af0a000f0
:100500008b05e900f9ff3e00040037006168e10057
:10051000010032000086eb000b00070019c7ba008b
:100520000e04e0001905ba0003003a000a00e000da
:10053000dbff3a0000000600fe07b200ae028800b2
:100540008a047800f5ff37000cd0a300e20f4d00bd
:100550001c00390089027800354dba000a05e80010
:10056000020039003420ec000af0a0008b05e900fd
:100570000f003200254dba000a05e80002003900dc
:100580003420ec000af0a0008b05e90008003200de
:100590000c00e0000600320015cdba000a05e800a4
:1005a000020039003420ec000af0a0008b05e900bd
:1005b0008984e80054a0b4000b00e000e2ff3a0098
:1005c000000006009902ba00055d78008b05e9007d
:1005d000f7ff3200c82ade00055d78008b05e900d0
:1005e000f3ff32000c00e000f1ff320019ddba0029
:1005f000eeff3700809fbe000200fa00401280002c
:10060000004f7800b0cab3009e40780080cf500001
:1006100003003a0040c5b30004f1b70031003700d1
:1006200004d1bf000080fb0011062000810f5000a4
:100630002600320011062000810f50000a003c0005
:1006400071042000810f50001d0032004105200080
:10065000810f50000e00320001022000810f500077
:10066000140032001f00370081062000810f500067
:100670000a003200d1062000810f5000160032001f
:1006800051062000810f500007003200150037008e
:1006900080c6b30004f1b7001200370050c6b300a3
:1006a00004f1b7000f00370000c2b30004f1b70037
:1006b0000c00370070c4b30004f1b7000900370024
:1006c00010c6b30004f1b70006003700d0c6b3006f
:1006d00004f1b7000300370050c6b30004f1b700bf
:1006e0000000000004d1bf000080fb004012880021
:1006f0000148a9000080fa004f00be00004006003b
:100700003600f800809fbe00829fbe00849fbe001e
:10071000869fbe000200fa0040138000000f7800a0
:100720001e007800c1190700a92007000428a900ad
:100730000080fa004f03be004f02be004f01be0012
:100740004f00be003600f900004006003600f800f9
:10075000809fbe00829fbe00849fbe00869fbe0019
:10076000881f78003200f8003400f80010002000e4
:10077000a0018800002020009001880000000000f7
:100780000400fa000268a9000000eb00000f7800e6
:100790005187800000102000808060001070800071
:1007a0004800de00614060000080fb00808f500048
:1007b0000500320030002000000f78000040eb0000
:1007c000204798005d0037008187800000002400ea
:1007d00080806000907180004e00de00614060000b
:1007e0000080fb00808f50000500320030002000a8
:1007f000000f780010c0b300204798004f0037006a
:1008000091878000000024008080600010728000ca
:100810004e00de00614060000080fb00808f5000d1
:100820000500320030002000000f780020c0b30027
:100830002047980041003700918780000000210088
:1008400080806000107280004c00de00614060001b
:100850000080fb00808f5000050032003000200037
:10086000000f780030c0b3002047980033003700f5
:10087000a1878000000022008080600090728000cc
:100880004d00de00614060000080fb00808f500062
:100890000500320030002000000f780040c0b30097
:1008a00020479800250037007187800000802000d5
:1008b00080806000107180004b00de0061406000ad
:1008c0000080fb00808f50000500320030002000c7
:1008d000000f780050c0b300204798001700370081
:1008e000b1878000000021008080600010738000cc
:1008f0004c00de00614060000080fb00808f5000f3
:100900000300320010002000000f78000b003700b9
:10091000b18780000000220080806000107380009a
:100920004d00de00614060000080fb00808f5000c1
:100930000200320020002000000f78001e00780026
:10094000e20f50002f003200e30f50002f003a005a
:100950002e4090000080fb00010622000080400035
:10096000104078000004e000110032002e4090009a
:100970000084fb00a00880008000eb00c408070092
:10098000c241dd0062062200028141000089be00f2
:100990002e4090000080fb000106220000804000f5
:1009a0008040eb000148780010c0b3002bf0b70086
:1009b0002e4090000080fb00a10522000080400036
:1009c000104078000004e000120032001421ef0013
:1009d0002e4090000080fb00a10522000080400016
:1009e0008040eb00014878002e4090000080fb0022
:1009f000010622000080400011c0b30001487800c9
:100a00000500370000000000030037000000000070
:100a1000010037000000000010708000508788003f
:100a20009070800060878800107180007087880057
:100a30009071800080878800107280009087880005
:100a400090728000a087880010738000b0878800b3
:100a50000080fa003400f9003200f9004f047800f9
:100a60004f03be004f02be004f01be004f00be004c
:100a70003600f900004006003600f800809fbe00f6
:100a8000829fbe00849fbe00869fbe00889fbe00de
:100a90008a9fbe003e00fa000068a900310e800067
:100aa000510f9800322e8000620f9800000028003d
:100ab000300e880000002800302e88005e0890006c
:100ac0008000eb0072080700020020000370240081
:100ad00008070700700f9800011798006e08900033
:100ae0008000eb006a080700020020000370240069
:100af000000707001017980021179800a0808000b9
:100b0000b18080007e0990008e119000fa060700e7
:100b1000a0808800b1808800c0808000d1808000e3
:100b20001e119000ae119000f3060700c0808800ef
:100b3000d18088007e0890008e1090000001be00d9
:100b4000ed060700b2fd200093042400a50807006d
:100b5000d2cc2c00431c2400a2080700700f980080
:100b60000117980002002000035824007e0890001e
:100b70008e109000c1070700700f980001179800b1
:100b80001e109000ae1090000001be00da060700b3
:100b9000b2fd20009304240092080700d2cc2c0060
:100ba000431c24008f080700101798002117980095
:100bb00002002000035824001e109000ae10900088
:100bc000ae07070010179800211798007e099000c3
:100bd0008e1190001e109000ae109000c506070008
:100be000d2a32e0023392400a40707000002be0070
:100bf000d0848000e18480000001be000400be00bb
:100c0000bd060700d0848800e18488001e11900092
:100c1000ae1190007e0890008e109000b60607007e
:100c200002002000030024009407070030179800fa
:100c300041179800d0848000e18480008d07070070
:100c40003e119000ce119000660807000002be0021
:100c500090848000a18480000001be000400be00da
:100c6000a506070090848800a1848800d0848000b5
:100c7000e1848000f80807003e119000ce1190003a
:100c8000580807000002be00b0848000c1848000c4
:100c90000001be000400be0097060700b084880073
:100ca000c184880020818000318180003e11900045
:100cb000ce119000900607002081880031818800c5
:100cc000008080000000e800008088000080800034
:100cd000e90f5000d50536000030ef006000b80085
:100ce00050179800611798006000b80070179800be
:100cf000011f9800a0808000b180800002002000c9
:100d0000832c2400370807000001be007a06070084
:100d1000b2fd2000930424003208070002002000e6
:100d200003582400550707005017980061179800d2
:100d3000c0808000d180800002002000832c24002d
:100d4000280807000001be006b060700b2fd200066
:100d50009304240023080700020020000358240005
:100d60004607070070179800011f98006000b80040
:100d7000a0808800b18088006000b800c080880032
:100d8000d1808800f48480000585800090848000f4
:100d9000a18480000001be000400be0055060700cb
:100da0000004be001485800025858000b08480008a
:100db000c18480000001be000400be004d06070093
:100dc0000801be00a9060700101f9800211f980007
:100dd000548580006585800090848000a184800017
:100de0000001be000400be00420607000004be0071
:100df0007485800085858000b0848000c184800077
:100e00000001be000400be003a0607000801be0053
:100e100096060700008fbe002cd0bf000004e00043
:100e20000e003200b2fd2000930424001e00780062
:100e30009e0090002f060700008fbe0008003700bc
:100e4000b2fd2000930c24001e0078009e0090004c
:100e500029060700008fbe000100370000000000d7
:100e6000d0848000e18480000001be001e00780074
:100e70009e0090001f06070018c0b300b2fd2000be
:100e800093042c003f0707000000e000010035003c
:100e90000044eb000804e000e9ff3a0006003700d8
:100ea000b2fd2000930c24001e0078009e009000ec
:100eb00010060700008fbe00d0848000e18480000f
:100ec0000001be001e0078009e0090000906070089
:100ed00018c0b300b2fd2000930424002b070700c4
:100ee0000000e00001003c000044eb000804e000ca
:100ef000ebff3a00d0848000e18480000001be0056
:100f00001e0078009e009000fa05070018c0b3008c
:100f1000b2fd200093fc2b001a0707000000e00040
:100f2000010035000044eb000804e0000600320038
:100f3000b2fd2000930424001e0078009e00900063
:100f4000ed050700008fbe00d0848000e1848000a2
:100f50000001be001e0078009e009000e50507001d
:100f600018c0b300b2fd200093fc23000707070060
:100f70000000e00001003c000044eb000804e00039
:100f800006003200b2fd2000930424001e00780009
:100f90009e009000d7050700008fbe00948480005b
:100fa000a584800050858000618580000001be001e
:100fb0000400be00cf0507000004be00948480003a
:100fc000a584800050858000618580000001be00fe
:100fd0000400be00c70507000001be000800be00f7
:100fe000800707000004be00b4848000c584800030
:100ff00070858000818580000001be000400be0075
:10100000bc0507000005be00b4848000c5848000d4
:1010100070858000818580000001be000400be0054
:10102000b40507000001be000a00be006d070700fe
:101030000001be000800be00af0507000808070059
:10104000301f9800411f980094848000a584800080
:10105000f0848000018580000001be000400be0015
:10106000a40507000004be0094848000a5848000cd
:10107000f0848000018580000001be000400be00f5
:101080009c0507000001be000800be0055070700d0
:101090000004be00b4848000c584800010858000f8
:1010a000218580000001be000400be0091050700fc
:1010b0000005be00b4848000c584800010858000d7
:1010c000218580000001be000400be0089050700e4
:1010d0000001be000a00be00420707000001be007a
:1010e0000800be0084050700dd0707002007980000
:1010f00031079800d0848000e18480001e199000a0
:10110000ae1990007b050700400798005107980032
:1011100007003700b2fd2000930c24004e00900021
:10112000de00900073050700400798005107980003
:1011300018c0b300b2fd2000930424004e009000bc
:10114000de009000910607000000e00001003c0076
:101150000044eb000804e000eeff3a00070037000f
:10116000b2fd2000930c24004e009000de009000a1
:1011700061050700400798005107980018c0b300a8
:10118000b2fd200093042c004e009000de00900081
:101190007c0607000000e000010035000044eb0081
:1011a0000804e000eeff3a0018c0b300b2fd2000d2
:1011b00093fc2b004e009000de00900073060700a9
:1011c0000000e00001003c000044eb000804e000e7
:1011d0001000320018c0b300b2fd200093fc2300c1
:1011e0004e009000de009000660607000000e00060
:1011f000010035000044eb000804e0000500320067
:101200002e009000be00900001f0a2002007980080
:101210003107980018c0b300020020008324240086
:101220003e189000ce189000580607000000e0001d
:1012300001003c000044eb000804e0000b003a0011
:1012400018c0b3000200200083242c003e18900038
:10125000ce1890004b0607000000e00001003500aa
:101260000044eb000804e000050032001e01780095
:101270009e019000e0e72100f523070005003700fc
:1012800030858000418580000001be00e0e721003c
:10129000ef2307002e019000be01900020e5210001
:1012a000012407006007980071079800d08480002f
:1012b000e18480000001be00e0e72100fa2307007e
:1012c000501f9800611f980050f3800061f3800068
:1012d00018c0b300020020000310240029060700f4
:1012e0000000e000010035000044eb000804e000cd
:1012f0001c00320050f3800061f3800018c0b3007e
:101300000200200003102c00200607000000e0006f
:1013100001003c000044eb000804e0001100320032
:1013200018c0b30002002000031024003e189000f3
:10133000ce189000130607000000e0000100350001
:101340000044eb000804e00006003200f8d0bf00c3
:10135000e14f500003003a006000b80060079800b9
:10136000710798005e199000ee1990006e009000d1
:10137000fe009000df0407000001be00a0df210096
:10138000b32307005e199000ee1990006e009000e4
:10139000fe009000d80407000001be0060e22100ba
:1013a000ab2307005e119000ee119000a0df21003a
:1013b000bd230700000f9800110f98007e119000c8
:1013c0008e19900060e22100b7230700200f9800db
:1013d000310f980050f3800061f3800018c0b30013
:1013e0000200200003102400e60507000000e000d2
:1013f000010035000044eb000804e0005f0032000b
:1014000050f3800061f3800018c0b3000200200098
:1014100003102c00dd0507000000e00001003c0087
:101420000044eb000804e00054003200b0f48000f7
:10143000c1f4800018c0b300d2cc2c00c3d4230068
:10144000d00507000000e000010035000044eb007b
:101450000804e00049003200b0f48000c1f48000cc
:1014600018c0b300d2cc2c00c3d42b00c705070092
:101470000000e00001003c000044eb000804e00034
:101480003e00320018c0b30002002000030a24000e
:101490005e109000ee109000ba0507000000e0001a
:1014a000010035000044eb000804e0003300320086
:1014b00018c0b30002002000030a2c005e10900048
:1014c000ee109000b10507000000e00001003c00b4
:1014d0000044eb000804e0002800320018c0b3000c
:1014e00002002000030a24007e1090008e18900055
:1014f000a40507000000e000010035000044eb00f7
:101500000804e0001d00320018c0b30002002000f3
:10151000030a2c007e1090008e1890009b05070097
:101520000000e00001003c000044eb000804e00083
:1015300012003200f8d0bf00e14f50000f003a0017
:101540006000b800000f9800110f98006000b8000c
:10155000200f9800310f98006000b800d0f088008c
:10156000e1f088006000b800d0f08800e1f0880069
:1015700010c0b300bcf0b70001003700bc70ef0032
:1015800040808000518080000001be002e08900045
:10159000be089000570407000002be00e0878000ec
:1015a000f187800018c0b3000001be000400be0037
:1015b000760507000000e00001003c000044eb005d
:1015c0000804e0000a00320044808000558080005a
:1015d000e0878000f18780000001be000400be00ab
:1015e00045040700200f9800310f98001c003700b9
:1015f00040808000518080000001be002e089000d5
:10160000be0890003b0407000002be00e087800097
:10161000f187800001f0a20018c0b3000001be00f5
:101620000400be00570507000000e000010035007f
:101630000044eb000804e000090032004480800010
:1016400055808000e0878000f18780000001be00a7
:101650000400be0027040700200f9800310f9800f7
:1016600020808000318080000001be000e089000c4
:101670009e0890001f0407000002be00e087800063
:10168000f187800018c0b3000001be000400be0056
:101690003e0507000000e00001003c000044eb00b4
:1016a0000804e0000a0032002480800035808000b9
:1016b000e0878000f18780000001be000400be00ca
:1016c0000d040700000f9800110f98001c00370050
:1016d00020808000318080000001be000e08900054
:1016e0009e089000030407000002be00e08780000f
:1016f000f187800001f0a20018c0b3000001be0015
:101700000400be001f0507000000e00001003500d6
:101710000044eb000804e00009003200248080004f
:1017200035808000e0878000f18780000001be00e6
:101730000400be00ef030700000f9800110f98008f
:101740000e0990009e099000228088003380880056
:101750002e099000be0990004280880053808800c6
:10176000bfd0bf000004e00075003a00c0d0bf0049
:101770000004e0006d003200f9d0bf000004e0007a
:1017800048003200500381006103810018c0b3009b
:101790000200200063392400fc0407000000e00080
:1017a00001003c000044eb000804e0000b003200a4
:1017b000500381006103810018c0b30002002000c3
:1017c000a3472400ef0407000000e00001003500fb
:1017d0000044eb000804e0002c003a0030038100d4
:1017e0004103810018c0b3000200200063392400c7
:1017f000e60407000000e00001003c000044eb00ac
:101800000804e0000b003200300381004103810036
:1018100018c0b30002002000a3472400d904070029
:101820000000e000010035000044eb000804e00087
:1018300016003a00700381008103810018c0b300d4
:101840000200200063392400d00407000000e000fb
:1018500001003c000044eb000804e0000f003200ef
:10186000700381008103810018c0b30002002000d2
:10187000a3472400c30407000000e0000100350076
:101880000044eb000804e000040032002ad0bf004e
:101890000040e8002af0b7001d0037002a70ef0072
:1018a0001b003700b0038100c103810018c0b300e2
:1018b0000200200063392400b40407000000e000a7
:1018c00001003c000044eb000804e0000f0032007f
:1018d000b0038100c103810018c0b30002002000e2
:1018e000a3472400a70407000000e0000100350022
:1018f0000044eb000804e000040032002ad0bf00de
:101900000040e8002af0b700010037002a70ef001d
:101910002ad0bf00ea4f5000040036006011b80022
:101920006000b8000a1f0700ffff37000e09900093
:101930009e0990002e089000be0890008e2007009f
:101940002ed0bf000004e00024003200020020007e
:10195000a34724005e109000ee10900021050700c0
:101960008c0407000001be00b0c0b300421c070099
:1019700002002000a34724007e1090008e189000e3
:1019800018050700830407000001be0050c1b30022
:10199000391c070050f0800061f080000200200038
:1019a000a34724000f0507007a0407000001be00ca
:1019b000c0c0b300301c0700b0f18000c1f180004e
:1019c00002002000a3472400060507007104070059
:1019d0000001be0060c1b300271c07002ed0bf006d
:1019e0000080fb00e10f500003003200e20f5000c6
:1019f000460132008d0237002fd0bf000080fb006f
:101a0000e20f50005f003200e30f500099003200f7
:101a1000e10f500082023a006482800075828000eb
:101a2000a0828000b182800018c0b3000001be0017
:101a30000400be00530407000000e0000100350070
:101a40000044eb000804e000470032000082800000
:101a50001182800002002000030024000704070018
:101a60000002be00208280003182800018c0b300d6
:101a70000001be000400be00440407000000e000b6
:101a800001003c000044eb000804e0003600320096
:101a9000c0828000d1828000a2702d0033c223005a
:101aa000d00407000002be006082800071828000c6
:101ab0000001be000400be000f0307006082880022
:101ac000718288008482800095828000608280001c
:101ad000718280000001be000400be000603070002
:101ae000a2702d0033c22300be04070002002000b4
:101af00003002400e10307000002be0020828000f2
:101b0000318280000001be000400be00fa0207001e
:101b10002082880031828800248280003582800003
:101b2000e0818000f18180000001be000400be0061
:101b3000ac0407000002be00408280005182800099
:101b40000001be000400be00eb02070030858800e3
:101b500041858800608280007182800080828800d8
:101b6000918288000600370020c0b3002ff0b70034
:101b70002082800031828000e0828800f18288002b
:101b8000e10037000482800015828000e08280003e
:101b9000f18280000001be000400be00d5020700f3
:101ba0000002be00208280003182800018c0b30095
:101bb0000001be000400be00f40307000000e000c6
:101bc00001003c000044eb000804e000210032006a
:101bd0006082800071828000a2702d0033c22300d9
:101be000800407000002be00208280003182800055
:101bf0000001be000400be00bf0207002082880072
:101c0000318288002482800035828000e08180005b
:101c1000f18180000001be000400be0071040700d5
:101c20000002be0040828000518280000001be00a0
:101c30000400be00b002070030858800418588009e
:101c4000608280007182800080828800918288009a
:101c50000700370030c0b3002ff0b700c08280000b
:101c6000d182800001f0a200c0828800d182880069
:101c7000a5003700608280007182800018c0b30028
:101c80006011b800c10307000000e00001003c0043
:101c90000044eb000804e00043003200248280008e
:101ca00035828000008280001182800018c0b3005d
:101cb0000001be000400be00b20307000000e00007
:101cc000010035000044eb000804e000360032005b
:101cd000c0828000d1828000a2702d0033c2230018
:101ce000400407000002be00608280007182800014
:101cf0000001be000400be007f0207006082880071
:101d000071828800848280009582800060828000d9
:101d1000718280000001be000400be007602070050
:101d2000a2702d0033c223002e0407000200200001
:101d300003002400510307000002be00208280003f
:101d4000318280000001be000400be006a0207006c
:101d500020828800318288002482800035828000c1
:101d6000e0818000f18180000001be000400be001f
:101d70001c0407000002be004082800051828000e7
:101d80000001be000400be005b0207003085880031
:101d90004185880060828000718280008082880096
:101da000918288005700370020c0b3002ef0b700a2
:101db00010c0b3002ff0b7000482800015828000ad
:101dc000e0818000f18180000001be000400be00bf
:101dd000040407000002be0040828000518280009f
:101de0000001be000400be004302070030858800e9
:101df0004185880080818000918180005085880025
:101e000061858800a0818000b18180007085880094
:101e100081858800c0818000d18180009085880004
:101e2000a1858800b0848000c1848000a0838800e0
:101e3000b183880090848000a1848000c0838800e2
:101e4000d18388008481800095818000c0838000d8
:101e5000d18380000001be000400be0025020700ff
:101e60000083880011838800a4818000b5818000f0
:101e7000a0838000b18380000001be000400be008a
:101e80001c020700208388003183880000838000c3
:101e90001183800024838000358380000001be0010
:101ea0000400be007102070040838800518388004f
:101eb00004838000158380000083800011838000ec
:101ec0000001be000400be00c60307000004be00ff
:101ed000248380003583800020838000318380004c
:101ee0000001be000400be00be0307000001be00ea
:101ef0000800be0000020700590407006083880044
:101f00007183880000000000480137002fd0bf0017
:101f10000080fb00e20f500083003200e30f50000e
:101f2000d0003200e10f50003f013a00e48380000e
:101f3000f5838000408480005184800018c0b30085
:101f40000001be000400be000e0307000000e00018
:101f5000010035000044eb000804e0005a003200a4
:101f60006083800071838000020020000300240051
:101f7000c20207000002be008083800091838000bf
:101f800018c0b3000001be000400be00ff0207003d
:101f90000000e00001003c000044eb000804e00009
:101fa000490032002084800031848000a2702d001e
:101fb00033c223008b0307000002be00e0838000d1
:101fc000f18380000001be000400be00ca010700ca
:101fd000e0838800f18388000484800015848000f9
:101fe000e0838000f18380000001be000400be0099
:101ff000c1010700a2702d0033c22300790307003e
:1020000002002000030024009c0207000002be0022
:1020100080838000918380000001be000400be0028
:10202000b501070080838800918388004083800089
:10203000518380008f0207000002be008083800071
:10204000918380000001be000400be00650307000c
:102050000002be00c0838000d18380000001be006a
:102060000400be00a4010700f084880001858800f8
:102070004083800051838000f70307000002be0008
:1020800080838000918380000001be000400be00b8
:10209000540307000002be00a0838000b1838000cb
:1020a0000001be000400be009301070010858800f7
:1020b00021858800e0838000f1838000008488000f
:1020c000118488001700370020c0b3002ff0b7003c
:1020d0008083800091838000608488007184880000
:1020e000e4838000f5838000408480005184800078
:1020f00018c0b3000001be000400be00a302070028
:102100000000e00001003c000044eb000804e00097
:10211000040032004084800051848000e083880005
:10212000f1838800bd0037006483800075838000e0
:1021300060848000718480000001be000400be0045
:102140006c0107000002be00808380009183800044
:1021500018c0b3000001be000400be008b020700df
:102160000000e00001003c000044eb000804e00037
:1021700034003200e0838000f1838000a2702d00e3
:1021800033c22300170307000002be0080838000d3
:10219000918380000001be000400be0056010700cc
:1021a0008083880091838800408380005183800071
:1021b000300207000002be0080838000918380000f
:1021c0000001be000400be00060307000002be00be
:1021d000c0838000d18380000001be000400be00e7
:1021e00045010700f0848800018588004083800055
:1021f00051838000980307000002be0080838000a6
:10220000918380000001be000400be00f5020700bb
:102210000002be00a0838000b18380000001be00e8
:102220000400be0034010700108588002185880065
:10223000e0838000f183800000848800118488009e
:102240000700370030c0b3002ff0b70020848000b3
:102250003184800001f0a20020848800318488004d
:102260006e003700e0838000f183800018c0b30067
:102270006011b800450207000000e00001003c00ca
:102280000044eb000804e000560032008483800024
:1022900095838000608380007183800018c0b30044
:1022a0000001be000400be00360207000000e0008e
:1022b000010035000044eb000804e0004900320052
:1022c0002084800031848000a2702d0033c223005e
:1022d000c40207000002be00e0838000f18380009a
:1022e0000001be000400be0003010700e083880077
:1022f000f18388000484800015848000e0838000de
:10230000f18380000001be000400be00fa00070057
:10231000a2702d0033c22300b20207000200200089
:1023200003002400d50107000002be008083800066
:10233000918380000001be000400be00ee00070093
:1023400080838800918388004083800051838000cf
:10235000c80107000002be008083800091838000d6
:102360000001be000400be009e0207000002be0085
:10237000c0838000d18380000001be000400be0045
:10238000dd000700f084880001858800408380001c
:1023900051838000300307000002be00808380006c
:1023a000918380000001be000400be008d02070082
:1023b0000002be00a0838000b18380000001be0047
:1023c0000400be00cc00070010858800218588002d
:1023d000e0838000f18380000084880011848800fd
:1023e0000d0037002e70ef0010c0b3002ff0b700c3
:1023f0008081800091818000f084880001858800c0
:10240000a0818000b181800010858800218588002e
:1024100010c0b300f8f0b700000000000300370060
:1024200000000000010037000000000029d0bf00bc
:102430000040e80029f0b70029d0bf00f34f50005a
:10244000500036002970ef002bd0bf000004e000e0
:1024500008003a0028d0bf000080fb00c200dd0069
:10246000600622000081400000c02300c1612400fa
:102470000089be0028d0bf000040e80028f0b70067
:1024800028d0bf00e54f5000010036002870ef0053
:1024900028d0bf000080fb00e20f50001200320085
:1024a000e20f500005003c000000e0000a0032008e
:1024b000e10f50000a00320013003700e40f500013
:1024c0000d003200e40f500009003500e50f500008
:1024d0000b0032000c003700148ea8000a003700f1
:1024e00035eea8000800370045eea80006003700ca
:1024f00045aea80004003700558ea8000200370042
:10250000656ea800000000000040eb00005f98002e
:102510000040eb00005f98000f0037000e5890005d
:102520000080fb00a1052200008040008040eb00fd
:10253000014878000e5890000080fb000106220040
:10254000008040008040eb00014878000e58900069
:102550000040e800005f98000e589000e54f5000e2
:10256000eeff36002b70ef0028d0bf000080fb008c
:10257000a10522000080400011c0b300014878008e
:1025800021e1a8000080fa004f05be004f04be0004
:102590004f03be004f02be004f01be004f00be0001
:1025a0003600f90000400600801f78000000fa00a5
:1025b0000108a9002dd0bf000040e8002df0b700b1
:1025c0000080fa004f007800004006000000fa008a
:1025d0000388a90021e1a9001821ef00148ea900a9
:1025e00035eea90045eea90045aea900558ea9001b
:1025f000656ea9000080fa00004006003600f80071
:10260000809fbe00829fbe00849fbe00869fbe004a
:102610000000fa0003e8a9003186800040868000af
:10262000808f500004003200f01107000000fb0012
:10263000a011880001003700cb70ef000080fa0085
:102640004f03be004f02be004f01be004f00be0050
:102650003600f900004006003600f800809fbe00fa
:10266000829fbe00849fbe00869fbe000000fa00cd
:102670000a68a900011021009140780001d1bf0033
:1026800080cf500004003200082107000000fb004a
:10269000a0128800010037000271ef000080fa00ec
:1026a0004f03be004f02be004f01be004f00be00f0
:1026b0003600f900004006000000fa000a48a900b0
:1026c0000080fa00004006000000fa000088a9001f
:1026d0000080fa00004006000000fa0001c8a900ce
:1026e0000080fa00004006000040da000000fe0012
:1026f0000000050003f0a200889fbe008a9fbe0074
:102700008c1f78009f010700a60133006450e10090
:102710004f0032006420e1005200320003826c005e
:1027200007003b000905d0000306d000820f5400cb
:102730000c065d00020039000200320089017800b9
:10274000030678008582550004003d000003fd006b
:102750008103fd008502ea008b854200840f720030
:1027600002003b0060001000e08018006011b8001b
:102770000005eb007a28e1000a0039000600780025
:10278000c75ddd00f707b200878075002d003700b8
:10279000828171000a017800610560008180d100aa
:1027a0000080d3008502e900f9ff3b0006044000e9
:1027b0008784480002003b0060041400e0841c0091
:1027c0000988a300070032008a81710082817100ac
:1027d000610164008904d1000884d3008b05e800fe
:1027e000170037000978a30013003a000b00e0003f
:1027f000130034008b05e9000804440089844c0070
:102800000a4474000978a3000d003a000b00e000b0
:10281000070034008b05e9000804440089844c005b
:1028200001003a000b0020000978a300f7ff3200f6
:102830000001eb0002003700828171000a0178007c
:10284000150107000cf0a70001f0a0005e013700a1
:102850006420e10002003a00838f6c005e013300c7
:102860000801be000200be0057013700889fbe006d
:102870008a9fbe008c1f78004201070010022000d2
:1028800002003b0040888800460137008a00620051
:102890006408e10002003a00408888004e013700d9
:1028a0006108e100fcff32000800be00030478006c
:1028b0007200070001f0a1000900070008f0a6005f
:1028c000040037000001be0091042400b0fd200088
:1028d00088ff070009f0a70001f0a2003a013700c5
:1028e000889fbe008a9fbe008c9fbe000004be0071
:1028f0000f0107000800be00890678006420e1008f
:1029000008003900040032000160a000120220001b
:10291000428888005300370091fc2300b0fd20005e
:102920004e0037000006eb0009f0a10003f8230079
:10293000020020000800be009200070006003400dc
:1029400001f82300000020000801be004b00070032
:102950000004be002c0020000800be0093e8230005
:10296000320a230087000700120034000801be006d
:10297000d1fd2300703d2b005fff07000005be0066
:10298000b3f32300f27a26000800be001501070009
:1029900003f823000200200056ff07000801be00d4
:1029a00055ff07000a01be00340007000004be0006
:1029b0000c06e8000800be0001f0a10002002000a3
:1029c000039823006f0007000800be0016003500c2
:1029d0000801be00030107000005be0032cd2c0037
:1029e00043fb230044ff0700809fbe0012692800bc
:1029f00003d52b000a00be00fa000700620f210079
:102a000013ef2b003cff07000a01be00f500070092
:102a10004f01be00190007000801be00f1000700c9
:102a20000801be0034ff07000c00e0000b0032007c
:102a30000c10a70001f0a200b2fd200093fc2300bf
:102a40006260e1000400320022a9200063f023004c
:102a50000c10a70063f8230027ff07000df0a70064
:102a600001f0a2004f06be004f05be004f04be009d
:102a7000000006000081eb000e013700889fbe00b9
:102a80008a9fbe008c1f7800be000700c50033007f
:102a900003866c006450e1002e0032006420e100e7
:102aa000330032006150e1002f0032006120e1006c
:102ab0003100320085855500eb07b0000900200089
:102ac00008042000050037000804440089844c00f5
:102ad0000a0031000603430087834b0000015300c6
:102ae00081815b00f8ff33000203be000800a000f4
:102af0000804440089844c00f6ff3900c639dd0023
:102b00008301730001003200130020008904d1000a
:102b10000884d3000998a300050032000800a7002c
:102b20000300a0008904d1000884d3008b05e800cd
:102b30008904d1000884d3000001eb000281d20097
:102b40005500070001f0a1000cf0a70001f0a00063
:102b50009d0037006420e1009f0032000801be00a4
:102b60000200be00f7ff37006120e1009a0032004a
:102b70006000b800f3ff37000000200001f82700d4
:102b8000f0ff3700140020007a013700f4ff2f0017
:102b9000780137000001be00650007000470a7003f
:102ba00003f0a1006509b100160032000d003500e8
:102bb0006828e10006003500f0ff2f00f1ff270034
:102bc0000300e00013003b000100280000000500a6
:102bd00000004000818048008502e900fcff3a00c7
:102be00008003700f88f420002003c008000eb0034
:102bf000000005008100d1000080d3008502e800bc
:102c0000fcff3a000300e00002003b0060001000ff
:102c1000e0801800000006000001be00440007002c
:102c20000470a70003f0a10003f8a30013003a000a
:102c30006509b10010003200090035006928e10083
:102c400002003500010028000000050000004000df
:102c5000818048008502e900fcff3a000000060080
:102c6000f88f4200050035008100d1000080d300bc
:102c70008502e800fcff3a00000006008000eb003f
:102c8000000005004f89de00820178005401370002
:102c90006011b8006201370081002000618055009a
:102ca0000b003d000b00200061fe2f000100e10041
:102cb0001d00340082817100610164008904d1002b
:102cc0000884d3000000e800faff3a0071002000f9
:102cd000610064000300700002006000090032001f
:102ce00061044400e0844c000988a500050032001e
:102cf0008b05e8006808e10002003a008904d10071
:102d00000884d300f20f20000258e10005003d00c6
:102d1000c75ddd00f907b200898075000800780002
:102d2000000006000bf827008b007800000005006b
:102d3000c70ade00f107b200f50fb200080032004a
:102d4000e1cf4200020032000170a0002400050023
:102d5000810f7000010032000408050044000500e6
:102d6000810f700002003a00140005008502e9009e
:102d70000000400081c04800fcff3b000170a00043
:102d8000240005000004be00e9ff07000003be00a8
:102d90000405be000200be00e5ff0700844f750079
:102da000000006000200be006450e100050036008d
:102db0006420e100020036000968a30001003a0027
:102dc0000800be000160a0004f0678004f05be005d
:102dd0004f04be0000000600f0ff2f00f1ff2700a7
:102de000f9ff3700889fbe008a9fbe008c1f7800c5
:102df000e4ff0700ebff330003866c006450e10042
:102e0000240032006420e100270032006150e1001c
:102e1000220032006120e100210032008b85420057
:102e2000eb07b1000134b800003ab80008044200d2
:102e300089844a00013ab8000030b8008880400018
:102e400009014a000400330000004000818048006e
:102e5000020149008b05e900c909dd00830170000a
:102e60000100320013002000c814de004814dd0009
:102e70004709de001200b200c808de0008847000b6
:102e800085ff070001f0a1000cf0a70001f0a000f1
:102e9000cdff37006120e100cfff32000801be0006
:102ea0000200be00f7ff37006150e100fcff3a006e
:102eb000c9ff3700889fbe008a9fbe008c9fbe005e
:102ec000820578000004be0099ff07000800be00dc
:102ed0006420e1000700390002003a00f1ff2700fa
:102ee000f0ff2f000160a00012022000428888003d
:102ef000550037006120e10003003a000b00a700f5
:102f000001f823005000370001f0a1000200210069
:102f1000936424001bff07000800be000400350076
:102f2000b2fd2000930c2400ec0007000004be005a
:102f30000005eb000b00a6004f0dde0001f0a10024
:102f40000004be0032982f0023ea2300a5ff0700eb
:102f50000001eb0003f023000b00a70003f823009f
:102f6000e5fd07000bff07000000a7000a00a20014
:102f700044ff07000b00e0000300320002002000c5
:102f800003f02300dbfd070001f0a2000006be00f5
:102f9000020020009304240092ff07000801be00f5
:102fa000d5fd0700809fbe000c00be0022a22a00b3
:102fb000d3a723008bff07004f01be00cefd070003
:102fc0000004be0001f0a1000200200003982300cd
:102fd000ecfe07000800be00190035000001be002d
:102fe00080ff07000006be00b2c52900e36223008f
:102ff0007cff070022222b00f3942b00befd07006c
:103000000c01be0077ff0700e273280083c0230095
:10301000b9fd07000c01be0072ff070042aa2a009a
:10302000a3e22b00b4fd07000c01be006dff0700fa
:103030000801be006bff07000801be00aefd0700df
:103040000a00a70001f0a2004f06be004f05be0017
:103050004f04be00000006000001eb0095ff3700a2
:10306000889fbe008a9fbe008c1f78000004be00af
:103070002fff07000478a30026003a006120e1003a
:103080002500320009f8a30025003a006420e10081
:1030900021003200f507b1000508a300020032004c
:1030a00000004000818048006044b8000310200008
:1030b0000200200000004000818048000805440014
:1030c00089854c000a0541008b8549000a0550009e
:1030d0008b855800030033000a00be000204740010
:1030e000838474008301d1000281d300830f7100b7
:1030f000f0ff3a008904d1000884d3006001490040
:1031000082017800c1adde00fb07b000e2fe0700df
:103110002dff37000960a0000800be002aff37001d
:103120001202200042888800f0ff2f00f1ff2700e4
:1031300025ff37006022b800060220000000d00002
:103140008180d2000482d2008582d2000000a000db
:103150000202520083825a00030031000202420040
:1031600083824a000000a1000603e900f3ff3a0051
:1031700000000600889fbe008a9fbe00841f780062
:1031800000ff07004f00780011003300f0ff2f0010
:10319000838f6c0006003b00040565000a00a70051
:1031a0000800370009f0a6001000200008003700d2
:1031b000820f5400838f5c00030039001000200050
:1031c00001003e000000200009f0a7000000ea0016
:1031d0004f05be004f04be000000e00000000600e6
:1031e000881f7800030478000300e00007003d001a
:1031f00060001000e080180060011900e0811900f3
:1032000002003b0001f02d0003003700040007001e
:1032100008f0a70001f0a0004f04780000000600ad
:10322000889fbe008a9fbe00008270000402710069
:1032300004827100260032000004be000200be00bd
:103240006011b8006b092000950220000182cf00b8
:103250000a0039000541b1000082cf0007003900a3
:103260000541b1000982cf00040039000541b100d9
:103270000882cf00010039000541b100054252002b
:10328000120032000a003b0082817100610164007b
:103290008100d1000080d3008984d3000884d3004a
:1032a0008b05e8000442e800f7ff3a00070037000a
:1032b0000804440089844c000000480081804800d4
:1032c0008b05e9000442e900f9ff3a0072fe0700ad
:1032d0004f05be004f04be000000060004002000a1
:1032e00000003700889fbe008a9fbe008c1f7800b8
:1032f0004f26dd00a3fe0700aafe33006120e10097
:10330000430032006250e10041003e003e003900bf
:103310006420e1003c003200058255000f003b00b4
:103320000402e80038003a00800f5300818f5b00f0
:10333000350034000800be0003f0a10001f0a60033
:1033400003f0a0000cf0a700ebfc07009efe370086
:103350000603430087834b000c46460000055300dc
:1033600081855b00020033000a03be000c00a00050
:103370000402e900f6ff3b008505780006024300e1
:1033800087824b0004003a006000b80009f0a700f3
:1033900001f0a0008cfe37000002520081825a002a
:1033a0000704e000040033000603430087834b005a
:1033b0008b05e900faff3700090578000604be0016
:1033c0000203be006011b80033fe0700e00f520098
:1033d000e08f5a000700350002003c000c08a300f3
:1033e000040032000601be0003f0a0000cf0a700ac
:1033f000c1fc07000a85680001f0a1000af0a700df
:1034000001f0a00070fe37000800be006efe37001d
:10341000100220000cf0a600408888006efe3700e5
:103420008001780002003700b15978000201e900fc
:103430000200e000fcff3a00000006008000780077
:10344000010178003104e000fdff3a000000510066
:103450000000060000027800840178000302780072
:103460003404e000fcff3a00020037008459780081
:103470000201e9000200e00003003200314278005e
:103480000404e000f9ff3a008049eb000000060068
:020000040000fa
:1034900043680000656300006b730000756d0000f9
:1034a00020650000727200006f7200002021000091
:1034b0000a00000072650000636500006976000084
:1034c00065640000206d00006573000073610000fa
:1034d00067650000203a0000200000002026000060
:1034e000200000000a000000537400006172000018
:1034f0007465000064200000210a000000530000f1
:10350000746f0000707000006564000020210000ee
:103510000a00000076650000726200006f73000010
:10352000652000007365000074200000746f0000c7
:103530002000000073650000742000007374000018
:103540006174000065200000004300006861000015
:103550006e6700006564000020500000312000000c
:103560003a200000737000006565000064200000d0
:103570006c65000066740000207400006f2000007d
:10358000002000002f20000031300000303000000b
:103590000a00000043680000616e000067650000db
:1035a0006420000049310000203a00002073000030
:1035b0007065000065640000206c00006566000016
:1035c00074200000746f00002000000043680000b9
:1035d000616e000067650000642000004431000057
:1035e000203a000020730000706500006564000050
:1035f000206c00006566000074200000746f0000fd
:103600002000000073650000727600006f2000004b
:1036100000200000006d00006f7400006f72000059
:10362000200000004158000031320000203100002d
:10363000200000004158000031320000203300001b
:1036400020000000676f000020000000747500007b
:08365000726e00002000000072
:020000040000fa
:103658000400fa00889fbe003c1f07008f1d07006a
:10366800f2150700681f0700be1e0700430d07007c
:10367800c91c0700a91f0700901f07006b1e070041
:103688006000b80090848800a18488006000b800b9
:10369800b0848800c18488006000b800d0848800a5
:1036a800e18488006000b800f08488000185880003
:1036b8006000b80010858800218588006000b80087
:1036c80030858800418588006000b80050858800f2
:1036d800618588006000b800708588008185880051
:1036e8006000b80090858800a18588009070ef0080
:1036f8009170ef00b830ef00ba30ef0000002800fa
:10370800300e880000002800302e8800e3e72100f2
:1037180022e5210061e22100a0df2100381a07001c
:10372800b11b070010002000b0858800bf70ef00b3
:103738000000eb00100798001e0090000000e80051
:103748001007980000002000a147240090848800fa
:10375800a184880000002800b14b2400b0848800b0
:10376800c1848800b0fd200091042400d084880022
:10377800e184880090848000a1848000f08488001f
:1037880001858800b0848000c1848000108588008d
:1037980021858800d0848000e184800030858800fd
:1037a8004185880090848000a1848000508588002d
:1037b80061858800b0848000c1848000708588009d
:1037c80081858800d0848000e1848000908588000d
:1037d800a18588000000eb0010079800070037005b
:1037e8001e009000004078006011b80034160700f1
:1037f8001e0090000000e800100798001e009000ce
:10380800e60f5000f6ff340001003700000000000a
:10381800b80d0700a0002000010020004e1c070082
:103828002213070093130700051407001e0fe80072
:103838001e007800e90f5000020034000000eb0081
:10384800000f7800dcd0bf000004e0002400320044
:10385800a0c2b3002ef0b7004006200001002000ef
:103868003d1c0700dc70ef00ddd0bf000004e00065
:103878000d003200dd70ef00a0868000b186800068
:1038880088868000998680000600200087342400fe
:1038980004002000a54f24000001be000800be005f
:1038a800930607000e003700a0868000b1868000ce
:1038b800888680009986800002002000832c2400de
:1038c800829fbe0006002000a74724006022b8009f
:1038d8000001be000800be00820a0700e487570006
:1038e800ded0bf000004e000c8ff3200de70ef0049
:1038f800c0868000d186800045090700c4ff3700d4
:103908001000fa00881f780000002000011424002d
:1039180040079800510798006000b800008fbe006b
:10392800d0cc2c00c1dc23006007980071079800f8
:103938001e0178009e0190004e009000de0090006d
:103948006afb070018c0b3006e019000fe019000ea
:103958008cfc07000000e00001003c000044eb0084
:103968000804e000080032006e019000fe0190009b
:103978001e0078009e0090005dfb0700200798005d
:10398800310798001e0037001e0178009e01900044
:103998004e009000de00900054fb07000002be00bd
:1039a8006e009000fe00900001f0a20018c0b30065
:1039b8000001be000400be0070fc07000000e0002b
:1039c800010035000044eb000804e0000800320064
:1039d8006e019000fe0190001e0078009e0090008d
:1039e80042fb0700200798003107980004003700c1
:1039f8004e019000de0190002207980033079800de
:103a08002e019000be019000028fbe002e01900092
:103a1800be0190006000b800cb160700e00120004e
:103a280001002000cc1b0700c1ff37001800fa0076
:103a38002068a90000002800300e88000000280037
:103a4800302e8800310e80000000280000804000e1
:103a58008000eb008cfc0700b2fd200093042400da
:103a6800defc07000001be0021fb0700d2cc2c00c1
:103a7800431c2400d9fc070002002000035824003e
:103a8800fcfb0700008fbe00312e800000002800dc
:103a9800008040008000eb007bfc0700b2fd2000a6
:103aa80093042400cdfc07000001be0010fb0700b2
:103ab800d2cc2c00431c2400c8fc070002002000c4
:103ac80003582400ebfb07002007980031079800f3
:103ad800310e800000002800008040008000eb00cc
:103ae80069fc0700b2fd200093042400bbfc07001a
:103af8000001be00fefa070002002000035824005f
:103b0800dcfb07004007980051079800312e800021
:103b180000002800008040008000eb005afc0700ed
:103b2800b2fd200093042400acfc07000001be0095
:103b3800effa07000200200003582400cdfb07001d
:103b480060079800710798004e019000de01900010
:103b58000000200061392400c6fb0700000f980010
:103b6800110f98006e019000fe01900000002000e7
:103b780061392400bffb0700200f9800310f98001f
:103b8800800c200001002000731b0700adff3700e8
:103b98006800fa00889fbe00402f9800512f9800b7
:103ba800622f9800732f98000437980015379800f3
:103bb800263798003737980090848000a1848000c9
:103bc8000001be004e289000de289000c7fa0700ca
:103bd8000004be00b0848000c18480000001be00e3
:103be8006e289000fe289000c0fa07000801be0069
:103bf8001cfb07002017980031179800d08480001c
:103c0800e18480000001be002e109000be109000dc
:103c1800b6fa070020079800310798000700370018
:103c2800b2fd2000930c24002e009000be009000ee
:103c3800affa0700200798003107980018c0b300b2
:103c4800b2fd200093042c002e009000be009000ce
:103c5800cafb07000000e000010035000044eb004b
:103c68000804e000eeff3a0007003700b2fd20002c
:103c7800930c24002e009000be0090009bfa0700d1
:103c8800200798003107980018c0b300b2fd200043
:103c9800930424002e009000be009000b9fb07009a
:103ca8000000e00001003c000044eb000804e000d4
:103cb800eeff3a0090848000a1848000508588003f
:103cc80061858800b0848000c18480007085880088
:103cd80081858800d0848000e184800090858800f8
:103ce800a1858800d2848000e38480004217980070
:103cf8005317980000002000011224006017980054
:103d0800711798000000200001122400001f98007d
:103d1800111f98006000b8004007980051079800ec
:103d28006000b80060079800710798006000b8004c
:103d3800000f9800110f980018c0b3006011b80068
:103d48002e009000be0090008efb07000000e000ef
:103d580001003c000044eb000804e00005003200cc
:103d68000000200001f82300200f9800310f980070
:103d7800320037000000200001f82b00200f9800c7
:103d8800310f98002d003700a2702d0033c2230098
:103d98006e109000fe10900010fc07000001be009d
:103da8004e009000de00900051fa0700400798008e
:103db800510798004e019000de0190006e009000bf
:103dc800fe0090004afa0700a2702d0033c22300bb
:103dd80002fc0700020020000300240025fb070066
:103de8000001be000e0890009e08900040fa0700ef
:103df800000f9800110f98002e099000be0990003e
:103e08000e0890009e089000f4fb07004e119000e9
:103e1800de11900036fa0700308588004185880059
:103e28004e019000de019000620798007307980029
:103e3800a000200001002000c71a070018c0b30026
:103e48000e1990009e1990004e009000de00900020
:103e58004afb07000000e000010035000044eb00c9
:103e68000804e0000e0032000200200003002400d5
:103e78002e009000be009000fefa070018c0b300a4
:103e88000e0990009e0990003efb07000000e0002c
:103e980001003c000044eb000804e000baff3a00cf
:103ea8000e0990009e099000221f9800331f980069
:103eb8001c003700a2702d0033c223004e00900072
:103ec800de009000c5fb07000001be000e08900050
:103ed8009e08900006fa0700000f9800110f98003e
:103ee8002e099000be0990000e0890009e089000d0
:103ef800bafb07004e119000de119000fcf9070094
:103f080030858800418588004e019000de019000d0
:103f18006207980073079800a000200001002000a5
:103f28008d1a07002e199000be1990002e009000df
:103f3800be009000edf9070018c0b3000e0990000c
:103f48009e0990000ffb07000000e00001003c0004
:103f58000044eb000804e000d6ff3a006e10900021
:103f6800fe10900001f0a2006017980071179800e9
:103f78002d003700a2702d0033c223006e10900070
:103f8800fe10900095fb07000001be004e00900057
:103f9800de009000d6f90700400798005107980006
:103fa8004e019000de0190006e009000fe0090002f
:103fb800cff90700a2702d0033c2230087fb07004a
:103fc8000200200003002400aafa07000001be0036
:103fd8000e0890009e089000c5f90700000f980091
:103fe800110f98002e099000be0990000e0890004d
:103ff8009e08900079fb07004e119000de1190009a
:10400800bbf9070030858800418588004e01900083
:10401800de0190006207980073079800a000200056
:10402800010020004c1a070018c0b3006011b80046
:104038004e009000de009000d2fa07000000e00079
:1040480001003c000044eb000804e0000b003200d3
:1040580018c0b3002e019000be0190000e08900019
:104068009e089000c5fa07000000e0000100350036
:104078000044eb000804e000beff3a002e0990005f
:10408800be0990002e009000be00900053fb070070
:104098004e119000de11900095f9070030858800d8
:1040a80041858800401f2000010020002a1a0700cf
:1040b8004e299000de29900052858800638588008b
:1040c8006e299000fe2990007285880083858800fb
:1040d8000e3190009e31900092858800a38588005b
:1040e80018c0b3006011b8002e309000be309000a8
:1040f800a2fa07000000e000010035000044eb00d0
:104108000804e000040032006000b800203798007e
:10411800313798000f00370018c0b3000240220062
:10412800439724002e309000be30900095fa070087
:104138000000e00001003c000044eb000804e0003f
:1041480004003200004022004197240020379800e4
:104158003137980018c0b3006011b8003eb8970016
:10416800ceb8970085fa07000000e000010035008e
:104178000044eb000804e000040032006000b800ce
:1041880030bf9f0041bf9f000f00370018c0b30029
:1041980002402200439724003eb89700ceb897000b
:1041a80078fa07000000e00001003c000044eb0042
:1041b8000804e00004003200004022004197240077
:1041c80030bf9f0041bf9f00b2848000c38480003d
:1041d800421f9800531f980092848000a384800097
:1041e800621f9800731f98006e199000fe199000c6
:1041f8004e289000de2890003cf907000027980020
:10420800112798004e199000de1990006e28900032
:10421800fe28900035f907002027980031279800dc
:104228000e2190009e2190002e209000be2090002c
:104238008cf9070040279800512798000e2190001c
:104248009e2190000e2090009e209000e3fa070027
:104258000004be002e219000be2190002e20900068
:10426800be209000ddfa07000001be000800be0075
:104278001ff9070078fb070060279800712798004e
:104288003eb99700ceb99700022f9800132f9800d7
:104298006000b800400f9800510f98006000b80007
:1042a800600f9800710f98006000b8000017980020
:1042b8001117980039003700a2702d0033c223006f
:1042c8000e2890009e289000c4fa07000001be0046
:1042d8004e089000de08900005f90700400f98008e
:1042e800510f98004e099000de0990006e0890006a
:1042f800fe089000fef80700a2702d0033c22300cc
:10430800b6fa07000200200003002400d9f90700cc
:104318000001be000e1090009e109000f4f80700f7
:1043280000179800111798004e209000de2090008a
:10433800cef907000e1190009e119000a7fa070011
:104348006e199000fe199000e9f80700f0848800c3
:10435800018588004e209000de2090003cfb07007d
:104368000e1190009e1190009cfa07004e199000c3
:10437800de199000def80700108588002185880086
:104388004e099000de099000620f9800730f9800a4
:10439800a0002000010020006f19070018c0b3001a
:1043a8002e319000be3190004e089000de0890003b
:1043b800f2f907000000e000010035000044eb00be
:1043c8000804e0000e003200020020000300240070
:1043d8006e209000fe209000a6f9070018c0b300d8
:1043e8000e1190009e119000e6f907000000e00011
:1043f80001003c000044eb000804e000aeff3a0076
:104408000e1190009e119000222f9800332f9800d3
:1044180018c0b3002e319000be3190004e089000b5
:10442800de089000d7f907000000e00001003c001a
:104438000044eb000804e0002e0032002e3190000a
:10444800be319000420f9800530f98002a003700a1
:10445800a2702d0033c223004e089000de089000a1
:104468005efa07000001be000e1090009e1090003a
:104478009ff8070000179800111798004e20900029
:10448800de20900079f907000e1190009e1190002f
:1044980052fa07006e199000fe19900094f8070070
:1044a800f0848800018588004e209000de2090006e
:1044b800e7fa07000e1190009e11900047fa0700d6
:1044c8004e199000de19900089f8070010858800c1
:1044d800218588004e099000de099000620f98003f
:1044e800730f9800a0002000010020001a1907008f
:1044f80001003700000000002e299000be2990001e
:104508006e209000fe20900078f8070018c0b300d5
:104518000e1190009e1190009af907000000e0002b
:1045280001003c000044eb000804e000c8ff3a002a
:104538000e2890009e28900001f0a200002f9800fd
:10454800112f980039003700a2702d0033c22300c4
:104558000e2890009e28900020fa07000001be0057
:104568004e089000de08900061f80700400f9800a0
:10457800510f98004e099000de0990006e089000d7
:10458800fe0890005af80700a2702d0033c22300dd
:1045980012fa0700020020000300240035f9070082
:1045a8000001be000e1090009e10900050f8070009
:1045b80000179800111798004e209000de209000f8
:1045c8002af907000e1190009e11900003fa0700c7
:1045d8006e199000fe19900045f80700f0848800d5
:1045e800018588004e209000de20900098fa070090
:1045f8000e1190009e119000f8f907004e199000d6
:10460800de1990003af80700108588002185880097
:104618004e099000de099000620f9800730f980011
:10462800a000200001002000cb18070018c0b3002c
:104638006011b8004e089000de08900051f907009c
:104648000000e00001003c000044eb000804e0002a
:104658000b00320018c0b3006e219000fe219000bc
:104668000e1090009e10900044f907000000e00032
:10467800010035000044eb000804e000b2ff3a00f6
:104688004e299000de299000f28488000385880076
:104698006e299000fe2990001285880023858800e5
:1046a800401f200001002000ab180700d0848000c4
:1046b800e184800018c0b3000001be000e309000f5
:1046c8009e3090002ff907000000e00001003c0038
:1046d8000044eb000804e0001d003200d284800092
:1046e800e3848000028fbe000d0037001e017800b1
:1046f8009e019000328588004385880010002000c4
:104708000100200094180700f226210033b023008e
:104718001e0078009e009000f5f70700008fbe008d
:1047280018c0b3000e3190009e3190001e00780032
:104738009e00900011f907000000e000010034001d
:104748000044eb000804e000e8ff3a001c003700d2
:10475800d2848000e3848000028fbe000d00370001
:104768001e0178009e0190003285880043858800ec
:10477800100020000100200077180700f226210011
:1047880033b023001e0078009e009000d7f7070082
:10479800008fbe0018c0b3000e3190009e3190000b
:1047a8001e0078009e009000f6f807000000e00068
:1047b80001003d000044eb000804e000e8ff3a0077
:1047c8000e3190009e319000328588004385880024
:1047d800401f2000010020005f1807004f04be00a2
:1047e8000080fa00000006006400fa00889fbe00fe
:1047f800202f9800312f9800422f9800532f9800af
:10480800642f9800752f980006379800173798007e
:10481800bd70ef0090848000a18480000001be007c
:104828002e289000be289000b0f707000004be00b4
:10483800b0848000c18480000001be004e28900032
:10484800de289000a9f707000801be0005f8070058
:104858000017980011179800d0848000e184800028
:104868000001be000e1090009e1090009ff70700f8
:10487800008fbe0006003700b2fd2000930c240014
:104888001e0078009e00900099f70700008fbe0078
:1048980018c0b300b2fd200093042c001e0078005d
:1048a8009e009000b5f807000000e0000100350008
:1048b8000044eb000804e000efff3a000600370070
:1048c800b2fd2000930c24001e0078009e0090008a
:1048d80086f70700008fbe0018c0b300b2fd2000a5
:1048e800930424001e0078009e009000a5f807009d
:1048f8000000e00001003c000044eb000804e00078
:10490800efff3a0090848000a184800050858800e1
:1049180061858800b0848000c1848000708588002b
:1049280081858800d0848000e1848000908588009b
:10493800a1858800d2848000e38480002217980033
:104948003317980000002000010424004017980045
:1049580051179800000020000104240060179800f7
:10496800711798006000b800200798003107980078
:104978006000b80040079800510798006000b80030
:10498800600798007107980018c0b3006011b8005c
:104998001e0078009e0090007af807000000e000f2
:1049a80001003c000044eb000804e0000500320070
:1049b8000000200001f82300000f9800110f980054
:1049c800360037000000200001f82b00000f980087
:1049d800110f98001e0078009e00900001f0a200c0
:1049e800008fbe002d003700a2702d0033c22300b7
:1049f8004e109000de109000f8f807000001be008d
:104a08002e009000be00900039f70700200798009c
:104a1800310798002e019000be0190004e009000d2
:104a2800de00900032f70700a2702d0033c2230089
:104a3800eaf8070002002000030024000df8070030
:104a48000001be006e009000fe00900028f70700ed
:104a580060079800710798000e0990009e09900061
:104a68006e009000fe009000dcf807002e11900008
:104a7800be1190001ef70700308588004185880028
:104a88002e019000be01900042079800530798003d
:104a9800a000200001002000af17070018c0b300d5
:104aa8006e119000fe1190002e009000be00900044
:104ab80032f807000000e000010035000044eb0078
:104ac8000804e0000e003200020020000300240069
:104ad8001e0078009e009000e6f7070018c0b3009b
:104ae8006e019000fe01900026f807000000e0002b
:104af80001003c000044eb000804e000baff3a0063
:104b08006e019000fe019000021f9800131f98008c
:104b18001c003700a2702d0033c223002e00900025
:104b2800be009000adf807000001be006e009000c6
:104b3800fe009000eef607006007980071079800e5
:104b48000e0990009e0990006e009000fe009000f3
:104b5800a2f807002e119000be119000e4f607009d
:104b680030858800418588002e019000be019000a4
:104b78004207980053079800a00020000100200079
:104b8800751707000e1990009e1990001e007800f6
:104b98009e009000d5f6070018c0b3006e01900083
:104ba800fe019000f7f707000000e00001003c005c
:104bb8000044eb000804e000d6ff3a004e109000d5
:104bc800de10900001f0a2004017980051179800dd
:104bd8002d003700a2702d0033c223004e10900024
:104be800de1090007df807000001be002e00900046
:104bf800be009000bef60700200798003107980015
:104c08002e019000be0190004e009000de00900042
:104c1800b7f60700a2702d0033c223006ff8070013
:104c2800020020000300240092f707000001be00e4
:104c38006e009000fe009000adf607006007980037
:104c4800710798000e0990009e0990006e00900070
:104c5800fe00900061f807002e119000be11900030
:104c6800a3f6070030858800418588002e01900052
:104c7800be0190004207980053079800a00020004a
:104c8800010020003417070018c0b3006011b800f5
:104c98002e009000be009000baf707000000e00068
:104ca80001003c000044eb000804e0000b00320067
:104cb80018c0b3001e0178009e0190006e0090009d
:104cc800fe009000adf707000000e000010035008d
:104cd8000044eb000804e000beff3a000e09900013
:104ce8009e0990001e0078009e0090003bf8070087
:104cf8002e119000be1190007df6070030858800c7
:104d0800418588002e299000be2990005285880090
:104d1800638588004e299000de29900072858800fe
:104d28008385880018c0b3006011b8006e28900011
:104d3800fe28900091f707000000e0000100350010
:104d48000044eb000804e000040032006000b800f2
:104d5800602f9800712f98000f00370018c0b3001b
:104d680002402200439724006e289000fe289000fd
:104d780084f707000000e00001003c000044eb005d
:104d88000804e0000400320000402200419724009b
:104d9800602f9800712f980018c0b3006011b800f8
:104da8000e3090009e30900074f707000000e0007d
:104db800010035000044eb000804e0000400320064
:104dc8006000b80000379800113798000f003700ce
:104dd80018c0b30002402200439724000e30900010
:104de8009e30900067f707000000e00001003c00db
:104df8000044eb000804e0000400320000402200f8
:104e0800419724000037980011379800b284800039
:104e1800c3848000221f9800331f9800928480006a
:104e2800a3848000421f9800531f98004e199000d9
:104e3800de1990002e289000be2890002bf607005f
:104e4800601f9800711f98002e199000be199000dd
:104e58004e289000de28900024f6070000279800ce
:104e6800112798006e199000fe1990000e209000ee
:104e78009e2090007bf60700202798003127980095
:104e88006e199000fe1990006e189000fe189000a0
:104e9800d2f707000004be000e2190009e2190006a
:104ea8000e2090009e209000ccf707000001be0065
:104eb8000800be000ef6070067f8070040279800b4
:104ec800512798000e3190009e319000622798007b
:104ed800732798006000b800200f9800310f9800e1
:104ee8006000b800400f9800510f98006000b800ab
:104ef800600f9800710f980039003700a2702d00dc
:104f080033c223006e209000fe209000b3f7070004
:104f18000001be002e089000be089000f4f50700be
:104f2800200f9800310f98002e099000be099000bc
:104f38004e089000de089000edf50700a2702d00e5
:104f480033c22300a5f70700020020000300240055
:104f5800c8f607000001be006e089000fe08900029
:104f6800e3f50700600f9800710f98002e2090005d
:104f7800be209000bdf607006e099000fe09900063
:104f880096f707004e199000de199000d8f5070033
:104f9800f0848800018588002e209000be209000b3
:104fa8002bf807006e099000fe0990008bf70700a8
:104fb8002e199000be199000cdf5070010858800c5
:104fc800218588002e099000be099000420f9800a4
:104fd800530f9800a0002000010020005e16070073
:104fe80018c0b3006e299000fe2990002e0890008a
:104ff800be089000e1f607000000e000010035005f
:105008000044eb000804e0000e003200020020001b
:10501800030024004e209000de20900095f6070043
:1050280018c0b3006e099000fe099000d5f607007d
:105038000000e00001003c000044eb000804e00030
:10504800aeff3a006e099000fe099000022f98000a
:10505800132f980018c0b3006e299000fe29900005
:105068002e089000be089000c6f607000000e00079
:1050780001003c000044eb000804e0002e00320070
:105088006e299000fe299000220f9800330f980097
:105098002a003700a2702d0033c223002e0890008a
:1050a800be0890004df707000001be006e08900092
:1050b800fe0890008ef50700600f9800710f9800a9
:1050c8002e209000be20900068f607006e09900020
:1050d800fe09900041f707004e199000de19900074
:1050e80083f50700f0848800018588002e20900051
:1050f800be209000d6f707006e099000fe099000c8
:1051080036f707002e199000be19900078f50700b1
:1051180010858800218588002e099000be0990001e
:10512800420f9800530f9800a000200001002000b3
:105138000916070001003700000000000e29900042
:105148009e2990004e209000de20900067f5070011
:1051580018c0b3006e099000fe09900089f6070098
:105168000000e00001003c000044eb000804e000ff
:10517800c8ff3a006e209000fe20900001f0a200c7
:10518800602798007127980039003700a2702d0019
:1051980033c223006e209000fe2090000ff7070016
:1051a8000001be002e089000be08900050f50700d0
:1051b800200f9800310f98002e099000be0990002a
:1051c8004e089000de08900049f50700a2702d00f7
:1051d80033c2230001f70700020020000300240067
:1051e80024f607000001be006e089000fe0890003b
:1051f8003ff50700600f9800710f98002e2090006f
:10520800be20900019f607006e099000fe09900074
:10521800f2f607004e199000de19900034f50700e9
:10522800f0848800018588002e209000be20900020
:1052380087f707006e099000fe099000e7f607005f
:105248002e199000be19900029f5070010858800d6
:10525800218588002e099000be099000420f980011
:10526800530f9800a000200001002000ba15070085
:1052780018c0b3006011b8002e089000be08900056
:1052880040f607000000e00001003c000044eb008d
:105298000804e0000b00320018c0b3004e21900053
:1052a800de2190006e089000fe08900033f607009b
:1052b8000000e000010035000044eb000804e000b5
:1052c800b2ff3a002e299000be299000f28488008f
:1052d800038588004e299000de29900012858800f9
:1052e800238588004f04be000080fa0000000600f5
:1052f8006400fa00889fbe00202f9800312f980084
:10530800422f9800532f9800642f9800752f98000b
:105318000637980017379800bd70ef0010c0b3002b
:105328002cf0b70090848000a18480000001be00aa
:105338002e289000be289000ecf407000004be0060
:10534800b0848000c18480000001be004e28900017
:10535800de289000e5f407000801be0041f50700cb
:105368000017980011179800d0848000e18480000d
:105378000001be000e1090009e109000dbf40700a4
:10538800b2fd200093042400d8f40700008fbe006b
:1053980006003700b2fd2000930c24001e007800a0
:1053a8009e009000d2f40700008fbe0018c0b30022
:1053b800b2fd200093042c001e0078009e0090008f
:1053c800eef507000000e000010035000044eb00a6
:1053d8000804e000efff3a0006003700b2fd2000a5
:1053e800930c24001e0078009e009000bff4070074
:1053f800008fbe0018c0b300b2fd20009304240043
:105408001e0078009e009000def507000000e00016
:1054180001003c000044eb000804e000efff3a0004
:1054280090848000a1848000508588006185880070
:10543800b0848000c18480007085880081858800e0
:10544800d0848000e184800090858800a185880050
:10545800d2848000e38480002217980033179800d4
:1054680000002000010424004017980051179800fc
:1054780000002000010424006017980071179800ac
:105488006000b80020079800310798006000b80055
:1054980040079800510798006000b800600798001e
:1054a8007107980018c0b3006011b8001e0078009a
:1054b8009e009000b3f507000000e00001003c00ea
:1054c8000044eb000804e000050032000000200062
:1054d80001f82300000f9800110f980036003700dc
:1054e8000000200001f82b00000f9800110f980011
:1054f8001e0078009e00900001f0a200008fbe0000
:105508002d003700a2702d0033c223004e109000ea
:10551800de10900031f607000001be002e0090005a
:10552800be00900072f40700200798003107980029
:105538002e019000be0190004e009000de00900009
:105548006bf40700a2702d0033c2230023f6070076
:10555800020020000300240046f507000001be00f9
:105568006e009000fe00900061f40700600798004c
:10557800710798000e0990009e0990006e00900037
:10558800fe00900015f607002e119000be11900045
:1055980057f4070030858800418588002e01900067
:1055a800be0190004207980053079800a000200011
:1055b80001002000e814070018c0b3006e11900025
:1055c800fe1190002e009000be0090006bf50700c1
:1055d8000000e000010035000044eb000804e00092
:1055e8000e00320002002000030024001e00780094
:1055f8009e0090001ff5070018c0b3006e019000d0
:10560800fe0190005ff507000000e00001003c008b
:105618000044eb000804e000baff3a006e01900075
:10562800fe019000021f9800131f98001c0037000d
:10563800a2702d0033c223002e009000be009000ff
:10564800e6f507000001be006e009000fe00900025
:1056580027f4070060079800710798000e0990006a
:105668009e0990006e009000fe009000dbf5070098
:105678002e119000be1190001df40700308588009f
:10568800418588002e019000be01900042079800d5
