:020000040000fa
:080000000002040000000000f2
:020000040000fa
:04000800801500005f
:020000040000fa
:04000c00801500005b
:020000040000fa
:040010008015000057
:020000040000fa
:040014008015000053
:020000040000fa
:04001800801500004f
:020000040000fa
:04001c00801500004b
:020000040000fa
:040020008015000047
:020000040000fa
:040024008015000043
:020000040000fa
:04002800801500003f
:020000040000fa
:04002c00801500003b
:020000040000fa
:040030008015000037
:020000040000fa
:040034004005000083
:020000040000fa
:04003800701500003f
:020000040000fa
:04003c00801500002b
:020000040000fa
:040040008015000027
:020000040000fa
:040044008015000023
:020000040000fa
:04004800e0140000c0
:020000040000fa
:04004c00801500001b
:020000040000fa
:04005000fa020000b0
:020000040000fa
:040054008015000013
:020000040000fa
:04005800801500000f
:020000040000fa
:04005c00801500000b
:020000040000fa
:04006000781500000f
:020000040000fa
:040064008015000003
:020000040000fa
:0400680080150000ff
:020000040000fa
:04006c0080150000fb
:020000040000fa
:0400700080150000f7
:020000040000fa
:04007400aa030000db
:020000040000fa
:0400780080150000ef
:020000040000fa
:04007c0080150000eb
:020000040000fa
:0400800080150000e7
:020000040000fa
:0400840080150000e3
:020000040000fa
:0400880080150000df
:020000040000fa
:04008c0080150000db
:020000040000fa
:0400900080150000d7
:020000040000fa
:0400940080150000d3
:020000040000fa
:04009800f21400005e
:020000040000fa
:04009c0080150000cb
:020000040000fa
:0400a00080150000c7
:020000040000fa
:0400a4000a15000039
:020000040000fa
:0400a80080150000bf
:020000040000fa
:0400ac0080030000cd
:020000040000fa
:0400b00080150000b7
:020000040000fa
:0400b40080150000b3
:020000040000fa
:0400b80080150000af
:020000040000fa
:0400bc0080150000ab
:020000040000fa
:0400c00080150000a7
:020000040000fa
:0400c40080150000a3
:020000040000fa
:0400c800801500009f
:020000040000fa
:0400cc00801500009b
:020000040000fa
:0400d0008015000097
:020000040000fa
:0400d4008015000093
:020000040000fa
:0400d800801500008f
:020000040000fa
:0400dc00801500008b
:020000040000fa
:0400e0008015000087
:020000040000fa
:0400e4008015000083
:020000040000fa
:0400e800801500007f
:020000040000fa
:0400ec00801500007b
:020000040000fa
:0400f0008015000077
:020000040000fa
:0400f4008015000073
:020000040000fa
:0400f800801500006f
:020000040000fa
:0400fc00801500006b
:020000040000fa
:040100008015000066
:020000040000fa
:040104008015000062
:020000040000fa
:04010800801500005e
:020000040000fa
:04010c00801500005a
:020000040000fa
:040110008015000056
:020000040000fa
:040114008015000052
:020000040000fa
:04011800801500004e
:020000040000fa
:04011c00801500004a
:020000040000fa
:040120008015000046
:020000040000fa
:040124008015000042
:020000040000fa
:04012800801500003e
:020000040000fa
:04012c00801500003a
:020000040000fa
:040130008015000036
:020000040000fa
:040134008015000032
:020000040000fa
:04013800801500002e
:020000040000fa
:04013c00801500002a
:020000040000fa
:040140008015000026
:020000040000fa
:040144008015000022
:020000040000fa
:04014800801500001e
:020000040000fa
:04014c00801500001a
:020000040000fa
:040150008015000016
:020000040000fa
:040154008015000012
:020000040000fa
:04015800801500000e
:020000040000fa
:04015c00801500000a
:020000040000fa
:040160008015000006
:020000040000fa
:040164008015000002
:020000040000fa
:0401680080150000fe
:020000040000fa
:04016c0080150000fa
:020000040000fa
:04017000681500000e
:020000040000fa
:04017400381500003a
:020000040000fa
:0401780080150000ee
:020000040000fa
:04017c0080150000ea
:020000040000fa
:0401800080150000e6
:020000040000fa
:0401840080150000e2
:020000040000fa
:0401880080150000de
:020000040000fa
:04018c0080150000da
:020000040000fa
:0401900080150000d6
:020000040000fa
:0401940080150000d2
:020000040000fa
:0401980080150000ce
:020000040000fa
:04019c0080150000ca
:020000040000fa
:0401a00080150000c6
:020000040000fa
:0401a40080150000c2
:020000040000fa
:0401a80080150000be
:020000040000fa
:0401ac0080150000ba
:020000040000fa
:0401b00080150000b6
:020000040000fa
:0401b40080150000b2
:020000040000fa
:0401b80080150000ae
:020000040000fa
:0401bc0080150000aa
:020000040000fa
:0401c00080150000a6
:020000040000fa
:0401c40080150000a2
:020000040000fa
:0401c800801500009e
:020000040000fa
:0401cc00801500009a
:020000040000fa
:0401d0008015000096
:020000040000fa
:0401d4008015000092
:020000040000fa
:0401d800801500008e
:020000040000fa
:0401dc00801500008a
:020000040000fa
:0401e0008015000086
:020000040000fa
:0401e4008015000082
:020000040000fa
:0401e800801500007e
:020000040000fa
:0401ec00801500007a
:020000040000fa
:0401f0008015000076
:020000040000fa
:0401f4008015000072
:020000040000fa
:0401f800801500006e
:020000040000fa
:0401fc00801500006a
:020000040000fa
:040200008015000065
:020000040000fa
:040204008015000061
:020000040000fa
:04020800801500005d
:020000040000fa
:04020c008015000059
:020000040000fa
:040210008015000055
:020000040000fa
:040214008015000051
:020000040000fa
:04021800801500004d
:020000040000fa
:04021c008015000049
:020000040000fa
:040220008015000045
:020000040000fa
:040224008015000041
:020000040000fa
:04022800801500003d
:020000040000fa
:04022c008015000039
:020000040000fa
:040230008015000035
:020000040000fa
:040234008015000031
:020000040000fa
:04023800801500002d
:020000040000fa
:04023c008015000029
:020000040000fa
:040240008015000025
:020000040000fa
:040244008015000021
:020000040000fa
:04024800801500001d
:020000040000fa
:04024c008015000019
:020000040000fa
:040250008015000015
:020000040000fa
:040254008015000011
:020000040000fa
:04025800801500000d
:020000040000fa
:04025c008015000009
:020000040000fa
:040260008015000005
:020000040000fa
:040264008015000001
:020000040000fa
:0402680080150000fd
:020000040000fa
:04026c0080150000f9
:020000040000fa
:0402700080150000f5
:020000040000fa
:0402740080150000f1
:020000040000fa
:0402780080150000ed
:020000040000fa
:04027c0080150000e9
:020000040000fa
:0402800080150000e5
:020000040000fa
:10040000cf2022000eff27000e0188000000000010
:10041000000020000000e000020032000001200087
:100420002002880014000700b70907000000e00060
:1004300003003a004081260001002000020037003e
:100440000000200001002000810f70000100320038
:100450000f000700000020000000e0000200320052
:100460000000020000000000cc2302000000000099
:100470000040da000000fe00401920000000e0000b
:1004800002003200002020009001880000000600d9
:10049000a1028800800478000000eb001f003700f4
:1004a000e284440054a0b4009905ba00e2844400f8
:1004b00054a0b4009906ba00e284440054a0b400e9
:1004c0000006eb00476fde00fd07b200ae018800ba
:1004d000636ce10003003a000ad801000000eb0061
:1004e0000e003700606ce10008003a00004deb00a0
:1004f0000a05e800020039003420ec000af0a000f0
:100500008b05e900f9ff3e00040037006168e10057
:10051000010032000086eb000b00070019c7ba008b
:100520000e04e0001905ba0003003a000a00e000da
:10053000dbff3a0000000600fe07b200ae028800b2
:100540008a047800f5ff37000cd0a300e20f4d00bd
:100550001c00390089027800354dba000a05e80010
:10056000020039003420ec000af0a0008b05e900fd
:100570000f003200254dba000a05e80002003900dc
:100580003420ec000af0a0008b05e90008003200de
:100590000c00e0000600320015cdba000a05e800a4
:1005a000020039003420ec000af0a0008b05e900bd
:1005b0008984e80054a0b4000b00e000e2ff3a0098
:1005c000000006009902ba00055d78008b05e9007d
:1005d000f7ff3200c82ade00055d78008b05e900d0
:1005e000f3ff32000c00e000f1ff320019ddba0029
:1005f000eeff3700809fbe000200fa00401280002c
:10060000004f7800b0cab3009e40780080cf500001
:1006100003003a0040c5b30018f1b70031003700bd
:1006200018d1bf000080fb0011062000810f500090
:100630002600320011062000810f50000a003c0005
:1006400071042000810f50001d0032004105200080
:10065000810f50000e00320001022000810f500077
:10066000140032001f00370081062000810f500067
:100670000a003200d1062000810f5000160032001f
:1006800051062000810f500007003200150037008e
:1006900080c6b30018f1b7001200370050c6b3008f
:1006a00018f1b7000f00370000c2b30018f1b7000f
:1006b0000c00370070c4b30018f1b7000900370010
:1006c00010c6b30018f1b70006003700d0c6b3005b
:1006d00018f1b7000300370050c6b30018f1b70097
:1006e0000000000018d1bf000080fb00401288000d
:1006f0000148a9000080fa004f00be00004006003b
:100700003600f800809fbe00829fbe00849fbe001e
:10071000869fbe000200fa0040138000004f780060
:10072000a03b2a00232607001e80fb00d71d0700e0
:10073000202607000428a9000080fa004f03be000d
:100740004f02be004f01be004f00be003600f90050
:10075000004006003600f800809fbe00829fbe0069
:10076000849fbe00869fbe00881f78003200f8007c
:100770003400f80010002000a001880000202000b4
:1007800090018800000000000400fa000268a9003f
:100790000000eb00000f780011888000001020009e
:1007a00080806000107080004800de0061406000c2
:1007b0000080fb00808f50000500320030002000d8
:1007c000000f78000040eb00204798005d003700e4
:1007d00041888000000024008080600090718000cb
:1007e0004e00de00614060000080fb00808f500002
:1007f0000500320030002000000f780010c0b30068
:10080000204798004f0037005188800000002400e6
:1008100080806000107280004e00de006140600049
:100820000080fb00808f5000050032003000200067
:10083000000f780020c0b300204798004100370027
:1008400051888000000021008080600010728000cc
:100850004c00de00614060000080fb00808f500093
:100860000500320030002000000f780030c0b300d7
:100870002047980033003700618880000000220084
:1008800080806000907280004d00de00614060005a
:100890000080fb00808f50000500320030002000f7
:1008a000000f780040c0b3002047980025003700b3
:1008b00031888000008020008080600010718000fe
:1008c0004b00de00614060000080fb00808f500024
:1008d0000500320030002000000f780050c0b30047
:1008e0002047980017003700718880000000210021
:1008f00080806000107380004c00de00614060006a
:100900000080fb00808f50000300320010002000a8
:10091000000f78000b003700718880000000220073
:1009200080806000107380004d00de006140600038
:100930000080fb00808f5000020032002000200069
:10094000000f78001e007800e20f50002f003200e8
:10095000e30f50002f003a002e4090000080fb0073
:10096000e11e220000804000104078000004e000fa
:10097000110032002e4090000084fb00a00880008f
:100980008000eb006b0b0700c241dd00421f22001c
:10099000028141000089be002e4090000080fb00d3
:1009a000e11e2200008040008040eb0001487800fa
:1009b00010c0b30027f0b7002e4090000080fb006d
:1009c000811e220000804000104078000004e000fa
:1009d000120032001421ef002e4090000080fb0036
:1009e000811e2200008040008040eb00014878001a
:1009f0002e4090000080fb00e11e2200008040009d
:100a000011c0b30001487800050037000000000065
:100a10000300370000000000010037000000000064
:100a200010708000108888009070800020888800f6
:100a300010718000308888009071800040888800a4
:100a40001072800050888800907280006088880052
:100a500010738000708888000080fa003400f9006c
:100a60003200f9004f0478004f03be004f02be0071
:100a70004f01be004f00be003600f90000400600e6
:100a80003600f800809fbe00829fbe00849fbe009b
:100a9000869fbe00889fbe008a9fbe005a00fa0053
:100aa0000068a900300e8000500f9800302e8000a2
:100ab000600f9800c621ef00c625ef00a1808000de
:100ac0005e08900000804000a0808800b180800017
:100ad0006e08900000804000b08088005e089000a2
:100ae000cf80de000b0b0700700f980001179800f5
:100af00012179800231798006e089000cf80de0030
:100b0000040b0700301798004117980052179800ff
:100b100063179800000f21009000900020019000c2
:100b2000b0019000100078007e0a90008e129000b4
:100b30001e139000ae139000530b07000205be0079
:100b40000004be00800e2100900090002001900063
:100b5000b0019000100078000203be000002be0049
:100b60000800be000a01be00470b0700700f980086
:100b7000011798001217980023179800000f210002
:100b80009000900020019000b001900010007800cb
:100b90000203be000002be003e109000ce10900086
:100ba0005e119000ee119000370b0700301798008f
:100bb0004117980052179800631798003e12900052
:100bc000ce1290005e139000ee1390007e0890000d
:100bd0008e1090001e119000ae119000cc070700ff
:100be0006022b80006002000070024003209070038
:100bf00070179800011f9800121f9800231f98007b
:100c0000b0848000c1848000110a07000205be0084
:100c10000004be007e0a90008e1290001e13900009
:100c2000ae1390003e109000ce1090005e11900028
:100c3000ee1190005e0c07000203be000002be0031
:100c4000142f9800252f9800362f9800472f9800d2
:100c5000800f21009000900020019000b0019000d2
:100c6000100078000203be000002be001e289000a3
:100c7000ae2890003e299000ce2990000e09070072
:100c80000203be000002be000800be000a01be0052
:100c90009f070700480c0700b0848800c1848800c3
:100ca0007084800081848000e90907000205be008d
:100cb0000004be00b0848000c1848000f2080700f8
:100cc000e30907007e1290008e1a90001e1b900010
:100cd000ae1b9000ec0a07000203be000002be003b
:100ce0000800be000a01be0089070700320c070099
:100cf000708488008184880090848000a1848000b2
:100d0000d30907000205be000004be00b0848000c5
:100d1000c1848000ef0b0700cd0907007e12900010
:100d20008e1a90001e1b9000ae1b9000d60a070082
:100d30000203be000002be000800be000a01be00a1
:100d4000730707001c0c070090848800a1848800aa
:100d5000008080000000e8000080880000808000a3
:100d6000e90f5000b70636000030ef00a080800089
:100d7000cf80de00670a0700301f9800411f9800ef
:100d8000521f9800631f9800b0808000cf80de0063
:100d9000600a0700701f980001279800122798002a
:100da00023279800000f2100900090002001900060
:100db000b0019000100078003e1a9000ce1a90000a
:100dc0005e1b9000ee1b9000af0a07006022b80087
:100dd00006002400f7082400ab0a07006022b800d0
:100de0000600200047022400b3080700301f9800c7
:100df000411f9800521f9800631f9800000f2100a8
:100e00009000900020019000b00190001000780048
:100e10007e1a90008e2290001e239000ae23900038
:100e2000990a07006022b80006002400f708240091
:100e3000950a07006022b80006002000470224003f
:100e40009d080700701f980001279800122798003e
:100e5000232798001430ef001630ef00d484800070
:100e6000e584800070848000818480000001be00e1
:100e70000400be00a40707000004be00f484800044
:100e80000585800090848000a18480000001be0060
:100e90000400be009c0707000801be00f807070019
:100ea00030279800412798003485800045858000d0
:100eb00070848000818480000001be000400be00b8
:100ec000910707000004be005485800065858000fe
:100ed00090848000a18480000001be000400be0058
:100ee000890707000801be00e5070700008fbe0064
:100ef00028d0bf000004e0000e003200b2fd200048
:100f0000930424001e0078009e0090007e070700d6
:100f1000008fbe0008003700b2fd2000930c2400b3
:100f20001e0078009e00900078070700008fbe002a
:100f30000100370000000000b0848000c184800000
:100f40000001be001e0078009e0090006e070700a2
:100f500018c0b300b2fd200093042c005b09070009
:100f60000000e000010035000044eb000804e00050
:100f7000e9ff3a0006003700b2fd2000930c240080
:100f80001e0078009e0090005f070700008fbe00e3
:100f9000b0848000c18480000001be001e00780083
:100fa0009e0090005807070018c0b300b2fd200053
:100fb00093042400470907000000e00001003c0002
:100fc0000044eb000804e000ebff3a00b08480002e
:100fd000c18480000001be001e0078009e009000c9
:100fe0004907070018c0b300b2fd200093fc2b0096
:100ff000360907000000e000010035000044eb0066
:101000000804e00006003200b2fd20009304240032
:101010001e0078009e0090003c070700008fbe0075
:10102000b0848000c18480000001be001e007800f2
:101030009e0090003407070018c0b300b2fd2000e6
:1010400093fc2300230907000000e00001003c009e
:101050000044eb000804e00006003200b2fd20006e
:10106000930424001e0078009e00900026070700cd
:10107000008fbe00748480008584800030858000ed
:10108000418580000001be000400be001e0707006d
:101090000004be0074848000858480003085800058
:1010a000418580000001be000400be001607070055
:1010b0000001be000800be00690a07000004be006f
:1010c00094848000a5848000508580006185800024
:1010d0000001be000400be000b0707000005be00b3
:1010e00094848000a5848000508580006185800004
:1010f0000001be000400be00030707000001be009f
:101100000a00be00560a07000001be000800be002b
:10111000fe060700f10a0700502798006127980093
:101120007484800085848000d0848000e184800005
:101130000001be000400be00f30607000004be006c
:101140007484800085848000d0848000e1848000e5
:101150000001be000400be00eb0607000001be0057
:101160000800be003e0a07000004be009484800010
:10117000a5848000f0848000018580000001be000d
:101180000400be00e00607000005be009484800055
:10119000a5848000f0848000018580000001be00ed
:1011a0000400be00d80607000001be000a00be0011
:1011b0002b0a07000001be000800be00d30607008e
:1011c000c60a07002007980031079800b084800005
:1011d000c18480003e219000ce219000ca06070005
:1011e000400798005107980007003700b2fd200023
:1011f000930c24004e009000de009000c206070011
:10120000400798005107980018c0b300b2fd2000b5
:10121000930424004e009000de009000ad0807000b
:101220000000e00001003c000044eb000804e00086
:10123000eeff3a0007003700b2fd2000930c2400b7
:101240004e009000de009000b006070040079800b6
:101250005107980018c0b300b2fd200093042c0081
:101260004e009000de009000980807000000e000ab
:10127000010035000044eb000804e000eeff3a00f6
:1012800018c0b300b2fd200093fc2b004e0090006c
:10129000de0090008f0807000000e00001003c0025
:1012a0000044eb000804e0001000320018c0b30056
:1012b000b2fd200093fc23004e009000de00900061
:1012c000820807000000e000010035000044eb0048
:1012d0000804e000050032002e009000be009000df
:1012e00001f0a200200798003107980018c0b30051
:1012f00002002000832424005e209000ee20900055
:10130000740807000000e00001003c000044eb000e
:101310000804e0000b003a0018c0b30002002000ef
:1013200083242c005e209000ee20900067080700c8
:101330000000e000010035000044eb000804e0007c
:10134000080032001e0078009e0090004008070050
:101350000203be000002be0000fb2100342a070089
:1013600007003700108580002185800038080700bd
:101370000203be000002be0000fb21002c2a070071
:101380002e009000be009000310807000203be004e
:101390000002be0080f22100472a0700860a0700eb
:1013a0006007980071079800b0848000c1848000b5
:1013b000270807000203be000002be0000fb210058
:1013c0003d2a07007c0a070070279800012f98002b
:1013d00080f521009000900020019000b001900065
:1013e0001000780018c0b3006022b800060020008a
:1013f00007022400260707000000e0000100350076
:101400000044eb000804e0002000320080f52100d9
:101410009000900020019000b00190001000780032
:1014200018c0b3006022b8000600200007022c009c
:101430001c0707000000e00001003c000044eb0036
:101440000804e0001100320018c0b30002002000c0
:10145000031024005e209000ee2090001b0807007f
:101460000000e000010035000044eb000804e0004b
:101470000600320010d1bf00e14f500003003a00d7
:101480006000b80060079800710798007e21900006
:101490008e2990006e009000fe0090001a06070052
:1014a000eb0707000203be000002be0080e121003e
:1014b000df2907007e2190008e2990006e009000a9
:1014c000fe00900011060700e10707000203be00be
:1014d0000002be0000ea2100d52907003e1a900054
:1014e000ce1a90005e1b9000ee1b900080e1210060
:1014f000f1290700300a0700000f9800110f98002b
:101500007e1a90008e2290001e239000ae23900041
:1015100000ea2100e8290700270a0700200f9800a9
:10152000310f980080f5210090009000200190007c
:10153000b00190001000780018c0b3006022b8001d
:101540000600200007022400d10607000000e0008a
:10155000010035000044eb000804e0007d0032008b
:1015600080f521009000900020019000b0019000d3
:101570001000780018c0b3006022b80006002000f8
:1015800007022c00c70607000000e00001003c0035
:101590000044eb000804e0006e00320000fe210071
:1015a0009000900020019000b001900010007800a1
:1015b00018c0b3000400200005002a0096992900f5
:1015c00097fa2300b20607000000e0000100350092
:1015d0000044eb000804e0005e00320000fe210041
:1015e0009000900020019000b00190001000780061
:1015f00018c0b3000400200005002a0096992900b5
:1016000097fa2b00a70607000000e00001003c004d
:101610000044eb000804e0004e00320018c0b300a4
:101620006022b80006002000470124003e18900008
:10163000ce1890005e199000ee19900094060700f5
:101640000000e000010035000044eb000804e00069
:101650004000320018c0b3006022b800060020002d
:1016600047012c003e189000ce1890005e199000a3
:10167000ee1990008b0607000000e00001003c001e
:101680000044eb000804e0003200320018c0b30050
:101690006022b80006002000470124007e18900058
:1016a0008e2090001e219000ae2190007806070049
:1016b0000000e000010035000044eb000804e000f9
:1016c0002400320018c0b3006022b80006002000d9
:1016d00047012c007e1890008e2090001e21900063
:1016e000ae2190006f0607000000e00001003c0002
:1016f0000044eb000804e0001600320010d1bf00e7
:10170000e14f500013003a006000b800000f98004d
:10171000110f98006000b800200f9800310f98005a
:1017200004e621006000b8006011b800009abe0015
:101730000292be0004e621006000b8006011b8000b
:10174000009abe000292be0010c0b300b8f0b7000d
:1017500001003700b870ef004080800051808000a9
:101760000001be002e089000be089000660507002c
:101770000002be00208780003187800018c0b300bf
:101780000001be000400be00520707000000e00098
:1017900001003c000044eb000804e0000a003200b5
:1017a0004480800055808000208780003187800041
:1017b0000001be000400be0054050700200f980081
:1017c000310f98001c00370040808000518080005d
:1017d0000001be002e089000be0890004a050700d8
:1017e0000002be00208780003187800001f0a20047
:1017f00018c0b3000001be000400be00330707009c
:101800000000e000010035000044eb000804e000a7
:1018100009003200448080005580800020878000cd
:10182000318780000001be000400be0036050700bd
:10183000200f9800310f98002080800031808000b8
:101840000001be000e0890009e0890002e050700c3
:101850000002be00208780003187800018c0b300de
:101860000001be000400be001a0707000000e000ef
:1018700001003c000044eb000804e0000a003200d4
:1018800024808000358080002087800031878000a0
:101890000001be000400be001c050700000f9800f8
:1018a000110f98001c0037002080800031808000dc
:1018b0000001be000e0890009e089000120507006f
:1018c0000002be00208780003187800001f0a20066
:1018d00018c0b3000001be000400be00fb060700f4
:1018e0000000e000010035000044eb000804e000c7
:1018f000090032002480800035808000208780002d
:10190000318780000001be000400be00fe04070015
:10191000000f9800110f98000e0b90009e0b900086
:1019200026808800378088002e099000be0990002c
:101930004280880053808800bbd0bf000004e000d4
:10194000e9003a00bcd0bf000004e0006d003200a6
:1019500011d1bf000004e00048003200c00f810038
:10196000d10f810018c0b3000200200063392400a9
:10197000d80607000000e00001003c000044eb0036
:101980000804e0000b003200c00f8100d10f81007d
:1019900018c0b30002002000a3472400cb060700b4
:1019a0000000e000010035000044eb000804e00006
:1019b0002c003a00a00f8100b10f810018c0b300c5
:1019c0000200200063392400c20607000000e00086
:1019d00001003c000044eb000804e0000b00320072
:1019e000a00f8100b10f810018c0b30002002000d9
:1019f000a3472400b50607000000e0000100350001
:101a00000044eb000804e00016003a00e00f8100fb
:101a1000f10f810018c0b3000200200063392400d8
:101a2000ac0607000000e00001003c000044eb00b1
:101a30000804e0000f003200e00f8100f10f810088
:101a400018c0b30002002000a34724009f0607002f
:101a50000000e000010035000044eb000804e00055
:101a60000400320026d0bf000040e80026f0b70096
:101a70001d0037002670ef001b003700201081008a
:101a80003110810018c0b300020020006339240027
:101a9000900607000000e00001003c000044eb005d
:101aa0000804e0000f003200201081003110810096
:101ab00018c0b30002002000a347240083060700db
:101ac0000000e000010035000044eb000804e000e5
:101ad0000400320026d0bf000040e80026f0b70026
:101ae000010037002670ef0026d0bf00ea4f5000fb
:101af000040036006011b8006000b80042240700fe
:101b0000ffff37000e0990009e0990002e089000fc
:101b1000be089000c625070080f5210090009000c7
:101b200020019000b00190001000780018c0b300b0
:101b30006022b80006002000e704240059050700d1
:101b40000000e00001003c000044eb000804e0005d
:101b500065003a0080f5210090009000200190007f
:101b6000b00190001000780018c0b3006022b800e7
:101b700006002000e7042c00450507000000e000f7
:101b8000010035000044eb000804e00056003a0074
:101b900000fe21009000900020019000b001900014
:101ba0001000780018c0b3000400200005002c00cd
:101bb000c6cc2c00c7fe23003a0507000000e00059
:101bc00001003c000044eb000804e00046003a003d
:101bd00000fe21009000900020019000b0019000d4
:101be0001000780018c0b3000400200005002c008d
:101bf000c6cc2c00c7fe2b00250507000000e00026
:101c0000010035000044eb000804e00036003a0013
:101c100080e421009000900020019000b00190002d
:101c20001000780018c0b3006022b8000600200041
:101c3000570324001b0507000000e00001003c00e2
:101c40000044eb000804e00027003a0080e4210093
:101c50009000900020019000b001900010007800ea
:101c600018c0b3006022b8000600200057032c0003
:101c7000070507000000e000010035000044eb000c
:101c80000804e00018003a0000ed210090009000e8
:101c900020019000b00190001000780018c0b3003f
:101ca0006022b8000600200057032400fd0407004e
:101cb0000000e00001003c000044eb000804e000ec
:101cc00009003a0000ed21009000900020019000f2
:101cd000b0019000100078006022b80006002000db
:101ce00057032c00ea040700708480008184800080
:101cf000260607000001be0010c0b300dc2007006c
:101d0000d0848000e1848000200607000001be002e
:101d100020c0b300d62007002ad0bf000004e00096
:101d20003400320080f521009000900020019000e6
:101d3000b0019000100078006022b800060020007a
:101d400097052400d0060700e40507000001be0047
:101d500010c0b300c620070000fe210090009000d4
:101d600020019000b0019000100078006022b800bf
:101d700006802800370c2400c3060700d70507009b
:101d80000001be0020c0b300b920070080e421009c
:101d90009000900020019000b001900010007800a9
:101da0006022b80006002400f7082400b6060700e9
:101db000ca0507000001be0030c0b300ac20070018
:101dc00000ed21009000900020019000b0019000f3
:101dd000100078006022b80006002400f7082400f4
:101de000a9060700bd0507000001be0040c0b30002
:101df0009f2007002ad0bf000080fb00e10f5000a9
:101e000003003200e20f5000460132008d0237001d
:101e10002bd0bf000080fb00e20f50005f003200bb
:101e2000e30f500099003200e10f500082023a00a7
:101e300044828000558280008082800091828000f0
:101e400018c0b3000001be000400be009f050700db
:101e50000000e000010035000044eb000804e00051
:101e600047003200e0818000f18180000200200004
:101e700003002400ea0407000002be000082800084
:101e80001182800018c0b3000001be000400be0033
:101e9000900507000000e00001003c000044eb005a
:101ea0000804e00036003200a0828000b182800089
:101eb000a2702d0033c22300e90607000002be0015
:101ec00040828000518280000001be000400be00fc
:101ed0008e0307004082880051828800648280005f
:101ee0007582800040828000518280000001be0027
:101ef0000400be0085030700a2702d0033c223003a
:101f0000d70607000200200003002400c4040700d5
:101f10000002be0000828000118280000001be002d
:101f20000400be0079030700008288001182880047
:101f30000482800015828000c0818000d1818000f1
:101f40000001be000400be00c50607000002be007e
:101f500020828000318280000001be000400be00ab
:101f60006a03070010858800218588004082800070
:101f700051828000608288007182880006003700ec
:101f800020c0b3002bf0b7000082800011828000d7
:101f9000c0828800d1828800e1003700e48180009f
:101fa000f5818000c0828000d18280000001be00e7
:101fb0000400be00540307000002be00008280003f
:101fc0001182800018c0b3000001be000400be00f2
:101fd000400507000000e00001003c000044eb0069
:101fe0000804e0002100320040828000518280001d
:101ff000a2702d0033c22300990607000002be0024
:1020000000828000118280000001be000400be003a
:102010003e0307000082880011828800048280004d
:1020200015828000c0818000d18180000001be0047
:102030000400be008a0607000002be002082800065
:10204000318280000001be000400be002f030700a3
:1020500010858800218588004082800051828000a0
:1020600060828800718288000700370030c0b300aa
:102070002bf0b700a0828000b182800001f0a200a6
:10208000a0828800b1828800a500370040828000cd
:102090005182800018c0b3006011b8000d05070020
:1020a0000000e00001003c000044eb000804e000f8
:1020b000430032000482800015828000e0818000ad
:1020c000f181800018c0b3000001be000400be0012
:1020d000fe0407000000e000010035000044eb00b2
:1020e0000804e00036003200a0828000b182800047
:1020f000a2702d0033c22300590607000002be0063
:1021000040828000518280000001be000400be00b9
:10211000fe020700408288005182880064828000ad
:102120007582800040828000518280000001be00e4
:102130000400be00f5020700a2702d0033c2230088
:1021400047060700020020000300240034040700b3
:102150000002be0000828000118280000001be00eb
:102160000400be00e9020700008288001182880096
:102170000482800015828000c0818000d1818000af
:102180000001be000400be00350607000002be00cc
:1021900020828000318280000001be000400be0069
:1021a000da020700108588002185880040828000bf
:1021b0005182800060828800718288005700370059
:1021c00020c0b3002af0b70010c0b3002bf0b70056
:1021d000e4818000f5818000c0818000d181800091
:1021e0000001be000400be001d0607000002be0084
:1021f00020828000318280000001be000400be0009
:10220000c202070010858800218588006081800057
:102210007181800030858800418588008081800040
:10222000918180005085880061858800a0818000b0
:10223000b18180007085880081858800908480004d
:10224000a18480008083880091838800708480004e
:1022500081848000a0838800b1838800648180002d
:1022600075818000a0838000b18380000001be00e2
:102270000400be00a4020700e0828800f18288000a
:10228000848180009581800080838000918380001c
:102290000001be000400be009b020700008388000e
:1022a00011838800e0828000f18280000483800036
:1022b000158380000001be000400be00f00207008c
:1022c0002083880031838800e4828000f5828000ca
:1022d000e0828000f18280000001be000400be00a8
:1022e000df0507000004be00048380001583800022
:1022f00000838000118380000001be000400be0046
:10230000d70507000001be000800be007f020700dd
:102310007206070040838800518388000000000097
:10232000480137002bd0bf000080fb00e20f5000b7
:1023300083003200e30f5000d0003200e10f500064
:102340003f013a00c4838000d58380002084800050
:102350003184800018c0b3000001be000400be003c
:102360005a0407000000e000010035000044eb00c3
:102370000804e0005a00320040838000518380004e
:102380000200200003002400a50307000002be0095
:10239000608380007183800018c0b3000001be001c
:1023a0000400be004b0407000000e00001003c00f8
:1023b0000044eb000804e000490032000084800083
:1023c00011848000a2702d0033c22300a4050700f1
:1023d0000002be00c0838000d18380000001be00e7
:1023e0000400be0049020700c0838800d183880032
:1023f000e4838000f5838000c0838000d183800067
:102400000001be000400be0040020700a2702d00c3
:1024100033c22300920507000200200003002400bd
:102420007f0307000002be0060838000718380008c
:102430000001be000400be00340207006083880073
:102440007183880020838000318380000e030700a1
:102450000002be0060838000718380000001be0026
:102460000400be007e0507000002be00a0838000bd
:10247000b18380000001be000400be0023020700fb
:10248000d0848800e184880020838000318380002c
:10249000100607000002be00608380007183800088
:1024a0000001be000400be006d0507000002be0072
:1024b00080838000918380000001be000400be0084
:1024c00012020700f084880001858800c083800024
:1024d000d1838000e0838800f183880017003700f3
:1024e00020c0b3002bf0b7006083800071838000b0
:1024f0004084880051848800c4838000d583800094
:10250000208480003184800018c0b3000001be0028
:102510000400be00ef0307000000e00001003c00e3
:102520000044eb000804e000040032002084800036
:1025300031848000c0838800d1838800bd003700cb
:102540004483800055838000408480005184800053
:102550000001be000400be00eb0107000002be0047
:10256000608380007183800018c0b3000001be004a
:102570000400be00d70307000000e00001003c009b
:102580000044eb000804e00034003200c083800007
:10259000d1838000a2702d0033c2230030050700d4
:1025a0000002be0060838000718380000001be00d5
:1025b0000400be00d5010700608388007183880095
:1025c0002083800031838000af0207000002be003c
:1025d00060838000718380000001be000400be00a3
:1025e0001f0507000002be00a0838000b1838000a9
:1025f0000001be000400be00c4010700d0848800b2
:10260000e18488002083800031838000b1050700c9
:102610000002be0060838000718380000001be0064
:102620000400be000e0507000002be00808380008b
:10263000918380000001be000400be00b3010700ca
:10264000f084880001858800c0838000d1838000e9
:10265000e0838800f18388000700370030c0b300b2
:102660002bf0b700008480001184800001f0a200ec
:1026700000848800118488006e003700c0838000c9
:10268000d183800018c0b3006011b8009103070027
:102690000000e00001003c000044eb000804e00002
:1026a0005600320064838000758380004083800080
:1026b0005183800018c0b3000001be000400be00ba
:1026c000820307000000e000010035000044eb0039
:1026d0000804e0004900320000848000118480007a
:1026e000a2702d0033c22300dd0407000002be00eb
:1026f000c0838000d18380000001be000400be00c2
:1027000082010700c0838800d1838800e4838000b1
:10271000f5838000c0838000d18380000001be006b
:102720000400be0079010700a2702d0033c223000f
:10273000cb0407000200200003002400b8020700b9
:102740000002be0060838000718380000001be0033
:102750000400be006d01070060838800718388005b
:102760002083800031838000470207000002be0002
:1027700060838000718380000001be000400be0001
:10278000b70407000002be00a0838000b183800070
:102790000001be000400be005c010700d084880078
:1027a000e184880020838000318380004905070090
:1027b0000002be0060838000718380000001be00c3
:1027c0000400be00a60407000002be008083800053
:1027d000918380000001be000400be004b01070091
:1027e000f084880001858800c0838000d183800048
:1027f000e0838800f18388000d0037002a70ef0025
:1028000010c0b3002bf0b7006081800071818000a0
:10281000d0848800e18488008081800091818000dc
:10282000f08488000185880010c0b30010f1b70063
:102830000000000003003700000000000100370026
:102840000000000025d0bf000040e80025f0b700e0
:1028500025d0bf00f34f5000500036002570ef0028
:1028600027d0bf000004e00008003a0024d0bf00d9
:102870000080fb00c200dd00401f220000814000fc
:1028800000c02300c16124000089be0024d0bf0025
:102890000040e80024f0b70024d0bf00e54f50000e
:1028a000010036002470ef0024d0bf000080fb0040
:1028b000e20f500012003200e20f500005003c0011
:1028c0000000e0000a003200e10f50000a00320070
:1028d00013003700e40f50000d003200e40f5000e9
:1028e00009003500e50f50000b0032000c003700e6
:1028f000148ea8000a00370035eea8000800370043
:1029000045eea8000600370045aea80004003700d9
:10291000558ea80002003700656ea8000000000078
:102920000040eb00005f98000040eb00005f980063
:102930000f0037000e5890000080fb00811e22001f
:10294000008040008040eb00014878000e58900065
:102950000080fb00e11e2200008040008040eb0070
:10296000014878000e5890000040e800005f980091
:102970000e589000e54f5000eeff36002770ef0034
:1029800024d0bf000080fb00811e22000080400098
:1029900011c0b3000148780021e1a8000080fa00ce
:1029a0004f05be004f04be004f03be004f02be00e5
:1029b0004f01be004f00be003600f9000040060087
:1029c000801f78000000fa000108a90029d0bf008c
:1029d0000040e80029f0b7000080fa004f007800be
:1029e000004006000000fa000388a90021e1a900c8
:1029f0001821ef00148ea90035eea90045eea900bc
:102a000045aea900558ea900656ea9000080fa00a8
:102a1000004006003600f800809fbe00829fbe0086
:102a2000849fbe00869fbe000000fa0003e8a90054
:102a30001186800020868000808f500004003200c4
:102a4000021507000000fb00a011880001003700fc
:102a5000c770ef000080fa004f03be004f02be00b7
:102a60004f01be004f00be003600f90000400600d6
:102a70003600f800809fbe00829fbe00849fbe008b
:102a8000869fbe000000fa000a68a90041112100db
:102a90009140780015d1bf0080cf50000400320073
:102aa000662707000000fb00a01288000100370025
:102ab0001671ef000080fa004f03be004f02be0007
:102ac0004f01be004f00be003600f9000040060076
:102ad0000000fa000a48a9000080fa000040060041
:102ae0000000fa000088a9000080fa0000400600fb
:102af0000000fa0001c8a9000080fa0000400600aa
:102b00000040da000000fe000000050000000000a8
:102b10002800fa00889fbe008a9fbe008c9fbe00de
:102b200007067800878669000c003b0003047800e4
:102b30008704780008f0a10009f0a100840f50007c
:102b4000858f5800860f5900890f5c000300330001
:102b50000cf0a20001003a000cf0a10023020700d3
:102b60006400e1005f003200780147006408e10082
:102b7000610032006c014700748557003200be00ce
:102b80001201be003a04be001a05be001e039000ea
:102b9000be0a90008503530006003d000004fd00be
:102ba0008104fd000205fd008305fd008703ea00a6
:102bb000050378000df8a30004003200600414003f
:102bc000e0841c0060051d00e0851d006022b80047
:102bd0007d0320000d38e1008006eb000b0039007a
:102be0004433dd00f300b200830173003900370085
:102bf000848272000d027800e10664008b85d100aa
:102c00000a85d3008984d3000884d3008703e900b0
:102c1000f7ff3b0008004000898048000a01490096
:102c20008b81490004003b0060001000e080180028
:102c300060011900e08119000358a3000900320067
:102c40008d82720084827200610260008301d10073
:102c50000281d3008180d3000080d3000603e80006
:102c60001b0037000348a30017003a000600e000ed
:102c7000170034000603e9000d00a300000048001f
:102c80008180480002014900838149000348a30074
:102c90000f003a000600e000090034000603e900d6
:102ca0000000400081804800020149008381490002
:102cb00001003a000003eb000348a300f5ff3200d7
:102cc0006022b800020037008482720061826600d0
:102cd0009a01070003f0a1000cf0a70003f0a00088
:102ce000d6013700640147006408e10002003a00a1
:102cf0000df8a300ce013a0032007800b20078004f
:102d00001201be00cd01370003f0a200889fbe0073
:102d10008a9fbe008c1f7800c3020700ca023300de
:102d20006450e1004f0032006420e10052003200a4
:102d300003826c0007003b000905d0000306d000a9
:102d4000820f54000c065d000200390002003200c0
:102d500089017800030678008582550004003d0053
:102d60000003fd008103fd008502ea008b8542001f
:102d7000840f720002003b0060001000e080180029
:102d80006011b8000005eb007a28e1000a00390064
:102d900006007800c75ddd00f707b2008780750088
:102da0002d003700828171000a0178006105600002
:102db0008180d1000080d3008502e900f9ff3b004b
:102dc000060440008784480002003b0060041400b1
:102dd000e0841c000988a300070032008a8171008a
:102de00082817100610164008904d1000884d300ec
:102df0008b05e800170037000978a30013003a009c
:102e00000b00e000130034008b05e90008044400c7
:102e100089844c000a4474000978a3000d003a002c
:102e20000b00e000070034008b05e90008044400b3
:102e300089844c0001003a000b0020000978a300af
:102e4000f7ff32000001eb000200370082817100c1
:102e50000a017800390207000cf0a70001f0a00079
:102e6000820237006420e10002003a00838f6c0088
:102e7000820233000801be000200be007b02370060
:102e8000889fbe008a9fbe008c1f780066020700e4
:102e90001002200002003b00e08888006a02370030
:102ea0008a0062006408e10002003a00e0888800bd
:102eb000720237006108e100fcff32000800be002a
:102ec00003047800d600070001f0a1000900070004
:102ed00008f0a600040037000001be0091042400a1
:102ee000b0fd200088ff070009f0a70001f0a20054
:102ef0005e023700889fbe008a9fbe008c9fbe0086
:102f00000004be00330207000800be0089067800f6
:102f10006420e10008003900040032000160a000d4
:102f200012022000e28888005300370091fc230041
:102f3000b0fd20004e0037000006eb0009f0a100b4
:102f400003f82300020020000800be005f01070014
:102f50000600340001f82300000020000801be0034
:102f6000af0007000004be002c0020000800be00d7
:102f700093e82300320a23005401070012003400b2
:102f80000801be00d1fd2300703d2b005fff07004c
:102f90000005be00b3f32300f27a26000800be004d
:102fa000af02070003f823000200200056ff0700cd
:102fb0000801be0055ff07000a01be009800070087
:102fc0000004be000c06e8000800be0001f0a100ed
:102fd00002002000039823003c0107000800be0007
:102fe000160035000801be009d0207000005be0066
:102ff00032cd2c0043fb230044ff0700809fbe001e
:103000001269280003d52b000a00be0094020700b5
:10301000620f210013ef2b003cff07000a01be00e6
:103020008f0207004f01be007d0007000801be00af
:103030008b0207000801be0034ff07000c00e0000f
:103040000b0032000c10a70001f0a200b2fd20001e
:1030500093fc23006260e1000400320022a92000fa
:1030600063f023000c10a70063f8230027ff07007c
:103070000df0a70001f0a2004f06be004f05be00f4
:103080004f04be00000006000081eb00a8023700dc
:103090008f1fd100830307008f87e9000000e00045
:1030a00000000600809feb007e0307008f87e90089
:1030b0000000e000000006002800fa00889fbe0023
:1030c0008a9fbe008c9fbe0003866b00c70007006e
:1030d0006400e100440032006408e1004a0032006c
:1030e0006100e100460032006108e1004900320061
:1030f000ec0647006000b8003d02be003d03be0084
:10310000f48657006011b8003d04be003d05be00c6
:103110007d0320000b0037000000a0008d06e900b1
:10312000130032000402420085824a0006034b006d
:1031300087834b0000004000818048000201490065
:10314000838149000802520089825a000a035b0009
:103150008b835b00f0ff3b000802420089824a003b
:103160000a034b008b834b008d06e900edff3a000c
:103170008482720086827200f707b2008782720032
:1031800001003200150020001e0490003e0b90004c
:1031900006035400e63fb0000368a30007003200b6
:1031a0000000a7000500a0008301d1000281d30028
:1031b0008180d3000080d3000603e8008301d100a2
:1031c0000281d3008180d3000080d3000002eb0095
:1031d0000482d2005900070003f0a1000cf0a70000
:1031e00003f0a00095003700640247006408e10086
:1031f0008f0032003400be003401be00f6ff3700fd
:103200006108e1008a0032006011b8006000b80077
:10321000f1ff370003ff270002002000fbff37000b
:10322000889fbe008a9fbe008c1f78007e01070029
:103230008501330003866c006450e1002e003200eb
:103240006420e100330032006150e1002f003200c1
:103250006120e1003100320085855500eb07b000a8
:10326000090020000804200005003700080444007d
:1032700089844c000a0031000603430087834b0019
:103280000001530081815b00f8ff33000203be00a0
:103290000800a0000804440089844c00f6ff3900af
:1032a000c639dd00830173000100320013002000e5
:1032b0008904d1000884d3000998a30005003200d6
:1032c0000800a7000300a0008904d1000884d300ef
:1032d0008b05e8008904d1000884d3000001eb00cd
:1032e0000281d2001501070001f0a1000cf0a70037
:1032f00001f0a0005d0137006420e1005f013200b1
:103300000801be000200be00f7ff37006120e100a7
:103310005a0132006000b800f3ff370000002000bf
:1033200001f82700f0ff3700801feb00dd020700e7
:103330008f87e9000000e000000006001800200070
:1033400057002000080453000d003d000600200037
:1033500097fc2f000740e1001e00340084827200b9
:10336000610260008301d1000281d3008180d3001b
:103370000080d3000804e800f8ff3a00470020006e
:103380006104600005047400040464000d00320050
:1033900061004000e080480060014900e081490090
:1033a00003b8a500070032000603e8006538e10015
:1033b00004003a008301d1000281d3008180d30050
:1033c0000080d300f87f20000830e10003003500c2
:1033d000080378006000b8006011b8004433dd00d5
:1033e000f300b20083017300000006006804470088
:1033f0000294be000094be00fc0447008694be0008
:103400008494be0009007800f002070008007800ec
:10341000ee02070099007800814f70000b003b001e
:103420000800be00c80207004f00b10003003700cb
:10343000f3ff2700f2ff2f006110b9004f06be0016
:103440004f05be004f04be000080fa0000000600d9
:1034500081037800df0007000001be006000b800b3
:103460000478a30013003a006220e10015003e003a
:103470000d0039008301d1000281d3008180d30087
:103480008301d1000281d3008180d3008301d10068
:103490000281d3008180d3000538b000c42add004a
:1034a000f300b2008381720007f0a70003f0a000d0
:1034b00000000600f3ff2700f2ff2f006110b900a3
:1034c000fbff370003ff2700f7ff37001400200041
:1034d000e5023700f4ff2f00e30237001400fa0082
:1034e000889fbe008a9fbe008c9fbe000004be0065
:1034f0000205be00680047000a90be000890be00aa
:10350000b20207000070a7000bf0a10030432000ba
:103510009e02900080825200b0fe2f000028e10041
:1035200011003d00b0fc2f000028e1001500340020
:103530001e0990008e0890007e0090000501b000ea
:103540000201d1008180d3000080d3008502e80011
:10355000fbff3a000b00e000b8ff3b0060001000ea
:10356000e0801800b5ff3700f0ff2f00f1ff2700c3
:103570000b00e000b1ff3b0001002800000020002c
:10358000aeff37006000b800acff37000001be009e
:10359000900007000470a70003f0a1006509b100c6
:1035a000160032000d0035006828e10006003500e5
:1035b000f0ff2f00f1ff27000300e00013003b00a5
:1035c0000100280000000500000040008180480044
:1035d0008502e900fcff3a0008003700f88f42003e
:1035e00002003c008000eb00000005008100d100db
:1035f0000080d3008502e800fcff3a000300e000f1
:1036000002003b0060001000e0801800000006008f
:103610001400fa00889fbe008a9fbe008c9fbe00e7
:103620000004be000205be00680047000a90be000c
:103630000890be00650207000070a7000bf0a10013
:103640000bf8a30016003a009e02900030432000c1
:1036500080825200b0fe2f000028e1000d003c00e7
:10366000b0fc2f000028e1000d0034001e0990007e
:103670008e0890007e0090000501b0000201d1008c
:103680008180d3000080d3008502e800fbff3a0070
:103690006aff3700010028000000200067ff3700a4
:1036a0006000b80065ff37000001be004900070058
:1036b0000470a70003f0a10003f8a30013003a0070
:1036c0006509b10010003200090035006928e100e9
:1036d0000200350001002800000005000000400045
:1036e000818048008502e900fcff3a0000000600e6
:1036f000f88f4200050035008100d1000080d30022
:103700008502e800fcff3a00000006008000eb00a4
:10371000000005004f89de00820178006d0237004d
:103720004f89de00820178007a0237006011b8000c
:10373000880237006011b800b10237008100200014
:10374000618055000b003d000b00200061fe2f0042
:103750000100e1001d0034008281710061016400fc
:103760008904d1000884d3000000e800faff3a0081
:10377000710020006100640003007000020060001e
:103780000900320061044400e0844c000988a5006f
:10379000050032008b05e8006808e10002003a00ed
:1037a0008904d1000884d300f20f20000258e10000
:1037b00005003d00c75ddd00f907b2008980750096
:1037c00008007800000006000bf827008b00780046
:1037d00000000500c70ade00f107b200f50fb200d5
:1037e00008003200e1cf4200020032000170a00068
:1037f00024000500810f700001003200040805005c
:1038000044000500810f700002003a00140005001a
:103810008502e9000000400081c04800fcff3b0039
:103820000170a000240005000004be00e9ff0700ad
:103830000003be000405be000200be00e5ff070055
:10384000844f7500000006000200be006450e100d5
:10385000050036006420e100020036000968a3007c
:1038600001003a000800be000160a0004f06780089
:103870004f05be004f04be0000000600f0ff2f0001
:10388000f1ff2700f9ff37002800fa00889fbe00eb
:103890008a9fbe008c9fbe0003866b00d3fe07008c
:1038a0000028a30064003a000128a30068003a0041
:1038b0000008a30062003a000108a30066003a0075
:1038c0001e009000be08900081064000ed3fb10050
:1038d000f4805700ee019000111ab8008e09900094
:1038e000311bb8009e099000311cb800511db80072
:1038f000f485570046000700fe0190003a000700db
:103900008b85e8003e0007008e099000400007000c
:10391000ee019000340007008b85e80038000700b6
:103920008e099000400007009e0990001b18b80007
:10393000890440000a854800fe0190003400070019
:103940008b85e80038000700ee019000300007008a
:103950008e0990001b18b800890440000a854800b1
:103960000a98a30008003a000402420085824a0037
:1039700006034b0087834b0008044c0089844c00ed
:103980000a054d008d06e9008482720085027300ed
:103990004c3add0085027200010032001500200063
:1039a000443ade001400b2004538de00cb45dd00ad
:1039b0000b007000c540de00cb4ddd008b80700039
:1039c0004549de00cb55dd000b017100c551de001d
:1039d0000d03780059fe070003f0a1000cf0a700ca
:1039e00003f0a00095fe37001b18b80085024000c8
:1039f00006834800e0834b0060044c00070037005a
:103a00001b18b8000603400087834800faff370000
:103a10001b18b8008703400008844800e0844c006d
:103a200060054d00000006001b18b80008044000a7
:103a300089844800faff37000108a3007cfe3a00a1
:103a40005800be00000000005801be00e2ff370031
:103a50000008a30076fe3a0009047800f8ff37005a
:103a6000889fbe008a9fbe008c1f78006eff0700f3
:103a700075ff330003866c006450e10024003200bf
:103a80006420e100270032006150e1002200320092
:103a90006120e100210032008b854200eb07b1007c
:103aa0000134b800003ab8000804420089844a0092
:103ab000013ab8000030b8008880400009014a008f
:103ac00004003300000040008180480002014900ea
:103ad0008b05e900c909dd00830170000100320097
:103ae00013002000c814de004814dd004709de0082
:103af0001200b200c808de00088470000fff070043
:103b000001f0a1000cf0a70001f0a00057ff370062
:103b10006120e10059ff32000801be000200be0032
:103b2000f7ff37006150e100fcff3a0053ff370018
:103b3000889fbe008a9fbe008c9fbe0082057800d1
:103b40000004be0023ff07000800be006420e1005f
:103b50000700390002003a00f1ff2700f0ff2f00b4
:103b60000160a00012022000e288880055003700a2
:103b70006120e10003003a000b00a70001f82300d8
:103b80005000370001f0a1000200210093642400de
:103b90004efe07000800be0004003500b2fd200004
:103ba000930c2400c50107000004be000005eb00d3
:103bb0000b00a6004f0dde0001f0a1000004be00c6
:103bc00032982f0023ea2300a5ff07000001eb0035
:103bd00003f023000b00a70003f823004bfc0700b1
:103be0006afe07000000a7000a00a200ccfe070042
:103bf0000b00e000030032000200200003f023006d
:103c000041fc070001f0a2000006be0002002000f7
:103c10009304240092ff07000801be003bfc07004c
:103c2000809fbe000c00be0022a22a00d3a7230062
:103c30008bff07004f01be0034fc07000004be00ec
:103c400001f0a10002002000039823001ffe0700de
:103c50000800be00190035000001be0080ff07000b
:103c60000006be00b2c52900e36223007cff070006
:103c700022222b00f3942b0024fc07000c01be0031
:103c800077ff0700e273280083c023001ffc0700b2
:103c90000c01be0072ff070042aa2a00a3e22b001b
:103ca0001afc07000c01be006dff07000801be00f2
:103cb0006bff07000801be0014fc07000a00a70004
:103cc00001f0a2004f06be004f05be004f04be002b
:103cd000000006000001eb0095ff3700889fbe0042
:103ce0008a9fbe008c1f78000004be00b9fe07004a
:103cf0000478a30026003a006120e100250032008c
:103d000009f8a30025003a006420e10021003200f8
:103d1000f507b1000508a3000200320000004000d2
:103d2000818048006044b800031020000200200099
:103d300000004000818048000805440089854c004f
:103d40000a0541008b8549000a0550008b85580003
:103d5000030033000a00be00020474008384740070
:103d60008301d1000281d300830f7100f0ff3a007c
:103d70008904d1000884d3006001490082017800e1
:103d8000c1adde00fb07b0006cfe0700b7fe3700d8
:103d90000960a0000800be00b4fe37001202200037
:103da000e2888800f0ff2f00f1ff2700affe370008
:103db00007f0a20056fb37001400fa00889fbe00ef
:103dc0008a9fbe008c9fbe000005be000206be009a
:103dd000680047000c90be000a90be007b00070000
:103de0006400e1001a00320016003e006100e100ac
:103df0001a0032006e049000fe0490000e0b90003a
:103e00009e0b90006011b8009e0590000b38b10029
:103e1000d501200082817100610164008703d10017
:103e20000683d3008984d3000884d3008502e90087
:103e3000f8ff3a0041fe07000df0a70001f0a000d6
:103e40007efd3700f1ff2700f0ff2f007bfd3700dc
:103e500001f8270000002000f7ff37006000b800dd
:103e6000f5ff37006022b800060220000000d000f5
:103e70008180d2000482d2008582d2000000a0009e
:103e80000202520083825a00030031000202420003
:103e900083824a000000a1000603e900f3ff3a0014
:103ea00000000600889fbe008a9fbe008c9fbe0057
:103eb0000404be000605be00809fbe00829fbe00b7
:103ec00030000700040678000800be000a01be00aa
:103ed0002c000700840678004f03be004f02be008e
:103ee0008d4f76007fb0970013003300f0ff2f0056
:103ef0008b8f6b0006003b000d0666000c00a700d0
:103f00000a00370007f0a600100020000a00370062
:103f1000880f5200898f5a008a0f5b008b8f5b00dd
:103f2000030039001000200001003e0000002000c6
:103f300007f0a7000000ea004f06be004f05be00d4
:103f40004f04be0000000600e48240001078a30089
:103f500007003200640240001178a3003400be0064
:103f60001401be00050032000330a7000000060067
:103f700035007800350078001501be000330a00040
:103f80000000060005ff27000582610007003200df
:103f90000428e100010032002400050006000700ab
:103fa00001003a0044000500040805000200070073
:103fb000f9ff3a00140005006f8261008102700071
:103fc0008502710085027200000006005002be00ea
:103fd000e40050005003be004439de00f700b20098
:103fe000f37f200003016100090032000218e100a4
:103ff00016003a008501720083017300838173000b
:104000000008200015003a0040002000130037008f
:1040100085017200830173008381730005003a00fb
:1040200004a8be0006a8be00100020000b00370048
:104030000201e9000402420085824a0006034b00a7
:1040400087834b000748a300f9ff32000740a00018
:1040500004a8be0006a8be00200020008000980032
:104060009200980000000600889fbe008a9fbe0054
:10407000841f7800ecfd07004f007800110033002a
:10408000f0ff2f00838f6c0006003b0004056500e5
:104090000a00a7000800370009f0a6001000200061
:1040a00008003700820f5400838f5c000300390042
:1040b0001000200001003e000000200009f0a700d1
:1040c0000000ea004f05be004f04be000000e00003
:1040d00000000600881f7800030478000300e00059
:1040e00007003d0060001000e0801800600119002a
:1040f000e081190002003b0001f02d0003003700b1
:104100001400070008f0a70003f0a0004f04780097
:1041100000000600881f7800030478000300e00018
:1041200007003d0060001000e080180060011900e9
:10413000e081190002003b0001f02d000300370070
:104140002f00070008f0a70001f0a0004f0478003e
:1041500000000600889fbe0000827000040271000b
:10416000048271002400320036432000c500200084
:104170008383cf000a0039000541b1008283cf005c
:10418000070039000541b1008183cf0004003900e8
:104190000541b1008083cf00010039000541b10025
:1041a00085c353006022b800120032000a003b00b1
:1041b00084827200610260008301d1000281d30019
:1041c0008180d3000080d3000603e8008743e80025
:1041d000f7ff3a00070037000000400081804800e8
:1041e00002014900838149000603e9008743e90091
:1041f000f9ff3a0051fc07004f04be000000060022
:10420000889fbe008a9fbe00008270000402710079
:1042100004827100260032000004be000200be00cd
:104220006011b8006b092000950220000182cf00c8
:104230000a0039000541b1000082cf0007003900b3
:104240000541b1000982cf00040039000541b100e9
:104250000882cf00010039000541b100054252003b
:10426000120032000a003b0082817100610164008b
:104270008100d1000080d3008984d3000884d3005a
:104280008b05e8000442e800f7ff3a00070037001a
:104290000804440089844c000000480081804800e4
:1042a0008b05e9000442e900f9ff3a0023fd07000d
:1042b0004f05be004f04be000000060004002000b1
:1042c00000003700889fbe008a9fbe008c1f7800c8
:1042d0004f26dd0054fd07005bfd33006120e10047
:1042e000430032006250e10041003e003e003900d0
:1042f0006420e1003c003200058255000f003b00c5
:104300000402e80038003a00800f5300818f5b0000
:10431000350034000800be0003f0a10001f0a60043
:1043200003f0a0000cf0a70078fa07004ffd37005b
:104330000603430087834b000c46460000055300ec
:1043400081855b00020033000a03be000c00a00060
:104350000402e900f6ff3b008505780006024300f1
:1043600087824b0004003a006000b80009f0a70003
:1043700001f0a0003dfd37000002520081825a008a
:104380000704e000040033000603430087834b006a
:104390008b05e900faff3700090578000604be0026
:1043a0000203be006011b800e4fc0700e00f5200f9
:1043b000e08f5a000700350002003c000c08a30003
:1043c000040032000601be0003f0a0000cf0a700bc
:1043d0004efa07000a85680001f0a1000af0a70064
:1043e00001f0a00021fd37000800be001ffd3700ce
:1043f000100220000cf0a600e08888001ffd3700a6
:104400008001780002003700b15978000201e9000c
:104410000200e000fcff3a00000006008000780087
:10442000010178003104e000fdff3a000000510076
:104430000000060000027800840178000302780082
:104440003404e000fcff3a00020037008459780091
:104450000201e9000200e00003003200314278006e
:104460000404e000f9ff3a008049eb000000060078
:020000040000fa
:1044700043680000656300006b730000756d000009
:1044800020650000727200006f72000020210000a1
:104490000a0000005374000061720000746500009f
:1044a00064200000210a000000530000746f000027
:1044b0007070000065640000202100000a00000008
:1044c00076650000726200006f73000065200000d6
:1044d0007365000074200000746f0000200000006d
:1044e00073650000742000007374000061740000a4
:1044f00065200000000a0000004300006861000021
:104500006e6700006564000020500000312000004c
:104510003a20000073700000656500006420000010
:104520006c65000066740000207400006f200000bd
:1045300000430000686100006e67000065640000d1
:1045400020490000312000003a2000007370000074
:1045500065650000642000006c6500006674000062
:10456000207400006f20000000430000686100001c
:104570006e670000656400002044000031200000e8
:104580003a200000737000006565000064200000a0
:104590006c65000066740000207400006f2000004d
:1045a00000430000686100006e6700006564000061
:1045b00020500000322000003a20000073700000fc
:1045c00065650000642000007269000067680000f3
:1045d00074200000746f0000200000004368000099
:1045e000616e000067650000642000004932000031
:1045f000203a000020730000706500006564000030
:1046000020720000696700006874000020740000d8
:104610006f20000000430000686100006e6700002a
:104620006564000020440000322000003a200000b1
:10463000737000006565000064200000726900006e
:104640006768000074200000746f00002000000004
:10465000436f00006566000020440000697300009d
:10466000737900006d65000074720000792000000d
:1046700063680000616e0000676500006420000050
:10468000746f0000203a0000200000006d6d0000f3
:104690002070000065720000207400006963000053
:1046a0006b73000020630000686100006e6700000b
:1046b00065640000207400006f2000003a200000b4
:1046c0000044000069730000746100006e63000024
:1046d00065200000626500007477000065650000d9
:1046e0006e200000656e0000636f000064650000ce
:1046f0007220000077680000656500006c730000a0
:1047000020630000686100006e67000065640000bf
:10471000207400006f2000003a20000000730000a9
:1047200065720000766f000020000000200000008d
:104730006d6f0000746f00007220000000410000e7
:1047400058310000322000003120000000410000fc
:1047500058310000322000003320000000670000c4
:104760006f20000000740000757200006e200000d1
:1047700000000000535000004932000020490000b2
:104780006e740000657200007275000070740000a5
:08479000202100000a000000d6
:020000040000fa
:104798000600fa005f220700a4200700511707004f
:1047a8008b220700d92107000c0d0700de1f070028
:1047b800cc220700b3220700862107002e2107001c
:1047c8006000b80070848800818488006000b800a8
:1047d80090848800a18488006000b800b0848800b4
:1047e800c18488006000b800d0848800e184880013
:1047f8006000b800f0848800018588006000b80077
:1048080010858800218588006000b8003085880000
:10481800418588006000b80050858800618588005f
:104828006000b80070858800818588008c70ef0072
:104838008d70ef00b430ef00b630ef00c621ef0006
:10484800c625ef0003fb210082f2210001ea2100c6
:1048580080e12100981b0700cb1e070010002000f4
:1048680090858800bb70ef000000eb00000f780017
:104878001e0fe8006000b8007084880081848800fa
:104888006000b80090848800a18488006000b800a7
:10489800b0848800c184880070848000818480008e
:1048a800d0848800e184880090848000a1848000fe
:1048b800f084880001858800b0848000c18480006d
:1048c800108588002185880070848000818480009c
:1048d800308588004185880090848000a18480000c
:1048e8005085880061858800b0848000c18480007c
:1048f80070858800818588000000eb00000f780033
:10490800050037001e007800004078006011b800ec
:10491800991707001e0fe8001e007800e60f5000e8
:10492800f8ff34001271ef006000b800100798001b
:1049380021079800007d2000010020006a1f070061
:104948006000b800d0848800e18488001e0e07004b
:1049580080bb200001002000631f0700fbff370019
:104968001000fa00881f78000000200001142400bd
:1049780040079800510798006000b800008fbe00fb
:10498800d0cc2c00c1dc2300600798007107980088
:104998001e0178009e0190004e009000de009000fd
:1049a800d7f8070018c0b3006e019000fe01900010
:1049b800c6fa07000000e00001003c000044eb00dc
:1049c8000804e000080032006e019000fe0190002b
:1049d8001e0078009e009000caf807002007980083
:1049e800310798001e0037001e0178009e019000d4
:1049f8004e009000de009000c1f807000002be00e3
:104a08006e009000fe00900001f0a20018c0b300f4
:104a18000001be000400be00aafa07000000e00082
:104a2800010035000044eb000804e00008003200f3
:104a38006e019000fe0190001e0078009e0090001c
:104a4800aff80700200798003107980004003700e6
:104a58004e019000de01900022079800330798006d
:104a68002e019000be019000028fbe002e01900022
:104a7800be0190006000b80061180700e001200046
:104a880001002000181f0700c1ff37001800fa00b6
:104a98002068a90000002800300e880000002800c7
:104aa800302e8800310e8000000028000080400071
:104ab8008000eb001dfb0700b2fd200093042400da
:104ac800e5fb07000001be008ef80700d2cc2c00e1
:104ad800431c2400e0fb07000200200003582400c8
:104ae800cdf90700008fbe00312e8000000028009d
:104af800008040008000eb000cfb0700b2fd2000a6
:104b080093042400d4fb07000001be007df80700d1
:104b1800d2cc2c00431c2400cffb0700020020004d
:104b280003582400bcf907002007980031079800b3
:104b3800310e800000002800008040008000eb005b
:104b4800fafa0700b2fd200093042400c2fb070014
:104b58000001be006bf80700020020000358240083
:104b6800adf907004007980051079800312e8000e2
:104b780000002800008040008000eb00ebfa0700ee
:104b8800b2fd200093042400b3fb07000001be001f
:104b98005cf8070002002000035824009ef9070073
:104ba80060079800710798004e019000de019000a0
:104bb800000020006139240097f90700000f9800d1
:104bc800110f98006e019000fe0190000000200077
:104bd8006139240090f90700200f9800310f9800e0
:104be800800c200001002000bf1e0700adff370029
:104bf8006800fa00889fbe00402f9800512f980047
:104c0800622f9800732f9800043798001537980082
:104c18002637980037379800708480008184800098
:104c28000001be004e289000de28900034f80700ee
:104c38000004be0090848000a18480000001be00b2
:104c48006e289000fe2890002df807000801be008d
:104c580089f807002017980031179800b084800061
:104c6800c18480000001be002e109000be1090008c
:104c780023f807002007980031079800070037003d
:104c8800b2fd2000930c24002e009000be0090007e
:104c98001cf80700200798003107980018c0b300d7
:104ca800b2fd200093042c002e009000be0090005e
:104cb80004fa07000000e000010035000044eb00a2
:104cc8000804e000eeff3a0007003700b2fd2000bc
:104cd800930c24002e009000be00900008f80700f6
:104ce800200798003107980018c0b300b2fd2000d3
:104cf800930424002e009000be009000f3f90700f2
:104d08000000e00001003c000044eb000804e00063
:104d1800eeff3a007084800081848000308588002e
:104d28004185880090848000a18480005085880097
:104d380061858800b0848000c18480007085880007
:104d480081858800b2848000c3848000421798005f
:104d580053179800000020000112240060179800e3
:104d6800711798000000200001122400001f98000d
:104d7800111f98006000b80040079800510798007c
:104d88006000b80060079800710798006000b800dc
:104d9800000f9800110f980018c0b3006011b800f8
:104da8002e009000be009000c8f907000000e00047
:104db80001003c000044eb000804e000050032005c
:104dc8000000200001f82300200f9800310f980000
:104dd800320037000000200001f82b00200f980057
:104de800310f98002d003700a2702d0033c2230028
:104df8006e109000fe10900017fb07000001be0027
:104e08004e009000de009000bef7070040079800b3
:104e1800510798004e019000de0190006e0090004e
:104e2800fe009000b7f70700a2702d0033c22300e0
:104e380009fb07000200200003002400f6f8070021
:104e48000001be000e0890009e089000adf7070014
:104e5800000f9800110f98002e099000be099000cd
:104e68000e0890009e089000fbfa07004e11900073
:104e7800de119000a3f707001085880021858800bf
:104e88004e019000de0190006207980073079800b9
:104e9800a000200001002000131e070018c0b30066
:104ea8000e1990009e1990004e009000de009000b0
:104eb80084f907000000e000010035000044eb0021
:104ec8000804e0000e003200020020000300240065
:104ed8002e009000be009000cff8070018c0b30065
:104ee8000e0990009e09900078f907000000e00084
:104ef80001003c000044eb000804e000baff3a005f
:104f08000e0990009e099000221f9800331f9800f8
:104f18001c003700a2702d0033c223004e00900001
:104f2800de009000ccfa07000001be000e089000d9
:104f38009e08900073f70700000f9800110f980063
:104f48002e099000be0990000e0890009e0890005f
:104f5800c1fa07004e119000de11900069f70700b2
:104f680010858800218588004e019000de019000a0
:104f78006207980073079800a00020000100200035
:104f8800d91d07002e199000be1990002e00900020
:104f9800be0090005af7070018c0b3000e09900031
:104fa8009e09900049f907000000e00001003c005c
:104fb8000044eb000804e000d6ff3a006e109000b1
:104fc800fe10900001f0a200601798007117980079
:104fd8002d003700a2702d0033c223006e10900000
:104fe800fe1090009cfa07000001be004e009000e1
:104ff800de00900043f7070040079800510798002b
:105008004e019000de0190006e009000fe009000be
:105018003cf70700a2702d0033c223008efa070068
:1050280002002000030024007bf807000001be00f6
:105038000e0890009e08900032f70700000f9800b5
:10504800110f98002e099000be0990000e089000dc
:105058009e08900080fa07004e119000de11900023
:1050680028f7070010858800218588004e019000e8
:10507800de0190006207980073079800a0002000e6
:1050880001002000981d070018c0b3006011b80087
:105098004e009000de0090000cf907000000e000d0
:1050a80001003c000044eb000804e0000b00320063
:1050b80018c0b3002e019000be0190000e089000a9
:1050c8009e089000fff807000000e000010035008e
:1050d8000044eb000804e000beff3a002e099000ef
:1050e800be0990002e009000be0090005afa0700fa
:1050f8004e119000de11900002f70700108588001d
:1051080021858800401f200001002000761d07002f
:105118004e299000de29900032858800438588005a
:105128006e299000fe2990005285880063858800ca
:105138000e3190009e31900072858800838588002a
:1051480018c0b3006011b8002e309000be30900037
:10515800dcf807000000e000010035000044eb0027
:105168000804e000040032006000b800203798000e
:10517800313798000f00370018c0b30002402200f2
:10518800439724002e309000be309000cff80700df
:105198000000e00001003c000044eb000804e000cf
:1051a8000400320000402200419724002037980074
:1051b8003137980018c0b3006011b8003eb89700a6
:1051c800ceb89700bff807000000e00001003500e6
:1051d8000044eb000804e000040032006000b8005e
:1051e80030bf9f0041bf9f000f00370018c0b300b9
:1051f80002402200439724003eb89700ceb897009b
:10520800b2f807000000e00001003c000044eb0099
:105218000804e00004003200004022004197240006
:1052280030bf9f0041bf9f0092848000a38480000c
:10523800421f9800531f9800728480008384800066
:10524800621f9800731f98006e199000fe19900055
:105258004e289000de289000a9f607000027980045
:10526800112798004e199000de1990006e289000c2
:10527800fe289000a2f60700202798003127980002
:105288000e2190009e2190002e209000be209000bc
:10529800f9f6070040279800512798000e21900042
:1052a8009e2190000e2090009e209000eaf90700b1
:1052b8000004be002e219000be2190002e209000f8
:1052c800be209000e4f907000001be000800be00ff
:1052d8008cf607007ffa070060279800712798006e
:1052e8003eb99700ceb99700022f9800132f980067
:1052f8006000b800400f9800510f98006000b80097
:10530800600f9800710f98006000b80000179800af
:105318001117980039003700a2702d0033c22300fe
:105328000e2890009e289000cbf907000001be00cf
:105338004e089000de08900072f60700400f9800b3
:10534800510f98004e099000de0990006e089000f9
:10535800fe0890006bf60700a2702d0033c22300f0
:10536800bdf907000200200003002400aaf7070087
:105378000001be000e1090009e10900061f607001c
:1053880000179800111798004e209000de2090001a
:105398003bf707000e1190009e119000aef9070030
:1053a8006e199000fe19900056f60700d084880008
:1053b800e18488004e209000de20900043fa070028
:1053c8000e1190009e119000a3f907004e1990004d
:1053d800de1990004bf60700f084880001858800ec
:1053e8004e099000de099000620f9800730f980034
:1053f800a000200001002000bb1c070018c0b3005b
:105408002e319000be3190004e089000de089000ca
:105418002cf807000000e000010035000044eb0014
:105428000804e0000e0032000200200003002400ff
:105438006e209000fe20900077f7070018c0b30098
:105448000e1190009e11900020f807000000e00067
:1054580001003c000044eb000804e000aeff3a0005
:105468000e1190009e119000222f9800332f980063
:1054780018c0b3002e319000be3190004e08900045
:10548800de08900011f807000000e00001003c0071
:105498000044eb000804e0002e0032002e3190009a
:1054a800be319000420f9800530f98002a00370031
:1054b800a2702d0033c223004e089000de08900031
:1054c80065f907000001be000e1090009e109000c4
:1054d8000cf6070000179800111798004e2090004e
:1054e800de209000e6f607000e1190009e11900055
:1054f80059f907006e199000fe19900001f607008f
:10550800d0848800e18488004e209000de2090003e
:10551800eef907000e1190009e1190004ef9070059
:105528004e199000de199000f6f50700f084880007
:10553800018588004e099000de099000620f9800ee
:10554800730f9800a000200001002000661c0700cf
:1055580001003700000000002e299000be299000ad
:105568006e209000fe209000e5f5070018c0b300fb
:105578000e1190009e119000d4f707000000e00083
:1055880001003c000044eb000804e000c8ff3a00ba
:105598000e2890009e28900001f0a200002f98008d
:1055a800112f980039003700a2702d0033c2230054
:1055b8000e2890009e28900027f907000001be00e1
:1055c8004e089000de089000cef50700400f9800c6
:1055d800510f98004e099000de0990006e08900067
:1055e800fe089000c7f50700a2702d0033c2230003
:1055f80019f90700020020000300240006f707003d
:105608000001be000e1090009e109000bdf507002e
:1056180000179800111798004e209000de20900087
:1056280097f607000e1190009e1190000af90700e6
:105638006e199000fe199000b2f50700d08488001a
:10564800e18488004e209000de2090009ff907003a
:105658000e1190009e119000fff807004e1990005f
:10566800de199000a7f50700f084880001858800fe
:105678004e099000de099000620f9800730f9800a1
:10568800a000200001002000171c070018c0b3006c
