:040000008FEF03F08B
:100008006082FACF0CF0FBCF0DF0E9CF0EF0EACF0B
:100018000FF0E1CF10F0E2CF11F0D9CF12F0DACF24
:1000280013F0F3CF14F0F4CF15F0F6CF16F0F7CFA6
:1000380017F0F8CF18F0F5CF19F060C01AF061C0CA
:100048001BF062C01CF063C01DF09EA68DD2C9CF04
:100058001FF09E96F9D11FC05CF05C50D8B402D056
:10006800010E5D6E000E536E000E526E010E5F6E35
:10007800F9D11FC0D9F0020E5C18D8A402D0030E23
:1000880001D0020E5D6E5F2AEDD1FE0E056EFF0EE9
:10009800066E5F50076E086A05500726065008224C
:1000A800000E0724D96E030E0820DA6E1FC0DFFF8A
:1000B8005F2A5C505F18D8A4D5D1030EC1D152C0B5
:1000C80001F053C002F05BEC0FF01F18D8A4BAD1AE
:1000D800010E0001E16F000E5F6E85D1000E5F6EAC
:1000E8000E0E5F6401D0AED1FE0E056EFF0E066ED9
:1000F8005C50076E086A05500726065008225F50B4
:10010800096E0A6A0750095C0A50800A0B6E08508B
:10011800800A0B58D8B013D05F50010D000EF3249D
:10012800D96E030EF420DA6E5F50010D000EF32431
:10013800E16E020EF420E26EDFCFE7FF0AD05F50D7
:10014800010D000EF324D96E020EF420DA6E000EB3
:10015800DF6E5F2AC5D7000E5F6E0E0E5F6401D09A
:1001680071D1FE0E056EFF0E066E5C50076E086AB2
:1001780005500726065008225F50096E0A6A075084
:10018800095C0A50800A0B6E0850800A0B58D8B0D8
:1001980013D05F50010D000EF324D96E030EF42026
:1001A800DA6E5F50010D0F0EF324E16E020EF4209B
:1001B800E26EDFCFE7FF0AD05F50010D0F0EF32488
:1001C800D96E020EF420DA6E000EDF6E5F2AC5D7F4
:1001D800000E5F6E0E0E5F6401D034D1FE0E056E08
:1001E800FF0E066E5C50076E086A0550072606501B
:1001F80008225F50096E0A6A0750095C0A50800A93
:100208000B6E0850800A0B58D8B013D05F50010D00
:10021800000EF324D96E030EF420DA6E5F50010D40
:100228001E0EF324E16E020EF420E26EDFCFE7FF2C
:100238000AD05F50010D1E0EF324D96E020EF42071
:10024800DA6E000EDF6E5F2AC5D7000E5F6E0E0EE7
:100258005F6401D0F7D0FE0E056EFF0E066E5C508F
:10026800076E086A05500726065008225F50096E77
:100278000A6A0750095C0A50800A0B6E0850800A07
:100288000B58D8B013D05F50010D000EF324D96E6F
:10029800030EF420DA6E5F50010D2D0EF324E16E8B
:1002A800020EF420E26EDFCFE7FF0AD05F50010DA7
:1002B8002D0EF324D96E020EF420DA6E000EDF6ED6
:1002C8005F2AC5D7000E5F6E0E0E5F6401D0BAD0EC
:1002D800FE0E056EFF0E066E5C50076E086A05502E
:1002E8000726065008225F50096E0A6A0750095C03
:1002F8000A50800A0B6E0850800A0B58D8B013D0E9
:100308005F50010D000EF324D96E030EF420DA6E4F
:100318005F50010D3C0EF324E16E020EF420E26EF4
:10032800DFCFE7FF0AD05F50010D3C0EF324D96EF2
:10033800020EF420DA6E000EDF6E5F2AC5D700C306
:10034800DFF0E06BDF51E06FDF6B0301015100016B
:10035800DF27000EE023E0BF75D0EF0EDF5D020E51
:10036800E059D8A06FD0020EE06FEE0EDF6F6AD0B2
:1003780000C3DDF0DE6BDD51DE6FDD6B0301015183
:100388000001DD27000EDE23DEBF5CD0AF0EDD5D91
:10039800010EDE59D8A056D0010EDE6FAE0EDD6F0D
:1003A80051D0FE0E5C24D66FD76BFF0ED7234AD0F0
:1003B80000C3D4F0D56BD451D56FD46B0301015170
:1003C8000001D427000ED523D5BF3CD0E80ED45D5C
:1003D800030ED559D8A036D0030ED56FE70ED46FCB
:1003E80031D0FF002FD00001D951010AD8B476D6F8
:1003F800030AD8B4B0D6010AD8B4EAD6070AD8B4E2
:1004080024D7010AD8B45ED7030AD8B498D7010A0A
:10041800D8B4AED70F0AD8B4C4D7010AD8B4C1D754
:10042800030AD8B4BED7010AD8B4BBD7070AD8B4D0
:1004380009D0010AD8B4BCD7030AD8B4D2D702D09D
:100448005D6E10D0000EFCD75D50000AD8B403D6FC
:10045800010AD8B40ED6030AD8B417D6010AD8B4FC
:100468002ED6F0D71F505226000E53225550010D9C
:10047800480EF324D96E000EF420DA6EDF50D8B49B
:1004880071D0572A61D0040E6ED05550010D480E18
:10049800F324D96E000EF420DA6EDF5064D059C010
:1004A80056F0000E596E1DD058C056F0000E586E0A
:1004B80018D0DAC056F015D05550010D480EF32467
:1004C800D96E000EF420DA6EDF500F0AD8B4E7D7E1
:1004D8001F0AD8B4E4D7010AD8B4E6D7030AD8B4B7
:1004E800E8D756C0C9FF40D05550010D480EF32437
:1004F800D96E000EF420DA6EDF50056E055056C036
:1005080006F0076A0626000E0722040E0624016E6E
:10051800000E0720026E5BEC0FF0C96E5550010DFE
:10052800480EF324D96E000EF420DA6E000EDF6E4A
:10053800552A0A0E016E5550D8EC0EF0556E000E75
:10054800576E000E566E10D05750010AD8B49BD77C
:10055800030AD8B49AD7010AD8B4AED7070AD8B4D0
:10056800C3D702D0000EC96E9EAAAFD09E9AAECF56
:100578001EF05A50D8B475D0680E1E18D8A4A5D04D
:10058800000E5A6E010E000104D01E50D00F04D088
:10059800010EE16F9AD0000E0001DC6FF9D7010E51
:1005A80001D0000E0001DB6F90D00001DA51D8B401
:1005B8008CD0DA07EDD7040E0001DA6186D0DA2B89
:1005C800E7D7010E5B6E5450010D480EF324D96E27
:1005D800000EF420DA6E120EDF6E542A0A0E016E37
:1005E8005450D8EC0EF03BD0010E5A6E6ED0010E6E
:1005F800596E5450010D480EF324D96E000EF420A4
:10060800DA6E0F0EDF6E542A0A0E016E5450D8ECC3
:100618000EF025D0020E596E5450010D480EF324E9
:10062800D96E000EF420DA6E100EDF6E542A0A0E10
:10063800016E5450D8EC0EF012D0010E586E545082
:10064800010D480EF324D96E000EF420DA6E110E57
:10065800DF6E542A0A0E016E5450D8EC0EF0546E18
:1006680034D01E50310AD8B490D7030AD8B48DD7E5
:10067800010AD8B48AD7070AD8B487D7010AD8B4E8
:100688008ED7030AD8B48DD7010AD8B48ED70F0AEB
:10069800D8B491D7010AD8B494D7790AD8B4A4D7D2
:1006A800010AD8B478D7030AD8B475D7010AD8B4E0
:1006B80072D7070AD8B46FD7150AD8B498D7030ADF
:1006C800D8B4A8D7010AD8B4B8D71DC063F01CC0E5
:1006D80062F01BC061F01AC060F019C0F5FF18C0C5
:1006E800F8FF17C0F7FF16C0F6FF15C0F4FF14C0D7
:1006F800F3FF13C0DAFF12C0D9FF11C0E2FF10C028
:10070800E1FF0FC0EAFF0EC0E9FF0DC0FBFF0CC000
:10071800FAFF60921100C5EF0CF00000803F7231C3
:100728003FFE753E58633D951D3CC5AE3A7921396B
:1007380094803793A735561534006EEC0FF001EC12
:100748000FF0C3EC0EF0ABEC0EF094924DEC0FF002
:10075800000E0001C76F000ECF6F000ED06F000EA5
:10076800D16F520E0001BE6F2B0EBD6F000EE82E2A
:10077800FED7BD2FFCD7BE2FFAD700F0F2A4FED7C4
:10078800B00ED66E3C0ED76EF2940001C72B0A0E3F
:10079800C7650FD08BB203D0BD6BBD2B02D0000153
:1007A800BD6BBD478B50BD19FD0BBD198B6E000E7F
:1007B800C76FDB51D8B474D1010E92EC0EF020C093
:1007C80028F021C029F03BEC0FF028C0CFF029C059
:1007D800D0F02AC0D1F0400E2B6E610E2C6E440E64
:1007E8002D6ECFC028F0D0C029F0D1C02AF0BAECC5
:1007F8000AF028C083F029C084F02AC085F028ECCC
:100808000FF083C0C1F084C0C2F085C0C3F0C1C07E
:10081800B4F0C2C0B5F0C3C0B6F0F5EC07F0B4C090
:10082800C4F0B5C0C5F0B6C0C6F0C4C086F0C5C037
:1008380087F0C6C088F0000E0001896FB40E8A6F79
:10084800420E8B6FC5EC09F086C0CFF087C0D0F0A0
:1008580088C0D1F0CFC037F0D0C038F0D1C039F05F
:1008680040EC0AF037C080F038C081F05AEC0EF046
:1008780080C0CFF081C0D0F082C0D1F00001D1AFEC
:1008880006D0000ECF6F000ED06F000ED16F000E95
:10089800206EC60E216E420E226ECFC023F0D0C04D
:1008A80024F0D1C025F010EC0DF0D8B007D0000E20
:1008B8000001CF6FC60ED06F420ED16F640E0101DA
:1008C800006F690E016F6D0E026F3D0E036F000E13
:1008D8002B6E200E2C6E410E2D6ECFC028F0D0C08E
:1008E80029F0D1C02AF0BAEC0AF028C037F029C0A4
:1008F80038F02AC039F040EC0AF03750300F0101C7
:10090800046FCFC098F0D0C099F0D1C09AF0000E13
:100918002B6E200E2C6E410E2D6ECFC028F0D0C04D
:1009280029F0D1C02AF0BAEC0AF028C037F029C063
:1009380038F02AC039F040EC0AF037500A0DF3CFEE
:1009480080F0F4CF81F05AEC0EF080C083F081C0C3
:1009580084F082C085F028EC0FF083C095F084C045
:1009680096F085C097F0EEEC08F095C0C8F096C0F8
:10097800C9F097C0CAF0C8C037F0C9C038F0CAC0BB
:1009880039F040EC0AF03750300F0101056F066965
:1009980007690869000E216E010E226E77EC0EF0D1
:1009A800EDEC0EF00001DC51D8A47AD0680E0101FC
:1009B800006F300E016F2E0E026F760E036F610E00
:1009C800046F6C0E056F3D0E066F000E2B6E200E29
:1009D8002C6E410E2D6ECFC028F0D0C029F0D1C0AA
:1009E8002AF0BAEC0AF028C037F029C038F02AC03B
:1009F80039F040EC0AF03750300F0101076FCFC0D3
:100A080098F0D0C099F0D1C09AF0000E2B6E200E4D
:100A18002C6E410E2D6ECFC028F0D0C029F0D1C069
:100A28002AF0BAEC0AF028C037F029C038F02AC0FA
:100A380039F040EC0AF037500A0DF3CF80F0F4CFCC
:100A480081F05AEC0EF080C083F081C084F082C03F
:100A580085F028EC0FF083C095F084C096F085C02F
:100A680097F0EEEC08F095C0C8F096C0C9F097C0B2
:100A7800CAF0C8C037F0C9C038F0CAC039F040EC75
:100A88000AF03750300F0101086F09690A690B69CC
:100A9800000E216E010E226E77EC0EF0EDEC0EF0DA
:100AA8000001E151D8B46AD6000EE16F88D2740E05
:100AB8000101006F300E016F2E0E026F740E036F6E
:100AC800780E046F740E056F3D0E066F220E076FC9
:100AD8003E0E086F000E0001CE6F22D0DA510F0DC6
:100AE800000EBD6F020EBE6FF350BD27F450BE233B
:100AF800CE51010DF350BD25D96EF450BE21DA6EEA
:100B0800CE51BF6FC06B090EBF27000EC023000E69
:100B1800BF25E16E010EC021E26EDFCFE7FFCE2BCD
:100B28000F0ECE6115D0DA510F0D000EBD6F020EFB
:100B3800BE6FF350BD27F450BE23CE51010DF350C4
:100B4800BD25D96EF450BE21DA6EDF50D8A4C6D7C1
:100B5800CE51BD6FBE6B090EBD27000EBE23000E21
:100B6800BD25D96E010EBE21DA6E220EDF6ECE5182
:100B7800BD6FBE6B0A0EBD27000EBE23000EBD253D
:100B8800D96E010EBE21DA6EFF0EDF6ECE51BD6F3B
:100B9800BE6B0B0EBD27000EBE23000EBD25D96E01
:100BA800010EBE21DA6EFF0EDF6ECE51BD6FBE6B39
:100BB8000C0EBD27000EBE23000EBD25D96E010EFA
:100BC800BE21DA6EFF0EDF6E000E216E010E226E60
:100BD80077EC0EF0EDEC0EF06E0E0101006F300EAA
:100BE800016F2E0E026F760E036F610E046F6C0E8E
:100BF800056F3D0E066FD4C020F0D5C021F0000E61
:100C0800236E640E226E58EC0DF02050300F010157
:100C1800076F000E236E640E226ED4C020F0D5C07C
:100C280021F058EC0DF02050640DF31EF41EF34A29
:100C3800F42A0001D451F324CB6FD551F420CC6FA2
:100C4800CBC020F0CCC021F0000E236E0A0E226E1D
:100C580058EC0DF02050300F0101086FD4C020F07F
:100C6800D5C021F0000E236E0A0E226E58EC0DF04E
:100C780020500A0DF35000080001D425300F01015F
:100C8800096F0A690B690C69000E216E010E226E4C
:100C980077EC0EF0EDEC0EF071D5010E0001E16F6E
:100CA800720E0101006F650E016F660E026F200E55
:100CB800036F300E046F056906690769000E216E1F
:100CC800010E226E77EC0EF0EDEC0EF0700E0101C5
:100CD800006F690E016F630E026F200E036FDFC095
:100CE80020F0E0C021F0000E236E640E226E58EC56
:100CF8000DF02050300F0101046F000E236E640EBA
:100D0800226EDFC020F0E0C021F058EC0DF020503A
:100D1800640DF31EF41EF34AF42A0001DF51F32494
:100D2800CB6FE051F420CC6FCBC020F0CCC021F0C9
:100D3800000E236E0A0E226E58EC0DF02050300F74
:100D48000101056FDFC020F0E0C021F0000E236E26
:100D58000A0E226E58EC0DF020500A0DF3500008D0
:100D68000001DF25300F0101066F2C0E076FDDC073
:100D780020F0DEC021F0000E236E640E226E58ECC7
:100D88000DF02050300F0101086F000E236E640E25
:100D9800226EDDC020F0DEC021F058EC0DF02050AE
:100DA800640DF31EF41EF34AF42A0001DD51F32406
:100DB800CB6FDE51F420CC6FCBC020F0CCC021F03B
:100DC800000E236E0A0E226E58EC0DF02050300FE4
:100DD8000101096FDDC020F0DEC021F0000E236E96
:100DE8000A0E226E58EC0DF020500A0DF350000840
:100DF8000001DD25300F01010A6F2C0E0B6F320E3A
:100E08000C6F0D690E690F69000E216E010E226EBE
:100E180077EC0EF0EDEC0EF0B1D4080E0001D91904
:100E2800D8B40CD0090ED919D8B408D00A0ED919DB
:100E3800D8B404D00B0ED919D8A4A0D4080ED95F01
:100E4800740E0101006F0001D951300F0101016FCB
:100E58002E0E026F740E036F780E046F740E056FFA
:100E68003D0E066F220E076F000E0001CD6F18D0E1
:100E7800CD51010D000EF324D96E030EF420DA6E65
:100E8800CD51BD6FBE6B080EBD27000EBE23000EF0
:100E9800BD25E16E010EBE21E26EDFCFE7FFCD2B4F
:100EA800CD51BD6FBE6BD651BD5DBE51800ABF6FBF
:100EB800D751800ABF59D8A0DBD7CD51BD6FBE6BC3
:100EC800080EBD27000EBE23000EBD25D96E010EEB
:100ED800BE21DA6E220EDF6ECD51BD6FBE6B090EDC
:100EE800BD27000EBE23000EBD25D96E010EBE2102
:100EF800DA6EFF0EDF6ECD51BD6FBE6B0A0EBD27D9
:100F0800000EBE23000EBD25D96E010EBE21DA6E7D
:100F1800FF0EDF6ECD51BD6FBE6B0B0EBD27000EF1
:100F2800BE23000EBD25D96E010EBE21DA6EFF0E5E
:100F3800DF6E000E216E010E226E77EC0EF0EDECE6
:100F48000EF01CD4010E0001E16F740E0101006F58
:100F5800300E016F2E0E026F740E036F780E046F41
:100F6800740E056F3D0E066F220E076F740E086F24
:100F7800650E096F730E0A6F740E0B6F0001D8515E
:100F8800300F01010C6F0001D82B090ED86502D073
:100F9800000ED86F220E01010D6F0E690F691069DE
:100FA800000E216E010E226E77EC0EF0EDEC0EF0C5
:100FB800C2EF03F0000E0001DC6FC2EF03F0DC515A
:100FC800000AD8B474D5010AD8B467D6030AD8B4CD
:100FD80024D7010AD8B4C2EF03F0070AD8B4B2D7AD
:100FE800E9D70001B451B511B611D8A407D0000E45
:100FF800B46F800EB56F3F0EB66F1200720E206E82
:10100800310E216E440E226EB4C023F0B5C024F018
:10101800B6C025F010EC0DF0D8B00CD0000E0001D1
:10102800D36F220ED26FFF0EB46F7F0EB56F7F0E97
:10103800B66F1200B4C020F0B5C021F0B6C022F0DF
:10104800490E236E3A0E246EC40E256E10EC0DF078
:10105800D8B00CD0000E0001D36F220ED26F000E54
:10106800B46F000EB56F000EB66F12000001B6AF78
:1010780002D0010E01D0000EBC6FBC51D8B40ED006
:10108800B4C083F0B5C084F0B6C085F028EC0FF08A
:1010980083C0B4F084C0B5F085C0B6F0B4C086F0A3
:1010A800B5C087F0B6C088F0AA0E0001896FB80EE7
:1010B8008A6F3F0E8B6FC5EC09F086C0B4F087C00D
:1010C800B5F088C0B6F0B4C0A1F0B5C0A2F0B6C003
:1010D800A3F02DEC0BF0A1C0B7F0A2C0B8F0A3C0EC
:1010E800B9F0B7C037F0B8C038F0B9C039F040EC43
:1010F8000AF037C0BAF038C0BBF0B4C0A1F0B5C030
:10110800A2F0B6C0A3F0BAC080F0BBC081F05AEC20
:101118000EF080C0A4F081C0A5F082C0A6F039EC22
:101128000EF0A1C0B4F0A2C0B5F0A3C0B6F0B4C030
:10113800A1F0B5C0A2F0B6C0A3F0230E0001A46FC1
:10114800070EA56F000EA76F090EA66F9EEC0BF099
:10115800A1C0ADF0A2C0AEF0A3C0AFF0BAC0B0F06D
:10116800BBC0B1F00BEC0CF0ADC0B4F0AEC0B5F044
:10117800AFC0B6F00001BC51D8B425D0B4290EE1F7
:101188007F0EB5190BE17F0EB619D8A407D0000E53
:10119800B46F000EB56F000EB66F1200000E286E09
:1011A800800E296E3F0E2A6EB4C02BF0B5C02CF00D
:1011B800B6C02DF0BAEC0AF028C0B4F029C0B5F0DA
:1011C8002AC0B6F01200B4C0B4F0B5C0B5F0B6C0CD
:1011D800B6F0120097C09BF000019C6B9D6B963592
:1011E8009B3701E39C819B51A06F9AC09BF09C6B3D
:1011F8009D6B99359B3701E39C819B519F6FA05153
:10120800D8B40BD09F51A05DD8B00ED0A051000823
:101218009F259B6F180E9B6507D098C095F099C0C5
:1012280096F09AC097F012009F51D8B40BD0A051F5
:101238009F5DD8B00ED09F510008A0259B6F180E57
:101248009B6507D095C095F096C096F097C097F02B
:101258001200060E9E6F97BF9E8F9ABF9E8D968F27
:10126800FF0E9517FF0E9617000E9717998FFF0E12
:101278009817FF0E9917000E9A179F51A05DD8B0C6
:101288001BD0D890983799379A379F07A0519F1944
:10129800D8B40DD09E079EC09BF0070E9B17D8B4FC
:1012A80006D0EFD7D890973396339533A02B9F511C
:1012B800A019D8B41FD0F6D7A0519F5DD8B01AD0C6
:1012C800D890953796379737A007A0519F19D8B46B
:1012D8000DD09E079EC09BF0070E9B17D8B406D072
:1012E800EFD7D8909A33993398339F2B9F51A019F1
:1012F800D8A4F7D79EAF0CD0FF0E951BFF0E961BF8
:10130800FF0E971B010E9527000E9623000E9723BC
:101318009EAD0CD0FF0E981BFF0E991BFF0E9A1B5B
:10132800010E9827000E9923000E9A23000E9E6F37
:10133800955198279651992397519A239AAF0ED091
:10134800FF0E981BFF0E991BFF0E9A1B010E982784
:10135800000E9923000E9A23010E9E6F98C020F06C
:1013680099C021F09AC022F0A0C023F09EC024F0BA
:101378006EEC0CF020C095F021C096F022C097F0DA
:10138800120088C08CF000018D6B8E6B87358C370E
:1013980001E38D818C518F6F8F51D8A407D0000E37
:1013A800866F000E876F000E886F12008BC08CF05E
:1013B8008D6B8E6B8A358C3701E38D818C51946FE0
:1013C8009451D8A407D0000E866F000E876F000EC8
:1013D800886F120094517B0F8F2788C094F08B512F
:1013E800941B800E9417878F8A8FFF0E8917FF0E24
:1013F8008A17000E8B17000E906F000E916F000E6B
:10140800926F070E936F86A106D0895190278A5153
:1014180091238B519223D890883387338633D89081
:1014280089378A378B37932FEED7090E936F86A1AA
:1014380006D0895190278A5191238B519223D890B5
:10144800883387338633D890923391339033932FF0
:10145800EED790C020F091C021F092C022F08FC04A
:1014680023F094C024F06EEC0CF020C086F021C06C
:1014780087F022C088F0120039C03BF03C6A3D6A10
:1014880038343B3601E33C803B50456E4550D8A488
:1014980009D0000E376E000E386E000E396E000E41
:1014A8003A6E1200170E3B6E37C03CF038C03DF064
:1014B80039C03EF03B283F6E04D0D8903E323D32D2
:1014C8003C323F2EFAD73C50406E388EFF0E37160E
:1014D800FF0E3816000E39163750416E3850426EDE
:1014E8003950436E446A8E0E455E45AE16D045505F
:1014F800800A8F0FD8B009D0000E376E000E386EF4
:10150800000E396E000E3A6E1200D8904432433203
:1015180042324132453EF9D715D0170E45640FD0F7
:10152800000E376E000E386E000E396E000E3A6EE1
:101538001200D89041364236433644364506455067
:10154800D8A4F7D74050D8B408D0441E431E421E32
:10155800416C000E42224322442241C037F042C06F
:1015680038F043C039F044C03AF012002AC02EF0D7
:101578002F6A306A29342E3601E32F802E50356EBB
:101588003550D8A407D0000E286E000E296E000E24
:101598002A6E12002DC02EF02F6A306A2C342E3697
:1015A80001E32F802E50366E3650D8A407D0000E97
:1015B800286E000E296E000E2A6E1200000E326E82
:1015C800000E336E000E346E3650890F355E2AC019
:1015D80036F02D50361A800E3616298EFF0E281634
:1015E800FF0E2916000E2A162C8EFF0E2B16FF0E44
:1015F8002C16000E2D16180E316ED8903236333652
:1016080034362B50285C2C5029582D502A58D8A0F5
:1016180007D02B50285E2C50295A2D502A5A328038
:10162800D890283629362A36312EE7D732C020F00E
:1016380033C021F034C022F035C023F036C024F086
:101648006EEC0CF020C028F021C029F022C02AF04E
:101658001200A1C020F0A2C021F0A3C022F0A70E62
:10166800236E000E246ED7EC0DF00001A8AF10D049
:10167800A3AF07D0000EA16F800EA26FBF0EA36F9D
:101688001200000EA16F000EA26F000EA36F1200D1
:10169800A85104E1150EA75DD8A007D0A1C0A1F0FC
:1016A800A2C0A2F0A3C0A3F01200A1C037F0A2C04C
:1016B80038F0A3C039F040EC0AF037C080F038C0E9
:1016C80081F039C082F03AC083F09AEC0DF080C006
:1016D800A4F081C0A5F082C0A6F0A1C020F0A2C0ED
:1016E80021F0A3C022F0A4C023F0A5C024F0A6C016
:1016F80025F010EC0DF0D8B016D0A4C095F0A5C018
:1017080096F0A6C097F0000E0001986F800E996FB2
:10171800BF0E9A6FEEEC08F095C0A1F096C0A2F04B
:1017280097C0A3F01200A4C0A1F0A5C0A2F0A6C063
:10173800A3F01200A6C020F0A7C021F0000E236E6F
:10174800030E226E15EC0FF0A4C0A8F0A5C0A9F0F6
:1017580020500001A8272150A923A8C0F6FFA9C03E
:10176800F7FF0900F5CFAAF00900F5CFABF00A00A2
:10177800F5CFACF040D0AAC089F0ABC08AF0ACC0BD
:101788008BF0A1C086F0A2C087F0A3C088F0C5EC9A
:1017980009F086C095F087C096F088C097F0000ED3
:1017A800236E030E226E0001A607D8A0A707A6C0C5
:1017B80020F0A7C021F015EC0FF0A4C0A8F0A5C038
:1017C800A9F020500001A8272150A923A8C0F6FF9E
:1017D800A9C0F7FF0900F5CF98F00900F5CF99F0F7
:1017E8000A00F5CF9AF0EEEC08F095C0AAF096C082
:1017F800ABF097C0ACF00001A651A711D8A4BBD795
:10180800AAC0A1F0ABC0A2F0ACC0A3F012000001C6
:10181800AD51AE11AF11D8A407D0000EAD6F000EB8
:10182800AE6F000EAF6F1200AF517F0BB26FB36B8C
:10183800D890B237B337B251B027B351B123AEAF56
:1018480003D0B26BB22B02D00001B26BB251B027F9
:10185800000EB123B1AF0BD0000ED36F220ED26FA2
:10186800000EAD6F000EAE6F000EAF6F1200B1BF6D
:1018780015D0B105D8A012D0000ED36F220ED26FAA
:10188800AFAF06D0FF0EAD6F7F0EAE6FFF0EEDD778
:10189800FF0EAD6F7F0EAE6F7F0EE7D7B135B1315A
:1018A800B36FB031B26FAF51B219800BB219AF6FCD
:1018B800B0C0B2F0010EB217B233B233AE51B219A2
:1018C8007F0BB219AE6FADC0ADF0AEC0AEF0AFC019
:1018D800AFF012002350D8B405D0205021102210A8
:1018E800D8A40CD0000E206E000E216E000E226EC1
:1018F8001200232AD890223221322032000E2014DE
:10190800256E000E2114266EFE0E2214276E255019
:1019180026102710D8B40CD0ECD7232A010E202685
:10192800000E2122000E2222D890223221322032AB
:10193800000E2014256E000E2114266EFF0E2214B0
:10194800276E255026102710D8B406D0E6D72306D0
:10195800D89020362136223621BE03D0020E2360CD
:10196800F6D723A0219ED890233223502212245048
:10197800D8A4228E20C020F021C021F022C022F05D
:101988001200260EF66E1C0EF76E000EF86E02EEB2
:1019980000F010EE4BF00900F5CFEEFFE550E150F6
:1019A800FAE1EA0EF66E1E0EF76E000EF86E00EE05
:1019B800DDF010EE05F00900F5CFEEFFE550E1503F
:1019C800FAE1EF0EF66E1E0EF76E000EF86E0900C5
:1019D800F5CF5EF00900F5CF5FF003EE00F0C40E1E
:1019E800EE6AE806FDE101EE00F0FC0EEE6AE8069C
:1019F800FDE100EED2F00B0EEE6AE806FDE100EE26
:101A080048F0160EEE6AE806FDE160906092000E5E
:101A1800F86E0001A1EF03F022AE16D020C026F028
:101A280021C027F022C028F0261E271E281E262A9D
:101A3800000E27222822000E2624206E000E2720C2
:101A4800216E800E2820226E25AE16D023C026F0E7
:101A580024C027F025C028F0261E271E281E262A67
:101A6800000E27222822000E2624236E000E27208F
:101A7800246E800E2820256E000E201A000E211AD2
:101A8800800E221A000E231A000E241A800E251A20
:101A98002350205C2450215825502258D8B002D019
:101AA800D8901200D8801200000E256E23AE06D002
:101AB800226C231ED8B0232A010E256E21AE06D033
:101AC800206C211ED8B0212A010E251A000E276E7F
:101AD800000E266E22502310D8B41CD0010E246E9E
:101AE80004D0D89022362336242A23AEFAD7D890A9
:101AF800263627362250205C23502158D8A005D0FE
:101B08002250205E2350215A2680D8902332223238
:101B1800242EEDD72550D8B404D0266C271ED8B073
:101B2800272A26C020F027C021F01200000E476E99
:101B38008E0E466E000183AF11D0831F821F811F56
:101B4800806D000E812382238323010E476E06D009
:101B5800D8908333823381338033462A000E801530
:101B6800846F000E8115856F000E8215866FFF0E3B
:101B78008315876F8451851186118711D8A4E8D7FA
:101B880080C020F081C021F082C022F046C023F03E
:101B980047C024F06EEC0CF020C080F021C081F02A
:101BA80022C082F01200205021102210D8A409D09F
:101BB80023C0D9FF24C0DAFF000EDE6E000EDD6EF2
:101BC800120022507F0B256E266AD89025362636BD
:101BD80023C0D9FF24C0DAFF25C0DEFF26C0DDFF01
:101BE80021AE03D0256A252A01D0256A255023C0B5
:101BF800D9FF24C0DAFFDE12000EDD1223C0D9FFA0
:101C080024C0DAFF820EDE26FF0EDD222280228229
:101C1800228422862288228A229C219E12007072A7
:101C2800676D44726F697465000000000070726728
:101C38006D47617563686500000000007072676D2C
:101C4800426C6575000000000000007072676D420C
:101C58006C616E630000000000007072676D526F67
:091C680075676500000000000032
:101C72000001A451A511A611D8B406D0000EA41BD0
:101C8200000EA51B800EA61BA1C095F0A2C096F067
:101C9200A3C097F0A4C098F0A5C099F0A6C09AF08E
:101CA200EEEC08F095C0A1F096C0A2F097C0A3F0A8
:101CB2001200000E466E000181AF06D0806D811FBA
:101CC200D8B0812B010E466E80C020F081C021F079
:101CD200226A8E0E236E46C024F06EEC0CF020C0F9
:101CE20080F021C081F022C082F0120009D021C010
:101CF200D9FF22C0DAFFDF5067EC0FF0214A222A17
:101D020021C0D9FF22C0DAFFDF50D8A4F0D7FF0EDE
:101D120067EC0FF0FF0E67EC0FF0FF0E67EC0FF0B1
:101D22001200246EC28024C022F022462246C250F3
:101D32002218C30B2218C26EC282C2B2FED7C29050
:101D4200C450236E226AC3502224206E000E232028
:101D5200216E1200949C948EAC9CAC98AC96AC9480
:101D6200AB9CAB88AB94AB92B89AB898B886B89251
:101D7200B890000EB06E100EAF6E9D8A9E9AAC8A1D
:101D8200AB8E1200928A94869488949A898A9E963F
:101D92009D86C79EC78CC69EC698C650F00B040986
:101DA200C66EC68A000EC96EF28CF28E1200026EE8
:101DB200080E036E000E046ED89002340434046ED2
:101DC200D89002360150045CD8A002D00150045EC3
:101DD200032EF2D704501200000E206E000E206E69
:101DE200FB0E206401D012002050010D000EF324DE
:101DF200D96E010EF420DA6E000EDF6E202AF0D7C3
:101E02009280928292849286C150F00B0B09C16E2D
:101E1200CF0EC116C08EC050C70B1009C06EC05085
:101E2200F80B0109C06E120020502202F3CF24F0F9
:101E3200F4CF25F020502302F35025262150220210
:101E4200F350252624C020F025C021F01200000105
:101E5200835184118511D8B406D0000E831B000E65
:101E6200841B800E851B83C083F084C084F085C0F0
:101E720085F0120028C020F029C021F0226A8E0EBF
:101E8200236E000E246E6EEC0CF020C028F021C0F0
:101E920029F022C02AF01200D59CD59AD598D59661
:101EA200D594D582D580B00ED66E3C0ED76EF29404
:101EB200D58E120004D0000E0126FF0E022202BEB1
:101EC20003D00204D8B0F7D701501200206EACA2A2
:101ED200FED720C0ADFF00F01200D388D38AD38C86
:0F1EE2009B8CD3B41200FDD7F0009001010101D9
:020000040020DA
:08000000FFFFFFFFFFFFFFFF00
:020000040030CA
:0E000000FF081F1EFF8381FF0FC00FE00F409F
:00000001FF
