:04000000DCEF02F03F
:100008006282FACF0AF0FBCF0BF0E9CF0CF0EACF0F
:100018000DF0E1CF0EF0E2CF0FF0D9CF10F0DACF2C
:1000280011F0F3CF12F0F4CF13F0F6CF14F0F7CFAE
:1000380015F0F8CF16F0F5CF17F062C018F063C0CE
:1000480019F064C01AF065C01BF09EA62DD2C9CF66
:100058001DF09E96EED11DC05EF05E50D8B402D061
:10006800010E5F6E000E5B6E000E5A6E010E616E21
:10007800EED11DC0C4F0020E5F6E612AE8D1FE0EFB
:10008800036EFF0E046E6150056E066A0350052666
:1000980004500622000E0524D96E030E0620DA6EDF
:1000A8001DC0DFFF612A5E506118D8A4D0D1030EAD
:1000B800BCD15AC001F05BC002F0AFEC0EF01D18C5
:1000C800D8A4B5D1010E0001CC6F000E616E83D1AA
:1000D800000E616E0E0E616401D0A9D1FE0E036E92
:1000E800FF0E046E5E50056E066A03500526045026
:1000F80006226150076E086A0550075C0850800A9E
:10010800096E0650800A0958D8B013D06150010D05
:10011800000EF324D96E030EF420DA6E6150010D3F
:10012800000EF324E16E020EF420E26EDFCFE7FF4B
:100138000AD06150010D000EF324D96E020EF4208E
:10014800DA6E000EDF6E612AC5D7000E616E0E0EE4
:10015800616401D06CD1FE0E036EFF0E046E5E501A
:10016800056E066A03500526045006226150076E84
:10017800086A0550075C0850800A096E0650800A14
:100188000958D8B013D06150010D000EF324D96E70
:10019800030EF420DA6E6150010D0F0EF324E16EA8
:1001A800020EF420E26EDFCFE7FF0AD06150010DA6
:1001B8000F0EF324D96E020EF420DA6E000EDF6EF5
:1001C800612AC5D7000E616E0E0E616401D02FD171
:1001D800FE0E036EFF0E046E5E50056E066A035037
:1001E8000526045006226150076E086A0550075C10
:1001F8000850800A096E0650800A0958D8B013D0F2
:100208006150010D000EF324D96E030EF420DA6E4E
:100218006150010D1E0EF324E16E020EF420E26E11
:10022800DFCFE7FF0AD06150010D1E0EF324D96E0F
:10023800020EF420DA6E000EDF6E612AC5D7000EBA
:10024800616E0E0E616401D0F2D0FE0E036EFF0ED9
:10025800046E5E50056E066A035005260450062299
:100268006150076E086A0550075C0850800A096EDD
:100278000650800A0958D8B013D06150010D000EFD
:10028800F324D96E030EF420DA6E6150010D2D0EA1
:10029800F324E16E020EF420E26EDFCFE7FF0AD00E
:1002A8006150010D2D0EF324D96E020EF420DA6E82
:1002B800000EDF6E612AC5D7000E616E0E0E6164F6
:1002C80001D0B5D0FE0E036EFF0E046E5E50056EB3
:1002D800066A03500526045006226150076E086A14
:1002E8000550075C0850800A096E0650800A0958B4
:1002F800D8B013D06150010D000EF324D96E030E4F
:10030800F420DA6E6150010D3C0EF324E16E020E0A
:10031800F420E26EDFCFE7FF0AD06150010D3C0EFA
:10032800F324D96E020EF420DA6E000EDF6E612A15
:10033800C5D700C3CAF0CB6BCA51CB6FCA6B0301D8
:1003480001510001CA27000ECB23CBBF70D0EF0E9E
:10035800CA5D020ECB59D8A06AD0020ECB6FEE0E42
:10036800CA6F65D000C3C8F0C96BC851C96FC86BE4
:10037800030101510001C827000EC923C9BF57D086
:10038800AF0EC85D010EC959D8A051D0010EC96F72
:10039800AE0EC86F4CD0FE0E5E24C16FC26BFF0E4E
:1003A800C22345D000C3BFF0C06BBF51C06FBF6B45
:1003B800030101510001BF27000EC023C0BF37D081
:1003C800E80EBF5D030EC059D8A031D0030EC06F30
:1003D800E70EBF6F2CD0C451010AD8B479D6030AEE
:1003E800D8B4B3D6010AD8B4EDD6070AD8B427D7FB
:1003F800010AD8B461D7030AD8B49BD7010AD8B484
:10040800B1D70F0AD8B4C7D7010AD8B4C4D7030ADA
:10041800D8B4C1D7010AD8B4BED7070AD8B407D010
:10042800010AD8B4BFD7030A02D05F6E10D0000EFD
:10043800FCD75F50000AD8B40ED6010AD8B419D632
:10044800030AD8B41CD6010AD8B433D6F0D71D5045
:100458005A26000E5B225D50D8A414D023D0040E77
:1004680001D0010EC96E1CD0C5C0C9FF19D000014A
:10047800C551050FC96E000E5D6E000E01D0010E4C
:10048800606E0ED06050010AD8B4E9D7030AD8B418
:10049800E8D7010AD8B4E8D7070AD8B4E8D7EFD71D
:1004A800602A02D0000EC96E9EAA5CD09E9AAECF7A
:1004B8001CF05C50D8B42BD0680E1C18D8A452D0AD
:1004C800000E5C6E010E000104D01C50D00F04D049
:1004D800010ECC6F47D0000E0001C76FF9D7010E8F
:1004E80001D0000E0001C66F3DD00001C551D8B43F
:1004F80039D0C507EDD7040E0001C56133D0C52B2F
:10050800E7D7010E5D6E2ED0010E5C6E2BD01C500D
:10051800310AD8B4DAD7030AD8B4D7D7010AD8B47D
:10052800D4D7070AD8B4D1D7010AD8B4D8D7030A80
:10053800D8B4D7D7010AD8B4D8D70F0AD8B4DBD7DC
:10054800010AD8B4DED7790AD8B4DED7010AD8B4FC
:10055800C2D7030AD8B4BFD7010AD8B4BCD7070A90
:10056800D8B4B9D71BC065F01AC064F019C063F0DD
:1005780018C062F017C0F5FF16C0F8FF15C0F7FFE6
:1005880014C0F6FF13C0F4FF12C0F3FF11C0DAFF66
:1005980010C0D9FF0FC0E2FF0EC0E1FF0DC0EAFF97
:1005A8000CC0E9FF0BC0FBFF0AC0FAFF6292110002
:0405B80031EF0CF023
:100600000000803F72313FFE753E58633D951D3CB2
:10061000C5AE3A79213994803793A7355615340001
:10062000C2EC0EF056EC0EF02DEC0EF015EC0EF0C8
:100630009492A1EC0EF0000E0001B26F000EBA6FA2
:10064000000EBB6F000EBC6F520E0001A96F2B0E87
:10065000A86F000EE82EFED7A82FFCD7A92FFAD737
:1006600000F0F2A4FED7B00ED66E3C0ED76EF29418
:100670000001B22B0A0EB2650FD08BB203D0A86B6B
:10068000A82B02D00001A86BA8478B50A819FD0B1E
:10069000A8198B6E000EB26FC651D8B473D1010E7B
:1006A000FCEC0DF01EC026F01FC027F08FEC0EF002
:1006B00026C0BAF027C0BBF028C0BCF0400E296E9F
:1006C000610E2A6E440E2B6EBAC026F0BBC027F016
:1006D000BCC028F026EC0AF026C048F027C049F03C
:1006E00028C04AF07DEC0EF048C0ACF049C0ADF037
:1006F0004AC0AEF0ACC09FF0ADC0A0F0AEC0A1F05B
:1007000063EC07F09FC0AFF0A0C0B0F0A1C0B1F0A3
:10071000AFC04BF0B0C04CF0B1C04DF0000E4E6E0B
:10072000B40E4F6E420E506EACEC09F04BC0BAF0F6
:100730004CC0BBF04DC0BCF0BAC035F0BBC036F009
:10074000BCC037F032EC09F035C044F036C045F09B
:10075000C5EC0DF044C0BAF045C0BBF046C0BCF0DB
:100760000001BCAF06D0000EBA6F000EBB6F000ECA
:10077000BC6F000E1E6EC60E1F6E420E206EBAC0FB
:1007800021F0BBC022F0BCC023F07CEC0CF0D8B050
:1007900007D0000E0001BA6FC60EBB6F420EBC6FD1
:1007A000640E0101006F690E016F6D0E026F3D0E48
:1007B000036F000E296E200E2A6E410E2B6EBAC0FA
:1007C00026F0BBC027F0BCC028F026EC0AF026C0FB
:1007D00035F027C036F028C037F032EC09F035503C
:1007E000300F0101046FBAC083F0BBC084F0BCC0FD
:1007F00085F0000E296E200E2A6E410E2B6EBAC0B7
:1008000026F0BBC027F0BCC028F026EC0AF026C0BA
:1008100035F027C036F028C037F032EC09F03550FB
:100820000A0DF3CF44F0F4CF45F0C5EC0DF044C011
:1008300048F045C049F046C04AF07DEC0EF048C093
:1008400080F049C081F04AC082F05BEC08F080C0C3
:10085000B3F081C0B4F082C0B5F0B3C035F0B4C01D
:1008600036F0B5C037F032EC09F03550300F0101E9
:10087000056F066907690869000E1F6E010E206E7C
:10088000E1EC0DF042EC0EF00001C751D8A47AD093
:10089000680E0101006F300E016F2E0E026F760E92
:1008A000036F610E046F6C0E056F3D0E066F000E38
:1008B000296E200E2A6E410E2B6EBAC026F0BBC0E8
:1008C00027F0BCC028F026EC0AF026C035F027C07F
:1008D00036F028C037F032EC09F03550300F010106
:1008E000076FBAC083F0BBC084F0BCC085F0000EB7
:1008F000296E200E2A6E410E2B6EBAC026F0BBC0A8
:1009000027F0BCC028F026EC0AF026C035F027C03E
:1009100036F028C037F032EC09F035500A0DF3CF2D
:1009200044F0F4CF45F0C5EC0DF044C048F045C0AC
:1009300049F046C04AF07DEC0EF048C080F049C056
:1009400081F04AC082F05BEC08F080C0B3F081C057
:10095000B4F082C0B5F0B3C035F0B4C036F0B5C065
:1009600037F032EC09F03550300F0101086F09699A
:100970000A690B69000E1F6E010E206EE1EC0DF08E
:1009800042EC0EF00001CC51D8B46BD6000ECC6F07
:1009900088D2740E0101006F300E016F2E0E026FAF
:1009A000740E036F780E046F740E056F3D0E066FA4
:1009B000220E076F3E0E086F000E0001B96F22D0A5
:1009C000C5510F0D000EA86F020EA96FF350A82796
:1009D000F450A923B951010DF350A825D96EF45054
:1009E000A921DA6EB951AA6FAB6B090EAA27000EC6
:1009F000AB23000EAA25E16E010EAB21E26EDFCF24
:100A0000E7FFB92B0F0EB96115D0C5510F0D000EC0
:100A1000A86F020EA96FF350A827F450A923B9516B
:100A2000010DF350A825D96EF450A921DA6EDF50DC
:100A3000D8A4C6D7B951A86FA96B090EA827000E74
:100A4000A923000EA825D96E010EA921DA6E220E67
:100A5000DF6EB951A86FA96B0A0EA827000EA92353
:100A6000000EA825D96E010EA921DA6EFF0EDF6EE9
:100A7000B951A86FA96B0B0EA827000EA923000E71
:100A8000A825D96E010EA921DA6EFF0EDF6EB951CD
:100A9000A86FA96B0C0EA827000EA923000EA8258D
:100AA000D96E010EA921DA6EFF0EDF6E000E1F6EE9
:100AB000010E206EE1EC0DF042EC0EF06E0E010125
:100AC000006F300E016F2E0E026F760E036F610EF7
:100AD000046F6C0E056F3D0E066FBFC01EF0C0C0E8
:100AE0001FF0000E216E640E206EC4EC0CF01E5040
:100AF000300F0101076F000E216E640E206EBFC023
:100B00001EF0C0C01FF0C4EC0CF01E50640DF31EAC
:100B1000F41EF34AF42A0001BF51F324B66FC0510A
:100B2000F420B76FB6C01EF0B7C01FF0000E216EE4
:100B30000A0E206EC4EC0CF01E50300F0101086F3D
:100B4000BFC01EF0C0C01FF0000E216E0A0E206E46
:100B5000C4EC0CF01E500A0DF35000080001BF2534
:100B6000300F0101096F0A690B690C69000E1F6ED5
:100B7000010E206EE1EC0DF042EC0EF072D5010E8C
:100B80000001CC6F720E0101006F650E016F660EE1
:100B9000026F200E036F300E046F05690669076946
:100BA000000E1F6E010E206EE1EC0DF042EC0EF017
:100BB000700E0101006F690E016F630E026F200E4F
:100BC000036FCAC01EF0CBC01FF0000E216E640E72
:100BD000206EC4EC0CF01E50300F0101046F000EAB
:100BE000216E640E206ECAC01EF0CBC01FF0C4EC94
:100BF0000CF01E50640DF31EF41EF34AF42A00019B
:100C0000CA51F324B66FCB51F420B76FB6C01EF0B3
:100C1000B7C01FF0000E216E0A0E206EC4EC0CF05F
:100C20001E50300F0101056FCAC01EF0CBC01FF06F
:100C3000000E216E0A0E206EC4EC0CF01E500A0D40
:100C4000F35000080001CA25300F0101066F2C0E79
:100C5000076FC8C01EF0C9C01FF0000E216E640EE1
:100C6000206EC4EC0CF01E50300F0101086F000E16
:100C7000216E640E206EC8C01EF0C9C01FF0C4EC07
:100C80000CF01E50640DF31EF41EF34AF42A00010A
:100C9000C851F324B66FC951F420B76FB6C01EF027
:100CA000B7C01FF0000E216E0A0E206EC4EC0CF0CF
:100CB0001E50300F0101096FC8C01EF0C9C01FF0DF
:100CC000000E216E0A0E206EC4EC0CF01E500A0DB0
:100CD000F35000080001C825300F01010A6F2C0EE7
:100CE0000B6F320E0C6F0D690E690F69000E1F6ECF
:100CF000010E206EE1EC0DF042EC0EF0B2D4080EC5
:100D00000001C419D8B40CD0090EC419D8B408D045
:100D10000A0EC419D8B404D00B0EC419D8A4A1D497
:100D2000080EC45F740E0101006F0001C451300F42
:100D30000101016F2E0E026F740E036F780E046FA7
:100D4000740E056F3D0E066F220E076F000E000138
:100D5000B86F18D0B851010D000EF324D96E030EF0
:100D6000F420DA6EB851A86FA96B080EA827000E00
:100D7000A923000EA825E16E010EA921E26EDFCFA6
:100D8000E7FFB82BB851A86FA96BC151A85DA95155
:100D9000800AAA6FC251800AAA59D8A0DBD7B851DD
:100DA000A86FA96B080EA827000EA923000EA8257E
:100DB000D96E010EA921DA6E220EDF6EB851A86F2E
:100DC000A96B090EA827000EA923000EA825D96E2D
:100DD000010EA921DA6EFF0EDF6EB851A86FA96B64
:100DE0000A0EA827000EA923000EA825D96E010E11
:100DF000A921DA6EFF0EDF6EB851A86FA96B0B0E3A
:100E0000A827000EA923000EA825D96E010EA9213E
:100E1000DA6EFF0EDF6E000E1F6E010E206EE1EC2B
:100E20000DF042EC0EF01DD4010E0001CC6F740EDB
:100E30000101006F300E016F2E0E026F740E036FF2
:100E4000780E046F740E056F3D0E066F220E076F4D
:100E5000740E086F650E096F730E0A6F740E0B6FB8
:100E60000001C351300F01010C6F0001C32B090EAB
:100E7000C36502D0000EC36F220E01010D6F0E6913
:100E80000F691069000E1F6E010E206EE1EC0DF06F
:100E900042EC0EF031EF03F0000E0001C76F31EFAE
:100EA00003F0C751000AD8B474D5010AD8B467D684
:100EB000030AD8B424D7010AD8B431EF03F0070AE3
:100EC000D8B4B2D7E9D700019F51A011A111D8A47D
:100ED00007D0000E9F6F800EA06F3F0EA16F120013
:100EE000720E1E6E310E1F6E440E206E9FC021F0DA
:100EF000A0C022F0A1C023F07CEC0CF0D8B00CD044
:100F0000000E0001BE6F220EBD6FFF0E9F6F7F0EA1
:100F1000A06F7F0EA16F12009FC01EF0A0C01FF037
:100F2000A1C020F0490E216E3A0E226EC40E236E2F
:100F30007CEC0CF0D8B00CD0000E0001BE6F220E7D
:100F4000BD6F000E9F6F000EA06F000EA16F12000C
:100F50000001A1AF02D0010E01D0000EA76FA75172
:100F6000D8B40ED09FC048F0A0C049F0A1C04AF04C
:100F70007DEC0EF048C09FF049C0A0F04AC0A1F03F
:100F80009FC04BF0A0C04CF0A1C04DF0AA0E4E6E19
:100F9000B80E4F6E3F0E506EACEC09F04BC09FF098
:100FA0004CC0A0F04DC0A1F09FC08CF0A0C08DF04F
:100FB000A1C08EF099EC0AF08CC0A2F08DC0A3F015
:100FC0008EC0A4F0A2C035F0A3C036F0A4C037F0A4
:100FD00032EC09F035C0A5F036C0A6F09FC08CF009
:100FE000A0C08DF0A1C08EF0A5C044F0A6C045F011
:100FF000C5EC0DF044C08FF045C090F046C091F0B4
:10100000A4EC0DF08CC09FF08DC0A0F08EC0A1F0BC
:101010009FC08CF0A0C08DF0A1C08EF0010E000129
:101020008F6F060E906F000E926F090E916F0AEC93
:101030000BF08CC098F08DC099F08EC09AF0A5C0CE
:101040009BF0A6C09CF077EC0BF098C09FF099C085
:10105000A0F09AC0A1F00001A751D8B425D09F29D3
:101060000EE17F0EA0190BE17F0EA119D8A407D0C5
:10107000000E9F6F000EA06F000EA16F1200000EF9
:10108000266E800E276E3F0E286E9FC029F0A0C0EE
:101090002AF0A1C02BF026EC0AF026C09FF027C052
:1010A000A0F028C0A1F012009FC09FF0A0C0A0F047
:1010B000A1C0A1F0120082C086F00001876B886B8E
:1010C0008135863701E3878186518B6F85C086F035
:1010D000876B886B8435863701E3878186518A6FF9
:1010E0008B51D8B40BD08A518B5DD8B00ED08B51B8
:1010F00000088A25866F180E866507D083C080F0A9
:1011000084C081F085C082F012008A51D8B40BD01F
:101110008B518A5DD8B00ED08A5100088B25866F1E
:10112000180E866507D080C080F081C081F082C033
:1011300082F01200060E896F82BF898F85BF898D6C
:10114000818FFF0E8017FF0E8117000E8217848F8C
:10115000FF0E8317FF0E8417000E85178A518B5DD3
:10116000D8B01BD0D8908337843785378A078B5106
:101170008A19D8B40DD0890789C086F0070E861762
:10118000D8B406D0EFD7D8908233813380338B2BFD
:101190008A518B19D8B41FD0F6D78B518A5DD8B03D
:1011A0001AD0D8908037813782378B078B518A19B4
:1011B000D8B40DD0890789C086F0070E8617D8B439
:1011C00006D0EFD7D8908533843383338A2B8A5166
:1011D0008B19D8A4F7D789AF0CD0FF0E801BFF0E58
:1011E000811BFF0E821B010E8027000E8123000E43
:1011F000822389AD0CD0FF0E831BFF0E841BFF0ED4
:10120000851B010E8327000E8423000E8523000E0C
:10121000896F80518327815184238251852385AF33
:101220000ED0FF0E831BFF0E841BFF0E851B010ECD
:101230008327000E8423000E8523010E896F83C04F
:101240001EF084C01FF085C020F08BC021F089C043
:1012500022F0DAEC0BF01EC080F01FC081F020C03D
:1012600082F0120037C039F03A6A3B6A36343936B8
:1012700001E33A803950436E4350D8A409D0000EA0
:10128000356E000E366E000E376E000E386E120090
:10129000170E396E35C03AF036C03BF037C03CF01F
:1012A00039283D6E04D0D8903C323B323A323D2E44
:1012B000FAD73A503E6E368EFF0E3516FF0E3616B2
:1012C000000E371635503F6E3650406E3750416E27
:1012D000426A8E0E435E43AE16D04350800A8F0F93
:1012E000D8B009D0000E356E000E366E000E376E87
:1012F000000E386E1200D8904232413240323F32F6
:10130000433EF9D715D0170E43640FD0000E356E4B
:10131000000E366E000E376E000E386E1200D8903A
:101320003F3640364136423643064350D8A4F7D7BD
:101330003E50D8B408D0421E411E401E3F6C000EE5
:101340004022412242223FC035F040C036F041C029
:1013500037F042C038F012004DC051F0526A536A63
:101360004C34513601E352805150546E5450D8A43D
:1013700007D0000E4B6E000E4C6E000E4D6E12002C
:1013800050C051F0526A536A4F34513601E35280D3
:101390005150596E5950D8A407D0000E4B6E000E14
:1013A0004C6E000E4D6E120059507B0F54264DC0EE
:1013B00059F05050591A800E59164C8E4F8EFF0E10
:1013C0004E16FF0E4F16000E5016000E556E000EF4
:1013D000566E000E576E070E586E4BA006D04E503C
:1013E00055264F50562250505722D8904D324C32ED
:1013F0004B32D8904E364F365036582EEED7090E17
:10140000586E4BA006D04E5055264F505622505085
:101410005722D8904D324C324B32D89057325632F8
:101420005532582EEED755C01EF056C01FF057C08B
:1014300020F054C021F059C022F0DAEC0BF01EC0AD
:101440004BF01FC04CF020C04DF0120028C02CF013
:101450002D6A2E6A27342C3601E32D802C50336EF2
:101460003350D8A407D0000E266E000E276E000E53
:10147000286E12002BC02CF02D6A2E6A2A342C36CE
:1014800001E32D802C50346E3450D8A407D0000EC8
:10149000266E000E276E000E286E1200000E306EB3
:1014A000000E316E000E326E3450890F335E28C04C
:1014B00034F02B50341A800E3416278EFF0E261669
:1014C000FF0E2716000E28162A8EFF0E2916FF0E75
:1014D0002A16000E2B16180E2F6ED8903036313685
:1014E00032362950265C2A5027582B502858D8A02D
:1014F00007D02950265E2A50275A2B50285A308070
:10150000D8902636273628362F2EE7D730C01EF043
:1015100031C01FF032C020F033C021F034C022F0BF
:10152000DAEC0BF01EC026F01FC027F020C028F018
:1015300012008CC01EF08DC01FF08EC020F0920EE5
:10154000216E000E226E06EC0DF0000193AF10D05C
:101550008EAF07D0000E8C6F800E8D6FBF0E8E6F1A
:101560001200000E8C6F000E8D6F000E8E6F120039
:10157000935104E1150E925DD8A007D08CC08CF079
:101580008DC08DF08EC08EF012008CC035F08DC0F5
:1015900036F08EC037F032EC09F035C044F036C07A
:1015A00045F037C046F038C047F042EC0DF044C07B
:1015B0008FF045C090F046C091F08CC01EF08DC0F9
:1015C0001FF08EC020F08FC021F090C022F091C09B
:1015D00023F07CEC0CF0D8B016D08FC080F090C017
:1015E00081F091C082F0000E0001836F800E846F45
:1015F000BF0E856F5BEC08F080C08CF081C08DF071
:1016000082C08EF012008FC08CF090C08DF091C01F
:101610008EF0120091C01EF092C01FF0000E216EDD
:10162000030E206E6AEC0EF08FC093F090C094F021
:101630001E50000193271F50942393C0F6FF94C0BF
:10164000F7FF0900F5CF95F00900F5CF96F00A00F5
:10165000F5CF97F040D095C04EF096C04FF097C0B0
:1016600050F08CC04BF08DC04CF08EC04DF0ACEC07
:1016700009F04BC080F04CC081F04DC082F0000EEC
:10168000216E030E206E00019107D8A0920791C031
:101690001EF092C01FF06AEC0EF08FC093F090C065
:1016A00094F01E50000193271F50942393C0F6FF1F
:1016B00094C0F7FF0900F5CF83F00900F5CF84F05F
:1016C0000A00F5CF85F05BEC08F080C095F081C092
:1016D00096F082C097F0000191519211D8A4BBD727
:1016E00095C08CF096C08DF097C08EF0120000016E
:1016F000985199119A11D8A407D0000E986F000E36
:10170000996F000E9A6F12009A517F0B9D6F9E6B1E
:10171000D8909D379E379D519B279E519C2399AF12
:1017200003D09D6B9D2B02D000019D6B9D519B278B
:10173000000E9C239CAF0BD0000EBE6F220EBD6F1F
:10174000000E986F000E996F000E9A6F12009CBFEA
:1017500015D09C05D8A012D0000EBE6F220EBD6F12
:101760009AAF06D0FF0E986F7F0E996FFF0EEDD7E0
:10177000FF0E986F7F0E996F7F0EE7D79C359C31D7
:101780009E6F9B319D6F9A519D19800B9D199A6F89
:101790009BC09DF0010E9D179D339D3399519D195E
:1017A0007F0B9D19996F98C098F099C099F09AC0D5
:1017B0009AF012002150D8B405D01E501F102010EE
:1017C000D8A40CD0000E1E6E000E1F6E000E206EF0
:1017D0001200212AD89020321F321E32000E1E1411
:1017E000236E000E1F14246EFE0E2014256E23504F
:1017F00024102510D8B40CD0ECD7212A010E1E26B7
:10180000000E1F22000E2022D89020321F321E32DE
:10181000000E1E14236E000E1F14246EFF0E2014E3
:10182000256E235024102510D8B406D0E6D7210603
:10183000D8901E361F3620361FBE03D0020E216000
:10184000F6D721A01F9ED89021322150201222507D
:10185000D8A4208E1EC01EF01FC01FF020C020F094
:101860001200FC0EF66E1A0EF76E000EF86E02EE07
:1018700000F010EE4BF00900F5CFEEFFE550E1501F
:10188000FAE1920EF66E1D0EF76E000EF86E00EE87
:10189000C8F010EE05F00900F5CFEEFFE550E1507D
:1018A000FAE1970EF66E1D0EF76E000EF86E090047
:1018B000F5CF60F00900F5CF61F003EE00F0C40E43
:1018C000EE6AE806FDE101EE00F0FC0EEE6AE806C5
:1018D000FDE100EEBDF00B0EEE6AE806FDE15F6A89
:1018E0005E6A5D6A5C6A5B6A5A6A62906292000E26
:1018F000F86E000110EF03F020AE16D01EC024F0E9
:101900001FC025F020C026F0241E251E261E242AD6
:10191000000E25222622000E24241E6E000E2520F5
:101920001F6E800E2620206E23AE16D021C024F01C
:1019300022C025F023C026F0241E251E261E242AA0
:10194000000E25222622000E2424216E000E2520C2
:10195000226E800E2620236E000E1E1A000E1F1A05
:10196000800E201A000E211A000E221A800E231A51
:1019700021501E5C22501F5823502058D8B002D04E
:10198000D8901200D8801200000E236E21AE06D02F
:10199000206C211ED8B0212A010E236E1FAE06D066
:1019A0001E6C1F1ED8B01F2A010E231A000E256EB2
:1019B000000E246E20502110D8B41CD0010E226ECF
:1019C00004D0D89020362136222A21AEFAD7D890DA
:1019D0002436253620501E5C21501F58D8A005D033
:1019E00020501E5E21501F5A2480D8902132203270
:1019F000222EEDD72350D8B404D0246C251ED8B0A5
:101A0000252A24C01EF025C01FF012001E501F10F2
:101A10002010D8A409D021C0D9FF22C0DAFF000EBF
:101A2000DE6E000EDD6E120020507F0B236E246AE6
:101A3000D8902336243621C0D9FF22C0DAFF23C034
:101A4000DEFF24C0DDFF1FAE03D0236A232A01D0AE
:101A5000236A235021C0D9FF22C0DAFFDE12000E14
:101A6000DD1221C0D9FF22C0DAFF820EDE26FF0E72
:101A7000DD2220802082208420862088208A209CCD
:101A80001F9E1200000E4D6E8E0E4C6E47AE11D092
:101A9000471E461E451E446C000E45224622472224
:101AA000010E4D6E06D0D890473246324532443250
:101AB0004C2A000E4414486E000E4514496E000E68
:101AC00046144A6EFF0E47144B6E485049104A1098
:101AD0004B10D8A4E8D744C01EF045C01FF046C044
:101AE00020F04CC021F04DC022F0DAEC0BF01EC00B
:101AF00044F01FC045F020C046F012007072676DC0
:101B000044726F69746500000000007072676D4771
:101B1000617563686500000000007072676D426C5B
:101B20006575000000000000007072676D426C6116
:101B30006E630000000000007072676D526F756781
:071B40006500000000000039
:101B480000018F5190119111D8B406D0000E8F1B4F
:101B5800000E901B800E911B8CC080F08DC081F010
:101B68008EC082F08FC083F090C084F091C085F061
:101B78005BEC08F080C08CF081C08DF082C08EF0E4
:101B88001200000E476E45AE06D0446C451ED8B014
:101B9800452A010E476E44C01EF045C01FF0206A5A
:101BA8008E0E216E47C022F0DAEC0BF01EC044F016
:101BB8001FC045F020C046F0120009D01FC0D9FF51
:101BC80020C0DAFFDF50BBEC0EF01F4A202A1FC0EE
:101BD800D9FF20C0DAFFDF50D8A4F0D7FF0EBBEC46
:101BE8000EF0FF0EBBEC0EF0FF0EBBEC0EF0120079
:101BF800226EC28022C020F020462046C250201803
:101C0800C30B2018C26EC282C2B2FED7C290C450A3
:101C1800216E206AC35020241E6E000E21201F6EE4
:101C28001200949C948EAC9CAC98AC96AC94AB9CF3
:101C3800AB88AB94AB92B89AB898B886B892B8907B
:101C4800000EB06E100EAF6E9D8A9E9AAC8AAB8E57
:101C58001200928A94869488949A898A9E969D8680
:101C6800C79EC78CC69EC698C650F00B0409C66EA0
:101C7800C68A000EC96EF28CF28E1200000E1E6E1D
:101C8800000E1E6EFB0E1E6401D012001E50010DC8
:101C9800000EF324D96E010EF420DA6E000EDF6E0A
:101CA8001E2AF0D79280928292849286C150F00BBD
:101CB8000B09C16ECF0EC116C08EC050C70B1009DC
:101CC800C06EC050F80B0109C06E12001E502002F1
:101CD800F3CF22F0F4CF23F01E502102F350232635
:101CE8001F502002F350232622C01EF023C01FF0ED
:101CF8001200485049104A10D8B406D0000E481AAD
:101D0800000E491A800E4A1A48C048F049C049F0E6
:101D18004AC04AF0120026C01EF027C01FF0206AF1
:101D28008E0E216E000E226EDAEC0BF01EC026F02D
:101D38001FC027F020C028F01200D59CD59AD5984E
:101D4800D596D594D582D580B00ED66E3C0ED76E7A
:101D5800F294D58E120004D0000E0126FF0E022246
:101D680002BE03D00204D8B0F7D7015012001E6E8D
:101D7800ACA2FED71EC0ADFF00F01200D388D38AF4
:101D8800D38C9B8CD3B41200FDD7F00090010101D5
:011D98000149
:020000040020DA
:08000000FFFFFFFFFFFFFFFF00
:020000040030CA
:0E000000FF081F1EFF8381FF0FC00FE00F409F
:00000001FF
